{
  "_format": "hh-sol-artifact-1",
  "contractName": "AgentFactoryV3",
  "sourceName": "contracts/virtualPersona/AgentFactoryV3.sol",
  "abi": [
    {
      "inputs": [],
      "stateMutability": "nonpayable",
      "type": "constructor"
    },
    {
      "inputs": [],
      "name": "AccessControlBadConfirmation",
      "type": "error"
    },
    {
      "inputs": [
        {
          "internalType": "address",
          "name": "account",
          "type": "address"
        },
        {
          "internalType": "bytes32",
          "name": "neededRole",
          "type": "bytes32"
        }
      ],
      "name": "AccessControlUnauthorizedAccount",
      "type": "error"
    },
    {
      "inputs": [],
      "name": "EnforcedPause",
      "type": "error"
    },
    {
      "inputs": [],
      "name": "ExpectedPause",
      "type": "error"
    },
    {
      "inputs": [],
      "name": "FailedDeployment",
      "type": "error"
    },
    {
      "inputs": [
        {
          "internalType": "uint256",
          "name": "balance",
          "type": "uint256"
        },
        {
          "internalType": "uint256",
          "name": "needed",
          "type": "uint256"
        }
      ],
      "name": "InsufficientBalance",
      "type": "error"
    },
    {
      "inputs": [],
      "name": "InvalidInitialization",
      "type": "error"
    },
    {
      "inputs": [],
      "name": "NotInitializing",
      "type": "error"
    },
    {
      "inputs": [
        {
          "internalType": "address",
          "name": "token",
          "type": "address"
        }
      ],
      "name": "SafeERC20FailedOperation",
      "type": "error"
    },
    {
      "anonymous": false,
      "inputs": [
        {
          "indexed": false,
          "internalType": "uint256",
          "name": "newThreshold",
          "type": "uint256"
        }
      ],
      "name": "ApplicationThresholdUpdated",
      "type": "event"
    },
    {
      "anonymous": false,
      "inputs": [
        {
          "indexed": false,
          "internalType": "address",
          "name": "newGov",
          "type": "address"
        }
      ],
      "name": "GovUpdated",
      "type": "event"
    },
    {
      "anonymous": false,
      "inputs": [
        {
          "indexed": false,
          "internalType": "address",
          "name": "token",
          "type": "address"
        },
        {
          "indexed": false,
          "internalType": "address",
          "name": "dao",
          "type": "address"
        }
      ],
      "name": "ImplContractsUpdated",
      "type": "event"
    },
    {
      "anonymous": false,
      "inputs": [
        {
          "indexed": false,
          "internalType": "uint64",
          "name": "version",
          "type": "uint64"
        }
      ],
      "name": "Initialized",
      "type": "event"
    },
    {
      "anonymous": false,
      "inputs": [
        {
          "indexed": false,
          "internalType": "uint256",
          "name": "id",
          "type": "uint256"
        }
      ],
      "name": "NewApplication",
      "type": "event"
    },
    {
      "anonymous": false,
      "inputs": [
        {
          "indexed": false,
          "internalType": "uint256",
          "name": "virtualId",
          "type": "uint256"
        },
        {
          "indexed": false,
          "internalType": "address",
          "name": "token",
          "type": "address"
        },
        {
          "indexed": false,
          "internalType": "address",
          "name": "dao",
          "type": "address"
        },
        {
          "indexed": false,
          "internalType": "address",
          "name": "tba",
          "type": "address"
        },
        {
          "indexed": false,
          "internalType": "address",
          "name": "veToken",
          "type": "address"
        },
        {
          "indexed": false,
          "internalType": "address",
          "name": "lp",
          "type": "address"
        }
      ],
      "name": "NewPersona",
      "type": "event"
    },
    {
      "anonymous": false,
      "inputs": [
        {
          "indexed": false,
          "internalType": "address",
          "name": "account",
          "type": "address"
        }
      ],
      "name": "Paused",
      "type": "event"
    },
    {
      "anonymous": false,
      "inputs": [
        {
          "indexed": true,
          "internalType": "bytes32",
          "name": "role",
          "type": "bytes32"
        },
        {
          "indexed": true,
          "internalType": "bytes32",
          "name": "previousAdminRole",
          "type": "bytes32"
        },
        {
          "indexed": true,
          "internalType": "bytes32",
          "name": "newAdminRole",
          "type": "bytes32"
        }
      ],
      "name": "RoleAdminChanged",
      "type": "event"
    },
    {
      "anonymous": false,
      "inputs": [
        {
          "indexed": true,
          "internalType": "bytes32",
          "name": "role",
          "type": "bytes32"
        },
        {
          "indexed": true,
          "internalType": "address",
          "name": "account",
          "type": "address"
        },
        {
          "indexed": true,
          "internalType": "address",
          "name": "sender",
          "type": "address"
        }
      ],
      "name": "RoleGranted",
      "type": "event"
    },
    {
      "anonymous": false,
      "inputs": [
        {
          "indexed": true,
          "internalType": "bytes32",
          "name": "role",
          "type": "bytes32"
        },
        {
          "indexed": true,
          "internalType": "address",
          "name": "account",
          "type": "address"
        },
        {
          "indexed": true,
          "internalType": "address",
          "name": "sender",
          "type": "address"
        }
      ],
      "name": "RoleRevoked",
      "type": "event"
    },
    {
      "anonymous": false,
      "inputs": [
        {
          "indexed": false,
          "internalType": "address",
          "name": "account",
          "type": "address"
        }
      ],
      "name": "Unpaused",
      "type": "event"
    },
    {
      "inputs": [],
      "name": "BONDING_ROLE",
      "outputs": [
        {
          "internalType": "bytes32",
          "name": "",
          "type": "bytes32"
        }
      ],
      "stateMutability": "view",
      "type": "function"
    },
    {
      "inputs": [],
      "name": "DEFAULT_ADMIN_ROLE",
      "outputs": [
        {
          "internalType": "bytes32",
          "name": "",
          "type": "bytes32"
        }
      ],
      "stateMutability": "view",
      "type": "function"
    },
    {
      "inputs": [],
      "name": "WITHDRAW_ROLE",
      "outputs": [
        {
          "internalType": "bytes32",
          "name": "",
          "type": "bytes32"
        }
      ],
      "stateMutability": "view",
      "type": "function"
    },
    {
      "inputs": [
        {
          "internalType": "uint256",
          "name": "",
          "type": "uint256"
        }
      ],
      "name": "allDAOs",
      "outputs": [
        {
          "internalType": "address",
          "name": "",
          "type": "address"
        }
      ],
      "stateMutability": "view",
      "type": "function"
    },
    {
      "inputs": [
        {
          "internalType": "uint256",
          "name": "",
          "type": "uint256"
        }
      ],
      "name": "allTokens",
      "outputs": [
        {
          "internalType": "address",
          "name": "",
          "type": "address"
        }
      ],
      "stateMutability": "view",
      "type": "function"
    },
    {
      "inputs": [
        {
          "internalType": "uint256",
          "name": "",
          "type": "uint256"
        }
      ],
      "name": "allTradingTokens",
      "outputs": [
        {
          "internalType": "address",
          "name": "",
          "type": "address"
        }
      ],
      "stateMutability": "view",
      "type": "function"
    },
    {
      "inputs": [],
      "name": "applicationThreshold",
      "outputs": [
        {
          "internalType": "uint256",
          "name": "",
          "type": "uint256"
        }
      ],
      "stateMutability": "view",
      "type": "function"
    },
    {
      "inputs": [],
      "name": "assetToken",
      "outputs": [
        {
          "internalType": "address",
          "name": "",
          "type": "address"
        }
      ],
      "stateMutability": "view",
      "type": "function"
    },
    {
      "inputs": [],
      "name": "daoImplementation",
      "outputs": [
        {
          "internalType": "address",
          "name": "",
          "type": "address"
        }
      ],
      "stateMutability": "view",
      "type": "function"
    },
    {
      "inputs": [],
      "name": "defaultDelegatee",
      "outputs": [
        {
          "internalType": "address",
          "name": "",
          "type": "address"
        }
      ],
      "stateMutability": "view",
      "type": "function"
    },
    {
      "inputs": [
        {
          "internalType": "uint256",
          "name": "id",
          "type": "uint256"
        },
        {
          "internalType": "bool",
          "name": "canStake",
          "type": "bool"
        }
      ],
      "name": "executeApplication",
      "outputs": [],
      "stateMutability": "nonpayable",
      "type": "function"
    },
    {
      "inputs": [
        {
          "internalType": "uint256",
          "name": "id",
          "type": "uint256"
        },
        {
          "internalType": "uint256",
          "name": "totalSupply",
          "type": "uint256"
        },
        {
          "internalType": "uint256",
          "name": "lpSupply",
          "type": "uint256"
        },
        {
          "internalType": "address",
          "name": "vault",
          "type": "address"
        }
      ],
      "name": "executeBondingCurveApplication",
      "outputs": [
        {
          "internalType": "address",
          "name": "",
          "type": "address"
        }
      ],
      "stateMutability": "nonpayable",
      "type": "function"
    },
    {
      "inputs": [
        {
          "internalType": "uint256",
          "name": "proposalId",
          "type": "uint256"
        }
      ],
      "name": "getApplication",
      "outputs": [
        {
          "components": [
            {
              "internalType": "string",
              "name": "name",
              "type": "string"
            },
            {
              "internalType": "string",
              "name": "symbol",
              "type": "string"
            },
            {
              "internalType": "string",
              "name": "tokenURI",
              "type": "string"
            },
            {
              "internalType": "enum AgentFactoryV3.ApplicationStatus",
              "name": "status",
              "type": "uint8"
            },
            {
              "internalType": "uint256",
              "name": "withdrawableAmount",
              "type": "uint256"
            },
            {
              "internalType": "address",
              "name": "proposer",
              "type": "address"
            },
            {
              "internalType": "uint8[]",
              "name": "cores",
              "type": "uint8[]"
            },
            {
              "internalType": "uint256",
              "name": "proposalEndBlock",
              "type": "uint256"
            },
            {
              "internalType": "uint256",
              "name": "virtualId",
              "type": "uint256"
            },
            {
              "internalType": "bytes32",
              "name": "tbaSalt",
              "type": "bytes32"
            },
            {
              "internalType": "address",
              "name": "tbaImplementation",
              "type": "address"
            },
            {
              "internalType": "uint32",
              "name": "daoVotingPeriod",
              "type": "uint32"
            },
            {
              "internalType": "uint256",
              "name": "daoThreshold",
              "type": "uint256"
            }
          ],
          "internalType": "struct AgentFactoryV3.Application",
          "name": "",
          "type": "tuple"
        }
      ],
      "stateMutability": "view",
      "type": "function"
    },
    {
      "inputs": [
        {
          "internalType": "bytes32",
          "name": "role",
          "type": "bytes32"
        }
      ],
      "name": "getRoleAdmin",
      "outputs": [
        {
          "internalType": "bytes32",
          "name": "",
          "type": "bytes32"
        }
      ],
      "stateMutability": "view",
      "type": "function"
    },
    {
      "inputs": [],
      "name": "gov",
      "outputs": [
        {
          "internalType": "address",
          "name": "",
          "type": "address"
        }
      ],
      "stateMutability": "view",
      "type": "function"
    },
    {
      "inputs": [
        {
          "internalType": "bytes32",
          "name": "role",
          "type": "bytes32"
        },
        {
          "internalType": "address",
          "name": "account",
          "type": "address"
        }
      ],
      "name": "grantRole",
      "outputs": [],
      "stateMutability": "nonpayable",
      "type": "function"
    },
    {
      "inputs": [
        {
          "internalType": "bytes32",
          "name": "role",
          "type": "bytes32"
        },
        {
          "internalType": "address",
          "name": "account",
          "type": "address"
        }
      ],
      "name": "hasRole",
      "outputs": [
        {
          "internalType": "bool",
          "name": "",
          "type": "bool"
        }
      ],
      "stateMutability": "view",
      "type": "function"
    },
    {
      "inputs": [
        {
          "internalType": "string",
          "name": "name",
          "type": "string"
        },
        {
          "internalType": "string",
          "name": "symbol",
          "type": "string"
        },
        {
          "internalType": "uint8[]",
          "name": "cores",
          "type": "uint8[]"
        },
        {
          "internalType": "bytes32",
          "name": "tbaSalt",
          "type": "bytes32"
        },
        {
          "internalType": "address",
          "name": "tbaImplementation",
          "type": "address"
        },
        {
          "internalType": "uint32",
          "name": "daoVotingPeriod",
          "type": "uint32"
        },
        {
          "internalType": "uint256",
          "name": "daoThreshold",
          "type": "uint256"
        },
        {
          "internalType": "uint256",
          "name": "applicationThreshold_",
          "type": "uint256"
        },
        {
          "internalType": "address",
          "name": "creator",
          "type": "address"
        }
      ],
      "name": "initFromBondingCurve",
      "outputs": [
        {
          "internalType": "uint256",
          "name": "",
          "type": "uint256"
        }
      ],
      "stateMutability": "nonpayable",
      "type": "function"
    },
    {
      "inputs": [
        {
          "internalType": "address",
          "name": "tokenImplementation_",
          "type": "address"
        },
        {
          "internalType": "address",
          "name": "veTokenImplementation_",
          "type": "address"
        },
        {
          "internalType": "address",
          "name": "daoImplementation_",
          "type": "address"
        },
        {
          "internalType": "address",
          "name": "tbaRegistry_",
          "type": "address"
        },
        {
          "internalType": "address",
          "name": "assetToken_",
          "type": "address"
        },
        {
          "internalType": "address",
          "name": "nft_",
          "type": "address"
        },
        {
          "internalType": "uint256",
          "name": "applicationThreshold_",
          "type": "uint256"
        },
        {
          "internalType": "address",
          "name": "vault_",
          "type": "address"
        },
        {
          "internalType": "uint256",
          "name": "nextId_",
          "type": "uint256"
        }
      ],
      "name": "initialize",
      "outputs": [],
      "stateMutability": "nonpayable",
      "type": "function"
    },
    {
      "inputs": [],
      "name": "maturityDuration",
      "outputs": [
        {
          "internalType": "uint256",
          "name": "",
          "type": "uint256"
        }
      ],
      "stateMutability": "view",
      "type": "function"
    },
    {
      "inputs": [],
      "name": "nft",
      "outputs": [
        {
          "internalType": "address",
          "name": "",
          "type": "address"
        }
      ],
      "stateMutability": "view",
      "type": "function"
    },
    {
      "inputs": [],
      "name": "pause",
      "outputs": [],
      "stateMutability": "nonpayable",
      "type": "function"
    },
    {
      "inputs": [],
      "name": "paused",
      "outputs": [
        {
          "internalType": "bool",
          "name": "",
          "type": "bool"
        }
      ],
      "stateMutability": "view",
      "type": "function"
    },
    {
      "inputs": [
        {
          "internalType": "string",
          "name": "name",
          "type": "string"
        },
        {
          "internalType": "string",
          "name": "symbol",
          "type": "string"
        },
        {
          "internalType": "string",
          "name": "tokenURI",
          "type": "string"
        },
        {
          "internalType": "uint8[]",
          "name": "cores",
          "type": "uint8[]"
        },
        {
          "internalType": "bytes32",
          "name": "tbaSalt",
          "type": "bytes32"
        },
        {
          "internalType": "address",
          "name": "tbaImplementation",
          "type": "address"
        },
        {
          "internalType": "uint32",
          "name": "daoVotingPeriod",
          "type": "uint32"
        },
        {
          "internalType": "uint256",
          "name": "daoThreshold",
          "type": "uint256"
        }
      ],
      "name": "proposeAgent",
      "outputs": [
        {
          "internalType": "uint256",
          "name": "",
          "type": "uint256"
        }
      ],
      "stateMutability": "nonpayable",
      "type": "function"
    },
    {
      "inputs": [
        {
          "internalType": "bytes32",
          "name": "role",
          "type": "bytes32"
        },
        {
          "internalType": "address",
          "name": "callerConfirmation",
          "type": "address"
        }
      ],
      "name": "renounceRole",
      "outputs": [],
      "stateMutability": "nonpayable",
      "type": "function"
    },
    {
      "inputs": [
        {
          "internalType": "bytes32",
          "name": "role",
          "type": "bytes32"
        },
        {
          "internalType": "address",
          "name": "account",
          "type": "address"
        }
      ],
      "name": "revokeRole",
      "outputs": [],
      "stateMutability": "nonpayable",
      "type": "function"
    },
    {
      "inputs": [
        {
          "internalType": "uint256",
          "name": "newThreshold",
          "type": "uint256"
        }
      ],
      "name": "setApplicationThreshold",
      "outputs": [],
      "stateMutability": "nonpayable",
      "type": "function"
    },
    {
      "inputs": [
        {
          "internalType": "address",
          "name": "newToken",
          "type": "address"
        }
      ],
      "name": "setAssetToken",
      "outputs": [],
      "stateMutability": "nonpayable",
      "type": "function"
    },
    {
      "inputs": [
        {
          "internalType": "address",
          "name": "newDelegatee",
          "type": "address"
        }
      ],
      "name": "setDefaultDelegatee",
      "outputs": [],
      "stateMutability": "nonpayable",
      "type": "function"
    },
    {
      "inputs": [
        {
          "internalType": "address",
          "name": "token",
          "type": "address"
        },
        {
          "internalType": "address",
          "name": "veToken",
          "type": "address"
        },
        {
          "internalType": "address",
          "name": "dao",
          "type": "address"
        }
      ],
      "name": "setImplementations",
      "outputs": [],
      "stateMutability": "nonpayable",
      "type": "function"
    },
    {
      "inputs": [
        {
          "internalType": "uint256",
          "name": "newDuration",
          "type": "uint256"
        }
      ],
      "name": "setMaturityDuration",
      "outputs": [],
      "stateMutability": "nonpayable",
      "type": "function"
    },
    {
      "inputs": [
        {
          "internalType": "address",
          "name": "newTokenAdmin",
          "type": "address"
        }
      ],
      "name": "setTokenAdmin",
      "outputs": [],
      "stateMutability": "nonpayable",
      "type": "function"
    },
    {
      "inputs": [
        {
          "internalType": "uint256",
          "name": "maxSupply",
          "type": "uint256"
        },
        {
          "internalType": "uint256",
          "name": "lpSupply",
          "type": "uint256"
        },
        {
          "internalType": "uint256",
          "name": "vaultSupply",
          "type": "uint256"
        },
        {
          "internalType": "uint256",
          "name": "maxTokensPerWallet",
          "type": "uint256"
        },
        {
          "internalType": "uint256",
          "name": "maxTokensPerTxn",
          "type": "uint256"
        },
        {
          "internalType": "uint256",
          "name": "botProtectionDurationInSeconds",
          "type": "uint256"
        },
        {
          "internalType": "address",
          "name": "vault",
          "type": "address"
        }
      ],
      "name": "setTokenSupplyParams",
      "outputs": [],
      "stateMutability": "nonpayable",
      "type": "function"
    },
    {
      "inputs": [
        {
          "internalType": "uint256",
          "name": "projectBuyTaxBasisPoints",
          "type": "uint256"
        },
        {
          "internalType": "uint256",
          "name": "projectSellTaxBasisPoints",
          "type": "uint256"
        },
        {
          "internalType": "uint256",
          "name": "taxSwapThresholdBasisPoints",
          "type": "uint256"
        },
        {
          "internalType": "address",
          "name": "projectTaxRecipient",
          "type": "address"
        }
      ],
      "name": "setTokenTaxParams",
      "outputs": [],
      "stateMutability": "nonpayable",
      "type": "function"
    },
    {
      "inputs": [
        {
          "internalType": "address",
          "name": "router",
          "type": "address"
        }
      ],
      "name": "setUniswapRouter",
      "outputs": [],
      "stateMutability": "nonpayable",
      "type": "function"
    },
    {
      "inputs": [
        {
          "internalType": "address",
          "name": "newVault",
          "type": "address"
        }
      ],
      "name": "setVault",
      "outputs": [],
      "stateMutability": "nonpayable",
      "type": "function"
    },
    {
      "inputs": [
        {
          "internalType": "bytes4",
          "name": "interfaceId",
          "type": "bytes4"
        }
      ],
      "name": "supportsInterface",
      "outputs": [
        {
          "internalType": "bool",
          "name": "",
          "type": "bool"
        }
      ],
      "stateMutability": "view",
      "type": "function"
    },
    {
      "inputs": [],
      "name": "tbaRegistry",
      "outputs": [
        {
          "internalType": "address",
          "name": "",
          "type": "address"
        }
      ],
      "stateMutability": "view",
      "type": "function"
    },
    {
      "inputs": [],
      "name": "tokenImplementation",
      "outputs": [
        {
          "internalType": "address",
          "name": "",
          "type": "address"
        }
      ],
      "stateMutability": "view",
      "type": "function"
    },
    {
      "inputs": [],
      "name": "totalAgents",
      "outputs": [
        {
          "internalType": "uint256",
          "name": "",
          "type": "uint256"
        }
      ],
      "stateMutability": "view",
      "type": "function"
    },
    {
      "inputs": [],
      "name": "unpause",
      "outputs": [],
      "stateMutability": "nonpayable",
      "type": "function"
    },
    {
      "inputs": [],
      "name": "veTokenImplementation",
      "outputs": [
        {
          "internalType": "address",
          "name": "",
          "type": "address"
        }
      ],
      "stateMutability": "view",
      "type": "function"
    },
    {
      "inputs": [
        {
          "internalType": "uint256",
          "name": "id",
          "type": "uint256"
        }
      ],
      "name": "withdraw",
      "outputs": [],
      "stateMutability": "nonpayable",
      "type": "function"
    }
  ],
  "bytecode": "0x60808060405234620000bd577ff0c57e16840df040f15088dc2f81fe391c3923bec73e23a9662efc9c229c6a009081549060ff8260401c16620000ae57506001600160401b036002600160401b03198282160162000068575b604051615c7b9081620000c38239f35b6001600160401b031990911681179091556040519081527fc7f505b2f371ae2175ee4913f4499e1f2633a7b5936321eed1cdaeb6115181d290602090a138808062000058565b63f92ee8a960e01b8152600490fd5b600080fdfe608080604052600436101561001357600080fd5b60003560e01c90816301ffc9a71461503357508063063513b7146150155780630c4cb55c14614fec5780630f07646a14614df95780631083f76114614dd057806312d43a5114614da75780631f2f4bfd1461458757806323c3159614612d83578063248a9ca314612d5457806326bde5aa14612d115780632a7d4a1f14612b6e5780632e1a7d4d14612a305780632f2ff15d146129f15780632f3a3d5d146129c85780633094afb31461298d57806336568abe146129465780633f4ba83a146128cf5780633fa2da7e146121f0578063468d198d146121c757806347ccca021461219e5780635c975abb1461216e5780635ca3cedf14611fe2578063634282af14611f875780636817031b14611f445780638456cb5914611edd57806391d1485414611e905780639300d23814611e255780639cbe0bac14611dfc5780639d69932614611dd35780639d7b684214611d905780639e4ec30a14611688578063a217fddf1461166c578063aa3d000a1461045e578063b4136bd814610403578063bd1cf258146103b7578063bea9849e14610374578063c505371214610356578063d547741f14610315578063d739ac29146102f4578063ddf44275146102d6578063e02023a11461029b578063e887b1cc146102405763f7457594146101f857600080fd5b3461023b57602036600319011261023b57610211615086565b61021961582d565b601280546001600160a01b0319166001600160a01b0392909216919091179055005b600080fd5b3461023b57602036600319011261023b57600435600e5481101561023b57600e6000527fbb7b4a454dc3493923482f07822329ed19e8244eff582cc204f8554c3620c3fd01546040516001600160a01b039091168152602090f35b3461023b57600036600319011261023b5760206040517f5d8e12c39142ff96d79d04d15d1ba1269e4fe57bb9d26f43523628b34ba108ec8152f35b3461023b57600036600319011261023b576020600654604051908152f35b3461023b57602036600319011261023b5761030d61582d565b600435600a55005b3461023b57604036600319011261023b5761035460043561033461509c565b9080600052600060205261034f600160406000200154615867565b61595f565b005b3461023b57600036600319011261023b576020600754604051908152f35b3461023b57602036600319011261023b5761038d615086565b61039561582d565b600f80546001600160a01b0319166001600160a01b0392909216919091179055005b3461023b57602036600319011261023b577fcfa33021ab0175831433b2f3bd8eeb24a22f5ae53ca0e660a246811754f9e34a60206004356103f661582d565b80600655604051908152a1005b3461023b57602036600319011261023b5760043560085481101561023b5760086000527ff3f7a9fe364faab93b216da50a3214154f22a0a2b415b23a84c8169e8b636ee301546040516001600160a01b039091168152602090f35b3461023b57604036600319011261023b57602435801515810361023b57600d5461048e60ff8260a01c161561546b565b60ff60a01b1916600160a01b17600d556004356000908152600b6020526040902060050154336001600160a01b0391909116148015611634575b6104d19061550f565b6040516014548160006104e3836152db565b808352926001811690811561161557506001146115b4575b610507925003826151e3565b600091600435600052600b60205260ff60036040600020015416600381101561159e57610534901561554a565b6012546001600160a01b03161561156357600435600052600b6020526040600020600481019260008454945560038201600160ff19825416179055604051906105888261058181866153c9565b03836151e3565b6040519061059d8261058181600188016153c9565b6e5af43d82803e903d91602b57fd5bf3600254763d602d80600a3d3981f3363d3d373d3d3d363d7300000062ffffff8260881c16176000526001600160781b03199060781b1617602052603760096000f0926001600160a01b038416156113f45761067561065591610667604051956106158761517e565b6012546001600160a01b039081168852600f5481166020808a01919091526009549091166040808a019190915280519182015294859360608501906150f4565b838103601f19016040850152906150f4565b03601f1981018352826151e3565b6001600160a01b0384163b1561023b57604051634258efa960e11b8152928391906000600484015b60038210611540575050506106ea6106d96000946106c7859460c0606487015260c48601906150f4565b848103600319016084860152906150f4565b8281036003190160a4840152615315565b0381836001600160a01b0387165af1801561153457611520575b5061070e81615a87565b60405163d6efd7c360e01b815285816004816001600160a01b0386165afa90811561151557869161145a575b5080511561144657602001516009546001600160a01b0391821695610763929091849116615910565b6001600160a01b0381163b156113f057604051631672aef960e21b815230600482015285908181602481836001600160a01b0388165af18015610e4b57611432575b50506040519266029ba30b5b2b2160cd1b60208501526107da846107cc602782018661588d565b03601f1981018652856151e3565b60405190607360f81b602083015261080a826107fc602182016001880161588d565b03601f1981018452836151e3565b6005840154601054608881901c62ffffff16763d602d80600a3d3981f3363d3d373d3d3d363d7300000017895260781b6001600160781b0319166e5af43d82803e903d91602b57fd5bf3176020526001600160a01b03166037600989f0956001600160a01b038716156113f457600a5442019182421161141e576004548a95946001600160a01b03918216949392918a163b1561141a5786946108cd946108df604051988997889763b2193b4d60e01b895260e060048a015260e48901906150f4565b878103600319016024890152906150f4565b6044860194909452606485018d9052608485015260a4840152151560c48301520381836001600160a01b038a165af18015610e4b57611406575b505061092483615b01565b6040519061095460048361093b602082018761588d565b632044414f60e01b815203601b198101855201836151e3565b63ffffffff600a84015460a01c16600b8401546e5af43d82803e903d91602b57fd5bf3600354763d602d80600a3d3981f3363d3d373d3d3d363d7300000062ffffff8260881c16178a526001600160781b03199060781b16176020526037600989f0936001600160a01b038516156113f45760045489936001600160a01b0391821692909187163b156113f0578492610a0a926040519586948594631c63df3560e21b865260a0600487015260a48601906150f4565b9260018060a01b038d16602486015260448501526064840152608483015203818360018060a01b0389165af18015610e4b576113d8575b5050610a4c82615b65565b60018060a01b03600454169560405196632fd77c0d60e11b8852602088600481845afa978815610e4b5782986113a4575b50600d546005860154604051631f889aa560e11b8152600481018b90526001600160a01b0392831660248201526101006044820152929116908290610ac9610104830160028a016153c9565b6001600160a01b038816606484015260848301939093528183036003190160a48301526006880180548085529086526020808720940193869182915b81601f8401106112055795859392849260209854918181106111f3575b8181106111dd575b8181106111c7575b8181106111b1575b81811061119d575b818110611187575b818110611171575b81811061115b575b818110611145575b81811061112f575b818110611119575b818110611103575b8181106110ed575b8181106110d7575b8181106110c1575b8181106110ab575b818110611095575b81811061107f575b818110611069575b818110611053575b81811061103d575b818110611027575b818110611011575b818110610ffb575b818110610fe5575b818110610fcf575b818110610fb9575b818110610fa3575b818110610f8d575b818110610f77575b818110610f61575b10610f54575b5060c482018e90526001600160a01b038a1660e483015203925af18015610e4b57610f29575b5060088401879055600554600a850154600986015460048054604051638a54c52f60e01b81526001600160a01b039485169281019290925260248201929092524660448201529082166064820152608481018a90529591602091879160a49183918791165af1948515610e4b578295610eed575b506004546001600160a01b0316803b15610ecd5760405163190b373360e31b8152600481018a90526001600160a01b03871660248201529083908290604490829084905af18015610e8e57908391610ed9575b505060405163095ea7b360e01b81526001600160a01b03871660048201526000196024820152602081604481868c5af18015610e8e57610e99575b506040516370a0823160e01b8152306004820152906020826024818b5afa918215610e8e578392610e5a575b50600501546013546001600160a01b039081169181169088163b15610e565760405163a7d545db60e01b81526004810193909352602483015260448201528181606481836001600160a01b038b165af18015610e4b57610e34575b604080518981526001600160a01b038086166020830152808716928201929092528187166060820152908716608082015260a081018890527ff9d151d23a5253296eb20ab40959cf48828ea2732d337416716e302ed83ca6589060c090a1600d805460ff60a01b19169055005b610e3e8291615199565b610e485780610dc7565b80fd5b6040513d84823e3d90fd5b8380fd5b9091506020813d602011610e86575b81610e76602093836151e3565b8101031261023b57519089610d6c565b3d9150610e69565b6040513d85823e3d90fd5b6020813d602011610ed1575b81610eb2602093836151e3565b81010312610ecd575180151503610ec95788610d40565b5080fd5b8280fd5b3d9150610ea5565b610ee290615199565b610ec9578189610d05565b9094506020813d602011610f21575b81610f09602093836151e3565b81010312610ec957610f1a906154a8565b9388610cb2565b3d9150610efc565b602090813d8311610f4d575b610f3f81836151e3565b8101031261023b5787610c3e565b503d610f35565b60f81c815286018f610c18565b928960019160ff8560f01c168152019301610c12565b928960019160ff8560e81c168152019301610c0a565b928960019160ff8560e01c168152019301610c02565b928960019160ff8560d81c168152019301610bfa565b928960019160ff8560d01c168152019301610bf2565b928960019160ff8560c81c168152019301610bea565b928960019160ff8560c01c168152019301610be2565b928960019160ff8560b81c168152019301610bda565b928960019160ff8560b01c168152019301610bd2565b928960019160ff8560a81c168152019301610bca565b928960019160ff8560a01c168152019301610bc2565b928960019160ff8560981c168152019301610bba565b928960019160ff8560901c168152019301610bb2565b928960019160ff8560881c168152019301610baa565b928960019160ff8560801c168152019301610ba2565b928960019160ff8560781c168152019301610b9a565b928960019160ff8560701c168152019301610b92565b928960019160ff8560681c168152019301610b8a565b928960019160ff8560601c168152019301610b82565b928960019160ff8560581c168152019301610b7a565b928960019160ff8560501c168152019301610b72565b928960019160ff8560481c168152019301610b6a565b928960019160ff8560401c168152019301610b62565b928960019160ff8560381c168152019301610b5a565b928960019160ff8560301c168152019301610b52565b928960019160ff8560281c168152019301610b4a565b828a1c60ff16845292890192600101610b42565b928960019160ff8560181c168152019301610b3a565b928960019160ff8560101c168152019301610b32565b928960019160ff8560081c168152019301610b2a565b60ff8316845292890192600101610b22565b9450915091936001610400602092865460ff8116825260ff8160081c168583015260ff8160101c16604083015260ff8160181c16606083015260ff8160808282891c1681860152828260281c1660a0860152828260301c1660c0860152828260381c1660e0860152828260401c16610100860152828260481c16610120860152828260501c16610140860152828260581c16610160860152828260601c16610180860152828260681c166101a0860152828260701c166101c0860152828260781c166101e08601521c1661020083015260ff8160881c1661022083015260ff8160901c1661024083015260ff8160981c1661026083015260ff8160a01c1661028083015260ff8160a81c166102a083015260ff8160b01c166102c083015260ff8160b81c166102e083015260ff8160c01c1661030083015260ff8160c81c1661032083015260ff8160d01c1661034083015260ff8160d81c1661036083015260ff8160e01c1661038083015260ff8160e81c166103a083015260ff8160f01c166103c083015260f81c6103e08201520194019201869186949593610b05565b9097506020813d6020116113d0575b816113c0602093836151e3565b8101031261023b57519688610a7d565b3d91506113b3565b6113e190615199565b6113ec578587610a41565b8580fd5b8480fd5b60405163b06ebf3d60e01b8152600490fd5b61140f90615199565b6113f0578486610919565b8680fd5b634e487b7160e01b8a52601160045260248afd5b61143b90615199565b6113f05784866107a5565b634e487b7160e01b86526032600452602486fd5b90503d8087833e61146b81836151e3565b602082828101031261141a578151906001600160401b03821161151157808301601f8385010112156115115781830151916114a58361525a565b936114b360405195866151e3565b8385526020850192810160208560051b84840101011161150d5780820160200192915b60208560051b828401010184106114f25750505050508661073a565b6020808094611500876154a8565b81520194019392506114d6565b8980fd5b8780fd5b6040513d88823e3d90fd5b61152b919550615199565b60009385610704565b6040513d6000823e3d90fd5b82516001600160a01b03168152869450602092830192600192909201910161069d565b60405162461bcd60e51b8152602060048201526013602482015272151bdad95b8818591b5a5b881b9bdd081cd95d606a1b6044820152606490fd5b634e487b7160e01b600052602160045260246000fd5b509060146000527fce6d7b5282bd9a3661ae061feed1dbda4e52ab073b1f9285be6e155d9c38d4ec906000915b8183106115f9575050906020610507928201016104fb565b60209193508060019154838588010152019101909183926115e1565b6020925061050794915060ff191682840152151560051b8201016104fb565b503360009081527f20be27040b8e00df40bca0df34743417f3574a156386188f7d7f14369e5ee82b602052604090205460ff166104c8565b3461023b57600036600319011261023b57602060405160008152f35b3461023b5761010036600319011261023b576004356001600160401b03811161023b576116b9903690600401615204565b6024356001600160401b03811161023b576116d8903690600401615204565b6044356001600160401b03811161023b576116f7903690600401615204565b906064356001600160401b03811161023b57611717903690600401615271565b61171f6150de565b60c4359163ffffffff8316830361023b576117386159d4565b6009546040516370a0823160e01b81523360048201526001600160a01b039091169490602081602481895afa90811561153457600091611d5e575b50611783600654809210156155ae565b604051636eb1769f60e11b81523360048201523060248201526020816044818a5afa90811561153457600091611d26575b509063ffffffff966117cb826117e09410156155fa565b6117d785511515615651565b309033906159ff565b600154956117ed87615696565b60015560065491604051986118018a615162565b8952602089015260408801526000606088015260808701523360a087015260c08601524360e0860152600061010086015260843561012086015260018060a01b03166101408501521661016083015260e43561018083015280600052600b602052604060002082519283516001600160401b038111611bbe5761188e8161188885546152db565b856154d3565b6020601f8211600114611cbd5781906118c193949596600092611bd4575b50508160011b916000199060031b1c19161790565b82555b60208101519283516001600160401b038111611bbe576118f4816118eb60018701546152db565b600187016154d3565b6020601f8211600114611c4e57819061192693949596600092611bd45750508160011b916000199060031b1c19161790565b60018401555b60408201519283516001600160401b038111611bbe5761195c8161195360028501546152db565b600285016154d3565b6020601f8211600114611bdf57819061198e93949596600092611bd45750508160011b916000199060031b1c19161790565b60028201555b6060830151600381101561159e576119af9060038301615596565b608083015160048201556005810160018060a01b0360a0850151166001600160601b0360a01b82541617905560c0830151928351936001600160401b038511611bbe57600160401b8511611bbe576020906006840154866006860155808710611b6f575b5001936006830160005260206000209060005b8160051c8110611b2f5750601f198116808203611ad6575b60208686600b6101808860e0810151600785015561010081015160088501556101208101516009850155600a840160018060a01b036101408301511681549063ffffffff60a01b61016085015160a01b16916001600160401b0360c01b161717905501519101557f0ff47c4a3dc48719ecfd1876116e80d7d76ec7cb67248ae49449f9104747af2982604051838152a1604051908152f35b9560009660005b8184038110611aff5750505060051c0193909355602092610180600b86611a3e565b9091976020611b256001928460ff8d5116919060ff809160031b9316831b921b19161790565b9901929101611add565b6000805b60208110611b48575083820155600101611a26565b885190989160019160209160ff60038d901b81811b199092169216901b1792019801611b33565b611b9e906006860160005283600020601f808a0160051c820192818b1680611ba4575b500160051c01906154bc565b86611a13565b60001990818601918254918a0360031b1c1690558b611b92565b634e487b7160e01b600052604160045260246000fd5b0151905086806118ac565b6002830160005260206000209060005b601f1984168110611c36575060019394959683601f19811610611c1d575b505050811b016002820155611994565b015160001960f88460031b161c19169055858080611c0d565b9091602060018192858b015181550193019101611bef565b6001850160005260206000209060005b601f1984168110611ca5575060019394959683601f19811610611c8c575b505050811b01600184015561192c565b015160001960f88460031b161c19169055858080611c7c565b9091602060018192858b015181550193019101611c5e565b8360005260206000209060005b601f1984168110611d0e575060019394959683601f19811610611cf5575b505050811b0182556118c4565b015160001960f88460031b161c19169055858080611ce8565b9091602060018192858b015181550193019101611cca565b9190506020823d602011611d56575b81611d42602093836151e3565b8101031261023b57905163ffffffff6117b4565b3d9150611d35565b90506020813d602011611d88575b81611d79602093836151e3565b8101031261023b575188611773565b3d9150611d6c565b3461023b57602036600319011261023b57611da9615086565b611db161582d565b601380546001600160a01b0319166001600160a01b0392909216919091179055005b3461023b57600036600319011261023b576003546040516001600160a01b039091168152602090f35b3461023b57600036600319011261023b576010546040516001600160a01b039091168152602090f35b3461023b57606036600319011261023b57611e3e615086565b611e4661509c565b611e4e6150b2565b90611e5761582d565b60018060a01b038092816001600160601b0360a01b95168560025416176002551683600354161760035516906010541617601055600080f35b3461023b57604036600319011261023b57611ea961509c565b600435600052600060205260406000209060018060a01b0316600052602052602060ff604060002054166040519015158152f35b3461023b57600036600319011261023b57611ef661582d565b611efe6159d4565b600080516020615c26833981519152600160ff198254161790557f62e78cea01bee320cd4e420270b5ea74000d11b0c9f74754ebdbfc544b05a2586020604051338152a1005b3461023b57602036600319011261023b57611f5d615086565b611f6561582d565b600d80546001600160a01b0319166001600160a01b0392909216919091179055005b3461023b57602036600319011261023b5760043560075481101561023b5760076000527fa66cc928b5edb82af9bd49922954155ab7b0942694bea4ce44661d9a8736c68801546040516001600160a01b039091168152602090f35b3461023b57611ff036615134565b90611ffc93929361582d565b6040519360209360208601526040850152606084015260018060a01b031660808301526080825261202c826151c8565b8151906001600160401b038211611bbe576120486015546152db565b601f8111612114575b50602090601f831160011461209357508190612083936000926120885750508160011b916000199060031b1c19161790565b601555005b0151905083806118ac565b90601f1983169360156000527f55f448fdea98c4d29eb340757ef0a66cd03dbb9538908a6a81d96026b71ec475926000905b8682106120fc57505083600195106120e3575b505050811b01601555005b015160001960f88460031b161c191690558280806120d8565b806001859682949686015181550195019301906120c5565b61215e9060156000527f55f448fdea98c4d29eb340757ef0a66cd03dbb9538908a6a81d96026b71ec475601f850160051c81019160208610612164575b601f0160051c01906154bc565b83612051565b9091508190612151565b3461023b57600036600319011261023b57602060ff600080516020615c2683398151915254166040519015158152f35b3461023b57600036600319011261023b576004546040516001600160a01b039091168152602090f35b3461023b57600036600319011261023b576005546040516001600160a01b039091168152602090f35b3461023b5761012036600319011261023b576004356001600160401b03811161023b57612221903690600401615204565b6024356001600160401b03811161023b57612240903690600401615204565b6044356001600160401b03811161023b5761225f903690600401615271565b6122676150c8565b60a4359063ffffffff8216820361023b5761010435926001600160a01b038416840361023b576122956159d4565b61229d6157b3565b6009546040516370a0823160e01b81523360048201526001600160a01b0390911690602081602481855afa80156115345760009061289b575b6122e5915060e43511156155ae565b604051636eb1769f60e11b815233600482015230602482015290602082604481845afa91821561153457600092612865575b506123296123429260e43511156155fa565b61233583511515615651565b60e43590309033906159ff565b6001549461234f86615696565b6001556040519661235f88615162565b87526020870152604051938460208101106001600160401b03602087011117611bbe5784602063ffffffff96016040526000815260408801526000606088015260e435608088015260018060a01b031660a087015260c08601524360e0860152600061010086015260643561012086015260018060a01b03166101408501521661016083015260c43561018083015280600052600b602052604060002082519283516001600160401b038111611bbe5761241d8161188885546152db565b6020601f82116001146127fc57819061244f93949596600092611bd45750508160011b916000199060031b1c19161790565b82555b60208101519283516001600160401b038111611bbe57612479816118eb60018701546152db565b6020601f821160011461278d5781906124ab93949596600092611bd45750508160011b916000199060031b1c19161790565b60018401555b60408201519283516001600160401b038111611bbe576124d88161195360028501546152db565b6020601f821160011461271e57819061250a93949596600092611bd45750508160011b916000199060031b1c19161790565b60028201555b6060830151600381101561159e5761252b9060038301615596565b608083015160048201556005810160018060a01b0360a0850151166001600160601b0360a01b82541617905560c0830151928351936001600160401b038511611bbe57600160401b8511611bbe5760209060068401548660068601558087106126ea575b5001936006830160005260206000209060005b8160051c81106126aa5750601f1981168082036126515760208686600b6101808860e0810151600785015561010081015160088501556101208101516009850155600a840160018060a01b036101408301511681549063ffffffff60a01b61016085015160a01b16916001600160401b0360c01b161717905501519101557f0ff47c4a3dc48719ecfd1876116e80d7d76ec7cb67248ae49449f9104747af2982604051838152a1604051908152f35b9560009660005b818403811061267a5750505060051c0193909355602092610180600b86611a3e565b90919760206126a06001928460ff8d5116919060ff809160031b9316831b921b19161790565b9901929101612658565b6000805b602081106126c35750838201556001016125a2565b885190989160019160209160ff60038d901b81811b199092169216901b17920198016126ae565b612718906006860160005283600020601f808a0160051c820192818b1680611ba457500160051c01906154bc565b8661258f565b6002830160005260206000209060005b601f1984168110612775575060019394959683601f1981161061275c575b505050811b016002820155612510565b015160001960f88460031b161c1916905585808061274c565b9091602060018192858b01518155019301910161272e565b6001850160005260206000209060005b601f19841681106127e4575060019394959683601f198116106127cb575b505050811b0160018401556124b1565b015160001960f88460031b161c191690558580806127bb565b9091602060018192858b01518155019301910161279d565b8360005260206000209060005b601f198416811061284d575060019394959683601f19811610612834575b505050811b018255612452565b015160001960f88460031b161c19169055858080612827565b9091602060018192858b015181550193019101612809565b91506020823d602011612893575b81612880602093836151e3565b8101031261023b57905190612329612317565b3d9150612873565b506020813d6020116128c7575b816128b5602093836151e3565b8101031261023b576122e590516122d6565b3d91506128a8565b3461023b57600036600319011261023b576128e861582d565b600080516020615c26833981519152805460ff8116156129345760ff191690557f5db9ee0a495bf2e6ff9c91a7834c1ba4fdd244a5e8aa4e537bd38aeae4b073aa6020604051338152a1005b604051638dfc202b60e01b8152600490fd5b3461023b57604036600319011261023b5761295f61509c565b336001600160a01b0382160361297b576103549060043561595f565b60405163334bd91960e11b8152600490fd5b3461023b57600036600319011261023b5760206040517f360f1ba4dc07a42c6671063d838f69946ccc4187f391399e06fd8ed4605900f38152f35b3461023b57600036600319011261023b576002546040516001600160a01b039091168152602090f35b3461023b57604036600319011261023b57610354600435612a1061509c565b90806000526000602052612a2b600160406000200154615867565b615735565b3461023b57602036600319011261023b57600d54612a5460ff8260a01c161561546b565b60ff60a01b19908116600160a01b17600d556004356000908152600b6020526040902060058101546001600160a01b039081163381148015612b36575b612a9a9061550f565b600383019182549260ff8416600381101561159e57612ab9901561554a565b6007850154431115612af15760026004612ae596019460008654965560ff191617905560095416615910565b600d5416600d55600080f35b60405162461bcd60e51b815260206004820152601e60248201527f4170706c69636174696f6e206973206e6f74206d6174757265642079657400006044820152606490fd5b503360009081527f20be27040b8e00df40bca0df34743417f3574a156386188f7d7f14369e5ee82b602052604090205460ff16612a91565b3461023b5760e036600319011261023b5760c4356001600160a01b0381169081900361023b57612b9c61582d565b60405190602090600435602084015260243560408401526044356060840152606435608084015260843560a084015260a43560c084015260e083015260e08252612be5826151ac565b8151906001600160401b038211611bbe57612c016014546152db565b601f8111612cc2575b50602090601f8311600114612c4157508190612c3c936000926120885750508160011b916000199060031b1c19161790565b601455005b90601f1983169360146000527fce6d7b5282bd9a3661ae061feed1dbda4e52ab073b1f9285be6e155d9c38d4ec926000905b868210612caa5750508360019510612c91575b505050811b01601455005b015160001960f88460031b161c19169055828080612c86565b80600185968294968601518155019501930190612c73565b612d0b9060146000527fce6d7b5282bd9a3661ae061feed1dbda4e52ab073b1f9285be6e155d9c38d4ec601f850160051c8101916020861061216457601f0160051c01906154bc565b83612c0a565b3461023b57602036600319011261023b57612d2a615086565b612d3261582d565b600980546001600160a01b0319166001600160a01b0392909216919091179055005b3461023b57602036600319011261023b5760043560005260006020526020600160406000200154604051908152f35b3461023b57612d9136615134565b9091612d9b6157b3565b600d54612dae60ff8260a01c161561546b565b60ff60a01b1916600160a01b17600d5582810381811161457157604051938260208601526040850152606084015280608084015260a0830152600060c083015260018060a01b031660e082015260e08152612e08816151ac565b60009082600052600b60205260ff60036040600020015416600381101561159e57612e33901561554a565b6012546001600160a01b0316156115635782600052600b602052604060002090600482019160008354935560038101600160ff1982541617905560405191612e8683612e7f81856153c9565b03846151e3565b60405190612e9b8261058181600187016153c9565b6e5af43d82803e903d91602b57fd5bf3600254763d602d80600a3d3981f3363d3d373d3d3d363d7300000062ffffff8260881c16176000526001600160781b03199060781b1617602052603760096000f0936001600160a01b038516156113f457612f1361065591610667604051956106158761517e565b6001600160a01b0385163b1561023b57604051634258efa960e11b8152928391906000600484015b6003821061454e57505050612f656106d96000946106c7859460c0606487015260c48601906150f4565b0381836001600160a01b0388165af180156115345761453a575b50612f8982615a87565b60405163d6efd7c360e01b815284816004816001600160a01b0387165afa908115614463578591614482575b5080511561446e57602001516009546001600160a01b0391821694612fde929091859116615910565b6001600160a01b0382163b15610e5657604051631672aef960e21b81523060048201528481602481836001600160a01b0388165af180156144635790859161444f575b50506040519166029ba30b5b2b2160cd1b602084015261305683613048602782018561588d565b03601f1981018552846151e3565b604051607360f81b602082015261307781610667602182016001870161588d565b6005830154601054608881901c62ffffff16763d602d80600a3d3981f3363d3d373d3d3d363d7300000017885260781b6001600160781b0319166e5af43d82803e903d91602b57fd5bf3176020526001600160a01b0316936037600988f0946001600160a01b038616156113f457600a54420180421161443b576004546001600160a01b03908116919088163b1561150d579189939161313793613149604051978896879663b2193b4d60e01b885260e0600489015260e48801906150f4565b868103600319016024880152906150f4565b6044850193909352606484018b9052608484015260a4830152600160c48301520381836001600160a01b0389165af1801561151557908691614427575b505061319183615b01565b604051906131a860048361093b602082018761588d565b63ffffffff600a84015460a01c1691600b840154906e5af43d82803e903d91602b57fd5bf3600354763d602d80600a3d3981f3363d3d373d3d3d363d7300000062ffffff8260881c16178a526001600160781b03199060781b16176020526037600989f0936001600160a01b038516156113f4576004546001600160a01b03908116919086163b1561150d579161325e918a936040519586948594631c63df3560e21b865260a0600487015260a48601906150f4565b9260018060a01b038c16602486015260448501526064840152608483015203818360018060a01b0388165af1801561441c57908791614408575b50506132a382615b65565b60018060a01b03600454169560405196632fd77c0d60e11b8852602088600481845afa978815610e4b5782986143d4575b50600d546005860154604051631f889aa560e11b8152600481018b90526001600160a01b0392831660248201526101006044820152929116908290613320610104830160028a016153c9565b6001600160a01b038816606484015260848301939093528183036003190160a48301526006880180548085529086526020808720940193869182915b81601f840110614228579585939284926020985491818110614216575b818110614200575b8181106141ea575b8181106141d4575b8181106141c0575b8181106141aa575b818110614194575b81811061417e575b818110614168575b818110614152575b81811061413c575b818110614126575b818110614110575b8181106140fa575b8181106140e4575b8181106140ce575b8181106140b8575b8181106140a2575b81811061408c575b818110614076575b818110614060575b81811061404a575b818110614034575b81811061401e575b818110614008575b818110613ff2575b818110613fdc575b818110613fc6575b818110613fb0575b818110613f9a575b818110613f84575b10613f77575b5060c482018e90526001600160a01b038a1660e483015203925af18015610e4b57613f4c575b5060088401879055600554600a850154600986015460048054604051638a54c52f60e01b81526001600160a01b039485169281019290925260248201929092524660448201529082166064820152608481018a90529591602091879160a49183918791165af1948515610e4b578295613f10575b506004546001600160a01b0316803b15610ecd5760405163190b373360e31b8152600481018a90526001600160a01b03871660248201529083908290604490829084905af18015610e8e57908391613efc575b505060405163095ea7b360e01b81526001600160a01b03871660048201526000196024820152602081604481868c5af18015610e8e57613ec4575b506040516370a0823160e01b8152306004820152906020826024818b5afa918215610e8e578392613e90575b50600501546013546001600160a01b039081169181169088163b15610e565760405163a7d545db60e01b81526004810193909352602483015260448201528181606481836001600160a01b038b165af18015610e4b57613e7c575b5050604080519687526001600160a01b03918216602088015291811691860191909152908116606085015216608083015260a08201527ff9d151d23a5253296eb20ab40959cf48828ea2732d337416716e302ed83ca6589060c090a1600052600b602052604060002060405161369381615162565b6040516136ab816136a481866153c9565b03826151e3565b81526040516136c1816136a481600187016153c9565b60208201526040516136da816136a481600287016153c9565b60408201526136f360ff6003840154166060830161545f565b6004820154608082015260058201546001600160a01b031660a082015260405160068301805480835260009182526020808320928492918301915b80601f830110613cd457613844945491818110613cc0575b818110613ca9575b818110613c92575b818110613c7b575b818110613c65575b818110613c4e575b818110613c37575b818110613c20575b818110613c09575b818110613bf2575b818110613bdb575b818110613bc4575b818110613bad575b818110613b96575b818110613b7f575b818110613b68575b818110613b51575b818110613b3a575b818110613b23575b818110613b0c575b818110613af5575b818110613ade575b818110613ac7575b818110613ab0575b818110613a99575b818110613a82575b818110613a6b575b818110613a54575b818110613a3d575b818110613a26575b818110613a0f575b10613a01575b5003826151e3565b60c0820152600782015460e0820152610180600b60088401549384610100850152600981015461012085015263ffffffff600a82015460018060a01b03811661014087015260a01c166101608501520154910152600060018060a01b036004541691602460405180948193635652386760e11b835260048301525afa8015611534576000906138f3575b602090810151600d805460ff60a01b191690556040516001600160a01b039091168152f35b503d806000833e61390481836151e3565b81019060208183031261023b5780516001600160401b039182821161023b57019060a08284031261023b576040519160a0830183811083821117611bbe5760405261394e816154a8565b835261395c602082016154a8565b602084015261396d604082016154a8565b604084015261397e606082016154a8565b6060840152608081015191821161023b570182601f8201121561023b578051926139a78461525a565b916139b560405193846151e3565b84835260208084019560051b82010191821161023b57602001935b8185106139e75750506020925060808201526138ce565b845160ff8116810361023b578152602094850194016139d0565b60f81c81526020018661383c565b92602060019160ff8560f01c168152019301613836565b92602060019160ff8560e81c16815201930161382e565b92602060019160ff8560e01c168152019301613826565b92602060019160ff8560d81c16815201930161381e565b92602060019160ff8560d01c168152019301613816565b92602060019160ff8560c81c16815201930161380e565b92602060019160ff8560c01c168152019301613806565b92602060019160ff8560b81c1681520193016137fe565b92602060019160ff8560b01c1681520193016137f6565b92602060019160ff8560a81c1681520193016137ee565b92602060019160ff8560a01c1681520193016137e6565b92602060019160ff8560981c1681520193016137de565b92602060019160ff8560901c1681520193016137d6565b92602060019160ff8560881c1681520193016137ce565b92602060019160ff8560801c1681520193016137c6565b92602060019160ff8560781c1681520193016137be565b92602060019160ff8560701c1681520193016137b6565b92602060019160ff8560681c1681520193016137ae565b92602060019160ff8560601c1681520193016137a6565b92602060019160ff8560581c16815201930161379e565b92602060019160ff8560501c168152019301613796565b92602060019160ff8560481c16815201930161378e565b92602060019160ff8560401c168152019301613786565b92602060019160ff8560381c16815201930161377e565b92602060019160ff8560301c168152019301613776565b92602060019160ff8560281c16815201930161376e565b92602060019160ff85831c168152019301613766565b92602060019160ff8560181c16815201930161375e565b92602060019160ff8560101c168152019301613756565b92602060019160ff8560081c16815201930161374e565b92602060019160ff85168152019301613746565b916020919350610400600191865460ff8116825260ff8160081c168583015260ff8160101c16604083015260ff8160181c16606083015260ff81861c16608083015260ff8160281c1660a083015260ff8160301c1660c083015260ff8160381c1660e083015260ff8160401c1661010083015260ff8160481c1661012083015260ff8160501c1661014083015260ff8160581c1661016083015260ff8160601c1661018083015260ff8160681c166101a083015260ff8160701c166101c083015260ff8160781c166101e083015260ff8160801c1661020083015260ff8160881c1661022083015260ff8160901c1661024083015260ff8160981c1661026083015260ff8160a01c1661028083015260ff8160a81c166102a083015260ff8160b01c166102c083015260ff8160b81c166102e083015260ff8160c01c1661030083015260ff8160c81c1661032083015260ff8160d01c1661034083015260ff8160d81c1661036083015260ff8160e01c1661038083015260ff8160e81c166103a083015260ff8160f01c166103c083015260f81c6103e082015201940192018492939161372e565b613e868291615199565b610e48578061361e565b9091506020813d602011613ebc575b81613eac602093836151e3565b8101031261023b5751908a6135c3565b3d9150613e9f565b6020813d602011613ef4575b81613edd602093836151e3565b81010312610ecd575180151503610ec95789613597565b3d9150613ed0565b613f0590615199565b610ec957818a61355c565b9094506020813d602011613f44575b81613f2c602093836151e3565b81010312610ec957613f3d906154a8565b9389613509565b3d9150613f1f565b602090813d8311613f70575b613f6281836151e3565b8101031261023b5788613495565b503d613f58565b60f81c815286013861346f565b928960019160ff8560f01c168152019301613469565b928960019160ff8560e81c168152019301613461565b928960019160ff8560e01c168152019301613459565b928960019160ff8560d81c168152019301613451565b928960019160ff8560d01c168152019301613449565b928960019160ff8560c81c168152019301613441565b928960019160ff8560c01c168152019301613439565b928960019160ff8560b81c168152019301613431565b928960019160ff8560b01c168152019301613429565b928960019160ff8560a81c168152019301613421565b928960019160ff8560a01c168152019301613419565b928960019160ff8560981c168152019301613411565b928960019160ff8560901c168152019301613409565b928960019160ff8560881c168152019301613401565b928960019160ff8560801c1681520193016133f9565b928960019160ff8560781c1681520193016133f1565b928960019160ff8560701c1681520193016133e9565b928960019160ff8560681c1681520193016133e1565b928960019160ff8560601c1681520193016133d9565b928960019160ff8560581c1681520193016133d1565b928960019160ff8560501c1681520193016133c9565b928960019160ff8560481c1681520193016133c1565b928960019160ff8560401c1681520193016133b9565b928960019160ff8560381c1681520193016133b1565b928960019160ff8560301c1681520193016133a9565b928960019160ff8560281c1681520193016133a1565b828a1c60ff16845292890192600101613399565b928960019160ff8560181c168152019301613391565b928960019160ff8560101c168152019301613389565b928960019160ff8560081c168152019301613381565b60ff8316845292890192600101613379565b9450915091936001610400602092865460ff8116825260ff8160081c168583015260ff8160101c16604083015260ff8160181c16606083015260ff81861c16608083015260ff8160281c1660a083015260ff8160301c1660c083015260ff8160381c1660e083015260ff8160401c1661010083015260ff8160481c1661012083015260ff8160501c1661014083015260ff8160581c1661016083015260ff8160601c1661018083015260ff8160681c166101a083015260ff8160701c166101c083015260ff8160781c166101e083015260ff8160801c1661020083015260ff8160881c1661022083015260ff8160901c1661024083015260ff8160981c1661026083015260ff8160a01c1661028083015260ff8160a81c166102a083015260ff8160b01c166102c083015260ff8160b81c166102e083015260ff8160c01c1661030083015260ff8160c81c1661032083015260ff8160d01c1661034083015260ff8160d81c1661036083015260ff8160e01c1661038083015260ff8160e81c166103a083015260ff8160f01c166103c083015260f81c6103e0820152019401920186918694959361335c565b9097506020813d602011614400575b816143f0602093836151e3565b8101031261023b575196896132d4565b3d91506143e3565b61441190615199565b6113ec578588613298565b6040513d89823e3d90fd5b61443090615199565b6113f0578487613186565b634e487b7160e01b89526011600452602489fd5b61445890615199565b610e56578386613021565b6040513d87823e3d90fd5b634e487b7160e01b85526032600452602485fd5b3d91508186823e61449382826151e3565b60208183810103126113ec578051916001600160401b03831161141a57808201601f84840101121561141a5782820151916144cd8361525a565b936144db60405195866151e3565b8385526020850192820160208560051b838501010111614536579190602083820101925b60208560051b8284010101841061451b57505050505086612fb5565b6020808094614529876154a8565b81520194019392506144ff565b8880fd5b614545919450615199565b60009285612f7f565b82516001600160a01b031681528694506020928301926001929092019101612f3b565b634e487b7160e01b600052601160045260246000fd5b3461023b57602036600319011261023b5760006101806040516145a981615162565b6060815260606020820152606060408201528260608201528260808201528260a0820152606060c08201528260e0820152826101008201528261012082015282610140820152826101608201520152600435600052600b602052604060002060405161461481615162565b604051614625816136a481866153c9565b815260405161463b816136a481600187016153c9565b6020820152604051614654816136a481600287016153c9565b604082015261466d60ff6003840154166060830161545f565b6004820154608082015260058201546001600160a01b031660a08201526040516006830180548083526000918252602080832090840195939291905b81601f840110614c0557956147c5928492600b97985491818110614bf1575b818110614bda575b818110614bc3575b818110614bac575b818110614b96575b818110614b7f575b818110614b68575b818110614b51575b818110614b3a575b818110614b23575b818110614b0c575b818110614af5575b818110614ade575b818110614ac7575b818110614ab0575b818110614a99575b818110614a82575b818110614a6b575b818110614a54575b818110614a3d575b818110614a26575b818110614a0f575b8181106149f8575b8181106149e1575b8181106149ca575b8181106149b3575b81811061499c575b818110614985575b81811061496e575b818110614957575b818110614940575b10614932575003826151e3565b60c0840152600781015460e08401526008810154610100840152600981015461012084015263ffffffff600a82015460018060a01b03811661014086015260a01c1661016084015201546101808201526040516020815261486661485061483a84516101a060208601526101c08501906150f4565b6020850151848203601f190160408601526150f4565b6040840151838203601f190160608501526150f4565b6060830151600381101561159e576080830152608083015160a083015260018060a01b0360a08401511660c083015260c083015190601f198382030160e08401526020808351928381520192019060005b818110614919575050506101808360e08495015161010085015261010081015161012085015261012081015161014085015260018060a01b036101408201511661016085015263ffffffff610160820151168285015201516101a08301520390f35b825160ff168452602093840193909201916001016148b7565b60f81c81526020018761383c565b92602060019160ff8560f01c1681520193016147b8565b92602060019160ff8560e81c1681520193016147b0565b92602060019160ff8560e01c1681520193016147a8565b92602060019160ff8560d81c1681520193016147a0565b92602060019160ff8560d01c168152019301614798565b92602060019160ff8560c81c168152019301614790565b92602060019160ff8560c01c168152019301614788565b92602060019160ff8560b81c168152019301614780565b92602060019160ff8560b01c168152019301614778565b92602060019160ff8560a81c168152019301614770565b92602060019160ff8560a01c168152019301614768565b92602060019160ff8560981c168152019301614760565b92602060019160ff8560901c168152019301614758565b92602060019160ff8560881c168152019301614750565b92602060019160ff8560801c168152019301614748565b92602060019160ff8560781c168152019301614740565b92602060019160ff8560701c168152019301614738565b92602060019160ff8560681c168152019301614730565b92602060019160ff8560601c168152019301614728565b92602060019160ff8560581c168152019301614720565b92602060019160ff8560501c168152019301614718565b92602060019160ff8560481c168152019301614710565b92602060019160ff8560401c168152019301614708565b92602060019160ff8560381c168152019301614700565b92602060019160ff8560301c1681520193016146f8565b92602060019160ff8560281c1681520193016146f0565b92602060019160ff85831c1681520193016146e8565b92602060019160ff8560181c1681520193016146e0565b92602060019160ff8560101c1681520193016146d8565b92602060019160ff8560081c1681520193016146d0565b92602060019160ff851681520193016146c8565b956001610400602092895460ff8116825260ff8160081c168583015260ff8160101c16604083015260ff8160181c16606083015260ff81861c16608083015260ff8160281c1660a083015260ff8160301c1660c083015260ff8160381c1660e083015260ff8160401c1661010083015260ff8160481c1661012083015260ff8160501c1661014083015260ff8160581c1661016083015260ff8160601c1661018083015260ff8160681c166101a083015260ff8160701c166101c083015260ff8160781c166101e083015260ff8160801c1661020083015260ff8160881c1661022083015260ff8160901c1661024083015260ff8160981c1661026083015260ff8160a01c1661028083015260ff8160a81c166102a083015260ff8160b01c166102c083015260ff8160b81c166102e083015260ff8160c01c1661030083015260ff8160c81c1661032083015260ff8160d01c1661034083015260ff8160d81c1661036083015260ff8160e01c1661038083015260ff8160e81c166103a083015260ff8160f01c166103c083015260f81c6103e08201520197019201916146a9565b3461023b57600036600319011261023b57600c546040516001600160a01b039091168152602090f35b3461023b57600036600319011261023b576009546040516001600160a01b039091168152602090f35b3461023b5761012036600319011261023b57614e13615086565b614e1b61509c565b614e236150b2565b906064359260018060a01b0380851680950361023b57614e416150c8565b94614e4a6150de565b9060e4359483861680960361023b577ff0c57e16840df040f15088dc2f81fe391c3923bec73e23a9662efc9c229c6a009788549160ff8360401c1615986001600160401b03841680159081614fe4575b6001149081614fda575b159081614fd1575b50614fbf5767ffffffffffffffff1984166001178b558693849283918c614fa0575b50614ed7615a46565b614edf615a46565b600080516020615c2683398151915260ff198154169055816001600160601b0360a01b9a168a60025416176002551688601054161760105516866003541617600355168460095416176009558360055416176005551681600454161760045560c43560065561010435600155614f54336156a5565b50600d541617600d55614f6357005b68ff00000000000000001981541690557fc7f505b2f371ae2175ee4913f4499e1f2633a7b5936321eed1cdaeb6115181d2602060405160018152a1005b68ffffffffffffffffff191668010000000000000001178d558d614ece565b60405163f92ee8a960e01b8152600490fd5b9050158c614eac565b303b159150614ea4565b8b9150614e9a565b3461023b57600036600319011261023b576013546040516001600160a01b039091168152602090f35b3461023b57600036600319011261023b576020600a54604051908152f35b3461023b57602036600319011261023b576004359063ffffffff60e01b821680920361023b57602091637965db0b60e01b8114908115615075575b5015158152f35b6301ffc9a760e01b1490508361506e565b600435906001600160a01b038216820361023b57565b602435906001600160a01b038216820361023b57565b604435906001600160a01b038216820361023b57565b608435906001600160a01b038216820361023b57565b60a435906001600160a01b038216820361023b57565b919082519283825260005b848110615120575050826000602080949584010152601f8019910116010190565b6020818301810151848301820152016150ff565b608090600319011261023b576004359060243590604435906064356001600160a01b038116810361023b5790565b6101a081019081106001600160401b03821117611bbe57604052565b606081019081106001600160401b03821117611bbe57604052565b6001600160401b038111611bbe57604052565b61010081019081106001600160401b03821117611bbe57604052565b60a081019081106001600160401b03821117611bbe57604052565b90601f801991011681019081106001600160401b03821117611bbe57604052565b81601f8201121561023b578035906001600160401b038211611bbe5760405192615238601f8401601f1916602001856151e3565b8284526020838301011161023b57816000926020809301838601378301015290565b6001600160401b038111611bbe5760051b60200190565b9080601f8301121561023b57602090823561528b8161525a565b9361529960405195866151e3565b81855260208086019260051b82010192831161023b57602001905b8282106152c2575050505090565b813560ff8116810361023b5781529083019083016152b4565b90600182811c9216801561530b575b60208310146152f557565b634e487b7160e01b600052602260045260246000fd5b91607f16916152ea565b60155460009291615325826152db565b808252916020906001908181169081156153a45750600114615348575b50505050565b9293945060156000527f55f448fdea98c4d29eb340757ef0a66cd03dbb9538908a6a81d96026b71ec475926000935b858510615391575050506020925001019038808080615342565b8054858501840152938201938101615377565b92505050602093945060ff929192191683830152151560051b01019038808080615342565b8054600093926153d8826152db565b9182825260209360019160018116908160001461544057506001146153ff575b5050505050565b90939495506000929192528360002092846000945b83861061542c575050505001019038808080806153f8565b805485870183015294019385908201615414565b60ff19168685015250505090151560051b0101915038808080806153f8565b600382101561159e5752565b1561547257565b60405162461bcd60e51b815260206004820152600e60248201526d31b0b73737ba103932b2b73a32b960911b6044820152606490fd5b51906001600160a01b038216820361023b57565b8181106154c7575050565b600081556001016154bc565b9190601f81116154e257505050565b61550d926000526020600020906020601f840160051c8301931061216457601f0160051c01906154bc565b565b1561551657565b60405162461bcd60e51b815260206004820152600c60248201526b2737ba10383937b837b9b2b960a11b6044820152606490fd5b1561555157565b60405162461bcd60e51b815260206004820152601960248201527f4170706c69636174696f6e206973206e6f7420616374697665000000000000006044820152606490fd5b90600381101561159e5760ff80198354169116179055565b156155b557565b60405162461bcd60e51b815260206004820152601860248201527f496e73756666696369656e7420617373657420746f6b656e00000000000000006044820152606490fd5b1561560157565b60405162461bcd60e51b815260206004820152602260248201527f496e73756666696369656e7420617373657420746f6b656e20616c6c6f77616e604482015261636560f01b6064820152608490fd5b1561565857565b60405162461bcd60e51b815260206004820152601660248201527510dbdc995cc81b5d5cdd081899481c1c9bdd9a59195960521b6044820152606490fd5b60001981146145715760010190565b6001600160a01b031660008181527fad3228b676f7d3cd4284a5443f17f1962b36e491b30a40b2405849e597ba5fb5602052604081205490919060ff1661573157818052816020526040822081835260205260408220600160ff1982541617905533917f2f8788117e7eff1d82e926ec794901d17c78024a50270940304540a733656f0d8180a4600190565b5090565b9060009180835282602052604083209160018060a01b03169182845260205260ff604084205416156000146157ae57808352826020526040832082845260205260408320600160ff198254161790557f2f8788117e7eff1d82e926ec794901d17c78024a50270940304540a733656f0d339380a4600190565b505090565b3360009081527f47fa3846800aa0e8a0094e76ddd8b6215145788c21499f1987cd67ad6fc4181060205260409020547f360f1ba4dc07a42c6671063d838f69946ccc4187f391399e06fd8ed4605900f39060ff161561580f5750565b6044906040519063e2517d3f60e01b82523360048301526024820152fd5b3360009081527fad3228b676f7d3cd4284a5443f17f1962b36e491b30a40b2405849e597ba5fb5602052604081205460ff161561580f5750565b80600052600060205260406000203360005260205260ff604060002054161561580f5750565b60009291815461589c816152db565b926001918083169081156158f557506001146158b85750505050565b9091929394506000526020906020600020906000915b8583106158e45750505050019038808080615342565b8054858401529183019181016158ce565b60ff1916845250505081151590910201915038808080615342565b60405163a9059cbb60e01b60208201526001600160a01b03909216602483015260448083019390935291815260808101916001600160401b03831182841017611bbe5761550d92604052615bc9565b9060009180835282602052604083209160018060a01b03169182845260205260ff6040842054166000146157ae5780835282602052604083208284526020526040832060ff1981541690557ff6391f5c32d9c69d2a47ea670b442974b53935d1edc7fd64eb21e047a839171b339380a4600190565b60ff600080516020615c2683398151915254166159ed57565b60405163d93c066560e01b8152600490fd5b6040516323b872dd60e01b60208201526001600160a01b03928316602482015292909116604483015260648083019390935291815261550d91615a41826151c8565b615bc9565b60ff7ff0c57e16840df040f15088dc2f81fe391c3923bec73e23a9662efc9c229c6a005460401c1615615a7557565b604051631afcd79f60e31b8152600490fd5b600e54600160401b811015611bbe576001810180600e55811015615aeb57600e6000527fbb7b4a454dc3493923482f07822329ed19e8244eff582cc204f8554c3620c3fd0180546001600160a01b0319166001600160a01b03909216919091179055565b634e487b7160e01b600052603260045260246000fd5b600754600160401b811015611bbe576001810180600755811015615aeb5760076000527fa66cc928b5edb82af9bd49922954155ab7b0942694bea4ce44661d9a8736c6880180546001600160a01b0319166001600160a01b03909216919091179055565b600854600160401b811015611bbe576001810180600855811015615aeb5760086000527ff3f7a9fe364faab93b216da50a3214154f22a0a2b415b23a84c8169e8b636ee30180546001600160a01b0319166001600160a01b03909216919091179055565b906000602091828151910182855af115611534576000513d615c1c57506001600160a01b0381163b155b615bfa5750565b604051635274afe760e01b81526001600160a01b039091166004820152602490fd5b60011415615bf356fecd5ed15c6e187e77e9aee88184c21f4f2182ab5827cb3b7e07fbedcd63f03300a26469706673582212201d5b5255fba881327ed0cd70a7814abae58201b34c9e7eab380544608144ff4964736f6c63430008160033",
  "linkReferences": {},
  "deployedLinkReferences": {}
}