{
  "_format": "hh-sol-artifact-1",
  "contractName": "AgentFactoryV4",
  "sourceName": "contracts/virtualPersona/AgentFactoryV4.sol",
  "abi": [
    {
      "inputs": [],
      "stateMutability": "nonpayable",
      "type": "constructor"
    },
    {
      "inputs": [],
      "name": "AccessControlBadConfirmation",
      "type": "error"
    },
    {
      "inputs": [
        {
          "internalType": "address",
          "name": "account",
          "type": "address"
        },
        {
          "internalType": "bytes32",
          "name": "neededRole",
          "type": "bytes32"
        }
      ],
      "name": "AccessControlUnauthorizedAccount",
      "type": "error"
    },
    {
      "inputs": [],
      "name": "EnforcedPause",
      "type": "error"
    },
    {
      "inputs": [],
      "name": "ExpectedPause",
      "type": "error"
    },
    {
      "inputs": [],
      "name": "FailedDeployment",
      "type": "error"
    },
    {
      "inputs": [
        {
          "internalType": "uint256",
          "name": "balance",
          "type": "uint256"
        },
        {
          "internalType": "uint256",
          "name": "needed",
          "type": "uint256"
        }
      ],
      "name": "InsufficientBalance",
      "type": "error"
    },
    {
      "inputs": [],
      "name": "InvalidInitialization",
      "type": "error"
    },
    {
      "inputs": [],
      "name": "NotInitializing",
      "type": "error"
    },
    {
      "inputs": [
        {
          "internalType": "address",
          "name": "token",
          "type": "address"
        }
      ],
      "name": "SafeERC20FailedOperation",
      "type": "error"
    },
    {
      "anonymous": false,
      "inputs": [
        {
          "indexed": false,
          "internalType": "uint256",
          "name": "newThreshold",
          "type": "uint256"
        }
      ],
      "name": "ApplicationThresholdUpdated",
      "type": "event"
    },
    {
      "anonymous": false,
      "inputs": [
        {
          "indexed": false,
          "internalType": "address",
          "name": "newGov",
          "type": "address"
        }
      ],
      "name": "GovUpdated",
      "type": "event"
    },
    {
      "anonymous": false,
      "inputs": [
        {
          "indexed": false,
          "internalType": "address",
          "name": "token",
          "type": "address"
        },
        {
          "indexed": false,
          "internalType": "address",
          "name": "dao",
          "type": "address"
        }
      ],
      "name": "ImplContractsUpdated",
      "type": "event"
    },
    {
      "anonymous": false,
      "inputs": [
        {
          "indexed": false,
          "internalType": "uint64",
          "name": "version",
          "type": "uint64"
        }
      ],
      "name": "Initialized",
      "type": "event"
    },
    {
      "anonymous": false,
      "inputs": [
        {
          "indexed": false,
          "internalType": "uint256",
          "name": "id",
          "type": "uint256"
        }
      ],
      "name": "NewApplication",
      "type": "event"
    },
    {
      "anonymous": false,
      "inputs": [
        {
          "indexed": false,
          "internalType": "uint256",
          "name": "virtualId",
          "type": "uint256"
        },
        {
          "indexed": false,
          "internalType": "address",
          "name": "token",
          "type": "address"
        },
        {
          "indexed": false,
          "internalType": "address",
          "name": "dao",
          "type": "address"
        },
        {
          "indexed": false,
          "internalType": "address",
          "name": "tba",
          "type": "address"
        },
        {
          "indexed": false,
          "internalType": "address",
          "name": "veToken",
          "type": "address"
        },
        {
          "indexed": false,
          "internalType": "address",
          "name": "lp",
          "type": "address"
        }
      ],
      "name": "NewPersona",
      "type": "event"
    },
    {
      "anonymous": false,
      "inputs": [
        {
          "indexed": false,
          "internalType": "address",
          "name": "account",
          "type": "address"
        }
      ],
      "name": "Paused",
      "type": "event"
    },
    {
      "anonymous": false,
      "inputs": [
        {
          "indexed": true,
          "internalType": "bytes32",
          "name": "role",
          "type": "bytes32"
        },
        {
          "indexed": true,
          "internalType": "bytes32",
          "name": "previousAdminRole",
          "type": "bytes32"
        },
        {
          "indexed": true,
          "internalType": "bytes32",
          "name": "newAdminRole",
          "type": "bytes32"
        }
      ],
      "name": "RoleAdminChanged",
      "type": "event"
    },
    {
      "anonymous": false,
      "inputs": [
        {
          "indexed": true,
          "internalType": "bytes32",
          "name": "role",
          "type": "bytes32"
        },
        {
          "indexed": true,
          "internalType": "address",
          "name": "account",
          "type": "address"
        },
        {
          "indexed": true,
          "internalType": "address",
          "name": "sender",
          "type": "address"
        }
      ],
      "name": "RoleGranted",
      "type": "event"
    },
    {
      "anonymous": false,
      "inputs": [
        {
          "indexed": true,
          "internalType": "bytes32",
          "name": "role",
          "type": "bytes32"
        },
        {
          "indexed": true,
          "internalType": "address",
          "name": "account",
          "type": "address"
        },
        {
          "indexed": true,
          "internalType": "address",
          "name": "sender",
          "type": "address"
        }
      ],
      "name": "RoleRevoked",
      "type": "event"
    },
    {
      "anonymous": false,
      "inputs": [
        {
          "indexed": false,
          "internalType": "address",
          "name": "account",
          "type": "address"
        }
      ],
      "name": "Unpaused",
      "type": "event"
    },
    {
      "inputs": [],
      "name": "DEFAULT_ADMIN_ROLE",
      "outputs": [
        {
          "internalType": "bytes32",
          "name": "",
          "type": "bytes32"
        }
      ],
      "stateMutability": "view",
      "type": "function"
    },
    {
      "inputs": [],
      "name": "WITHDRAW_ROLE",
      "outputs": [
        {
          "internalType": "bytes32",
          "name": "",
          "type": "bytes32"
        }
      ],
      "stateMutability": "view",
      "type": "function"
    },
    {
      "inputs": [
        {
          "internalType": "uint256",
          "name": "",
          "type": "uint256"
        }
      ],
      "name": "allDAOs",
      "outputs": [
        {
          "internalType": "address",
          "name": "",
          "type": "address"
        }
      ],
      "stateMutability": "view",
      "type": "function"
    },
    {
      "inputs": [
        {
          "internalType": "uint256",
          "name": "",
          "type": "uint256"
        }
      ],
      "name": "allTokens",
      "outputs": [
        {
          "internalType": "address",
          "name": "",
          "type": "address"
        }
      ],
      "stateMutability": "view",
      "type": "function"
    },
    {
      "inputs": [
        {
          "internalType": "uint256",
          "name": "",
          "type": "uint256"
        }
      ],
      "name": "allTradingTokens",
      "outputs": [
        {
          "internalType": "address",
          "name": "",
          "type": "address"
        }
      ],
      "stateMutability": "view",
      "type": "function"
    },
    {
      "inputs": [],
      "name": "applicationThreshold",
      "outputs": [
        {
          "internalType": "uint256",
          "name": "",
          "type": "uint256"
        }
      ],
      "stateMutability": "view",
      "type": "function"
    },
    {
      "inputs": [],
      "name": "assetToken",
      "outputs": [
        {
          "internalType": "address",
          "name": "",
          "type": "address"
        }
      ],
      "stateMutability": "view",
      "type": "function"
    },
    {
      "inputs": [],
      "name": "daoImplementation",
      "outputs": [
        {
          "internalType": "address",
          "name": "",
          "type": "address"
        }
      ],
      "stateMutability": "view",
      "type": "function"
    },
    {
      "inputs": [],
      "name": "defaultDelegatee",
      "outputs": [
        {
          "internalType": "address",
          "name": "",
          "type": "address"
        }
      ],
      "stateMutability": "view",
      "type": "function"
    },
    {
      "inputs": [
        {
          "internalType": "uint256",
          "name": "id",
          "type": "uint256"
        },
        {
          "internalType": "bool",
          "name": "canStake",
          "type": "bool"
        }
      ],
      "name": "executeApplication",
      "outputs": [],
      "stateMutability": "nonpayable",
      "type": "function"
    },
    {
      "inputs": [
        {
          "internalType": "uint256",
          "name": "id",
          "type": "uint256"
        },
        {
          "internalType": "bool",
          "name": "canStake",
          "type": "bool"
        }
      ],
      "name": "executeTokenApplication",
      "outputs": [],
      "stateMutability": "nonpayable",
      "type": "function"
    },
    {
      "inputs": [
        {
          "internalType": "uint256",
          "name": "proposalId",
          "type": "uint256"
        }
      ],
      "name": "getApplication",
      "outputs": [
        {
          "components": [
            {
              "internalType": "string",
              "name": "name",
              "type": "string"
            },
            {
              "internalType": "string",
              "name": "symbol",
              "type": "string"
            },
            {
              "internalType": "string",
              "name": "tokenURI",
              "type": "string"
            },
            {
              "internalType": "enum AgentFactoryV4.ApplicationStatus",
              "name": "status",
              "type": "uint8"
            },
            {
              "internalType": "uint256",
              "name": "withdrawableAmount",
              "type": "uint256"
            },
            {
              "internalType": "address",
              "name": "proposer",
              "type": "address"
            },
            {
              "internalType": "uint8[]",
              "name": "cores",
              "type": "uint8[]"
            },
            {
              "internalType": "uint256",
              "name": "proposalEndBlock",
              "type": "uint256"
            },
            {
              "internalType": "uint256",
              "name": "virtualId",
              "type": "uint256"
            },
            {
              "internalType": "bytes32",
              "name": "tbaSalt",
              "type": "bytes32"
            },
            {
              "internalType": "address",
              "name": "tbaImplementation",
              "type": "address"
            },
            {
              "internalType": "uint32",
              "name": "daoVotingPeriod",
              "type": "uint32"
            },
            {
              "internalType": "uint256",
              "name": "daoThreshold",
              "type": "uint256"
            }
          ],
          "internalType": "struct AgentFactoryV4.Application",
          "name": "",
          "type": "tuple"
        }
      ],
      "stateMutability": "view",
      "type": "function"
    },
    {
      "inputs": [
        {
          "internalType": "bytes32",
          "name": "role",
          "type": "bytes32"
        }
      ],
      "name": "getRoleAdmin",
      "outputs": [
        {
          "internalType": "bytes32",
          "name": "",
          "type": "bytes32"
        }
      ],
      "stateMutability": "view",
      "type": "function"
    },
    {
      "inputs": [
        {
          "internalType": "bytes32",
          "name": "role",
          "type": "bytes32"
        },
        {
          "internalType": "address",
          "name": "account",
          "type": "address"
        }
      ],
      "name": "grantRole",
      "outputs": [],
      "stateMutability": "nonpayable",
      "type": "function"
    },
    {
      "inputs": [
        {
          "internalType": "bytes32",
          "name": "role",
          "type": "bytes32"
        },
        {
          "internalType": "address",
          "name": "account",
          "type": "address"
        }
      ],
      "name": "hasRole",
      "outputs": [
        {
          "internalType": "bool",
          "name": "",
          "type": "bool"
        }
      ],
      "stateMutability": "view",
      "type": "function"
    },
    {
      "inputs": [
        {
          "internalType": "address",
          "name": "tokenAddr",
          "type": "address"
        },
        {
          "internalType": "uint8[]",
          "name": "cores",
          "type": "uint8[]"
        },
        {
          "internalType": "bytes32",
          "name": "tbaSalt",
          "type": "bytes32"
        },
        {
          "internalType": "address",
          "name": "tbaImplementation",
          "type": "address"
        },
        {
          "internalType": "uint32",
          "name": "daoVotingPeriod",
          "type": "uint32"
        },
        {
          "internalType": "uint256",
          "name": "daoThreshold",
          "type": "uint256"
        },
        {
          "internalType": "uint256",
          "name": "initialLP",
          "type": "uint256"
        }
      ],
      "name": "initFromToken",
      "outputs": [
        {
          "internalType": "uint256",
          "name": "",
          "type": "uint256"
        }
      ],
      "stateMutability": "nonpayable",
      "type": "function"
    },
    {
      "inputs": [
        {
          "internalType": "address",
          "name": "tokenImplementation_",
          "type": "address"
        },
        {
          "internalType": "address",
          "name": "veTokenImplementation_",
          "type": "address"
        },
        {
          "internalType": "address",
          "name": "daoImplementation_",
          "type": "address"
        },
        {
          "internalType": "address",
          "name": "tbaRegistry_",
          "type": "address"
        },
        {
          "internalType": "address",
          "name": "assetToken_",
          "type": "address"
        },
        {
          "internalType": "address",
          "name": "nft_",
          "type": "address"
        },
        {
          "internalType": "uint256",
          "name": "applicationThreshold_",
          "type": "uint256"
        },
        {
          "internalType": "address",
          "name": "vault_",
          "type": "address"
        },
        {
          "internalType": "uint256",
          "name": "nextId_",
          "type": "uint256"
        }
      ],
      "name": "initialize",
      "outputs": [],
      "stateMutability": "nonpayable",
      "type": "function"
    },
    {
      "inputs": [
        {
          "internalType": "address",
          "name": "tokenAddr",
          "type": "address"
        }
      ],
      "name": "isCompatibleToken",
      "outputs": [
        {
          "internalType": "bool",
          "name": "",
          "type": "bool"
        }
      ],
      "stateMutability": "view",
      "type": "function"
    },
    {
      "inputs": [],
      "name": "maturityDuration",
      "outputs": [
        {
          "internalType": "uint256",
          "name": "",
          "type": "uint256"
        }
      ],
      "stateMutability": "view",
      "type": "function"
    },
    {
      "inputs": [],
      "name": "nft",
      "outputs": [
        {
          "internalType": "address",
          "name": "",
          "type": "address"
        }
      ],
      "stateMutability": "view",
      "type": "function"
    },
    {
      "inputs": [],
      "name": "pause",
      "outputs": [],
      "stateMutability": "nonpayable",
      "type": "function"
    },
    {
      "inputs": [],
      "name": "paused",
      "outputs": [
        {
          "internalType": "bool",
          "name": "",
          "type": "bool"
        }
      ],
      "stateMutability": "view",
      "type": "function"
    },
    {
      "inputs": [
        {
          "internalType": "string",
          "name": "name",
          "type": "string"
        },
        {
          "internalType": "string",
          "name": "symbol",
          "type": "string"
        },
        {
          "internalType": "string",
          "name": "tokenURI",
          "type": "string"
        },
        {
          "internalType": "uint8[]",
          "name": "cores",
          "type": "uint8[]"
        },
        {
          "internalType": "bytes32",
          "name": "tbaSalt",
          "type": "bytes32"
        },
        {
          "internalType": "address",
          "name": "tbaImplementation",
          "type": "address"
        },
        {
          "internalType": "uint32",
          "name": "daoVotingPeriod",
          "type": "uint32"
        },
        {
          "internalType": "uint256",
          "name": "daoThreshold",
          "type": "uint256"
        }
      ],
      "name": "proposeAgent",
      "outputs": [
        {
          "internalType": "uint256",
          "name": "",
          "type": "uint256"
        }
      ],
      "stateMutability": "nonpayable",
      "type": "function"
    },
    {
      "inputs": [
        {
          "internalType": "bytes32",
          "name": "role",
          "type": "bytes32"
        },
        {
          "internalType": "address",
          "name": "callerConfirmation",
          "type": "address"
        }
      ],
      "name": "renounceRole",
      "outputs": [],
      "stateMutability": "nonpayable",
      "type": "function"
    },
    {
      "inputs": [
        {
          "internalType": "bytes32",
          "name": "role",
          "type": "bytes32"
        },
        {
          "internalType": "address",
          "name": "account",
          "type": "address"
        }
      ],
      "name": "revokeRole",
      "outputs": [],
      "stateMutability": "nonpayable",
      "type": "function"
    },
    {
      "inputs": [
        {
          "internalType": "uint256",
          "name": "newThreshold",
          "type": "uint256"
        }
      ],
      "name": "setApplicationThreshold",
      "outputs": [],
      "stateMutability": "nonpayable",
      "type": "function"
    },
    {
      "inputs": [
        {
          "internalType": "address",
          "name": "newToken",
          "type": "address"
        }
      ],
      "name": "setAssetToken",
      "outputs": [],
      "stateMutability": "nonpayable",
      "type": "function"
    },
    {
      "inputs": [
        {
          "internalType": "address",
          "name": "newDelegatee",
          "type": "address"
        }
      ],
      "name": "setDefaultDelegatee",
      "outputs": [],
      "stateMutability": "nonpayable",
      "type": "function"
    },
    {
      "inputs": [
        {
          "internalType": "address",
          "name": "token",
          "type": "address"
        },
        {
          "internalType": "address",
          "name": "veToken",
          "type": "address"
        },
        {
          "internalType": "address",
          "name": "dao",
          "type": "address"
        }
      ],
      "name": "setImplementations",
      "outputs": [],
      "stateMutability": "nonpayable",
      "type": "function"
    },
    {
      "inputs": [
        {
          "internalType": "uint256",
          "name": "newDuration",
          "type": "uint256"
        }
      ],
      "name": "setMaturityDuration",
      "outputs": [],
      "stateMutability": "nonpayable",
      "type": "function"
    },
    {
      "inputs": [
        {
          "internalType": "address",
          "name": "newTokenAdmin",
          "type": "address"
        }
      ],
      "name": "setTokenAdmin",
      "outputs": [],
      "stateMutability": "nonpayable",
      "type": "function"
    },
    {
      "inputs": [
        {
          "internalType": "uint256",
          "name": "maxSupply",
          "type": "uint256"
        },
        {
          "internalType": "uint256",
          "name": "lpSupply",
          "type": "uint256"
        },
        {
          "internalType": "uint256",
          "name": "vaultSupply",
          "type": "uint256"
        },
        {
          "internalType": "uint256",
          "name": "maxTokensPerWallet",
          "type": "uint256"
        },
        {
          "internalType": "uint256",
          "name": "maxTokensPerTxn",
          "type": "uint256"
        },
        {
          "internalType": "uint256",
          "name": "botProtectionDurationInSeconds",
          "type": "uint256"
        },
        {
          "internalType": "address",
          "name": "vault",
          "type": "address"
        }
      ],
      "name": "setTokenSupplyParams",
      "outputs": [],
      "stateMutability": "nonpayable",
      "type": "function"
    },
    {
      "inputs": [
        {
          "internalType": "uint256",
          "name": "projectBuyTaxBasisPoints",
          "type": "uint256"
        },
        {
          "internalType": "uint256",
          "name": "projectSellTaxBasisPoints",
          "type": "uint256"
        },
        {
          "internalType": "uint256",
          "name": "taxSwapThresholdBasisPoints",
          "type": "uint256"
        },
        {
          "internalType": "address",
          "name": "projectTaxRecipient",
          "type": "address"
        }
      ],
      "name": "setTokenTaxParams",
      "outputs": [],
      "stateMutability": "nonpayable",
      "type": "function"
    },
    {
      "inputs": [
        {
          "internalType": "address",
          "name": "router",
          "type": "address"
        }
      ],
      "name": "setUniswapRouter",
      "outputs": [],
      "stateMutability": "nonpayable",
      "type": "function"
    },
    {
      "inputs": [
        {
          "internalType": "address",
          "name": "newVault",
          "type": "address"
        }
      ],
      "name": "setVault",
      "outputs": [],
      "stateMutability": "nonpayable",
      "type": "function"
    },
    {
      "inputs": [
        {
          "internalType": "bytes4",
          "name": "interfaceId",
          "type": "bytes4"
        }
      ],
      "name": "supportsInterface",
      "outputs": [
        {
          "internalType": "bool",
          "name": "",
          "type": "bool"
        }
      ],
      "stateMutability": "view",
      "type": "function"
    },
    {
      "inputs": [],
      "name": "tbaRegistry",
      "outputs": [
        {
          "internalType": "address",
          "name": "",
          "type": "address"
        }
      ],
      "stateMutability": "view",
      "type": "function"
    },
    {
      "inputs": [],
      "name": "tokenImplementation",
      "outputs": [
        {
          "internalType": "address",
          "name": "",
          "type": "address"
        }
      ],
      "stateMutability": "view",
      "type": "function"
    },
    {
      "inputs": [],
      "name": "totalAgents",
      "outputs": [
        {
          "internalType": "uint256",
          "name": "",
          "type": "uint256"
        }
      ],
      "stateMutability": "view",
      "type": "function"
    },
    {
      "inputs": [],
      "name": "unpause",
      "outputs": [],
      "stateMutability": "nonpayable",
      "type": "function"
    },
    {
      "inputs": [],
      "name": "veTokenImplementation",
      "outputs": [
        {
          "internalType": "address",
          "name": "",
          "type": "address"
        }
      ],
      "stateMutability": "view",
      "type": "function"
    },
    {
      "inputs": [
        {
          "internalType": "uint256",
          "name": "id",
          "type": "uint256"
        }
      ],
      "name": "withdraw",
      "outputs": [],
      "stateMutability": "nonpayable",
      "type": "function"
    }
  ],
  "bytecode": "0x60808060405234620000bd577ff0c57e16840df040f15088dc2f81fe391c3923bec73e23a9662efc9c229c6a009081549060ff8260401c16620000ae57506001600160401b036002600160401b03198282160162000068575b604051614cff9081620000c38239f35b6001600160401b031990911681179091556040519081527fc7f505b2f371ae2175ee4913f4499e1f2633a7b5936321eed1cdaeb6115181d290602090a138808062000058565b63f92ee8a960e01b8152600490fd5b600080fdfe608080604052600436101561001357600080fd5b60003560e01c90816301ffc9a714612a5257508063063513b714612a345780630c4cb55c14612a0b5780630f07646a146128135780631083f761146127ea5780631f2f4bfd14611fc0578063248a9ca314611f9157806326bde5aa14611f4e5780632a7d4a1f14611d9f5780632e1a7d4d14611ba35780632f2ff15d14611b645780632f3a3d5d14611b3b57806336568abe14611af45780633f4ba83a14611a7d578063449664c014611a50578063468d198d14611a2757806347ccca02146119fe5780634c88672a146118f45780635c975abb146118c45780635ca3cedf14611728578063634282af146116cd5780636817031b1461168a5780638456cb591461162357806391d14854146115d65780639300d2381461156b5780639cbe0bac146115425780639d699326146115195780639d7b6842146114d65780639e4ec30a14610dff578063a217fddf14610de3578063aa3d000a14610d1c578063b4136bd814610cc1578063bd1cf25814610c75578063bea9849e14610c32578063c505371214610c14578063d547741f14610bd3578063d739ac2914610bb2578063ddf4427514610b94578063e02023a114610b59578063e887b1cc14610afe578063f745759414610abb5763fc98f079146101ed57600080fd5b34610a075760e0366003190112610a0757610206612aa5565b6024356001600160401b038111610a0757610225903690600401612c79565b61022d612ae7565b60843563ffffffff81168103610a075760c435610248614b9f565b6001600160a01b038516600081815260146020526040902054909590610a7f5761027190612ff7565b15610a46576009546040516370a0823160e01b81523360048201526001600160a01b0390911690602081602481855afa90811561096957600091610a14575b506102c06006548092101561313a565b604051636eb1769f60e11b815233600482015230602482015291602090839060449082905afa8015610969576000906109db575b61030092501015613186565b61030c845115156131dd565b80156109975761031e90303387614bca565b60095460065461033a91309033906001600160a01b0316614bca565b6001549161034783613222565b600155846000526014602052826040600020558260005260156020526040600020856001600160601b0360a01b825416179055604051936306fdde0360e01b8552600085600481895afa94851561096957600095610975575b5060006004949596604051958680926395d89b4160e01b82525afa93841561096957600094610944575b5060065493604051966103dc88612b7a565b87526020870152604051938460208101106001600160401b036020870111176107c65784602063ffffffff96016040526000815260408801526000606088015260808701523360a087015260c08601524360e0860152600061010086015260443561012086015260018060a01b03166101408501521661016083015260a43561018083015280600052600b602052604060002082519283516001600160401b0381116107c657610496816104908554612ce3565b85612e7e565b6020601f82116001146108db5781906104c9939495966000926107f2575b50508160011b916000199060031b1c19161790565b82555b60208101519283516001600160401b0381116107c6576104fc816104f36001870154612ce3565b60018701612e7e565b6020601f821160011461086c57819061052e939495966000926107f25750508160011b916000199060031b1c19161790565b60018401555b60408201519283516001600160401b0381116107c6576105648161055b6002850154612ce3565b60028501612e7e565b6020601f82116001146107fd578190610596939495966000926107f25750508160011b916000199060031b1c19161790565b60028201555b606083015160038110156107dc576105b79060038301612f7e565b608083015160048201556005810160018060a01b0360a0850151166001600160601b0360a01b82541617905560c0830151928351936001600160401b0385116107c657600160401b85116107c6576020906006840154866006860155808710610777575b5001936006830160005260206000209060005b8160051c81106107375750601f1981168082036106de575b60208686600b6101808860e0810151600785015561010081015160088501556101208101516009850155600a840160018060a01b036101408301511681549063ffffffff60a01b61016085015160a01b16916001600160401b0360c01b161717905501519101557f0ff47c4a3dc48719ecfd1876116e80d7d76ec7cb67248ae49449f9104747af2982604051838152a1604051908152f35b9560009660005b81840381106107075750505060051c0193909355602092610180600b38610646565b909197602061072d6001928460ff8d5116919060ff809160031b9316831b921b19161790565b99019291016106e5565b6000805b6020811061075057508382015560010161062e565b885190989160019160209160ff60038d901b81811b199092169216901b179201980161073b565b6107a6906006860160005283600020601f808a0160051c820192818b16806107ac575b500160051c0190612e67565b3861061b565b60001990818601918254918a0360031b1c1690553861079a565b634e487b7160e01b600052604160045260246000fd5b634e487b7160e01b600052602160045260246000fd5b0151905038806104b4565b6002830160005260206000209060005b601f1984168110610854575060019394959683601f1981161061083b575b505050811b01600282015561059c565b015160001960f88460031b161c1916905538808061082b565b9091602060018192858b01518155019301910161080d565b6001850160005260206000209060005b601f19841681106108c3575060019394959683601f198116106108aa575b505050811b016001840155610534565b015160001960f88460031b161c1916905538808061089a565b9091602060018192858b01518155019301910161087c565b8360005260206000209060005b601f198416811061092c575060019394959683601f19811610610913575b505050811b0182556104cc565b015160001960f88460031b161c19169055388080610906565b9091602060018192858b0151815501930191016108e8565b6109629194503d806000833e61095a8183612bdf565b810190612f96565b92386103ca565b6040513d6000823e3d90fd5b600494955061098f6000913d8084833e61095a8183612bdf565b9594506103a0565b606460405162461bcd60e51b815260206004820152602060248201527f496e697469616c4c50206d7573742062652067726561746572207468616e20306044820152fd5b506020823d602011610a0c575b816109f560209383612bdf565b81010312610a075761030091516102f4565b600080fd5b3d91506109e8565b90506020813d602011610a3e575b81610a2f60209383612bdf565b81010312610a075751386102b0565b3d9150610a22565b60405162461bcd60e51b81526020600482015260116024820152702ab739bab83837b93a32b2103a37b5b2b760791b6044820152606490fd5b60405162461bcd60e51b8152602060048201526014602482015273546f6b656e20616c72656164792065786973747360601b6044820152606490fd5b34610a07576020366003190112610a0757610ad4612aa5565b610adc613355565b601080546001600160a01b0319166001600160a01b0392909216919091179055005b34610a07576020366003190112610a0757600435600d54811015610a0757600d6000527fd7b6990105719101dabeb77144f2a3385c8033acd3af97e9423a695e81ad1eb501546040516001600160a01b039091168152602090f35b34610a07576000366003190112610a075760206040517f5d8e12c39142ff96d79d04d15d1ba1269e4fe57bb9d26f43523628b34ba108ec8152f35b34610a07576000366003190112610a07576020600654604051908152f35b34610a07576020366003190112610a0757610bcb613355565b600435600a55005b34610a07576040366003190112610a0757610c12600435610bf2612abb565b90806000526000602052610c0d6001604060002001546133ad565b613414565b005b34610a07576000366003190112610a07576020600754604051908152f35b34610a07576020366003190112610a0757610c4b612aa5565b610c53613355565b600e80546001600160a01b0319166001600160a01b0392909216919091179055005b34610a07576020366003190112610a07577fcfa33021ab0175831433b2f3bd8eeb24a22f5ae53ca0e660a246811754f9e34a6020600435610cb4613355565b80600655604051908152a1005b34610a07576020366003190112610a0757600435600854811015610a075760086000527ff3f7a9fe364faab93b216da50a3214154f22a0a2b415b23a84c8169e8b636ee301546040516001600160a01b039091168152602090f35b34610a0757610d9f610d2d36612b5b565b9190600c5492610d4360ff8560a01c1615612eba565b600160a01b60ff60a01b1994851617600c556000828152600b60205260409020600501546001600160a01b031633148015610dab575b610d8290612ef7565b60405191610d9a83610d9381612d1d565b0384612bdf565b613520565b600c5416600c55600080f35b503360009081527f20be27040b8e00df40bca0df34743417f3574a156386188f7d7f14369e5ee82b602052604090205460ff16610d79565b34610a07576000366003190112610a0757602060405160008152f35b34610a0757610100366003190112610a07576004356001600160401b038111610a0757610e30903690600401612c1b565b6024356001600160401b038111610a0757610e4f903690600401612c1b565b6044356001600160401b038111610a0757610e6e903690600401612c1b565b906064356001600160401b038111610a0757610e8e903690600401612c79565b610e96612afd565b60c4359163ffffffff83168303610a0757610eaf614b9f565b6009546040516370a0823160e01b81523360048201526001600160a01b039091169490602081602481895afa908115610969576000916114a4575b50610efa6006548092101561313a565b604051636eb1769f60e11b81523360048201523060248201526020816044818a5afa9081156109695760009161146c575b509063ffffffff96610f4282610f57941015613186565b610f4e855115156131dd565b30903390614bca565b60015495610f6487613222565b6001556006549160405198610f788a612b7a565b8952602089015260408801526000606088015260808701523360a087015260c08601524360e0860152600061010086015260843561012086015260018060a01b03166101408501521661016083015260e43561018083015280600052600b602052604060002082519283516001600160401b0381116107c657610fff816104908554612ce3565b6020601f82116001146114035781906110319394959660009261131a5750508160011b916000199060031b1c19161790565b82555b60208101519283516001600160401b0381116107c65761105b816104f36001870154612ce3565b6020601f821160011461139457819061108d9394959660009261131a5750508160011b916000199060031b1c19161790565b60018401555b60408201519283516001600160401b0381116107c6576110ba8161055b6002850154612ce3565b6020601f82116001146113255781906110ec9394959660009261131a5750508160011b916000199060031b1c19161790565b60028201555b606083015160038110156107dc5761110d9060038301612f7e565b608083015160048201556005810160018060a01b0360a0850151166001600160601b0360a01b82541617905560c0830151928351936001600160401b0385116107c657600160401b85116107c65760209060068401548660068601558087106112cc575b5001936006830160005260206000209060005b8160051c811061128c5750601f1981168082036112335760208686600b6101808860e0810151600785015561010081015160088501556101208101516009850155600a840160018060a01b036101408301511681549063ffffffff60a01b61016085015160a01b16916001600160401b0360c01b161717905501519101557f0ff47c4a3dc48719ecfd1876116e80d7d76ec7cb67248ae49449f9104747af2982604051838152a1604051908152f35b9560009660005b818403811061125c5750505060051c0193909355602092610180600b86610646565b90919760206112826001928460ff8d5116919060ff809160031b9316831b921b19161790565b990192910161123a565b6000805b602081106112a5575083820155600101611184565b885190989160019160209160ff60038d901b81811b199092169216901b1792019801611290565b6112fa906006860160005283600020601f808a0160051c820192818b168061130057500160051c0190612e67565b86611171565b60001990818601918254918a0360031b1c1690558b61079a565b0151905086806104b4565b6002830160005260206000209060005b601f198416811061137c575060019394959683601f19811610611363575b505050811b0160028201556110f2565b015160001960f88460031b161c19169055858080611353565b9091602060018192858b015181550193019101611335565b6001850160005260206000209060005b601f19841681106113eb575060019394959683601f198116106113d2575b505050811b016001840155611093565b015160001960f88460031b161c191690558580806113c2565b9091602060018192858b0151815501930191016113a4565b8360005260206000209060005b601f1984168110611454575060019394959683601f1981161061143b575b505050811b018255611034565b015160001960f88460031b161c1916905585808061142e565b9091602060018192858b015181550193019101611410565b9190506020823d60201161149c575b8161148860209383612bdf565b81010312610a0757905163ffffffff610f2b565b3d915061147b565b90506020813d6020116114ce575b816114bf60209383612bdf565b81010312610a07575188610eea565b3d91506114b2565b34610a07576020366003190112610a07576114ef612aa5565b6114f7613355565b601180546001600160a01b0319166001600160a01b0392909216919091179055005b34610a07576000366003190112610a07576003546040516001600160a01b039091168152602090f35b34610a07576000366003190112610a0757600f546040516001600160a01b039091168152602090f35b34610a07576060366003190112610a0757611584612aa5565b61158c612abb565b611594612ad1565b9061159d613355565b60018060a01b038092816001600160601b0360a01b9516856002541617600255168360035416176003551690600f541617600f55600080f35b34610a07576040366003190112610a07576115ef612abb565b600435600052600060205260406000209060018060a01b0316600052602052602060ff604060002054166040519015158152f35b34610a07576000366003190112610a075761163c613355565b611644614b9f565b600080516020614caa833981519152600160ff198254161790557f62e78cea01bee320cd4e420270b5ea74000d11b0c9f74754ebdbfc544b05a2586020604051338152a1005b34610a07576020366003190112610a07576116a3612aa5565b6116ab613355565b600c80546001600160a01b0319166001600160a01b0392909216919091179055005b34610a07576020366003190112610a0757600435600754811015610a075760076000527fa66cc928b5edb82af9bd49922954155ab7b0942694bea4ce44661d9a8736c68801546040516001600160a01b039091168152602090f35b34610a07576080366003190112610a0757611741612ae7565b611749613355565b6040519060209060043560208401526024356040840152604435606084015260018060a01b031660808301526080825261178282612ba9565b8151906001600160401b0382116107c65761179e601354612ce3565b601f811161186a575b50602090601f83116001146117e9575081906117d9936000926117de5750508160011b916000199060031b1c19161790565b601355005b0151905083806104b4565b90601f1983169360136000527f66de8ffda797e3de9c05e8fc57b3bf0ec28a930d40b0d285d93c06501cf6a090926000905b8682106118525750508360019510611839575b505050811b01601355005b015160001960f88460031b161c1916905582808061182e565b8060018596829496860151815501950193019061181b565b6118b49060136000527f66de8ffda797e3de9c05e8fc57b3bf0ec28a930d40b0d285d93c06501cf6a090601f850160051c810191602086106118ba575b601f0160051c0190612e67565b836117a7565b90915081906118a7565b34610a07576000366003190112610a0757602060ff600080516020614caa83398151915254166040519015158152f35b34610a075761190236612b5b565b600c549161191660ff8460a01c1615612eba565b600160a01b60ff60a01b1993841617600c556000818152600b60205260409020600501546001600160a01b03908116331480156119c6575b61195790612ef7565b816000526015602052604060002054161561198157610d9f9160405191610d9a83610d9381612d1d565b60405162461bcd60e51b815260206004820152601c60248201527f4e6f7420637573746f6d20746f6b656e206170706c69636174696f6e000000006044820152606490fd5b503360009081527f20be27040b8e00df40bca0df34743417f3574a156386188f7d7f14369e5ee82b602052604090205460ff1661194e565b34610a07576000366003190112610a07576004546040516001600160a01b039091168152602090f35b34610a07576000366003190112610a07576005546040516001600160a01b039091168152602090f35b34610a07576020366003190112610a07576020611a73611a6e612aa5565b612ff7565b6040519015158152f35b34610a07576000366003190112610a0757611a96613355565b600080516020614caa833981519152805460ff811615611ae25760ff191690557f5db9ee0a495bf2e6ff9c91a7834c1ba4fdd244a5e8aa4e537bd38aeae4b073aa6020604051338152a1005b604051638dfc202b60e01b8152600490fd5b34610a07576040366003190112610a0757611b0d612abb565b336001600160a01b03821603611b2957610c1290600435613414565b60405163334bd91960e11b8152600490fd5b34610a07576000366003190112610a07576002546040516001600160a01b039091168152602090f35b34610a07576040366003190112610a0757610c12600435611b83612abb565b90806000526000602052611b9e6001604060002001546133ad565b6132d7565b34610a0757602080600319360112610a0757600435600c5491611bcc60ff8460a01c1615612eba565b60ff60a01b19928316600160a01b17600c556000828152600b8252604090206005810180549093916001600160a01b039182163381148015611d60575b611c1290612ef7565b6003820180549260ff841660038110156107dc57611c309015612f32565b6007810154431115611d1b579060026004611c60959493019360008554955560ff191617905583600954166133d3565b816000526015835280604060002054169384611c81575b600c805487169055005b5416926040516370a0823160e01b81523060048201528381602481855afa90811561096957600091611ced575b50611cbc90601595836133d3565b60005260148252600060408120556000525260406000206001600160601b0360a01b81541690558180808080611c77565b90508381813d8311611d14575b611d048183612bdf565b81010312610a0757516015611cae565b503d611cfa565b60405162461bcd60e51b815260048101889052601e60248201527f4170706c69636174696f6e206973206e6f74206d6174757265642079657400006044820152606490fd5b507f5d8e12c39142ff96d79d04d15d1ba1269e4fe57bb9d26f43523628b34ba108ec60009081528086526040808220338352875290205460ff16611c09565b34610a075760e0366003190112610a075760c4356001600160a01b03811690819003610a0757611dcd613355565b60405190602090600435602084015260243560408401526044356060840152606435608084015260843560a084015260a43560c084015260e083015260e082526101008201906001600160401b0391838110838211176107c65760405282519182116107c657611e3e601254612ce3565b601f8111611eff575b50602090601f8311600114611e7e57508190611e79936000926117de5750508160011b916000199060031b1c19161790565b601255005b90601f1983169360126000527fbb8a6a4669ba250d26cd7a459eca9d215f8307e33aebe50379bc5a3617ec3444926000905b868210611ee75750508360019510611ece575b505050811b01601255005b015160001960f88460031b161c19169055828080611ec3565b80600185968294968601518155019501930190611eb0565b611f489060126000527fbb8a6a4669ba250d26cd7a459eca9d215f8307e33aebe50379bc5a3617ec3444601f850160051c810191602086106118ba57601f0160051c0190612e67565b83611e47565b34610a07576020366003190112610a0757611f67612aa5565b611f6f613355565b600980546001600160a01b0319166001600160a01b0392909216919091179055005b34610a07576020366003190112610a075760043560005260006020526020600160406000200154604051908152f35b34610a07576020366003190112610a07576000610180604051611fe281612b7a565b6060815260606020820152606060408201528260608201528260808201528260a0820152606060c08201528260e0820152826101008201528261012082015282610140820152826101608201520152600435600052600b602052604060002060405161204d81612b7a565b6040516120658161205e8186612dd1565b0382612bdf565b815260405161207b8161205e8160018701612dd1565b60208201526040516120948161205e8160028701612dd1565b604082015260ff60038301541660038110156107dc5760608201526004820154608082015260058201546001600160a01b031660a08201526040516006830180548083526000918252602080832090840195939291905b81601f8401106126485795612208928492600b97985491818110612634575b81811061261d575b818110612606575b8181106125ef575b8181106125d9575b8181106125c2575b8181106125ab575b818110612594575b81811061257d575b818110612566575b81811061254f575b818110612538575b818110612521575b81811061250a575b8181106124f3575b8181106124dc575b8181106124c5575b8181106124ae575b818110612497575b818110612480575b818110612469575b818110612452575b81811061243b575b818110612424575b81811061240d575b8181106123f6575b8181106123df575b8181106123c8575b8181106123b1575b81811061239a575b818110612383575b10612375575b500382612bdf565b60c0840152600781015460e08401526008810154610100840152600981015461012084015263ffffffff600a82015460018060a01b03811661014086015260a01c166101608401520154610180820152604051602081526122a961229361227d84516101a060208601526101c0850190612b36565b6020850151848203601f19016040860152612b36565b6040840151838203601f19016060850152612b36565b606083015160038110156107dc576080830152608083015160a083015260018060a01b0360a08401511660c083015260c083015190601f198382030160e08401526020808351928381520192019060005b81811061235c575050506101808360e08495015161010085015261010081015161012085015261012081015161014085015260018060a01b036101408201511661016085015263ffffffff610160820151168285015201516101a08301520390f35b825160ff168452602093840193909201916001016122fa565b60f81c815260200187612200565b92602060019160ff8560f01c1681520193016121fa565b92602060019160ff8560e81c1681520193016121f2565b92602060019160ff8560e01c1681520193016121ea565b92602060019160ff8560d81c1681520193016121e2565b92602060019160ff8560d01c1681520193016121da565b92602060019160ff8560c81c1681520193016121d2565b92602060019160ff8560c01c1681520193016121ca565b92602060019160ff8560b81c1681520193016121c2565b92602060019160ff8560b01c1681520193016121ba565b92602060019160ff8560a81c1681520193016121b2565b92602060019160ff8560a01c1681520193016121aa565b92602060019160ff8560981c1681520193016121a2565b92602060019160ff8560901c16815201930161219a565b92602060019160ff8560881c168152019301612192565b92602060019160ff8560801c16815201930161218a565b92602060019160ff8560781c168152019301612182565b92602060019160ff8560701c16815201930161217a565b92602060019160ff8560681c168152019301612172565b92602060019160ff8560601c16815201930161216a565b92602060019160ff8560581c168152019301612162565b92602060019160ff8560501c16815201930161215a565b92602060019160ff8560481c168152019301612152565b92602060019160ff8560401c16815201930161214a565b92602060019160ff8560381c168152019301612142565b92602060019160ff8560301c16815201930161213a565b92602060019160ff8560281c168152019301612132565b92602060019160ff85831c16815201930161212a565b92602060019160ff8560181c168152019301612122565b92602060019160ff8560101c16815201930161211a565b92602060019160ff8560081c168152019301612112565b92602060019160ff8516815201930161210a565b956001610400602092895460ff8116825260ff8160081c168583015260ff8160101c16604083015260ff8160181c16606083015260ff81861c16608083015260ff8160281c1660a083015260ff8160301c1660c083015260ff8160381c1660e083015260ff8160401c1661010083015260ff8160481c1661012083015260ff8160501c1661014083015260ff8160581c1661016083015260ff8160601c1661018083015260ff8160681c166101a083015260ff8160701c166101c083015260ff8160781c166101e083015260ff8160801c1661020083015260ff8160881c1661022083015260ff8160901c1661024083015260ff8160981c1661026083015260ff8160a01c1661028083015260ff8160a81c166102a083015260ff8160b01c166102c083015260ff8160b81c166102e083015260ff8160c01c1661030083015260ff8160c81c1661032083015260ff8160d01c1661034083015260ff8160d81c1661036083015260ff8160e01c1661038083015260ff8160e81c166103a083015260ff8160f01c166103c083015260f81c6103e08201520197019201916120eb565b34610a07576000366003190112610a07576009546040516001600160a01b039091168152602090f35b34610a0757610120366003190112610a075761282d612aa5565b612835612abb565b9061283e612ad1565b90612847612ae7565b6001600160a01b036084358181169592939290869003610a0757612869612afd565b9060e43594838616809603610a07577ff0c57e16840df040f15088dc2f81fe391c3923bec73e23a9662efc9c229c6a009788549260ff8460401c1615986001600160401b03851680159081612a03575b60011490816129f9575b1590816129f0575b506129de5767ffffffffffffffff1985166001178b558694859283918c6129bf575b506128f6614c0c565b6128fe614c0c565b600080516020614caa83398151915260ff198154169055816001600160601b0360a01b9a168a60025416176002551688600f541617600f5516866003541617600355856009541617600955168360055416176005551681600454161760045560c4356006556101043560015561297333613247565b50600c541617600c5561298257005b68ff00000000000000001981541690557fc7f505b2f371ae2175ee4913f4499e1f2633a7b5936321eed1cdaeb6115181d2602060405160018152a1005b68ffffffffffffffffff191668010000000000000001178d558d6128ed565b60405163f92ee8a960e01b8152600490fd5b9050158c6128cb565b303b1591506128c3565b8b91506128b9565b34610a07576000366003190112610a07576011546040516001600160a01b039091168152602090f35b34610a07576000366003190112610a07576020600a54604051908152f35b34610a07576020366003190112610a07576004359063ffffffff60e01b8216809203610a0757602091637965db0b60e01b8114908115612a94575b5015158152f35b6301ffc9a760e01b14905083612a8d565b600435906001600160a01b0382168203610a0757565b602435906001600160a01b0382168203610a0757565b604435906001600160a01b0382168203610a0757565b606435906001600160a01b0382168203610a0757565b60a435906001600160a01b0382168203610a0757565b60005b838110612b265750506000910152565b8181015183820152602001612b16565b90602091612b4f81518092818552858086019101612b13565b601f01601f1916010190565b6040906003190112610a0757600435906024358015158103610a075790565b6101a081019081106001600160401b038211176107c657604052565b6001600160401b0381116107c657604052565b60a081019081106001600160401b038211176107c657604052565b608081019081106001600160401b038211176107c657604052565b90601f801991011681019081106001600160401b038211176107c657604052565b6001600160401b0381116107c657601f01601f191660200190565b81601f82011215610a0757803590612c3282612c00565b92612c406040519485612bdf565b82845260208383010111610a0757816000926020809301838601378301015290565b6001600160401b0381116107c65760051b60200190565b9080601f83011215610a07576020908235612c9381612c62565b93612ca16040519586612bdf565b81855260208086019260051b820101928311610a0757602001905b828210612cca575050505090565b813560ff81168103610a07578152908301908301612cbc565b90600182811c92168015612d13575b6020831014612cfd57565b634e487b7160e01b600052602260045260246000fd5b91607f1691612cf2565b60125460009291612d2d82612ce3565b80825291602090600190818116908115612dac5750600114612d50575b50505050565b9293945060126000527fbb8a6a4669ba250d26cd7a459eca9d215f8307e33aebe50379bc5a3617ec3444926000935b858510612d99575050506020925001019038808080612d4a565b8054858501840152938201938101612d7f565b92505050602093945060ff929192191683830152151560051b01019038808080612d4a565b805460009392612de082612ce3565b91828252602093600191600181169081600014612e485750600114612e07575b5050505050565b90939495506000929192528360002092846000945b838610612e3457505050500101903880808080612e00565b805485870183015294019385908201612e1c565b60ff19168685015250505090151560051b010191503880808080612e00565b818110612e72575050565b60008155600101612e67565b9190601f8111612e8d57505050565b612eb8926000526020600020906020601f840160051c830193106118ba57601f0160051c0190612e67565b565b15612ec157565b60405162461bcd60e51b815260206004820152600e60248201526d31b0b73737ba103932b2b73a32b960911b6044820152606490fd5b15612efe57565b60405162461bcd60e51b815260206004820152600c60248201526b2737ba10383937b837b9b2b960a11b6044820152606490fd5b15612f3957565b60405162461bcd60e51b815260206004820152601960248201527f4170706c69636174696f6e206973206e6f7420616374697665000000000000006044820152606490fd5b9060038110156107dc5760ff80198354169116179055565b602081830312610a07578051906001600160401b038211610a07570181601f82011215610a07578051612fc881612c00565b92612fd66040519485612bdf565b81845260208284010111610a0757612ff49160208085019101612b13565b90565b6040516306fdde0360e01b81526000916001600160a01b0316908281600481855afa9081613120575b50613029575090565b6040516395d89b4160e01b81528281600481855afa9081613106575b5061304e575090565b6040516318160ddd60e01b8152602090818082600481875afa91826130d9575b505061307957505090565b80602492604051938480926370a0823160e01b82523060048301525afa91826130ac575b50506130a65790565b50600190565b813d83116130d2575b6130bf8183612bdf565b810103126130ce57388061309d565b5080fd5b503d6130b5565b813d83116130ff575b6130ec8183612bdf565b810103126130fb57813861306e565b8380fd5b503d6130e2565b613119903d8086833e61095a8183612bdf565b5038613045565b613133903d8086833e61095a8183612bdf565b5038613020565b1561314157565b60405162461bcd60e51b815260206004820152601860248201527f496e73756666696369656e7420617373657420746f6b656e00000000000000006044820152606490fd5b1561318d57565b60405162461bcd60e51b815260206004820152602260248201527f496e73756666696369656e7420617373657420746f6b656e20616c6c6f77616e604482015261636560f01b6064820152608490fd5b156131e457565b60405162461bcd60e51b815260206004820152601660248201527510dbdc995cc81b5d5cdd081899481c1c9bdd9a59195960521b6044820152606490fd5b60001981146132315760010190565b634e487b7160e01b600052601160045260246000fd5b6001600160a01b031660008181527fad3228b676f7d3cd4284a5443f17f1962b36e491b30a40b2405849e597ba5fb5602052604081205490919060ff166132d357818052816020526040822081835260205260408220600160ff1982541617905533917f2f8788117e7eff1d82e926ec794901d17c78024a50270940304540a733656f0d8180a4600190565b5090565b9060009180835282602052604083209160018060a01b03169182845260205260ff6040842054161560001461335057808352826020526040832082845260205260408320600160ff198254161790557f2f8788117e7eff1d82e926ec794901d17c78024a50270940304540a733656f0d339380a4600190565b505090565b3360009081527fad3228b676f7d3cd4284a5443f17f1962b36e491b30a40b2405849e597ba5fb5602052604081205460ff161561338f5750565b6044906040519063e2517d3f60e01b82523360048301526024820152fd5b80600052600060205260406000203360005260205260ff604060002054161561338f5750565b60405163a9059cbb60e01b60208201526001600160a01b03929092166024830152604480830193909352918152612eb89161340f606483612bdf565b614c4d565b9060009180835282602052604083209160018060a01b03169182845260205260ff6040842054166000146133505780835282602052604083208284526020526040832060ff1981541690557ff6391f5c32d9c69d2a47ea670b442974b53935d1edc7fd64eb21e047a839171b339380a4600190565b51906001600160a01b0382168203610a0757565b6000929181546134ac81612ce3565b9260019180831690811561350557506001146134c85750505050565b9091929394506000526020906020600020906000915b8583106134f45750505050019038808080612d4a565b8054858401529183019181016134de565b60ff1916845250505081151590910201915038808080612d4a565b9190600092808452600b60205260ff6003604086200154166003811015614b8b5761354b9015612f32565b6010546001600160a01b031615614b50578352600b602052604083206004810192848454945560038201600160ff19825416179055601560205260018060a01b03604086205416801560001461471257506040516135ad8161205e8186612dd1565b604051916135c283610d938160018801612dd1565b600254608881901c62ffffff16763d602d80600a3d3981f3363d3d373d3d3d363d7300000017885260781b6001600160781b0319166e5af43d82803e903d91602b57fd5bf3176020526037600988f0926001600160a01b038416156145345760405192606084018481106001600160401b038211176146fe5760409081526010546001600160a01b039081168652600e54811660208088019190915260095490911686830152815190810191909152916136a991839061369d9061368a906060840190612b36565b601f199384848303016040850152612b36565b03908101835282612bdf565b6001600160a01b0384163b1561464157604051634258efa960e11b81529288928492909184600485015b600382106146d8575050506136f66137099160c0606486015260c4850190612b36565b6003199283858303016084860152612b36565b908282030160a483015282906013549061372282612ce3565b91828252846001821691826000146146ba57505060011461465c575b505081900381836001600160a01b0387165af1801561455e57614649575b50600d54600160401b8110156107c6576001810180600d558110156144f757600d6000527fd7b6990105719101dabeb77144f2a3385c8033acd3af97e9423a695e81ad1eb50180546001600160a01b0319166001600160a01b03831690811790915560405163d6efd7c360e01b815282918790829060049082905afa9081156145255787916145a9575b5080511561459557602001516009546001600160a01b039182169661380f9290918491166133d3565b6001600160a01b0381163b1561452157604051631672aef960e21b81523060048201529086908290602490829084906001600160a01b03165af1801561455e57908691614581575b50505b60405166029ba30b5b2b2160cd1b60208201528061387b602782018561349d565b039061388f601f1992838101835282612bdf565b6138bd60405192607360f81b6020850152836138b1602182016001890161349d565b03908101845283612bdf565b6005840154600f54608881901c62ffffff16763d602d80600a3d3981f3363d3d373d3d3d363d7300000017895260781b6001600160781b0319166e5af43d82803e903d91602b57fd5bf3176020526001600160a01b0390811690603760098af01695861561453457600a54420180421161456d576004546001600160a01b031690883b15614569579161397493918b9593613986604051988997889763b2193b4d60e01b895260e060048a015260e4890190612b36565b87810360031901602489015290612b36565b60448601949094526001600160a01b038c166064860152608485015260a4840152151560c4830152038183885af1801561455e57908691614546575b5050600754600160401b8110156107c65760018101806007558110156144f75760076000527fa66cc928b5edb82af9bd49922954155ab7b0942694bea4ce44661d9a8736c6880180546001600160a01b0319168417905560405190613a49600483613a30602082018761349d565b632044414f60e01b815203601b19810185520183612bdf565b600a830154600b840154600354608881901c62ffffff16763d602d80600a3d3981f3363d3d373d3d3d363d7300000017895260781b6001600160781b0319166e5af43d82803e903d91602b57fd5bf31760205290926001600160a01b03603760098af016938415614534576004546001600160a01b031690853b156145305791613af79163ffffffff8b946040519687958695631c63df3560e21b875260a0600488015260a4870190612b36565b938c60248701526044860152606485015260a01c166084830152038183875af180156145255790879161450d575b5050600854600160401b8110156107c65760018101806008558110156144f75760086000527ff3f7a9fe364faab93b216da50a3214154f22a0a2b415b23a84c8169e8b636ee30180546001600160a01b0319168317905560048054604051632fd77c0d60e11b815297916001600160a01b0390911690602090899081845afa978815613f655782986144c3575b50600c546005860154604051631f889aa560e11b8152600481018b90526001600160a01b0392831660248201526101006044820152929116908290613bfe610104830160028a01612dd1565b9287606484015260848301526003198284030160a483015284602060068a015494858152019360068a018252602082209082915b81601f840110614317579585939284926020985491818110614305575b8181106142ef575b8181106142d9575b8181106142c3575b8181106142af575b818110614299575b818110614283575b81811061426d575b818110614257575b818110614241575b81811061422b575b818110614215575b8181106141ff575b8181106141e9575b8181106141d3575b8181106141bd575b8181106141a7575b818110614191575b81811061417b575b818110614165575b81811061414f575b818110614139575b818110614123575b81811061410d575b8181106140f7575b8181106140e1575b8181106140cb575b8181106140b5575b81811061409f575b818110614089575b818110614073575b10614066575b506001600160a01b03808f1660c48401528a1660e483015203925af18015613f655761403b575b5060088401879055600554600a850154600986015460048054604051638a54c52f60e01b81526001600160a01b039485169281019290925260248201929092524660448201529082166064820152608481018a90529591602091879160a49183918791165af1948515613f65578295613fff575b506004546001600160a01b0316803b15613fdf5760405163190b373360e31b8152600481018a90526001600160a01b03871660248201529083908290604490829084905af18015613fa457908391613feb575b505060405163095ea7b360e01b8152600481018790526000196024820152602081604481866001600160a01b038d165af18015613fa457613faf575b506040516370a0823160e01b8152306004820152906020826024816001600160a01b038c165afa918215613fa4578392613f70575b50600501546011546001600160a01b039081169116873b156130fb576040519263a7d545db60e01b84526004840152602483015260448201528181606481838a5af18015613f6557613f4e575b5050604080519687526001600160a01b039182166020880152860191909152908116606085015260808401919091521660a08201527ff9d151d23a5253296eb20ab40959cf48828ea2732d337416716e302ed83ca6589060c090a1565b613f588291612b96565b613f625780613ef1565b80fd5b6040513d84823e3d90fd5b9091506020813d602011613f9c575b81613f8c60209383612bdf565b81010312610a0757519038613ea4565b3d9150613f7f565b6040513d85823e3d90fd5b6020813d602011613fe3575b81613fc860209383612bdf565b81010312613fdf5751801515036130ce5738613e6f565b8280fd5b3d9150613fbb565b613ff490612b96565b6130ce578138613e33565b9094506020813d602011614033575b8161401b60209383612bdf565b810103126130ce5761402c90613489565b9338613de0565b3d915061400e565b602090813d831161405f575b6140518183612bdf565b81010312610a075738613d6c565b503d614047565b60f81c8152860138613d45565b928960019160ff8560f01c168152019301613d3f565b928960019160ff8560e81c168152019301613d37565b928960019160ff8560e01c168152019301613d2f565b928960019160ff8560d81c168152019301613d27565b928960019160ff8560d01c168152019301613d1f565b928960019160ff8560c81c168152019301613d17565b928960019160ff8560c01c168152019301613d0f565b928960019160ff8560b81c168152019301613d07565b928960019160ff8560b01c168152019301613cff565b928960019160ff8560a81c168152019301613cf7565b928960019160ff8560a01c168152019301613cef565b928960019160ff8560981c168152019301613ce7565b928960019160ff8560901c168152019301613cdf565b928960019160ff8560881c168152019301613cd7565b928960019160ff8560801c168152019301613ccf565b928960019160ff8560781c168152019301613cc7565b928960019160ff8560701c168152019301613cbf565b928960019160ff8560681c168152019301613cb7565b928960019160ff8560601c168152019301613caf565b928960019160ff8560581c168152019301613ca7565b928960019160ff8560501c168152019301613c9f565b928960019160ff8560481c168152019301613c97565b928960019160ff8560401c168152019301613c8f565b928960019160ff8560381c168152019301613c87565b928960019160ff8560301c168152019301613c7f565b928960019160ff8560281c168152019301613c77565b828a1c60ff16845292890192600101613c6f565b928960019160ff8560181c168152019301613c67565b928960019160ff8560101c168152019301613c5f565b928960019160ff8560081c168152019301613c57565b60ff8316845292890192600101613c4f565b9450915091936001610400602092865460ff8116825260ff8160081c168583015260ff8160101c16604083015260ff8160181c16606083015260ff81861c16608083015260ff8160281c1660a083015260ff8160301c1660c083015260ff8160381c1660e083015260ff8160401c1661010083015260ff8160481c1661012083015260ff8160501c1661014083015260ff8160581c1661016083015260ff8160601c1661018083015260ff8160681c166101a083015260ff8160701c166101c083015260ff8160781c166101e083015260ff8160801c1661020083015260ff8160881c1661022083015260ff8160901c1661024083015260ff8160981c1661026083015260ff8160a01c1661028083015260ff8160a81c166102a083015260ff8160b01c166102c083015260ff8160b81c166102e083015260ff8160c01c1661030083015260ff8160c81c1661032083015260ff8160d01c1661034083015260ff8160d81c1661036083015260ff8160e01c1661038083015260ff8160e81c166103a083015260ff8160f01c166103c083015260f81c6103e08201520194019201869186949593613c32565b9097506020813d6020116144ef575b816144df60209383612bdf565b81010312610a0757519638613bb2565b3d91506144d2565b634e487b7160e01b600052603260045260246000fd5b61451690612b96565b614521578538613b25565b8580fd5b6040513d89823e3d90fd5b8980fd5b60405163b06ebf3d60e01b8152600490fd5b61454f90612b96565b61455a5784386139c2565b8480fd5b6040513d88823e3d90fd5b8a80fd5b634e487b7160e01b8a52601160045260248afd5b61458a90612b96565b61455a578438613857565b634e487b7160e01b87526032600452602487fd5b90503d8088833e6145ba8183612bdf565b810190602081830312614641578051906001600160401b03821161464557019080601f830112156146415781516145f081612c62565b926145fe6040519485612bdf565b81845260208085019260051b82010192831161453057602001905b82821061462957505050386137e6565b6020809161463684613489565b815201910190614619565b8780fd5b8880fd5b61465590959195612b96565b933861375c565b60138552849250907f66de8ffda797e3de9c05e8fc57b3bf0ec28a930d40b0d285d93c06501cf6a0905b81841061469a57505001602001813861373e565b600191955060209294508054838587010152019101909189938593614686565b909450602093915060ff191683830152151560051b0101903861373e565b82516001600160a01b031681528c965087955060209283019260019290920191016136d3565b634e487b7160e01b8a52604160045260248afd5b600e5460405163c45a015560e01b8152919250602090829060049082906001600160a01b03165afa90811561455e578691614b16575b5060095460405163e6a4390560e01b81526001600160a01b038481166004830152918216602482018190529290911690602081604481855afa908115614b0b578891614ad1575b506001600160a01b0316614a96576040516364e329cb60e11b81526001600160a01b038481166004830152929092166024830152602090829060449082908a905af190811561455e578691614a5c575b509360018060a01b03600e541660405163095ea7b360e01b602082015281602482015260001960448201526044815261481781612bc4565b602088825182840182885af188513d82614a40575b5050156149fd575b5050600954600e5460405163095ea7b360e01b60208083019182526001600160a01b03938416602484018190526044808501889052845294929390921691908a90614880606486612bdf565b84519082855af189513d826149e1575b5050156149a3575b5050600e546009546040516370a0823160e01b81523060048201526001600160a01b0392831693509116602082602481885afa9182156149985789908193614960575b509061010491606094604051968795869462e8e33760e81b86528a60048701526024860152604485015260648401528160848401528160a48401523060c48401524260e48401525af1801561455e57614935575b5061385a565b606090813d8311614959575b61494b8183612bdf565b8101031261455a573861492f565b503d614941565b919250506020813d602011614990575b8161497d60209383612bdf565b81010312614645575190886101046148db565b3d9150614970565b6040513d8b823e3d90fd5b61340f6149d9936040519063095ea7b360e01b602083015260248201528a6044820152604481526149d381612bc4565b82614c4d565b388080614898565b9091506149f55750803b15155b3880614890565b6001146149ee565b614a33614a39926040519063095ea7b360e01b6020830152602482015289604482015260448152614a2d81612bc4565b85614c4d565b83614c4d565b3880614834565b909150614a545750833b15155b388061482c565b600114614a4d565b90506020813d602011614a8e575b81614a7760209383612bdf565b8101031261452157614a8890613489565b386147df565b3d9150614a6a565b60405162461bcd60e51b8152602060048201526013602482015272706f6f6c20616c72656164792065786973747360681b6044820152606490fd5b90506020813d602011614b03575b81614aec60209383612bdf565b8101031261464157614afd90613489565b3861478f565b3d9150614adf565b6040513d8a823e3d90fd5b90506020813d602011614b48575b81614b3160209383612bdf565b8101031261452157614b4290613489565b38614748565b3d9150614b24565b60405162461bcd60e51b8152602060048201526013602482015272151bdad95b8818591b5a5b881b9bdd081cd95d606a1b6044820152606490fd5b634e487b7160e01b85526021600452602485fd5b60ff600080516020614caa8339815191525416614bb857565b60405163d93c066560e01b8152600490fd5b6040516323b872dd60e01b60208201526001600160a01b039283166024820152929091166044830152606480830193909352918152612eb89161340f82612ba9565b60ff7ff0c57e16840df040f15088dc2f81fe391c3923bec73e23a9662efc9c229c6a005460401c1615614c3b57565b604051631afcd79f60e31b8152600490fd5b906000602091828151910182855af115610969576000513d614ca057506001600160a01b0381163b155b614c7e5750565b604051635274afe760e01b81526001600160a01b039091166004820152602490fd5b60011415614c7756fecd5ed15c6e187e77e9aee88184c21f4f2182ab5827cb3b7e07fbedcd63f03300a2646970667358221220d715520b442b48d13e02a41613995f752303e837554afc8b4c1d60d32d6d8f7964736f6c63430008160033",
  "linkReferences": {},
  "deployedLinkReferences": {}
}