{
  "_format": "hh-sol-artifact-1",
  "contractName": "AeroAdaptor",
  "sourceName": "contracts/pool/AeroAdaptor.sol",
  "abi": [
    {
      "inputs": [
        {
          "internalType": "address",
          "name": "router_",
          "type": "address"
        },
        {
          "internalType": "address",
          "name": "tokenIn_",
          "type": "address"
        },
        {
          "internalType": "address",
          "name": "tokenOut_",
          "type": "address"
        },
        {
          "internalType": "address",
          "name": "factory_",
          "type": "address"
        }
      ],
      "stateMutability": "nonpayable",
      "type": "constructor"
    },
    {
      "inputs": [
        {
          "internalType": "address",
          "name": "token",
          "type": "address"
        }
      ],
      "name": "SafeERC20FailedOperation",
      "type": "error"
    },
    {
      "inputs": [],
      "name": "factory",
      "outputs": [
        {
          "internalType": "address",
          "name": "",
          "type": "address"
        }
      ],
      "stateMutability": "view",
      "type": "function"
    },
    {
      "inputs": [
        {
          "internalType": "uint256",
          "name": "amountIn",
          "type": "uint256"
        },
        {
          "internalType": "address[]",
          "name": "path",
          "type": "address[]"
        }
      ],
      "name": "getAmountsOut",
      "outputs": [
        {
          "internalType": "uint256[]",
          "name": "amounts",
          "type": "uint256[]"
        }
      ],
      "stateMutability": "view",
      "type": "function"
    },
    {
      "inputs": [],
      "name": "router",
      "outputs": [
        {
          "internalType": "address",
          "name": "",
          "type": "address"
        }
      ],
      "stateMutability": "view",
      "type": "function"
    },
    {
      "inputs": [
        {
          "internalType": "uint256",
          "name": "amountIn",
          "type": "uint256"
        },
        {
          "internalType": "uint256",
          "name": "amountOutMin",
          "type": "uint256"
        },
        {
          "internalType": "address[]",
          "name": "path",
          "type": "address[]"
        },
        {
          "internalType": "address",
          "name": "to",
          "type": "address"
        },
        {
          "internalType": "uint256",
          "name": "deadline",
          "type": "uint256"
        }
      ],
      "name": "swapExactTokensForTokens",
      "outputs": [
        {
          "internalType": "uint256[]",
          "name": "amounts",
          "type": "uint256[]"
        }
      ],
      "stateMutability": "nonpayable",
      "type": "function"
    },
    {
      "inputs": [],
      "name": "tokenIn",
      "outputs": [
        {
          "internalType": "address",
          "name": "",
          "type": "address"
        }
      ],
      "stateMutability": "view",
      "type": "function"
    },
    {
      "inputs": [],
      "name": "tokenOut",
      "outputs": [
        {
          "internalType": "address",
          "name": "",
          "type": "address"
        }
      ],
      "stateMutability": "view",
      "type": "function"
    }
  ],
  "bytecode": "0x60803461015f57601f61083c38819003918201601f19168301916001600160401b038311848410176101645780849260809460405283398101031261015f5761004781610195565b61005360208301610195565b9161006c606061006560408401610195565b9201610195565b60018060a01b038093169260018060a01b031991818060009787868a54161789551694858560015416176001551683600254161760025516906003541617600355604051916020830160208563095ea7b360e01b928381528460248801526000196044880152604487526100df8761017a565b86519082875af185513d82610143575b505015610106575b60405161062a90816102128239f35b6101399461013492604051926020840152602483015260448201526044815261012e8161017a565b826101a9565b6101a9565b38808080806100f7565b9091506101575750823b15155b38806100ef565b600114610150565b600080fd5b634e487b7160e01b600052604160045260246000fd5b608081019081106001600160401b0382111761016457604052565b51906001600160a01b038216820361015f57565b906000602091828151910182855af115610205576000513d6101fc57506001600160a01b0381163b155b6101da5750565b604051635274afe760e01b81526001600160a01b039091166004820152602490fd5b600114156101d3565b6040513d6000823e3d90fdfe6040608081526004908136101561001557600080fd5b600091823560e01c90816338ed1739146102195781636daf390b146101f0578163c45a0155146101c7578163d0202d3b1461019e578163d06ca61f1461008f575063f887ea401461006557600080fd5b3461008b578160031936011261008b57905490516001600160a01b039091168152602090f35b5080fd5b9190503461019a578060031936011261019a57826024359267ffffffffffffffff841161008b576100c661014594369083016103be565b50506100d0610484565b9060018060a01b03806001541681600254168260035416908751926100f484610430565b835260208301528587830152606082015261010e846104f1565b52610118836104f1565b50835416908451809681948293631542686b60e21b84528035908401528760248401526044830190610590565b03915afa9182156101905783610167949361016b575b505051918291826103f4565b0390f35b6101889293503d8091833e6101808183610462565b810190610514565b90388061015b565b81513d85823e3d90fd5b8280fd5b50503461008b578160031936011261008b5760025490516001600160a01b039091168152602090f35b50503461008b578160031936011261008b5760035490516001600160a01b039091168152602090f35b50503461008b578160031936011261008b5760015490516001600160a01b039091168152602090f35b90503461019a5760a036600319011261019a5767ffffffffffffffff9080356044358381116103ba5761024f90369084016103be565b50506064356001600160a01b0381811693918490036103b657610270610484565b948160015416908260025416836003541689519161028d83610430565b84835260208301528a8a83015260608201526102a8886104f1565b526102b2876104f1565b5087516323b872dd60e01b60208201908152336024830152306044830152606480830188905282529160a08201908111828210176103a3578952516020918a919082855af1156103995787513d6103905750803b155b61037a5750918680949261034b9796948254169387519889968795869463cac88ea960e01b8652850152602435602485015260a0604485015260a4840190610590565b906064830152608435608483015203925af19182156101905783610167949361016b57505051918291826103f4565b82602491885191635274afe760e01b8352820152fd5b60011415610308565b86513d89823e3d90fd5b634e487b7160e01b8b526041865260248bfd5b8680fd5b8580fd5b9181601f840112156103ef5782359167ffffffffffffffff83116103ef576020808501948460051b0101116103ef57565b600080fd5b602090602060408183019282815285518094520193019160005b82811061041c575050505090565b83518552938101939281019260010161040e565b6080810190811067ffffffffffffffff82111761044c57604052565b634e487b7160e01b600052604160045260246000fd5b90601f8019910116810190811067ffffffffffffffff82111761044c57604052565b604090604051916040830183811067ffffffffffffffff82111761044c5760405260018352829160005b6020808210156104e9578351602092916104c782610430565b60008252600081830152600086830152600060608301528288010152016104ae565b505091925050565b8051156104fe5760200190565b634e487b7160e01b600052603260045260246000fd5b9060209081838203126103ef57825167ffffffffffffffff938482116103ef570181601f820112156103ef57805193841161044c578360051b906040519461055e85840187610462565b855283808601928201019283116103ef578301905b828210610581575050505090565b81518152908301908301610573565b90815180825260208080930193019160005b8281106105b0575050505090565b835180516001600160a01b039081168752818401518116878501526040808301511515908801526060918201511690860152608090940193928101926001016105a256fea264697066735822122096cbb25601d1c17a640e68c7ca5113ad147e9f14a0dee5543bac48bdad09e7e864736f6c63430008160033",
  "linkReferences": {},
  "deployedLinkReferences": {}
}