{
  "_format": "hh-sol-artifact-1",
  "contractName": "Minter",
  "sourceName": "contracts/token/Minter.sol",
  "abi": [
    {
      "inputs": [],
      "stateMutability": "nonpayable",
      "type": "constructor"
    },
    {
      "inputs": [],
      "name": "InvalidInitialization",
      "type": "error"
    },
    {
      "inputs": [],
      "name": "NotInitializing",
      "type": "error"
    },
    {
      "inputs": [
        {
          "internalType": "address",
          "name": "owner",
          "type": "address"
        }
      ],
      "name": "OwnableInvalidOwner",
      "type": "error"
    },
    {
      "inputs": [
        {
          "internalType": "address",
          "name": "account",
          "type": "address"
        }
      ],
      "name": "OwnableUnauthorizedAccount",
      "type": "error"
    },
    {
      "inputs": [
        {
          "internalType": "address",
          "name": "token",
          "type": "address"
        }
      ],
      "name": "SafeERC20FailedOperation",
      "type": "error"
    },
    {
      "anonymous": false,
      "inputs": [
        {
          "indexed": true,
          "internalType": "uint256",
          "name": "virtualId",
          "type": "uint256"
        },
        {
          "indexed": false,
          "internalType": "uint256",
          "name": "newMultiplier",
          "type": "uint256"
        }
      ],
      "name": "AgentIPShareUpdated",
      "type": "event"
    },
    {
      "anonymous": false,
      "inputs": [
        {
          "indexed": true,
          "internalType": "uint256",
          "name": "virtualId",
          "type": "uint256"
        },
        {
          "indexed": false,
          "internalType": "uint256",
          "name": "newMultiplier",
          "type": "uint256"
        }
      ],
      "name": "AgentImpactMultiplierUpdated",
      "type": "event"
    },
    {
      "anonymous": false,
      "inputs": [
        {
          "indexed": false,
          "internalType": "uint256",
          "name": "newMultiplier",
          "type": "uint256"
        }
      ],
      "name": "IPShareUpdated",
      "type": "event"
    },
    {
      "anonymous": false,
      "inputs": [
        {
          "indexed": false,
          "internalType": "uint256",
          "name": "newMultiplier",
          "type": "uint256"
        }
      ],
      "name": "ImpactMultiplierUpdated",
      "type": "event"
    },
    {
      "anonymous": false,
      "inputs": [
        {
          "indexed": false,
          "internalType": "uint64",
          "name": "version",
          "type": "uint64"
        }
      ],
      "name": "Initialized",
      "type": "event"
    },
    {
      "anonymous": false,
      "inputs": [
        {
          "indexed": true,
          "internalType": "address",
          "name": "previousOwner",
          "type": "address"
        },
        {
          "indexed": true,
          "internalType": "address",
          "name": "newOwner",
          "type": "address"
        }
      ],
      "name": "OwnershipTransferred",
      "type": "event"
    },
    {
      "anonymous": false,
      "inputs": [
        {
          "indexed": true,
          "internalType": "address",
          "name": "by",
          "type": "address"
        },
        {
          "indexed": true,
          "internalType": "address",
          "name": "receiver",
          "type": "address"
        },
        {
          "indexed": true,
          "internalType": "address",
          "name": "token",
          "type": "address"
        },
        {
          "indexed": false,
          "internalType": "uint256",
          "name": "amount",
          "type": "uint256"
        }
      ],
      "name": "TokenSaved",
      "type": "event"
    },
    {
      "inputs": [],
      "name": "DENOM",
      "outputs": [
        {
          "internalType": "uint256",
          "name": "",
          "type": "uint256"
        }
      ],
      "stateMutability": "view",
      "type": "function"
    },
    {
      "inputs": [],
      "name": "agentNft",
      "outputs": [
        {
          "internalType": "address",
          "name": "",
          "type": "address"
        }
      ],
      "stateMutability": "view",
      "type": "function"
    },
    {
      "inputs": [],
      "name": "contributionNft",
      "outputs": [
        {
          "internalType": "address",
          "name": "",
          "type": "address"
        }
      ],
      "stateMutability": "view",
      "type": "function"
    },
    {
      "inputs": [
        {
          "internalType": "uint256",
          "name": "",
          "type": "uint256"
        }
      ],
      "name": "impactMulOverrides",
      "outputs": [
        {
          "internalType": "uint256",
          "name": "",
          "type": "uint256"
        }
      ],
      "stateMutability": "view",
      "type": "function"
    },
    {
      "inputs": [],
      "name": "impactMultiplier",
      "outputs": [
        {
          "internalType": "uint256",
          "name": "",
          "type": "uint256"
        }
      ],
      "stateMutability": "view",
      "type": "function"
    },
    {
      "inputs": [
        {
          "internalType": "address",
          "name": "serviceAddress",
          "type": "address"
        },
        {
          "internalType": "address",
          "name": "contributionAddress",
          "type": "address"
        },
        {
          "internalType": "address",
          "name": "agentAddress",
          "type": "address"
        },
        {
          "internalType": "uint256",
          "name": "ipShare_",
          "type": "uint256"
        },
        {
          "internalType": "uint256",
          "name": "impactMultiplier_",
          "type": "uint256"
        },
        {
          "internalType": "address",
          "name": "ipVault_",
          "type": "address"
        },
        {
          "internalType": "address",
          "name": "agentFactory_",
          "type": "address"
        },
        {
          "internalType": "address",
          "name": "initialOwner",
          "type": "address"
        },
        {
          "internalType": "uint256",
          "name": "maxImpact_",
          "type": "uint256"
        }
      ],
      "name": "initialize",
      "outputs": [],
      "stateMutability": "nonpayable",
      "type": "function"
    },
    {
      "inputs": [],
      "name": "ipShare",
      "outputs": [
        {
          "internalType": "uint256",
          "name": "",
          "type": "uint256"
        }
      ],
      "stateMutability": "view",
      "type": "function"
    },
    {
      "inputs": [
        {
          "internalType": "uint256",
          "name": "",
          "type": "uint256"
        }
      ],
      "name": "ipShareOverrides",
      "outputs": [
        {
          "internalType": "uint256",
          "name": "",
          "type": "uint256"
        }
      ],
      "stateMutability": "view",
      "type": "function"
    },
    {
      "inputs": [],
      "name": "ipVault",
      "outputs": [
        {
          "internalType": "address",
          "name": "",
          "type": "address"
        }
      ],
      "stateMutability": "view",
      "type": "function"
    },
    {
      "inputs": [],
      "name": "maxImpact",
      "outputs": [
        {
          "internalType": "uint256",
          "name": "",
          "type": "uint256"
        }
      ],
      "stateMutability": "view",
      "type": "function"
    },
    {
      "inputs": [
        {
          "internalType": "uint256",
          "name": "nftId",
          "type": "uint256"
        }
      ],
      "name": "mint",
      "outputs": [],
      "stateMutability": "nonpayable",
      "type": "function"
    },
    {
      "inputs": [],
      "name": "owner",
      "outputs": [
        {
          "internalType": "address",
          "name": "",
          "type": "address"
        }
      ],
      "stateMutability": "view",
      "type": "function"
    },
    {
      "inputs": [],
      "name": "renounceOwnership",
      "outputs": [],
      "stateMutability": "nonpayable",
      "type": "function"
    },
    {
      "inputs": [
        {
          "internalType": "address",
          "name": "_token",
          "type": "address"
        },
        {
          "internalType": "address",
          "name": "_receiver",
          "type": "address"
        },
        {
          "internalType": "uint256",
          "name": "_amount",
          "type": "uint256"
        }
      ],
      "name": "saveToken",
      "outputs": [],
      "stateMutability": "nonpayable",
      "type": "function"
    },
    {
      "inputs": [],
      "name": "serviceNft",
      "outputs": [
        {
          "internalType": "address",
          "name": "",
          "type": "address"
        }
      ],
      "stateMutability": "view",
      "type": "function"
    },
    {
      "inputs": [
        {
          "internalType": "address",
          "name": "_factory",
          "type": "address"
        }
      ],
      "name": "setAgentFactory",
      "outputs": [],
      "stateMutability": "nonpayable",
      "type": "function"
    },
    {
      "inputs": [
        {
          "internalType": "address",
          "name": "contributionAddress",
          "type": "address"
        }
      ],
      "name": "setContributionNft",
      "outputs": [],
      "stateMutability": "nonpayable",
      "type": "function"
    },
    {
      "inputs": [
        {
          "internalType": "uint256",
          "name": "_ipShare",
          "type": "uint256"
        }
      ],
      "name": "setIPShare",
      "outputs": [],
      "stateMutability": "nonpayable",
      "type": "function"
    },
    {
      "inputs": [
        {
          "internalType": "uint256",
          "name": "virtualId",
          "type": "uint256"
        },
        {
          "internalType": "uint256",
          "name": "_ipShare",
          "type": "uint256"
        }
      ],
      "name": "setIPShareOverride",
      "outputs": [],
      "stateMutability": "nonpayable",
      "type": "function"
    },
    {
      "inputs": [
        {
          "internalType": "address",
          "name": "_ipVault",
          "type": "address"
        }
      ],
      "name": "setIPVault",
      "outputs": [],
      "stateMutability": "nonpayable",
      "type": "function"
    },
    {
      "inputs": [
        {
          "internalType": "uint256",
          "name": "virtualId",
          "type": "uint256"
        },
        {
          "internalType": "uint256",
          "name": "mul",
          "type": "uint256"
        }
      ],
      "name": "setImpactMulOverride",
      "outputs": [],
      "stateMutability": "nonpayable",
      "type": "function"
    },
    {
      "inputs": [
        {
          "internalType": "uint256",
          "name": "_multiplier",
          "type": "uint256"
        }
      ],
      "name": "setImpactMultiplier",
      "outputs": [],
      "stateMutability": "nonpayable",
      "type": "function"
    },
    {
      "inputs": [
        {
          "internalType": "uint256",
          "name": "maxImpact_",
          "type": "uint256"
        }
      ],
      "name": "setMaxImpact",
      "outputs": [],
      "stateMutability": "nonpayable",
      "type": "function"
    },
    {
      "inputs": [
        {
          "internalType": "address",
          "name": "serviceAddress",
          "type": "address"
        }
      ],
      "name": "setServiceNft",
      "outputs": [],
      "stateMutability": "nonpayable",
      "type": "function"
    },
    {
      "inputs": [
        {
          "internalType": "address",
          "name": "newOwner",
          "type": "address"
        }
      ],
      "name": "transferOwnership",
      "outputs": [],
      "stateMutability": "nonpayable",
      "type": "function"
    }
  ],
  "bytecode": "0x608080604052346100b8577ff0c57e16840df040f15088dc2f81fe391c3923bec73e23a9662efc9c229c6a009081549060ff8260401c166100a957506001600160401b036002600160401b031982821601610064575b60405161143590816100be8239f35b6001600160401b031990911681179091556040519081527fc7f505b2f371ae2175ee4913f4499e1f2633a7b5936321eed1cdaeb6115181d290602090a1388080610055565b63f92ee8a960e01b8152600490fd5b600080fdfe610120604060a0528060a051526004908136101561001c57600080fd5b600061010052610100513560e01c90816307c1aa1a14611103575080630a2f51dc146110bd5780630dceec231461109857806316343da4146110785780631c56b1df146110325780632a964f7e146110115780632bfd2dd814610e225780634ad4c19c14610df15780635423771814610dd05780636846545414610d7e578063715018a614610d0b5780637a6649e114610cb95780637caf907314610c6c5780637cc1ce9e14610c265780638da5cb5b14610bed5780639863bbe514610bbc5780639afdb2c214610ad15780639cbef4a914610aa5578063a0712d6814610370578063a414a37214610344578063d11a675c14610323578063e56efef5146102f5578063f2fde38b146102c5578063f62d5008146102665763fb720a161461014357600080fd5b3461025f576101513661115a565b60025460a05151635652386760e11b815280850184905261010051939492936001600160a01b03928290602490829086165afa90811561025057610100519161022b575b50511633036101e6575060207f321b7627bf4bead82276d804d9f54a66c3da4fa43a3619ccea184b233a34278591836101005152600982528060a05161010051205560a05151908152a26101005180f35b606490602060a051519162461bcd60e51b8352820152601a60248201527f4f6e6c79204167656e742044414f2063616e206f7065726174650000000000006044820152fd5b61024a91503d8061010051833e6102428183611170565b8101906111bc565b38610195565b60a051513d61010051823e3d90fd5b6101005180fd5b3461025f5760207f9aaa975f1dff38a27549d33f7427d17b874eca174092041f2487ce5d8edaed566102973661115a565b6102a2939193611365565b836101005152600882528060a05161010051205560a05151908152a26101005180f35b3461025f57602036600319011261025f576102ee6102e1611129565b6102e9611365565b6112f1565b6101005180f35b3461025f576101005136600319011261025f57610100515460a051516001600160a01b039091168152602090f35b3461025f576101005136600319011261025f57602060055460a05151908152f35b3461025f576101005136600319011261025f5760035460a051516001600160a01b039091168152602090f35b503461025f57602060c081905236600319011261025f57803590600a5460ff8116610a6e5760019060ff1960e05260e0511617600a55816101005152600760c0515260ff60a05161010051205416610a365760015460a0515163ccc16f6960e01b815282810184905260c0516001600160a01b039491926024919084908390829089165afa928315610250576101005193610a00575b5082156109c857816101005152600760c0515260a0516101005120600160e051825416179055846002541660a0515190635652386760e11b8252848683015281838161010051935afa801561025057869161010051916109ab575b5060c0510151169185600154169360a05151638209c69960e01b8152828782015260c051818581895afa90811561025057610100519161098c575b5015610947576101005152600860c0515260a05161010051205490811561093d575b60a05151906360a58cbd60e11b8252808783015260c051828581895afa918215610250576101005192610907575b50876101005154169260a0515163e6aed85760e01b90818152838a82015260c051818881895afa8015610250576101005184916108d1575b60065461053a93508082116108c9575b506112c8565b91670de0b6b3a764000092838102908082048514901517156108b1578515801560805261271090910496906108a35760a05151928352858b84015282888160c051935afa801561025057610100519061086f575b61059892506112c8565b818102918183041490151715610857576127109004925b83810180821161083f576105c8612710918a54906112c8565b049681610763575b505050608051610681575b505050816105f8575b60e051600a5416600a556101005161010051f35b610634936003541660a0515180958194829363a9059cbb60e01b845260c05197840160209093929193604081019460018060a01b031681520152565b039161010051905af1801561025057610650575b8080806105e4565b6106739060c0513d60c0511161067a575b61066b8183611170565b8101906112b0565b5038610648565b503d610661565b86600154169060a051519384916331a9108f60e11b8352888301528160c051935afa908115610250576101005191610724575b60a0515163a9059cbb60e01b815260c0516001600160a01b0390931687820190815260208101929092529250829081906040015b038161010051865af1801561025057610703575b80806105db565b61071d9060c0513d60c0511161067a5761066b8183611170565b50386106fc565b905060c0513d60c0511161075c575b61073d8184611170565b8260c051918101031261025f576107566106e8926111a8565b906106b4565b503d610733565b60a05151926331a9108f60e11b84528984015282868160c051935afa908115610250576101005191610800575b60a0515163a9059cbb60e01b815260c0516001600160a01b039093168a820190815260208101929092529250829081906040015b038161010051895af18015610250576107df575b80806105d0565b6107f99060c0513d60c0511161067a5761066b8183611170565b50386107d8565b905060c0513d60c05111610838575b6108198184611170565b8260c051918101031261025f576108326107c4926111a8565b90610790565b503d61080f565b8560118a634e487b7160e01b61010051525261010051fd5b84601189634e487b7160e01b61010051525261010051fd5b5060c0513d811161089c575b6108858184611170565b8260c051918101031261025f57610598915161058e565b503d61087b565b5050505061010051926105af565b8760118c634e487b7160e01b61010051525261010051fd5b905038610534565b505060c0513d8111610900575b6108e88183611170565b8160c051918101031261025f578261053a9151610524565b503d6108de565b90915060c0513d60c05111610936575b6109218183611170565b8160c051918101031261025f575190386104ec565b503d610917565b60055491506104be565b60a0515162461bcd60e51b815260c051818801526018818501527f4e6f742061206d6f64656c20636f6e747269627574696f6e00000000000000006044820152606490fd5b60c0516109a592503d811161067a5761066b8183611170565b3861049c565b6109c291503d8061010051833e6102428183611170565b38610461565b83600f60649260a051519262461bcd60e51b845260c051908401528201526e1059d95b9d081b9bdd08199bdd5b99608a1b6044820152fd5b90925060c0513d60c05111610a2f575b610a1a8183611170565b8160c051918101031261025f57519138610406565b503d610a10565b60649060a051519062461bcd60e51b825260c05190820152600e60248201526d105b1c9958591e481b5a5b9d195960921b6044820152fd5b60a0515162461bcd60e51b815260c05181840152600e60248201526d31b0b73737ba103932b2b73a32b960911b6044820152606490fd5b3461025f576101005136600319011261025f5760025460a051516001600160a01b039091168152602090f35b503461025f57606036600319011261025f57610aeb611129565b610af3611144565b9060443591610b00611365565b60a0515163a9059cbb60e01b60208083019182526001600160a01b0384811660248501526044808501889052845294851696929091610b40606483611170565b6101005191519082895af1156102505761010051513d610bb35750843b155b610b9a575060a0515192835216907f30d87cec6b4c56cede1018725d1e6d9304e2f7ee6d25b004b7e2183f793f26bc60203392a46101005180f35b60a05151635274afe760e01b8152908101859052602490fd5b60011415610b5f565b503461025f57602036600319011261025f573561010051526009602052602060a05161010051205460a05151908152f35b3461025f576101005136600319011261025f576000805160206113e08339815191525460a051516001600160a01b039091168152602090f35b3461025f57602036600319011261025f57610c3f611129565b610c47611365565b6101005180546001600160a01b0319166001600160a01b039290921691909117815580f35b3461025f57602036600319011261025f57610c85611129565b610c8d611365565b600a8054610100600160a81b03191660089290921b610100600160a81b03169190911790556101005180f35b503461025f57602036600319011261025f576020817f9e4bbaa2f4ca6ad925ae5b0cf0127f1b1c7efb69bdb88fac377ccc1fde7668b692358091610cfb611365565b5560a05151908152a16101005180f35b3461025f576101005136600319011261025f57610d26611365565b6000805160206113e083398151915280546001600160a01b0319811690915561010051906001600160a01b03167f8be0079c531659141344cd1fd0a4f28419497f9722a3daafe3b4186f6b6457e08280a36101005180f35b503461025f57602036600319011261025f5760207ffd7acb0863c4ee814c494dda5a7889b7823328b7b3518cfd0d5881c6b7de46949135610dbd611365565b8060055560a05151908152a16101005180f35b3461025f576101005136600319011261025f57602060065460a05151908152f35b503461025f57602036600319011261025f573561010051526008602052602060a05161010051205460a05151908152f35b503461025f5761012036600319011261025f57610e3d611129565b610e45611144565b916001600160a01b039160443583811692919083900361025f5760a4359184831680930361025f5760c43593858516850361025f5760e43595808716870361025f577ff0c57e16840df040f15088dc2f81fe391c3923bec73e23a9662efc9c229c6a009788549760ff8960a0511c16159867ffffffffffffffff811680159081611009575b6001149081610fff575b159081610ff6575b50610fe45767ffffffffffffffff1981166001178b55610f0e91908a610fc5575b50610f0661139e565b6102e961139e565b816001600160601b0360a01b9516856101005154161761010051551683600154161760015582600254161760025560643590556084356005556003541617600355600a5490610100600160a81b039060081b1690610100600160a81b03191617600a5561010435600655610f83576101005180f35b68ff00000000000000001981541690557fc7f505b2f371ae2175ee4913f4499e1f2633a7b5936321eed1cdaeb6115181d2602060a0515160018152a1386102ee565b68ffffffffffffffffff191668010000000000000001178b5538610efd565b60a0515163f92ee8a960e01b81528690fd5b90501538610edc565b303b159150610ed4565b8b9150610eca565b503461025f576101005136600319011261025f576020905460a05151908152f35b3461025f57602036600319011261025f5761104b611129565b611053611365565b60018060a01b03166001600160601b0360a01b60015416176001556101005161010051f35b3461025f576101005136600319011261025f57602060a051516127108152f35b503461025f57602036600319011261025f576110b2611365565b356006556101005180f35b3461025f57602036600319011261025f576110d6611129565b6110de611365565b60018060a01b03166001600160601b0360a01b60035416176003556101005161010051f35b3461025f576101005136600319011261025f576001546001600160a01b03168152602090f35b600435906001600160a01b038216820361113f57565b600080fd5b602435906001600160a01b038216820361113f57565b604090600319011261113f576004359060243590565b90601f8019910116810190811067ffffffffffffffff82111761119257604052565b634e487b7160e01b600052604160045260246000fd5b51906001600160a01b038216820361113f57565b6020808284031261113f57815167ffffffffffffffff9283821161113f57019260a08482031261113f576040519360a085018581108582111761119257604052611205816111a8565b85526112128382016111a8565b83860152611222604082016111a8565b6040860152611233606082016111a8565b606086015260808101519084821161113f570181601f8201121561113f578051938411611192578360051b906040519461126f85840187611170565b8552838086019282010192831161113f578301905b8282106112975750505050608082015290565b815160ff8116810361113f578152908301908301611284565b9081602091031261113f5751801515810361113f5790565b818102929181159184041417156112db57565b634e487b7160e01b600052601160045260246000fd5b6001600160a01b0390811690811561134c576000805160206113e083398151915280546001600160a01b031981168417909155167f8be0079c531659141344cd1fd0a4f28419497f9722a3daafe3b4186f6b6457e0600080a3565b604051631e4fbdf760e01b815260006004820152602490fd5b6000805160206113e0833981519152546001600160a01b0316330361138657565b60405163118cdaa760e01b8152336004820152602490fd5b60ff7ff0c57e16840df040f15088dc2f81fe391c3923bec73e23a9662efc9c229c6a005460401c16156113cd57565b604051631afcd79f60e31b8152600490fdfe9016d09d72d40fdae2fd8ceac6b6234c7706214fd39c1cd1e609a0528c199300a2646970667358221220ee7933d532aa749596837181ed7722abaffafc246f9c1c46e72214fb15bca3ea64736f6c63430008160033",
  "linkReferences": {},
  "deployedLinkReferences": {}
}