{
  "_format": "hh-sol-artifact-1",
  "contractName": "AgentNftV2",
  "sourceName": "contracts/virtualPersona/AgentNftV2.sol",
  "abi": [
    {
      "inputs": [],
      "stateMutability": "nonpayable",
      "type": "constructor"
    },
    {
      "inputs": [],
      "name": "AccessControlBadConfirmation",
      "type": "error"
    },
    {
      "inputs": [
        {
          "internalType": "address",
          "name": "account",
          "type": "address"
        },
        {
          "internalType": "bytes32",
          "name": "neededRole",
          "type": "bytes32"
        }
      ],
      "name": "AccessControlUnauthorizedAccount",
      "type": "error"
    },
    {
      "inputs": [
        {
          "internalType": "address",
          "name": "sender",
          "type": "address"
        },
        {
          "internalType": "uint256",
          "name": "tokenId",
          "type": "uint256"
        },
        {
          "internalType": "address",
          "name": "owner",
          "type": "address"
        }
      ],
      "name": "ERC721IncorrectOwner",
      "type": "error"
    },
    {
      "inputs": [
        {
          "internalType": "address",
          "name": "operator",
          "type": "address"
        },
        {
          "internalType": "uint256",
          "name": "tokenId",
          "type": "uint256"
        }
      ],
      "name": "ERC721InsufficientApproval",
      "type": "error"
    },
    {
      "inputs": [
        {
          "internalType": "address",
          "name": "approver",
          "type": "address"
        }
      ],
      "name": "ERC721InvalidApprover",
      "type": "error"
    },
    {
      "inputs": [
        {
          "internalType": "address",
          "name": "operator",
          "type": "address"
        }
      ],
      "name": "ERC721InvalidOperator",
      "type": "error"
    },
    {
      "inputs": [
        {
          "internalType": "address",
          "name": "owner",
          "type": "address"
        }
      ],
      "name": "ERC721InvalidOwner",
      "type": "error"
    },
    {
      "inputs": [
        {
          "internalType": "address",
          "name": "receiver",
          "type": "address"
        }
      ],
      "name": "ERC721InvalidReceiver",
      "type": "error"
    },
    {
      "inputs": [
        {
          "internalType": "address",
          "name": "sender",
          "type": "address"
        }
      ],
      "name": "ERC721InvalidSender",
      "type": "error"
    },
    {
      "inputs": [
        {
          "internalType": "uint256",
          "name": "tokenId",
          "type": "uint256"
        }
      ],
      "name": "ERC721NonexistentToken",
      "type": "error"
    },
    {
      "inputs": [],
      "name": "InvalidInitialization",
      "type": "error"
    },
    {
      "inputs": [],
      "name": "NotInitializing",
      "type": "error"
    },
    {
      "anonymous": false,
      "inputs": [
        {
          "indexed": true,
          "internalType": "uint256",
          "name": "virtualId",
          "type": "uint256"
        },
        {
          "indexed": false,
          "internalType": "bool",
          "name": "value",
          "type": "bool"
        }
      ],
      "name": "AgentBlacklisted",
      "type": "event"
    },
    {
      "anonymous": false,
      "inputs": [
        {
          "indexed": true,
          "internalType": "address",
          "name": "owner",
          "type": "address"
        },
        {
          "indexed": true,
          "internalType": "address",
          "name": "approved",
          "type": "address"
        },
        {
          "indexed": true,
          "internalType": "uint256",
          "name": "tokenId",
          "type": "uint256"
        }
      ],
      "name": "Approval",
      "type": "event"
    },
    {
      "anonymous": false,
      "inputs": [
        {
          "indexed": true,
          "internalType": "address",
          "name": "owner",
          "type": "address"
        },
        {
          "indexed": true,
          "internalType": "address",
          "name": "operator",
          "type": "address"
        },
        {
          "indexed": false,
          "internalType": "bool",
          "name": "approved",
          "type": "bool"
        }
      ],
      "name": "ApprovalForAll",
      "type": "event"
    },
    {
      "anonymous": false,
      "inputs": [
        {
          "indexed": false,
          "internalType": "uint256",
          "name": "_fromTokenId",
          "type": "uint256"
        },
        {
          "indexed": false,
          "internalType": "uint256",
          "name": "_toTokenId",
          "type": "uint256"
        }
      ],
      "name": "BatchMetadataUpdate",
      "type": "event"
    },
    {
      "anonymous": false,
      "inputs": [
        {
          "indexed": false,
          "internalType": "uint256",
          "name": "virtualId",
          "type": "uint256"
        },
        {
          "indexed": false,
          "internalType": "uint8[]",
          "name": "coreTypes",
          "type": "uint8[]"
        }
      ],
      "name": "CoresUpdated",
      "type": "event"
    },
    {
      "anonymous": false,
      "inputs": [
        {
          "indexed": false,
          "internalType": "uint64",
          "name": "version",
          "type": "uint64"
        }
      ],
      "name": "Initialized",
      "type": "event"
    },
    {
      "anonymous": false,
      "inputs": [
        {
          "indexed": false,
          "internalType": "uint256",
          "name": "_tokenId",
          "type": "uint256"
        }
      ],
      "name": "MetadataUpdate",
      "type": "event"
    },
    {
      "anonymous": false,
      "inputs": [
        {
          "indexed": false,
          "internalType": "uint8",
          "name": "coreType",
          "type": "uint8"
        },
        {
          "indexed": false,
          "internalType": "string",
          "name": "label",
          "type": "string"
        }
      ],
      "name": "NewCoreType",
      "type": "event"
    },
    {
      "anonymous": false,
      "inputs": [
        {
          "indexed": false,
          "internalType": "uint256",
          "name": "virtualId",
          "type": "uint256"
        },
        {
          "indexed": false,
          "internalType": "address",
          "name": "account",
          "type": "address"
        }
      ],
      "name": "NewValidator",
      "type": "event"
    },
    {
      "anonymous": false,
      "inputs": [
        {
          "indexed": true,
          "internalType": "bytes32",
          "name": "role",
          "type": "bytes32"
        },
        {
          "indexed": true,
          "internalType": "bytes32",
          "name": "previousAdminRole",
          "type": "bytes32"
        },
        {
          "indexed": true,
          "internalType": "bytes32",
          "name": "newAdminRole",
          "type": "bytes32"
        }
      ],
      "name": "RoleAdminChanged",
      "type": "event"
    },
    {
      "anonymous": false,
      "inputs": [
        {
          "indexed": true,
          "internalType": "bytes32",
          "name": "role",
          "type": "bytes32"
        },
        {
          "indexed": true,
          "internalType": "address",
          "name": "account",
          "type": "address"
        },
        {
          "indexed": true,
          "internalType": "address",
          "name": "sender",
          "type": "address"
        }
      ],
      "name": "RoleGranted",
      "type": "event"
    },
    {
      "anonymous": false,
      "inputs": [
        {
          "indexed": true,
          "internalType": "bytes32",
          "name": "role",
          "type": "bytes32"
        },
        {
          "indexed": true,
          "internalType": "address",
          "name": "account",
          "type": "address"
        },
        {
          "indexed": true,
          "internalType": "address",
          "name": "sender",
          "type": "address"
        }
      ],
      "name": "RoleRevoked",
      "type": "event"
    },
    {
      "anonymous": false,
      "inputs": [
        {
          "indexed": true,
          "internalType": "address",
          "name": "from",
          "type": "address"
        },
        {
          "indexed": true,
          "internalType": "address",
          "name": "to",
          "type": "address"
        },
        {
          "indexed": true,
          "internalType": "uint256",
          "name": "tokenId",
          "type": "uint256"
        }
      ],
      "name": "Transfer",
      "type": "event"
    },
    {
      "inputs": [],
      "name": "ADMIN_ROLE",
      "outputs": [
        {
          "internalType": "bytes32",
          "name": "",
          "type": "bytes32"
        }
      ],
      "stateMutability": "view",
      "type": "function"
    },
    {
      "inputs": [],
      "name": "DEFAULT_ADMIN_ROLE",
      "outputs": [
        {
          "internalType": "bytes32",
          "name": "",
          "type": "bytes32"
        }
      ],
      "stateMutability": "view",
      "type": "function"
    },
    {
      "inputs": [],
      "name": "MINTER_ROLE",
      "outputs": [
        {
          "internalType": "bytes32",
          "name": "",
          "type": "bytes32"
        }
      ],
      "stateMutability": "view",
      "type": "function"
    },
    {
      "inputs": [],
      "name": "VALIDATOR_ADMIN_ROLE",
      "outputs": [
        {
          "internalType": "bytes32",
          "name": "",
          "type": "bytes32"
        }
      ],
      "stateMutability": "view",
      "type": "function"
    },
    {
      "inputs": [
        {
          "internalType": "string",
          "name": "label",
          "type": "string"
        }
      ],
      "name": "addCoreType",
      "outputs": [],
      "stateMutability": "nonpayable",
      "type": "function"
    },
    {
      "inputs": [
        {
          "internalType": "uint256",
          "name": "virtualId",
          "type": "uint256"
        },
        {
          "internalType": "address",
          "name": "validator",
          "type": "address"
        }
      ],
      "name": "addValidator",
      "outputs": [],
      "stateMutability": "nonpayable",
      "type": "function"
    },
    {
      "inputs": [
        {
          "internalType": "address",
          "name": "to",
          "type": "address"
        },
        {
          "internalType": "uint256",
          "name": "tokenId",
          "type": "uint256"
        }
      ],
      "name": "approve",
      "outputs": [],
      "stateMutability": "nonpayable",
      "type": "function"
    },
    {
      "inputs": [
        {
          "internalType": "address",
          "name": "owner",
          "type": "address"
        }
      ],
      "name": "balanceOf",
      "outputs": [
        {
          "internalType": "uint256",
          "name": "",
          "type": "uint256"
        }
      ],
      "stateMutability": "view",
      "type": "function"
    },
    {
      "inputs": [
        {
          "internalType": "uint8",
          "name": "",
          "type": "uint8"
        }
      ],
      "name": "coreTypes",
      "outputs": [
        {
          "internalType": "string",
          "name": "",
          "type": "string"
        }
      ],
      "stateMutability": "view",
      "type": "function"
    },
    {
      "inputs": [
        {
          "internalType": "uint256",
          "name": "virtualId",
          "type": "uint256"
        }
      ],
      "name": "getAllServices",
      "outputs": [
        {
          "internalType": "uint256[]",
          "name": "",
          "type": "uint256[]"
        }
      ],
      "stateMutability": "view",
      "type": "function"
    },
    {
      "inputs": [
        {
          "internalType": "uint256",
          "name": "tokenId",
          "type": "uint256"
        }
      ],
      "name": "getApproved",
      "outputs": [
        {
          "internalType": "address",
          "name": "",
          "type": "address"
        }
      ],
      "stateMutability": "view",
      "type": "function"
    },
    {
      "inputs": [],
      "name": "getContributionNft",
      "outputs": [
        {
          "internalType": "address",
          "name": "",
          "type": "address"
        }
      ],
      "stateMutability": "view",
      "type": "function"
    },
    {
      "inputs": [],
      "name": "getEloCalculator",
      "outputs": [
        {
          "internalType": "address",
          "name": "",
          "type": "address"
        }
      ],
      "stateMutability": "view",
      "type": "function"
    },
    {
      "inputs": [
        {
          "internalType": "uint256",
          "name": "virtualId",
          "type": "uint256"
        },
        {
          "internalType": "address",
          "name": "validator",
          "type": "address"
        },
        {
          "internalType": "uint256",
          "name": "timepoint",
          "type": "uint256"
        }
      ],
      "name": "getPastValidatorScore",
      "outputs": [
        {
          "internalType": "uint256",
          "name": "",
          "type": "uint256"
        }
      ],
      "stateMutability": "view",
      "type": "function"
    },
    {
      "inputs": [
        {
          "internalType": "bytes32",
          "name": "role",
          "type": "bytes32"
        }
      ],
      "name": "getRoleAdmin",
      "outputs": [
        {
          "internalType": "bytes32",
          "name": "",
          "type": "bytes32"
        }
      ],
      "stateMutability": "view",
      "type": "function"
    },
    {
      "inputs": [],
      "name": "getServiceNft",
      "outputs": [
        {
          "internalType": "address",
          "name": "",
          "type": "address"
        }
      ],
      "stateMutability": "view",
      "type": "function"
    },
    {
      "inputs": [
        {
          "internalType": "uint256",
          "name": "virtualId",
          "type": "uint256"
        },
        {
          "internalType": "address",
          "name": "validator",
          "type": "address"
        }
      ],
      "name": "getVotes",
      "outputs": [
        {
          "internalType": "uint256",
          "name": "",
          "type": "uint256"
        }
      ],
      "stateMutability": "view",
      "type": "function"
    },
    {
      "inputs": [
        {
          "internalType": "bytes32",
          "name": "role",
          "type": "bytes32"
        },
        {
          "internalType": "address",
          "name": "account",
          "type": "address"
        }
      ],
      "name": "grantRole",
      "outputs": [],
      "stateMutability": "nonpayable",
      "type": "function"
    },
    {
      "inputs": [
        {
          "internalType": "bytes32",
          "name": "role",
          "type": "bytes32"
        },
        {
          "internalType": "address",
          "name": "account",
          "type": "address"
        }
      ],
      "name": "hasRole",
      "outputs": [
        {
          "internalType": "bool",
          "name": "",
          "type": "bool"
        }
      ],
      "stateMutability": "view",
      "type": "function"
    },
    {
      "inputs": [
        {
          "internalType": "address",
          "name": "defaultAdmin",
          "type": "address"
        }
      ],
      "name": "initialize",
      "outputs": [],
      "stateMutability": "nonpayable",
      "type": "function"
    },
    {
      "inputs": [
        {
          "internalType": "address",
          "name": "owner",
          "type": "address"
        },
        {
          "internalType": "address",
          "name": "operator",
          "type": "address"
        }
      ],
      "name": "isApprovedForAll",
      "outputs": [
        {
          "internalType": "bool",
          "name": "",
          "type": "bool"
        }
      ],
      "stateMutability": "view",
      "type": "function"
    },
    {
      "inputs": [
        {
          "internalType": "uint256",
          "name": "virtualId",
          "type": "uint256"
        }
      ],
      "name": "isBlacklisted",
      "outputs": [
        {
          "internalType": "bool",
          "name": "",
          "type": "bool"
        }
      ],
      "stateMutability": "view",
      "type": "function"
    },
    {
      "inputs": [
        {
          "internalType": "uint256",
          "name": "virtualId",
          "type": "uint256"
        },
        {
          "internalType": "address",
          "name": "account",
          "type": "address"
        }
      ],
      "name": "isValidator",
      "outputs": [
        {
          "internalType": "bool",
          "name": "",
          "type": "bool"
        }
      ],
      "stateMutability": "view",
      "type": "function"
    },
    {
      "inputs": [],
      "name": "migrateScoreFunctions",
      "outputs": [],
      "stateMutability": "nonpayable",
      "type": "function"
    },
    {
      "inputs": [
        {
          "internalType": "uint256",
          "name": "virtualId",
          "type": "uint256"
        },
        {
          "internalType": "address",
          "name": "dao",
          "type": "address"
        },
        {
          "internalType": "address",
          "name": "token",
          "type": "address"
        },
        {
          "internalType": "address",
          "name": "pool",
          "type": "address"
        },
        {
          "internalType": "address",
          "name": "veToken",
          "type": "address"
        }
      ],
      "name": "migrateVirtual",
      "outputs": [],
      "stateMutability": "nonpayable",
      "type": "function"
    },
    {
      "inputs": [
        {
          "internalType": "uint256",
          "name": "virtualId",
          "type": "uint256"
        },
        {
          "internalType": "address",
          "name": "to",
          "type": "address"
        },
        {
          "internalType": "string",
          "name": "newTokenURI",
          "type": "string"
        },
        {
          "internalType": "address payable",
          "name": "theDAO",
          "type": "address"
        },
        {
          "internalType": "address",
          "name": "founder",
          "type": "address"
        },
        {
          "internalType": "uint8[]",
          "name": "coreTypes",
          "type": "uint8[]"
        },
        {
          "internalType": "address",
          "name": "pool",
          "type": "address"
        },
        {
          "internalType": "address",
          "name": "token",
          "type": "address"
        }
      ],
      "name": "mint",
      "outputs": [
        {
          "internalType": "uint256",
          "name": "",
          "type": "uint256"
        }
      ],
      "stateMutability": "nonpayable",
      "type": "function"
    },
    {
      "inputs": [],
      "name": "name",
      "outputs": [
        {
          "internalType": "string",
          "name": "",
          "type": "string"
        }
      ],
      "stateMutability": "view",
      "type": "function"
    },
    {
      "inputs": [],
      "name": "nextVirtualId",
      "outputs": [
        {
          "internalType": "uint256",
          "name": "",
          "type": "uint256"
        }
      ],
      "stateMutability": "view",
      "type": "function"
    },
    {
      "inputs": [
        {
          "internalType": "uint256",
          "name": "tokenId",
          "type": "uint256"
        }
      ],
      "name": "ownerOf",
      "outputs": [
        {
          "internalType": "address",
          "name": "",
          "type": "address"
        }
      ],
      "stateMutability": "view",
      "type": "function"
    },
    {
      "inputs": [
        {
          "internalType": "bytes32",
          "name": "role",
          "type": "bytes32"
        },
        {
          "internalType": "address",
          "name": "callerConfirmation",
          "type": "address"
        }
      ],
      "name": "renounceRole",
      "outputs": [],
      "stateMutability": "nonpayable",
      "type": "function"
    },
    {
      "inputs": [
        {
          "internalType": "bytes32",
          "name": "role",
          "type": "bytes32"
        },
        {
          "internalType": "address",
          "name": "account",
          "type": "address"
        }
      ],
      "name": "revokeRole",
      "outputs": [],
      "stateMutability": "nonpayable",
      "type": "function"
    },
    {
      "inputs": [
        {
          "internalType": "address",
          "name": "from",
          "type": "address"
        },
        {
          "internalType": "address",
          "name": "to",
          "type": "address"
        },
        {
          "internalType": "uint256",
          "name": "tokenId",
          "type": "uint256"
        }
      ],
      "name": "safeTransferFrom",
      "outputs": [],
      "stateMutability": "nonpayable",
      "type": "function"
    },
    {
      "inputs": [
        {
          "internalType": "address",
          "name": "from",
          "type": "address"
        },
        {
          "internalType": "address",
          "name": "to",
          "type": "address"
        },
        {
          "internalType": "uint256",
          "name": "tokenId",
          "type": "uint256"
        },
        {
          "internalType": "bytes",
          "name": "data",
          "type": "bytes"
        }
      ],
      "name": "safeTransferFrom",
      "outputs": [],
      "stateMutability": "nonpayable",
      "type": "function"
    },
    {
      "inputs": [
        {
          "internalType": "address",
          "name": "operator",
          "type": "address"
        },
        {
          "internalType": "bool",
          "name": "approved",
          "type": "bool"
        }
      ],
      "name": "setApprovalForAll",
      "outputs": [],
      "stateMutability": "nonpayable",
      "type": "function"
    },
    {
      "inputs": [
        {
          "internalType": "uint256",
          "name": "virtualId",
          "type": "uint256"
        },
        {
          "internalType": "bool",
          "name": "value",
          "type": "bool"
        }
      ],
      "name": "setBlacklist",
      "outputs": [],
      "stateMutability": "nonpayable",
      "type": "function"
    },
    {
      "inputs": [
        {
          "internalType": "address",
          "name": "contributionNft_",
          "type": "address"
        },
        {
          "internalType": "address",
          "name": "serviceNft_",
          "type": "address"
        }
      ],
      "name": "setContributionService",
      "outputs": [],
      "stateMutability": "nonpayable",
      "type": "function"
    },
    {
      "inputs": [
        {
          "internalType": "uint256",
          "name": "virtualId",
          "type": "uint256"
        },
        {
          "internalType": "uint8[]",
          "name": "coreTypes",
          "type": "uint8[]"
        }
      ],
      "name": "setCoreTypes",
      "outputs": [],
      "stateMutability": "nonpayable",
      "type": "function"
    },
    {
      "inputs": [
        {
          "internalType": "uint256",
          "name": "virtualId",
          "type": "uint256"
        },
        {
          "internalType": "address",
          "name": "newDAO",
          "type": "address"
        }
      ],
      "name": "setDAO",
      "outputs": [],
      "stateMutability": "nonpayable",
      "type": "function"
    },
    {
      "inputs": [
        {
          "internalType": "address",
          "name": "eloCalculator",
          "type": "address"
        }
      ],
      "name": "setEloCalculator",
      "outputs": [],
      "stateMutability": "nonpayable",
      "type": "function"
    },
    {
      "inputs": [
        {
          "internalType": "uint256",
          "name": "virtualId",
          "type": "uint256"
        },
        {
          "internalType": "address",
          "name": "tba",
          "type": "address"
        }
      ],
      "name": "setTBA",
      "outputs": [],
      "stateMutability": "nonpayable",
      "type": "function"
    },
    {
      "inputs": [
        {
          "internalType": "uint256",
          "name": "virtualId",
          "type": "uint256"
        },
        {
          "internalType": "string",
          "name": "newTokenURI",
          "type": "string"
        }
      ],
      "name": "setTokenURI",
      "outputs": [],
      "stateMutability": "nonpayable",
      "type": "function"
    },
    {
      "inputs": [
        {
          "internalType": "address",
          "name": "stakingToken",
          "type": "address"
        }
      ],
      "name": "stakingTokenToVirtualId",
      "outputs": [
        {
          "internalType": "uint256",
          "name": "",
          "type": "uint256"
        }
      ],
      "stateMutability": "view",
      "type": "function"
    },
    {
      "inputs": [
        {
          "internalType": "bytes4",
          "name": "interfaceId",
          "type": "bytes4"
        }
      ],
      "name": "supportsInterface",
      "outputs": [
        {
          "internalType": "bool",
          "name": "",
          "type": "bool"
        }
      ],
      "stateMutability": "view",
      "type": "function"
    },
    {
      "inputs": [],
      "name": "symbol",
      "outputs": [
        {
          "internalType": "string",
          "name": "",
          "type": "string"
        }
      ],
      "stateMutability": "view",
      "type": "function"
    },
    {
      "inputs": [
        {
          "internalType": "uint256",
          "name": "tokenId",
          "type": "uint256"
        }
      ],
      "name": "tokenURI",
      "outputs": [
        {
          "internalType": "string",
          "name": "",
          "type": "string"
        }
      ],
      "stateMutability": "view",
      "type": "function"
    },
    {
      "inputs": [
        {
          "internalType": "uint256",
          "name": "virtualId",
          "type": "uint256"
        }
      ],
      "name": "totalProposals",
      "outputs": [
        {
          "internalType": "uint256",
          "name": "",
          "type": "uint256"
        }
      ],
      "stateMutability": "view",
      "type": "function"
    },
    {
      "inputs": [
        {
          "internalType": "uint256",
          "name": "virtualId",
          "type": "uint256"
        }
      ],
      "name": "totalStaked",
      "outputs": [
        {
          "internalType": "uint256",
          "name": "",
          "type": "uint256"
        }
      ],
      "stateMutability": "view",
      "type": "function"
    },
    {
      "inputs": [],
      "name": "totalSupply",
      "outputs": [
        {
          "internalType": "uint256",
          "name": "",
          "type": "uint256"
        }
      ],
      "stateMutability": "view",
      "type": "function"
    },
    {
      "inputs": [
        {
          "internalType": "uint256",
          "name": "virtualId",
          "type": "uint256"
        }
      ],
      "name": "totalUptimeScore",
      "outputs": [
        {
          "internalType": "uint256",
          "name": "",
          "type": "uint256"
        }
      ],
      "stateMutability": "view",
      "type": "function"
    },
    {
      "inputs": [
        {
          "internalType": "address",
          "name": "from",
          "type": "address"
        },
        {
          "internalType": "address",
          "name": "to",
          "type": "address"
        },
        {
          "internalType": "uint256",
          "name": "tokenId",
          "type": "uint256"
        }
      ],
      "name": "transferFrom",
      "outputs": [],
      "stateMutability": "nonpayable",
      "type": "function"
    },
    {
      "inputs": [
        {
          "internalType": "uint256",
          "name": "virtualId",
          "type": "uint256"
        },
        {
          "internalType": "uint256",
          "name": "index",
          "type": "uint256"
        }
      ],
      "name": "validatorAt",
      "outputs": [
        {
          "internalType": "address",
          "name": "",
          "type": "address"
        }
      ],
      "stateMutability": "view",
      "type": "function"
    },
    {
      "inputs": [
        {
          "internalType": "uint256",
          "name": "virtualId",
          "type": "uint256"
        }
      ],
      "name": "validatorCount",
      "outputs": [
        {
          "internalType": "uint256",
          "name": "",
          "type": "uint256"
        }
      ],
      "stateMutability": "view",
      "type": "function"
    },
    {
      "inputs": [
        {
          "internalType": "uint256",
          "name": "virtualId",
          "type": "uint256"
        },
        {
          "internalType": "address",
          "name": "validator",
          "type": "address"
        }
      ],
      "name": "validatorScore",
      "outputs": [
        {
          "internalType": "uint256",
          "name": "",
          "type": "uint256"
        }
      ],
      "stateMutability": "view",
      "type": "function"
    },
    {
      "inputs": [
        {
          "internalType": "uint256",
          "name": "virtualId",
          "type": "uint256"
        }
      ],
      "name": "virtualInfo",
      "outputs": [
        {
          "components": [
            {
              "internalType": "address",
              "name": "dao",
              "type": "address"
            },
            {
              "internalType": "address",
              "name": "token",
              "type": "address"
            },
            {
              "internalType": "address",
              "name": "founder",
              "type": "address"
            },
            {
              "internalType": "address",
              "name": "tba",
              "type": "address"
            },
            {
              "internalType": "uint8[]",
              "name": "coreTypes",
              "type": "uint8[]"
            }
          ],
          "internalType": "struct IAgentNft.VirtualInfo",
          "name": "",
          "type": "tuple"
        }
      ],
      "stateMutability": "view",
      "type": "function"
    },
    {
      "inputs": [
        {
          "internalType": "uint256",
          "name": "",
          "type": "uint256"
        }
      ],
      "name": "virtualInfos",
      "outputs": [
        {
          "internalType": "address",
          "name": "dao",
          "type": "address"
        },
        {
          "internalType": "address",
          "name": "token",
          "type": "address"
        },
        {
          "internalType": "address",
          "name": "founder",
          "type": "address"
        },
        {
          "internalType": "address",
          "name": "tba",
          "type": "address"
        }
      ],
      "stateMutability": "view",
      "type": "function"
    },
    {
      "inputs": [
        {
          "internalType": "uint256",
          "name": "virtualId",
          "type": "uint256"
        }
      ],
      "name": "virtualLP",
      "outputs": [
        {
          "components": [
            {
              "internalType": "address",
              "name": "pool",
              "type": "address"
            },
            {
              "internalType": "address",
              "name": "veToken",
              "type": "address"
            }
          ],
          "internalType": "struct IAgentNft.VirtualLP",
          "name": "",
          "type": "tuple"
        }
      ],
      "stateMutability": "view",
      "type": "function"
    },
    {
      "inputs": [
        {
          "internalType": "uint256",
          "name": "",
          "type": "uint256"
        }
      ],
      "name": "virtualLPs",
      "outputs": [
        {
          "internalType": "address",
          "name": "pool",
          "type": "address"
        },
        {
          "internalType": "address",
          "name": "veToken",
          "type": "address"
        }
      ],
      "stateMutability": "view",
      "type": "function"
    }
  ],
  "bytecode": "0x60808060405234620000bd577ff0c57e16840df040f15088dc2f81fe391c3923bec73e23a9662efc9c229c6a009081549060ff8260401c16620000ae57506001600160401b036002600160401b03198282160162000068575b6040516150c29081620000c38239f35b6001600160401b031990911681179091556040519081527fc7f505b2f371ae2175ee4913f4499e1f2633a7b5936321eed1cdaeb6115181d290602090a138808062000058565b63f92ee8a960e01b8152600490fd5b600080fdfe608080604052600436101561001357600080fd5b60003560e01c90816301ffc9a7146136325750806306fdde0314613576578063081812fc1461352b578063095ea7b31461344457806309c88b3a146133ed578063162094c41461339057806318160ddd146133655780631b534f04146133395780631ca95e13146132f657806323b872dd146132df57806323f2a73f14613292578063248a9ca3146132565780632f2ff15d1461320a578063336e3997146131cb57806336568abe14613184578063386924de146131495780633f11354a14612c6f57806341cb8c2014612c1557806342842e0e14612bed5780634349644714612a6757806344ae85ea14612a2d5780634752f9ef146129fc5780634b561753146129d85780634f1b9fac1461298d5780635faef81a1461296f5780636352211e146129515780636472c79f1461229357806368197360146121f8578063691de4891461219c5780636d6464b41461217e57806370a082311461212957806374aa04c51461207957806375b238fc1461203e57806391d1485414611fe457806395d89b4114611edf5780639a7e8c8e14611eb6578063a0ed2a5d14611e51578063a217fddf14611e35578063a22cb46514611d8f578063aca470ce146116d2578063b88d4fde14611673578063b9f7fe531461164a578063c052bfb614611621578063c12032d3146115f3578063c4d66de814610fee578063c859b99814610f5b578063c87b56dd14610edf578063cc35cc4114610ea1578063d539139314610e66578063d547741f14610e18578063d809a06f14610de5578063e3a9769c14610637578063e985e9c5146105e9578063f0c21c4614610584578063f96610851461037a578063fcf9e6db1461030b5763fdf864f11461029257600080fd5b34610306576040366003190112610306576004357f74c656406c6054e1c2903f7594155283f5216e109f0ecb46a7eb59a9a597d61960206102d16139ca565b6102d961494b565b83600052600b82526102fb8160406000209060ff801983541691151516179055565b6040519015158152a2005b600080fd5b34610306576020366003190112610306576000602060405161032c8161376e565b8281520152600435600052600c602052604080600020815161034d8161376e565b81546001600160a01b03908116808352600190930154811660209283019081528451938452511690820152f35b34610306576040366003190112610306576001600160401b03600435602435828111610306576103ae903690600401613881565b90806000526020600881526103d160018060a01b036040600020541633146139d9565b8160005260088152600460406000200193835190811161056e57600160401b811161056e578454818655808210610522575b50818401908195600052826000208160051c9160005b8381106104e35750601f198116900380610497575b505050509060405192604084019184526040838501525180915260608301939160005b828110610480577fd6963befda3af041f398ffc13a89396d94a573f3a91593efc5420fffb11d672a85870386a1005b835160ff1686529481019492810192600101610451565b9260009360005b868282106104b5575050505001558480808061042e565b6104d984978360ff60019596975116919060ff809160031b9316831b921b19161790565b960192910161049e565b6000805b878082106104fd57505083820155600101610419565b875191979260019260ff60038b901b81811b19909316911690911b17920196016104e7565b61054e908660005283600020601f80850160051c82019281861680610554575b500160051c0190613c58565b85610403565b60001990818601918254918a0360031b1c1690558a610542565b634e487b7160e01b600052604160045260246000fd5b34610306576040366003190112610306576004356105a0613727565b9080600052600860205260018060a01b03906105c4826040600020541633146139d9565b6000526008602052604060002091166001600160601b0360a01b825416179055600080f35b3461030657604036600319011261030657610602613711565b61061361060d613727565b91613c1f565b9060018060a01b0316600052602052602060ff604060002054166040519015158152f35b346103065760203660031901126103065760043560005260088060205260406000206040519161066683613753565b81546001600160a01b039081168452600183015481166020808601919091526002840154821660408087019190915260038501549092166060808701919091529151600490940180548086526000918252828220948694938501935b82601f850110610c595750506107da945491818110610c45575b818110610c2e575b818110610c17575b818110610c00575b818110610bea575b818110610bd3575b818110610bbc575b818110610ba5575b818110610b8e575b818110610b77575b818110610b60575b818110610b49575b818110610b32575b818110610b1b575b818110610b04575b818110610aed575b818110610ad6575b818110610abf575b818110610aa8575b818110610a91575b818110610a7a575b818110610a63575b818110610a4c575b818110610a35575b818110610a1e575b818110610a07575b8181106109f0575b8181106109d9575b8181106109c2575b8181106109ab575b818110610994575b10610986575b5003826137a4565b6080820152600a5460608201516040516370a0823160e01b81526001600160a01b0391821660048201529116919060246020828281875afa91821561094657600092610952575b5061082b8261386a565b9361083960405195866137a4565b8285526108458361386a565b602086019490601f190136863760005b8481106108a15785876040519182916020830190602084525180915260408301919060005b818110610888575050500390f35b825184528594506020938401939092019160010161087a565b6060820151604051632f745c5960e01b81526001600160a01b03909116600482015260248101829052602081604481875afa90811561094657600091610914575b5087518210156108ff57600582901b880160200152600101610855565b84634e487b7160e01b60005260326004526000fd5b90506020813d60201161093e575b8161092f602093836137a4565b810103126103065751886108e2565b3d9150610922565b6040513d6000823e3d90fd5b9091506020813d60201161097e575b8161096e602093836137a4565b8101031261030657519084610821565b3d9150610961565b60f81c8152602001856107d2565b92602060019160ff8560f01c1681520193016107cc565b92602060019160ff8560e81c1681520193016107c4565b92602060019160ff8560e01c1681520193016107bc565b92602060019160ff8560d81c1681520193016107b4565b92602060019160ff8560d01c1681520193016107ac565b92602060019160ff8560c81c1681520193016107a4565b92602060019160ff8560c01c16815201930161079c565b92602060019160ff8560b81c168152019301610794565b92602060019160ff8560b01c16815201930161078c565b92602060019160ff8560a81c168152019301610784565b92602060019160ff8560a01c16815201930161077c565b92602060019160ff8560981c168152019301610774565b92602060019160ff8560901c16815201930161076c565b92602060019160ff8560881c168152019301610764565b92602060019160ff8560801c16815201930161075c565b92602060019160ff8560781c168152019301610754565b92602060019160ff8560701c16815201930161074c565b92602060019160ff8560681c168152019301610744565b92602060019160ff8560601c16815201930161073c565b92602060019160ff8560581c168152019301610734565b92602060019160ff8560501c16815201930161072c565b92602060019160ff8560481c168152019301610724565b92602060019160ff8560401c16815201930161071c565b92602060019160ff8560381c168152019301610714565b92602060019160ff8560301c16815201930161070c565b92602060019160ff8560281c168152019301610704565b92602060019160ff85831c1681520193016106fc565b92602060019160ff8560181c1681520193016106f4565b92602060019160ff8560101c1681520193016106ec565b92602060019160ff8560081c1681520193016106e4565b92602060019160ff851681520193016106dc565b91936020919550610400600191885460ff808216835280828b1c1686840152808260101c166040840152808260181c168784015280828482828b82826080828f83901c1681880152828260a095828260281c16878b015260c099838360301c168b820152838360381c1660e0820152838360401c16610100820152838360481c16610120820152838360501c16610140820152610160848460581c169101521c166101808d0152828260681c166101a08d0152828260701c166101c08d0152828260781c166101e08d01521c166102008a0152828260881c166102208a0152828260901c166102408a0152828260981c166102608a01521c16610280870152828260a81c166102a0870152828260b01c166102c0870152828260b81c166102e08701521c16610300840152808260c81c16610320840152808260d01c16610340840152808260d81c16610360840152808260e01c16610380840152808260e81c166103a08401528160f01c166103c083015260f81c6103e08201520196019201919492909386946106c2565b34610306576040366003190112610306576020610e0660243560043561486d565b6040516001600160a01b039091168152f35b3461030657604036600319011261030657610e64600435610e37613727565b908060005260008051602061504d833981519152602052610e5f600160406000200154614a03565b614e3a565b005b346103065760003660031901126103065760206040517f9f2df0fed2c77648de5860a4cc508cd0818c85b8b8a1ab4ceeef8d981c8956a68152f35b3461030657600036600319011261030657610eba61494b565b600580546001600160c01b031916700200000000000000030000000000000001179055005b3461030657602036600319011261030657600435610efc81614899565b506000527f0542a41881ee128a365a727b282c86fa859579490b9bb45aab8503648c8e7900602052610f57610f346040600020613925565b6000604051610f4281613789565b526040519182916020835260208301906136d1565b0390f35b3461030657604036600319011261030657610f74613727565b610f7c6149a7565b6004356000908152600860205260409020600301805490916001600160a01b0390818316610fb7576001600160a01b03199092169116179055005b60405162461bcd60e51b815260206004820152600f60248201526e15109048185b1c9958591e481cd95d608a1b6044820152606490fd5b3461030657602036600319011261030657611007613711565b7ff0c57e16840df040f15088dc2f81fe391c3923bec73e23a9662efc9c229c6a00908154906001600160401b038216801590816115e3575b60011490816115d9575b1590816115d0575b506115be5760016001600160401b0319831617835560ff8260401c161561159f575b60405161107f8161376e565b60058152641059d95b9d60da1b60208201526040519061109e8261376e565b60058252641051d1539560da1b60208301526110b8614fcb565b6110c0614fcb565b8051906001600160401b03821161056e5781906110eb60008051602061502d833981519152546138eb565b601f8111611543575b50602090601f831160011461149f57600092611494575b50508160011b916000199060031b1c19161760008051602061502d833981519152555b80516001600160401b03811161056e577f80bb2b638cc20bc4d0a60d66940f3ab4a00c1d7b313497ca82fb0b4ab00793019161116a83546138eb565b601f811161143b575b50602090601f83116001146113af579180611356949260ff9796946000926113a4575b50508160011b916000199060031b1c19161790555b6111b3614fcb565b6111bb614fcb565b600154848116856111cb82614fba565b16861980931617600155600052600060205260406000206111f56111ef82546138eb565b82614a36565b7f436f676e697469766520436f726500000000000000000000000000000000001c905560015485811690828761122a84614fba565b169116176001556000526000602052604060002061124b6111ef82546138eb565b7f566f69636520616e6420536f756e6420436f7265000000000000000000000028905560015485811690828761128084614fba565b16911617600155600052600060205260406000206112a16111ef82546138eb565b60166a56697375616c20436f726560a81b01905560015485811691866112c684614fba565b16911617600155600052600060205260406000206112e76111ef82546138eb565b7f446f6d61696e2045787065727469736520436f7265000000000000000000002a9055611312614fcb565b600580546001600160c01b03191670020000000000000003000000000000000117905561133d614fcb565b61134681614be3565b5061135081614c71565b50614d1b565b50600160065560401c161561136757005b68ff00000000000000001981541690557fc7f505b2f371ae2175ee4913f4499e1f2633a7b5936321eed1cdaeb6115181d2602060405160018152a1005b015190508880611196565b90601f19831691846000527ff4bad0a69248f59680a4f2b3000328cec71a413447c96781cfe5996daa8c456e9260005b818110611423575092600192859260ff99989661135698961061140a575b505050811b0190556111ab565b015160001960f88460031b161c191690558880806113fd565b929360206001819287860151815501950193016113df565b61148490846000527ff4bad0a69248f59680a4f2b3000328cec71a413447c96781cfe5996daa8c456e601f850160051c8101916020861061148a575b601f0160051c0190613c58565b86611173565b9091508190611477565b01519050868061110b565b925060008051602061502d8339815191526000527f37c58c799b6609234b945e882912ee9ad34948a1dfaa20a97485e1a7752bbf81906000935b601f1984168510611528576001945083601f1981161061150f575b505050811b0160008051602061502d8339815191525561112e565b015160001960f88460031b161c191690558680806114f4565b818101518355602094850194600190930192909101906114d9565b6115999060008051602061502d8339815191526000527f37c58c799b6609234b945e882912ee9ad34948a1dfaa20a97485e1a7752bbf81601f850160051c8101916020861061148a57601f0160051c0190613c58565b876110f4565b68ffffffffffffffffff19821668010000000000000001178355611073565b60405163f92ee8a960e01b8152600490fd5b90501584611051565b303b159150611049565b604084901c60ff1615915061103f565b34610306576040366003190112610306576020611619611611613727565b60043561446a565b604051908152f35b3461030657600036600319011261030657600d546040516001600160a01b039091168152602090f35b3461030657600036600319011261030657600a546040516001600160a01b039091168152602090f35b346103065760803660031901126103065761168c613711565b611694613727565b606435916001600160401b0383116103065736602384011215610306576116c8610e649336906024816004013591016137e0565b9160443591614317565b3461030657602036600319011261030657606060806040516116f381613753565b60008152600060208201526000604082015260008382015201526004356000526008602052604060002060046040519161172c83613753565b80546001600160a01b03908116845260018201548116602080860191909152600283015482166040808701919091526003840154909216606086015290519290910180548084526000918252828220939493928592908301915b80601f830110611c065761189f945491818110611bf2575b818110611bdb575b818110611bc4575b818110611bad575b818110611b97575b818110611b80575b818110611b69575b818110611b52575b818110611b3b575b818110611b24575b818110611b0d575b818110611af6575b818110611adf575b818110611ac8575b818110611ab1575b818110611a9a575b818110611a83575b818110611a6c575b818110611a55575b818110611a3e575b818110611a27575b818110611a10575b8181106119f9575b8181106119e2575b8181106119cb575b8181106119b4575b81811061199d575b818110611986575b81811061196f575b818110611958575b818110611941575b10611933575b5093929303826137a4565b608082810191825260408051602080825285516001600160a01b0390811682840152818701518116838501529286015183166060808401919091529095015190911691810191909152905160a080830152805160c083018190529192839260e08401929091019060005b818110611917575050500390f35b825160ff16845285945060209384019390920191600101611909565b60f81c815260200185611894565b92602060019160ff8560f01c16815201930161188e565b92602060019160ff8560e81c168152019301611886565b92602060019160ff8560e01c16815201930161187e565b92602060019160ff8560d81c168152019301611876565b92602060019160ff8560d01c16815201930161186e565b92602060019160ff8560c81c168152019301611866565b92602060019160ff8560c01c16815201930161185e565b92602060019160ff8560b81c168152019301611856565b92602060019160ff8560b01c16815201930161184e565b92602060019160ff8560a81c168152019301611846565b92602060019160ff8560a01c16815201930161183e565b92602060019160ff8560981c168152019301611836565b92602060019160ff8560901c16815201930161182e565b92602060019160ff8560881c168152019301611826565b92602060019160ff8560801c16815201930161181e565b92602060019160ff8560781c168152019301611816565b92602060019160ff8560701c16815201930161180e565b92602060019160ff8560681c168152019301611806565b92602060019160ff8560601c1681520193016117fe565b92602060019160ff8560581c1681520193016117f6565b92602060019160ff8560501c1681520193016117ee565b92602060019160ff8560481c1681520193016117e6565b92602060019160ff8560401c1681520193016117de565b92602060019160ff8560381c1681520193016117d6565b92602060019160ff8560301c1681520193016117ce565b92602060019160ff8560281c1681520193016117c6565b92602060019160ff85831c1681520193016117be565b92602060019160ff8560181c1681520193016117b6565b92602060019160ff8560101c1681520193016117ae565b92602060019160ff8560081c1681520193016117a6565b92602060019160ff8516815201930161179e565b916020919350610400600191865460ff8082168352808260081c1686840152808260101c166040840152808260181c1660608401528082871c166080840152808260a0828260281c1681870152828260c092828260301c16848a0152828260381c1660e08a0152828260401c166101008a0152828260481c166101208a0152828260501c166101408a0152828260581c166101608a0152828260601c166101808a0152828260681c166101a08a0152828260701c166101c08a0152828260781c166101e08a0152828260801c166102008a0152828260881c166102208a0152828260901c166102408a0152828260981c166102608a01521c16610280870152828260a81c166102a0870152828260b01c166102c0870152828260b81c166102e08701521c16610300840152808260c81c16610320840152808260d01c16610340840152808260d81c16610360840152808260e01c16610380840152808260e81c166103a08401528160f01c166103c083015260f81c6103e0820152019401920185929391611786565b3461030657604036600319011261030657611da8613711565b611db06139ca565b6001600160a01b03909116908115611e1c57611dcb33613c1f565b82600052602052611dec8160406000209060ff801983541691151516179055565b60405190151581527f17307eab39ab6107e8899845ad3d59bd9653f200f220920489ca2b5937696c3160203392a3005b604051630b61174360e31b815260048101839052602490fd5b3461030657600036600319011261030657602060405160008152f35b346103065760208060031936011261030657600090600435825b8160005260048352604060002054841015611eab576001611ea1600492611e9b611e95888761486d565b8661446a565b90613cb1565b9401939050611e6b565b602090604051908152f35b34610306576000366003190112610306576009546040516001600160a01b039091168152602090f35b34610306576000366003190112610306576040517f80bb2b638cc20bc4d0a60d66940f3ab4a00c1d7b313497ca82fb0b4ab00793018054826000611f22836138eb565b9283835260209460019186600182169182600014611fc2575050600114611f66575b5050611f52925003836137a4565b610f576040519282849384528301906136d1565b8592506000527ff4bad0a69248f59680a4f2b3000328cec71a413447c96781cfe5996daa8c456e906000915b858310611faa575050611f5293508201018580611f44565b80548389018501528794508693909201918101611f92565b9250935050611f5294915060ff191682840152151560051b8201018580611f44565b3461030657604036600319011261030657611ffd613727565b60043560005260008051602061504d83398151915260205260406000209060018060a01b0316600052602052602060ff604060002054166040519015158152f35b346103065760003660031901126103065760206040517fa49807205ce4d355092ef5a8a18f56e8913cf4a201fbe287825b095693c217758152f35b346103065760a036600319011261030657600435612095613727565b6044356001600160a01b038181169182900361030657606435818116809103610306576001906120c361373d565b936120cc61494b565b866000526008602052826040600020856001600160601b0360a01b981688825416178155019086825416179055600c6020526040600020908582541617815501911680928254161790556000526007602052604060002055600080f35b3461030657602036600319011261030657612142613711565b6001600160a01b038116156121655761215c602091613be6565b54604051908152f35b6040516322718ad960e21b815260006004820152602490fd5b34610306576020366003190112610306576020611619600435613cbe565b346103065760203660031901126103065760043560005260086020526080604060002060018060a01b03808254169181600182015416916003816002840154169201541691604051938452602084015260408301526060820152f35b3461030657604036600319011261030657612211613727565b600435600052602090600c82528160018060a01b03602481600160406000200154169360405194859384926309ab24eb60e41b84521660048301525afa90811561094657600091612266575b50604051908152f35b90508181813d831161228c575b61227d81836137a4565b8101031261030657518261225d565b503d612273565b34610306576060366003190112610306576122ac613727565b60018060a01b03811660005260036020526040600020600435600052602052604060002054906001600160401b0360055460801c166002146122fe57634e487b7160e01b600052605160045260246000fd5b600860205260406000206040519061231582613753565b80546001600160a01b0390811683526001820154811660208085019190915260028301548216604080860191909152600384015490921660608501529051600490920180548084526000918252828220928401925b81601f8401106127ce579360209593819361248b936124c9999754918181106127bc575b8181106127a6575b818110612790575b81811061277a575b818110612766575b818110612750575b81811061273a575b818110612724575b81811061270e575b8181106126f8575b8181106126e2575b8181106126cc575b8181106126b6575b8181106126a0575b81811061268a575b818110612674575b81811061265e575b818110612648575b818110612632575b81811061261c575b818110612606575b8181106125f0575b8181106125da575b8181106125c4575b8181106125ae575b818110612598575b818110612582575b81811061256c575b818110612556575b818110612540575b81811061252a575b1061251d575003826137a4565b60808201525160405163209e1f0d60e01b81526001600160a01b03928316600482015260448035602483015290948593909216918391829190820190565b03915afa908115610946576000916124ea575b506020916116199190613cb1565b90506020813d602011612515575b81612505602093836137a4565b81010312610306575160206124dc565b3d91506124f8565b60f81c81528601896107d2565b928960019160ff8560f01c16815201930161247e565b928960019160ff8560e81c168152019301612476565b928960019160ff8560e01c16815201930161246e565b928960019160ff8560d81c168152019301612466565b928960019160ff8560d01c16815201930161245e565b928960019160ff8560c81c168152019301612456565b928960019160ff8560c01c16815201930161244e565b928960019160ff8560b81c168152019301612446565b928960019160ff8560b01c16815201930161243e565b928960019160ff8560a81c168152019301612436565b928960019160ff8560a01c16815201930161242e565b928960019160ff8560981c168152019301612426565b928960019160ff8560901c16815201930161241e565b928960019160ff8560881c168152019301612416565b928960019160ff8560801c16815201930161240e565b928960019160ff8560781c168152019301612406565b928960019160ff8560701c1681520193016123fe565b928960019160ff8560681c1681520193016123f6565b928960019160ff8560601c1681520193016123ee565b928960019160ff8560581c1681520193016123e6565b928960019160ff8560501c1681520193016123de565b928960019160ff8560481c1681520193016123d6565b928960019160ff8560401c1681520193016123ce565b928960019160ff8560381c1681520193016123c6565b928960019160ff8560301c1681520193016123be565b928960019160ff8560281c1681520193016123b6565b828a1c60ff168452928901926001016123ae565b928960019160ff8560181c1681520193016123a6565b928960019160ff8560101c16815201930161239e565b928960019160ff8560081c168152019301612396565b60ff831684529289019260010161238e565b926001610400602092865460ff8082168352808260081c1686840152808260101c166040840152808260181c1660608401528082871c166080840152808260a0828260281c1681870152828260c092828260301c16848a0152828260381c1660e08a0152828260401c166101008a0152828260481c166101208a0152828260501c166101408a0152828260581c166101608a0152828260601c166101808a0152828260681c166101a08a0152828260701c166101c08a0152828260781c166101e08a0152828260801c166102008a0152828260881c166102208a0152828260901c166102408a0152828260981c166102608a01521c16610280870152828260a81c166102a0870152828260b01c166102c0870152828260b81c166102e08701521c16610300840152808260c81c16610320840152808260d01c16610340840152808260d81c16610360840152808260e01c16610380840152808260e81c166103a08401528160f01c166103c083015260f81c6103e082015201940192019161236a565b34610306576020366003190112610306576020610e06600435614899565b34610306576000366003190112610306576020600654604051908152f35b346103065760203660031901126103065760043560ff8116809103610306576000526000602052610f576129c46040600020613925565b6040519182916020835260208301906136d1565b3461030657604036600319011261030657610e646129f4613727565b600435613c6f565b3461030657602036600319011261030657600435600052600b602052602060ff604060002054166040519015158152f35b34610306576020366003190112610306576001600160a01b03612a4e613711565b1660005260076020526020604060002054604051908152f35b3461030657602080600319360112610306576001600160401b0360043581811161030657612a99903690600401613817565b612aa16148f3565b600180549260ff84169360ff612ab686614fba565b169060ff19161782558360005260008552604060002091835191821161056e57612aea82612ae485546138eb565b85614a5e565b85601f8311600114612b6257918080612b5295937f9682c2f74922442a5e9927a764f668d2339f1ca83db196fbb3d5e97184dc2be899989795600093612b57575b501b916000199060031b1c19161790555b60408051948594855284015260408301906136d1565b0390a1005b86015192508a612b2b565b601f9291921982169084600052876000209160005b818110612bd85750918391612b5296947f9682c2f74922442a5e9927a764f668d2339f1ca83db196fbb3d5e97184dc2be89a9998969410612bbf575b5050811b019055612b3c565b85015160001960f88460031b161c191690558880612bb3565b87830151845592850192918901918901612b77565b3461030657610e64612bfe36613835565b9060405192612c0c84613789565b60008452614317565b346103065760208060031936011261030657600435600052600c815260048160018060a01b0360016040600020015416604051928380926318160ddd60e01b82525afa908115610946576000916122665750604051908152f35b346103065761010036600319011261030657612c89613727565b6044356001600160401b03811161030657612ca8903690600401613817565b606435906001600160a01b038216820361030657612cc461373d565b9160a4356001600160401b03811161030657612ce4903690600401613881565b60c435929091906001600160a01b03841684036103065760e435956001600160a01b038716870361030657612d176149a7565b60065480600435036131105760001981146130fa576001016006556001600160a01b038116156130e1576004356000527f80bb2b638cc20bc4d0a60d66940f3ab4a00c1d7b313497ca82fb0b4ab0079302908160205260018060a01b03604060002054169182613099575b612d8b82613be6565b8054600101905560043560008181526020929092526040822080546001600160a01b0319166001600160a01b03949094169384179055919083907fddf252ad1be2c89b69c2b068fc378daa952ba7f163c4a11628f55a4df523b3ef9080a461308057612df990600435614a98565b600435600090815260086020526040902080546001600160a01b0319166001600160a01b038316178155825190926001600160401b03821161056e57600160401b821161056e576020906004850154836004870155808410613030575b5001906004840160005260206000209060005b8160051c8110612ff05750601f198116808203612f9d575b5050506002830180546001600160a01b0319166001600160a01b0387811691909117909155604051637e062a3560e11b815293926020925084916004918391165afa91821561094657600092612f57575b50600190810180546001600160a01b03199081166001600160a01b03978816179091556004356000818152600c6020908152604080832080548616988b16989098178855969094018054909316979094169687179091559482526007905220829055612f4b91612f43908290614ebd565b600435614f60565b60206040516004358152f35b9091506020813d602011612f95575b81612f73602093836137a4565b810103126103065751906001600160a01b038216820361030657612f4b612ed2565b3d9150612f66565b9260009360005b8184038110612fc05750505060051c0155602060048780612e81565b9091946020612fe66001928460ff8a5116919060ff809160031b9316831b921b19161790565b9601929101612fa4565b6000805b60208110613009575083820155600101612e69565b855190959160019160209160ff60038a901b81811b199092169216901b1792019501612ff4565b61305e906004870160005283600020601f80870160051c8201928188168061306457500160051c0190613c58565b88612e56565b600019850190815490600019908a0360031b1c1690558d610542565b6040516339e3563760e11b815260006004820152602490fd5b6130cb60043560005260008051602061506d83398151915260205260406000206001600160601b0360a01b8154169055565b6130d483613be6565b8054600019019055612d82565b604051633250574960e11b815260006004820152602490fd5b634e487b7160e01b600052601160045260246000fd5b60405162461bcd60e51b8152602060048201526011602482015270125b9d985b1a59081d9a5c9d1d585b1259607a1b6044820152606490fd5b346103065760003660031901126103065760206040517ffa3e63d5771fd4999b619dee634be9dbb03c309738cc2adaadd49c4f5595adb08152f35b346103065760403660031901126103065761319d613727565b336001600160a01b038216036131b957610e6490600435614e3a565b60405163334bd91960e11b8152600490fd5b3461030657602036600319011261030657600435600052600c60205260408060002060018060a01b036001818354169201541682519182526020820152f35b3461030657604036600319011261030657610e64600435613229613727565b908060005260008051602061504d833981519152602052613251600160406000200154614a03565b614dc5565b346103065760203660031901126103065760043560005260008051602061504d8339815191526020526020600160406000200154604051908152f35b34610306576040366003190112610306576132ab613727565b600435600052600260205260406000209060018060a01b0316600052602052602060ff604060002054166040519015158152f35b3461030657610e646132f036613835565b91613a25565b346103065760203660031901126103065761330f613711565b61331761494b565b600d80546001600160a01b0319166001600160a01b0392909216919091179055005b346103065760203660031901126103065760043560005260046020526020604060002054604051908152f35b346103065760003660031901126103065760065460001981019081116130fa57602090604051908152f35b34610306576040366003190112610306576024356004356001600160401b038211610306576133c6610e64923690600401613817565b908060005260086020526133e860018060a01b036040600020541633146139d9565b614a98565b3461030657604036600319011261030657613406613711565b61340e613727565b6134166148f3565b600980546001600160a01b039384166001600160a01b031991821617909155600a8054929093169116179055005b346103065760403660031901126103065761345d613711565b60243561346981614899565b33151580613518575b806134f8575b6134e0576001600160a01b039283169282918491167f8c5be1e5ebec7d5bd14f71427d1e84f3dd0314c0f7b2291e5b200ac8c7c3b925600080a4600090815260008051602061506d8339815191526020526040902080546001600160a01b0319169091179055005b60405163a9fbf51f60e01b8152336004820152602490fd5b5061350281613c1f565b3360005260205260ff6040600020541615613478565b506001600160a01b038116331415613472565b346103065760203660031901126103065760043561354881614899565b5060005260008051602061506d833981519152602052602060018060a01b0360406000205416604051908152f35b346103065760003660031901126103065760405160008051602061502d83398151915280548260006135a7836138eb565b9283835260209460019186600182169182600014611fc25750506001146135d6575050611f52925003836137a4565b8592506000527f37c58c799b6609234b945e882912ee9ad34948a1dfaa20a97485e1a7752bbf81906000915b85831061361a575050611f5293508201018580611f44565b80548389018501528794508693909201918101613602565b34610306576020366003190112610306576004359063ffffffff60e01b821680920361030657602091637965db0b60e01b8114908115613674575b5015158152f35b632483248360e11b81149150811561368e575b508361366d565b6380ac58cd60e01b8114915081156136c0575b81156136af575b5083613687565b6301ffc9a760e01b149050836136a8565b635b5e139f60e01b811491506136a1565b919082519283825260005b8481106136fd575050826000602080949584010152601f8019910116010190565b6020818301810151848301820152016136dc565b600435906001600160a01b038216820361030657565b602435906001600160a01b038216820361030657565b608435906001600160a01b038216820361030657565b60a081019081106001600160401b0382111761056e57604052565b604081019081106001600160401b0382111761056e57604052565b602081019081106001600160401b0382111761056e57604052565b90601f801991011681019081106001600160401b0382111761056e57604052565b6001600160401b03811161056e57601f01601f191660200190565b9291926137ec826137c5565b916137fa60405193846137a4565b829481845281830111610306578281602093846000960137010152565b9080601f8301121561030657816020613832933591016137e0565b90565b6060906003190112610306576001600160a01b0390600435828116810361030657916024359081168103610306579060443590565b6001600160401b03811161056e5760051b60200190565b9080601f8301121561030657602090823561389b8161386a565b936138a960405195866137a4565b81855260208086019260051b82010192831161030657602001905b8282106138d2575050505090565b813560ff811681036103065781529083019083016138c4565b90600182811c9216801561391b575b602083101461390557565b634e487b7160e01b600052602260045260246000fd5b91607f16916138fa565b90604051918260008254613938816138eb565b908184526020946001916001811690816000146139a85750600114613969575b505050613967925003836137a4565b565b600090815285812095935091905b8183106139905750506139679350820101388080613958565b85548884018501529485019487945091830191613977565b9250505061396794925060ff191682840152151560051b820101388080613958565b60243590811515820361030657565b156139e057565b60405162461bcd60e51b815260206004820152601960248201527f43616c6c6572206973206e6f74205649525455414c2044414f000000000000006044820152606490fd5b6001600160a01b03828116939184156130e157826000958187527f80bb2b638cc20bc4d0a60d66940f3ab4a00c1d7b313497ca82fb0b4ab0079302958660205260409785898220541697889233151580613b3d575b5090613aac7fddf252ad1be2c89b69c2b068fc378daa952ba7f163c4a11628f55a4df523b3ef939285613afe57613be6565b8054600101905585825260205289812080546001600160a01b0319168517905580a41692838303613add5750505050565b6064945051926364283d7b60e01b8452600484015260248301526044820152fd5b600088815260008051602061506d8339815191526020526040902080546001600160a01b0319169055613b3086613be6565b8054600019019055613be6565b9193509193945080613b97575b15613b5b5791879187949338613a7a565b888789613b78576024915190637e27328960e01b82526004820152fd5b905163177e802f60e01b81523360048201526024810191909152604490fd5b503388148015613bca575b80613b4a575086835260008051602061506d83398151915260205233868a8520541614613b4a565b50613bd488613c1f565b33845260205260ff8984205416613ba2565b6001600160a01b031660009081527f80bb2b638cc20bc4d0a60d66940f3ab4a00c1d7b313497ca82fb0b4ab00793036020526040902090565b6001600160a01b031660009081527f80bb2b638cc20bc4d0a60d66940f3ab4a00c1d7b313497ca82fb0b4ab00793056020526040902090565b818110613c63575050565b60008155600101613c58565b90816000526002602052604060002060018060a01b03821660005260205260ff60406000205416613cad5781613ca88261396794614ebd565b614f60565b5050565b919082018092116130fa57565b60009081526008602091600883528260408220604051613cdd81613753565b60018060a01b03918281541682526001838183015416858401528360028301541660408401526004846003840154169260609360608601520196604051908193878a5493848152019989528789209089925b84601f85011061417757505098613e54938593899360049c549285838310614164575b83831061414e575b838310614138575b838310614122575b83831061410d575b8383106140f7575b8383106140e1575b8383106140cb575b8383106140b5575b83831061409f575b838310614089575b838310614073575b83831061405d575b838310614047575b838310614031575b83831061401b575b838310614005575b838310613fef575b838310613fd9575b838310613fc3575b838310613fad575b838310613f97575b838310613f81575b838310613f6b575b838310613f55575b838310613f3f575b838310613f29575b838310613f13575b838310613efd575b838310613ee7575b838310613ed1575b505010613ec3575b50905003826137a4565b608082015251166040519384809263368d719960e21b82525afa928315613eb6578193613e82575b50505090565b9091809350813d8311613eaf575b613e9a81836137a4565b81010312613eac575051388080613e7c565b80fd5b503d613e90565b50604051903d90823e3d90fd5b60f81c815201869038613e4a565b90919460ff8560f01c1681520193013885613e42565b81929560ff8660e81c1681520194019085613e3a565b81929560ff8660e01c1681520194019085613e32565b81929560ff8660d81c1681520194019085613e2a565b81929560ff8660d01c1681520194019085613e22565b81929560ff8660c81c1681520194019085613e1a565b81929560ff8660c01c1681520194019085613e12565b81929560ff8660b81c1681520194019085613e0a565b81929560ff8660b01c1681520194019085613e02565b81929560ff8660a81c1681520194019085613dfa565b81929560ff8660a01c1681520194019085613df2565b81929560ff8660981c1681520194019085613dea565b81929560ff8660901c1681520194019085613de2565b81929560ff8660881c1681520194019085613dda565b81929560ff8660801c1681520194019085613dd2565b81929560ff8660781c1681520194019085613dca565b81929560ff8660701c1681520194019085613dc2565b81929560ff8660681c1681520194019085613dba565b81929560ff8660601c1681520194019085613db2565b81929560ff8660581c1681520194019085613daa565b81929560ff8660501c1681520194019085613da2565b81929560ff8660481c1681520194019085613d9a565b81929560ff8660401c1681520194019085613d92565b81929560ff8660381c1681520194019085613d8a565b81929560ff8660301c1681520194019085613d82565b81929560ff8660281c1681520194019085613d7a565b81929560ff86831c1681520194019085613d72565b81929560ff8660181c1681520194019085613d6a565b81929560ff8660101c1681520194019085613d62565b81929560ff8660081c1681520194019085613d5a565b81929560ff861681520194019085613d52565b9196989093946104008197999b9c895460ff8116825260ff81871c168583015260ff8160101c16604083015260ff8160181c168883015260ff81898282608082828c1c1681890152828260a092828260281c16848c0152828260c0988d8a848460301c169101528d60e0848460381c169101528d610100848460401c169101528d610120848460481c169101528d610140848460501c169101528d610160848460581c169101521c166101808c0152828260681c166101a08c0152828260701c166101c08c0152828260781c166101e08c01521c16610200890152828260881c16610220890152828260901c16610240890152828260981c166102608901521c16610280860152828260a81c166102a0860152828260b01c166102c0860152828260b81c166102e08601521c1661030083015260ff8160c81c1661032083015260ff8160d01c1661034083015260ff8160d81c1661036083015260ff8160e01c1661038083015260ff8160e81c166103a083015260ff8160f01c166103c083015260f81c6103e082015201970192019190928b98969a9997959493613d2f565b614322838383613a25565b813b61432f575b50505050565b604051630a85bd0160e11b8082523360048301526001600160a01b0392831660248301526044820194909452608060648201526020959290911693909290839061437d9060848301906136d1565b039285816000958187895af1849181614426575b506143f1575050503d6000146143e9573d6143ab816137c5565b906143b960405192836137a4565b81528091843d92013e5b805192836143e457604051633250574960e11b815260048101849052602490fd5b019050fd5b5060606143c3565b919450915063ffffffff60e01b160361440e575038808080614329565b60249060405190633250574960e11b82526004820152fd5b9091508681813d8311614463575b61443e81836137a4565b8101031261445f57516001600160e01b03198116810361445f579038614391565b8480fd5b503d614434565b919060018060a01b0380911692600093808552602091600383526040862090865282526040852054926001600160401b03600554166001146144ba57634e487b7160e01b86526051600452602486fd5b8290600880835260408820604051916144d283613753565b8382541683526001848184015416868501528460028401541660408501526004856003850154169360609460608701520191604051908c8295898654948581520195825289822091925b84601f8501106146a157505092889261461f959287955492858383106141645783831061414e57838310614138578383106141225783831061410d578383106140f7578383106140e1578383106140cb578383106140b55783831061409f57838310614089578383106140735783831061405d57838310614047578383106140315783831061401b5783831061400557838310613fef57838310613fd957838310613fc357838310613fad57838310613f9757838310613f8157838310613f6b57838310613f5557838310613f3f57838310613f2957838310613f1357838310613efd57838310613ee757838310613ed157505010613ec35750905003826137a4565b608082015251169160246040518094819363099d7a2b60e11b835260048301525afa91821561469657859261465d575b505061383292935090613cb1565b90809250813d831161468f575b61467481836137a4565b8101031261468b576138329293505183923861464f565b8380fd5b503d61466a565b6040513d87823e3d90fd5b91969798999093946104008197895460ff8116825260ff81871c168583015260ff8160101c16604083015260ff8160181c168883015260ff81898282608082828c1c1681890152828260a092828260281c16848c0152828260c0988d8a848460301c169101528d60e0848460381c169101528d610100848460401c169101528d610120848460481c169101528d610140848460501c169101528d610160848460581c169101521c166101808c0152828260681c166101a08c0152828260701c166101c08c0152828260781c166101e08c01521c16610200890152828260881c16610220890152828260901c16610240890152828260981c166102608901521c16610280860152828260a81c166102a0860152828260b01c166102c0860152828260b81c166102e08601521c1661030083015260ff8160c81c1661032083015260ff8160d01c1661034083015260ff8160d81c1661036083015260ff8160e01c1661038083015260ff8160e81c166103a083015260ff8160f01c166103c083015260f81c6103e082015201970192019190928b9998979695949361451c565b80548210156148575760005260206000200190600090565b634e487b7160e01b600052603260045260246000fd5b90614884916000526004602052604060002061483f565b905460039190911b1c6001600160a01b031690565b60008181527f80bb2b638cc20bc4d0a60d66940f3ab4a00c1d7b313497ca82fb0b4ab007930260205260409020546001600160a01b03169081156148db575090565b60249060405190637e27328960e01b82526004820152fd5b3360009081527fb7db2dd08fcb62d0c9e08c51941cae53c267786a0b75803fb7960902fc8ef97d602052604081205460ff161561492d5750565b6044906040519063e2517d3f60e01b82523360048301526024820152fd5b3360009081527fb16e88c42fd4e48df2dd6a2eabd6bc9aec654ec170056b470819f8892cc6431c60205260409020547fa49807205ce4d355092ef5a8a18f56e8913cf4a201fbe287825b095693c217759060ff161561492d5750565b3360009081527f549fe2656c81d2947b3b913f0a53b9ea86c71e049f3a1b8aa23c09a8a05cb8d460205260409020547f9f2df0fed2c77648de5860a4cc508cd0818c85b8b8a1ab4ceeef8d981c8956a69060ff161561492d5750565b8060005260008051602061504d83398151915260205260406000203360005260205260ff604060002054161561492d5750565b90601f8111614a43575050565b61396791600052601f6020600020910160051c810190613c58565b9190601f8111614a6d57505050565b613967926000526020600020906020601f840160051c8301931061148a57601f0160051c0190613c58565b9190916000908082526020917f0542a41881ee128a365a727b282c86fa859579490b9bb45aab8503648c8e7900835260408120908551906001600160401b038211614bcf57614aeb82612ae485546138eb565b8490601f8311600114614b4b57907ff8e1a15aba9398e019f0b49df1a4fde98ee17ae345cb5f6b5e2c27f5033e8ce7969783614b40575b50508160011b916000199060031b1c19161790555b604051908152a1565b015190503880614b22565b9196601f198816848452868420935b818110614bb857509160019391897ff8e1a15aba9398e019f0b49df1a4fde98ee17ae345cb5f6b5e2c27f5033e8ce7999a9410614b9f575b505050811b019055614b37565b015160001960f88460031b161c19169055388080614b92565b929387600181928786015181550195019301614b5a565b634e487b7160e01b81526041600452602490fd5b6001600160a01b031660008181527fb7db2dd08fcb62d0c9e08c51941cae53c267786a0b75803fb7960902fc8ef97d602052604081205490919060008051602061504d8339815191529060ff16614c6c578280526020526040822081835260205260408220600160ff19825416179055339160008051602061500d8339815191528180a4600190565b505090565b6001600160a01b031660008181527f65a726ee7c91e89ef3525766267873ea7774790138011645554b3fd61ac9eba360205260408120549091907ffa3e63d5771fd4999b619dee634be9dbb03c309738cc2adaadd49c4f5595adb09060008051602061504d8339815191529060ff16613e7c578184526020526040832082845260205260408320600160ff1982541617905560008051602061500d833981519152339380a4600190565b6001600160a01b031660008181527fb16e88c42fd4e48df2dd6a2eabd6bc9aec654ec170056b470819f8892cc6431c60205260408120549091907fa49807205ce4d355092ef5a8a18f56e8913cf4a201fbe287825b095693c217759060008051602061504d8339815191529060ff16613e7c578184526020526040832082845260205260408320600160ff1982541617905560008051602061500d833981519152339380a4600190565b9060009180835260008051602061504d83398151915280602052604084209260018060a01b03169283855260205260ff60408520541615600014613e7c578184526020526040832082845260205260408320600160ff1982541617905560008051602061500d833981519152339380a4600190565b9060009180835260008051602061504d83398151915280602052604084209260018060a01b03169283855260205260ff604085205416600014613e7c57818452602052604083208284526020526040832060ff1981541690557ff6391f5c32d9c69d2a47ea670b442974b53935d1edc7fd64eb21e047a839171b339380a4600190565b906000908282526002602052604082209160018060a01b038092169283825260205260408120600160ff19825416179055838152600460205260408120805491600160401b831015614bcf575091614f40827fcbde0481b37e4b90d96b4492b49bcd7b48b260233519b878611a16a184b071aa969460016040979501815561483f565b819291549060031b9184831b921b191617905582519182526020820152a1565b6001600160401b0360055460401c16600314614f8c57634e487b7160e01b600052605160045260246000fd5b614f9581613cbe565b9160018060a01b03166000526003602052604060002090600052602052604060002055565b60ff1660ff81146130fa5760010190565b60ff7ff0c57e16840df040f15088dc2f81fe391c3923bec73e23a9662efc9c229c6a005460401c1615614ffa57565b604051631afcd79f60e31b8152600490fdfe2f8788117e7eff1d82e926ec794901d17c78024a50270940304540a733656f0d80bb2b638cc20bc4d0a60d66940f3ab4a00c1d7b313497ca82fb0b4ab007930002dd7bc7dec4dceedda775e58dd541e08a116c6c53815c0bd028192f7b62680080bb2b638cc20bc4d0a60d66940f3ab4a00c1d7b313497ca82fb0b4ab0079304a2646970667358221220beec673903a3e210e09b26b9536c6c31cfe09a4be95d0e61191530d09af82ac764736f6c63430008160033",
  "linkReferences": {},
  "deployedLinkReferences": {}
}