{
  "_format": "hh-sol-artifact-1",
  "contractName": "FPair",
  "sourceName": "contracts/fun/FPair.sol",
  "abi": [
    {
      "inputs": [
        {
          "internalType": "address",
          "name": "router_",
          "type": "address"
        },
        {
          "internalType": "address",
          "name": "token0",
          "type": "address"
        },
        {
          "internalType": "address",
          "name": "token1",
          "type": "address"
        }
      ],
      "stateMutability": "nonpayable",
      "type": "constructor"
    },
    {
      "inputs": [],
      "name": "ReentrancyGuardReentrantCall",
      "type": "error"
    },
    {
      "inputs": [
        {
          "internalType": "address",
          "name": "token",
          "type": "address"
        }
      ],
      "name": "SafeERC20FailedOperation",
      "type": "error"
    },
    {
      "anonymous": false,
      "inputs": [
        {
          "indexed": false,
          "internalType": "uint256",
          "name": "reserve0",
          "type": "uint256"
        },
        {
          "indexed": false,
          "internalType": "uint256",
          "name": "reserve1",
          "type": "uint256"
        }
      ],
      "name": "Mint",
      "type": "event"
    },
    {
      "anonymous": false,
      "inputs": [
        {
          "indexed": false,
          "internalType": "uint256",
          "name": "amount0In",
          "type": "uint256"
        },
        {
          "indexed": false,
          "internalType": "uint256",
          "name": "amount0Out",
          "type": "uint256"
        },
        {
          "indexed": false,
          "internalType": "uint256",
          "name": "amount1In",
          "type": "uint256"
        },
        {
          "indexed": false,
          "internalType": "uint256",
          "name": "amount1Out",
          "type": "uint256"
        }
      ],
      "name": "Swap",
      "type": "event"
    },
    {
      "inputs": [
        {
          "internalType": "address",
          "name": "_user",
          "type": "address"
        },
        {
          "internalType": "address",
          "name": "_token",
          "type": "address"
        },
        {
          "internalType": "uint256",
          "name": "amount",
          "type": "uint256"
        }
      ],
      "name": "approval",
      "outputs": [
        {
          "internalType": "bool",
          "name": "",
          "type": "bool"
        }
      ],
      "stateMutability": "nonpayable",
      "type": "function"
    },
    {
      "inputs": [],
      "name": "assetBalance",
      "outputs": [
        {
          "internalType": "uint256",
          "name": "",
          "type": "uint256"
        }
      ],
      "stateMutability": "view",
      "type": "function"
    },
    {
      "inputs": [],
      "name": "balance",
      "outputs": [
        {
          "internalType": "uint256",
          "name": "",
          "type": "uint256"
        }
      ],
      "stateMutability": "view",
      "type": "function"
    },
    {
      "inputs": [],
      "name": "getReserves",
      "outputs": [
        {
          "internalType": "uint256",
          "name": "",
          "type": "uint256"
        },
        {
          "internalType": "uint256",
          "name": "",
          "type": "uint256"
        }
      ],
      "stateMutability": "view",
      "type": "function"
    },
    {
      "inputs": [],
      "name": "kLast",
      "outputs": [
        {
          "internalType": "uint256",
          "name": "",
          "type": "uint256"
        }
      ],
      "stateMutability": "view",
      "type": "function"
    },
    {
      "inputs": [
        {
          "internalType": "uint256",
          "name": "reserve0",
          "type": "uint256"
        },
        {
          "internalType": "uint256",
          "name": "reserve1",
          "type": "uint256"
        }
      ],
      "name": "mint",
      "outputs": [
        {
          "internalType": "bool",
          "name": "",
          "type": "bool"
        }
      ],
      "stateMutability": "nonpayable",
      "type": "function"
    },
    {
      "inputs": [],
      "name": "priceALast",
      "outputs": [
        {
          "internalType": "uint256",
          "name": "",
          "type": "uint256"
        }
      ],
      "stateMutability": "view",
      "type": "function"
    },
    {
      "inputs": [],
      "name": "priceBLast",
      "outputs": [
        {
          "internalType": "uint256",
          "name": "",
          "type": "uint256"
        }
      ],
      "stateMutability": "view",
      "type": "function"
    },
    {
      "inputs": [],
      "name": "router",
      "outputs": [
        {
          "internalType": "address",
          "name": "",
          "type": "address"
        }
      ],
      "stateMutability": "view",
      "type": "function"
    },
    {
      "inputs": [
        {
          "internalType": "uint256",
          "name": "amount0In",
          "type": "uint256"
        },
        {
          "internalType": "uint256",
          "name": "amount0Out",
          "type": "uint256"
        },
        {
          "internalType": "uint256",
          "name": "amount1In",
          "type": "uint256"
        },
        {
          "internalType": "uint256",
          "name": "amount1Out",
          "type": "uint256"
        }
      ],
      "name": "swap",
      "outputs": [
        {
          "internalType": "bool",
          "name": "",
          "type": "bool"
        }
      ],
      "stateMutability": "nonpayable",
      "type": "function"
    },
    {
      "inputs": [],
      "name": "tokenA",
      "outputs": [
        {
          "internalType": "address",
          "name": "",
          "type": "address"
        }
      ],
      "stateMutability": "view",
      "type": "function"
    },
    {
      "inputs": [],
      "name": "tokenB",
      "outputs": [
        {
          "internalType": "address",
          "name": "",
          "type": "address"
        }
      ],
      "stateMutability": "view",
      "type": "function"
    },
    {
      "inputs": [
        {
          "internalType": "address",
          "name": "recipient",
          "type": "address"
        },
        {
          "internalType": "uint256",
          "name": "amount",
          "type": "uint256"
        }
      ],
      "name": "transferAsset",
      "outputs": [],
      "stateMutability": "nonpayable",
      "type": "function"
    },
    {
      "inputs": [
        {
          "internalType": "address",
          "name": "recipient",
          "type": "address"
        },
        {
          "internalType": "uint256",
          "name": "amount",
          "type": "uint256"
        }
      ],
      "name": "transferTo",
      "outputs": [],
      "stateMutability": "nonpayable",
      "type": "function"
    }
  ],
  "bytecode": "0x6080346100cb57601f6109b138819003918201601f19168301916001600160401b038311848410176100d0578084926060946040528339810103126100cb57610047816100e6565b906100606040610059602084016100e6565b92016100e6565b6001600055916001600160a01b0390811691819061007f8415156100fa565b169261008c8415156100fa565b16916100998315156100fa565b60018060a01b031991826001541617600155816002541617600255600354161760035560405161086a90816101478239f35b600080fd5b634e487b7160e01b600052604160045260246000fd5b51906001600160a01b03821682036100cb57565b1561010157565b60405162461bcd60e51b815260206004820152601f60248201527f5a65726f2061646472657373657320617265206e6f7420616c6c6f7765642e006044820152606490fdfe608060408181526004918236101561001657600080fd5b600092833560e01c9182630902f1ac1461060a575081630e06dfc9146105e75781630fc63d10146105be5781631b2ef1ca146104cc5781632ccb1b301461047c5781635673b02d146103b75781635c52a5f2146102a65781635c921eb9146102535781635c9d6938146102255781635f64b55b146101fc5781637464fc3d146101dd578163b69ef8a814610187578163c66f2455146100ea575063f887ea40146100bf57600080fd5b346100e657816003193601126100e65760015490516001600160a01b039091168152602090f35b5080fd5b9190503461017157826003193601126101715760035481516370a0823160e01b81523093810193909352602090839060249082906001600160a01b03165afa91821561017d578392610141575b6020838351908152f35b9091506020813d602011610175575b8161015d602093836106f0565b810103126101715760209250519038610137565b8280fd5b3d9150610150565b81513d85823e3d90fd5b9190503461017157826003193601126101715760025481516370a0823160e01b81523093810193909352602090839060249082906001600160a01b03165afa91821561017d578392610141576020838351908152f35b5050346100e657816003193601126100e6576020906006549051908152f35b5050346100e657816003193601126100e65760035490516001600160a01b039091168152602090f35b82843461025057806003193601126102505750610249602092600554905490610647565b9051908152f35b80fd5b5050346100e657366003190112610250576102a361026f61062c565b6001546001600160a01b0391906102899083163314610667565b6102968282161515610712565b602435916003541661078e565b80f35b5050346100e65760603660031901126100e6576102c161062c565b6001600160a01b0392906024358481169081900361017157846102eb602096600154163314610667565b82166102f8811515610712565b610303821515610712565b845163095ea7b360e01b8782018181526001600160a01b039590951660248301526044803581840152825290938790869061033f6064886106f0565b86519082875af185513d8261039b575b505015610360575b86865160018152f35b6103919461038c92875192898401526024830152604482015260448152610386816106be565b826107cc565b6107cc565b3880808080610357565b9091506103af5750823b15155b388061034f565b6001146103a8565b82843461025057608036600319011261025057507f298c349c742327269dc8de6ad66687767310c948ea309df826f5bd103e19d2076080836020943590602435604435906064359261041460018060a01b03600154163314610667565b6104288261042387845461075e565b610781565b610438856104238660055461075e565b916006548a5190610448826106be565b838252848d8301528b8201526060429101525560055542600755865193845287840152858301526060820152a15160018152f35b5050346100e657366003190112610250576102a361049861062c565b6001546001600160a01b0391906104b29083163314610667565b6104bf8282161515610712565b602435916002541661078e565b828434610250578160031936011261025057823590602435906104fa60018060a01b03600154163314610667565b60075461058a578183029083820483148415171561057757509183917fcc9c58b575eabd3f6a1ee653e91fcea3ff546867ffc3782a3bbca1f9b6dbb8df93826020978551610547816106be565b828152848a8201528387820152606042910152558160055560065542600755825191825285820152a15160018152f35b634e487b7160e01b815260118652602490fd5b835162461bcd60e51b8152602081870152600e60248201526d105b1c9958591e481b5a5b9d195960921b6044820152606490fd5b5050346100e657816003193601126100e65760025490516001600160a01b039091168152602090f35b828434610250578060031936011261025057506102496020925460055490610647565b9150833461025057806003193601126102505750546005549082526020820152f35b600435906001600160a01b038216820361064257565b600080fd5b8115610651570490565b634e487b7160e01b600052601260045260246000fd5b1561066e57565b60405162461bcd60e51b815260206004820152602260248201527f4f6e6c7920726f757465722063616e2063616c6c20746869732066756e63746960448201526137b760f11b6064820152608490fd5b6080810190811067ffffffffffffffff8211176106da57604052565b634e487b7160e01b600052604160045260246000fd5b90601f8019910116810190811067ffffffffffffffff8211176106da57604052565b1561071957565b60405162461bcd60e51b815260206004820152601f60248201527f5a65726f2061646472657373657320617265206e6f7420616c6c6f7765642e006044820152606490fd5b9190820180921161076b57565b634e487b7160e01b600052601160045260246000fd5b9190820391821161076b57565b60405163a9059cbb60e01b60208201526001600160a01b039290921660248301526044808301939093529181526107ca9161038c6064836106f0565b565b906000602091828151910182855af115610828576000513d61081f57506001600160a01b0381163b155b6107fd5750565b604051635274afe760e01b81526001600160a01b039091166004820152602490fd5b600114156107f6565b6040513d6000823e3d90fdfea26469706673582212207e1fde3ba137d8650725f18f84fbafa18bd856b6471f06ae8e0c6b219a6a09d764736f6c63430008160033",
  "linkReferences": {},
  "deployedLinkReferences": {}
}