{
  "_format": "hh-sol-artifact-1",
  "contractName": "EloCalculator",
  "sourceName": "contracts/virtualPersona/EloCalculator.sol",
  "abi": [
    {
      "inputs": [],
      "stateMutability": "nonpayable",
      "type": "constructor"
    },
    {
      "inputs": [],
      "name": "InvalidInitialization",
      "type": "error"
    },
    {
      "inputs": [],
      "name": "NotInitializing",
      "type": "error"
    },
    {
      "inputs": [
        {
          "internalType": "address",
          "name": "owner",
          "type": "address"
        }
      ],
      "name": "OwnableInvalidOwner",
      "type": "error"
    },
    {
      "inputs": [
        {
          "internalType": "address",
          "name": "account",
          "type": "address"
        }
      ],
      "name": "OwnableUnauthorizedAccount",
      "type": "error"
    },
    {
      "anonymous": false,
      "inputs": [
        {
          "indexed": false,
          "internalType": "uint64",
          "name": "version",
          "type": "uint64"
        }
      ],
      "name": "Initialized",
      "type": "event"
    },
    {
      "anonymous": false,
      "inputs": [
        {
          "indexed": true,
          "internalType": "address",
          "name": "previousOwner",
          "type": "address"
        },
        {
          "indexed": true,
          "internalType": "address",
          "name": "newOwner",
          "type": "address"
        }
      ],
      "name": "OwnershipTransferred",
      "type": "event"
    },
    {
      "inputs": [
        {
          "internalType": "uint256",
          "name": "currentRating",
          "type": "uint256"
        },
        {
          "internalType": "uint8[]",
          "name": "battles",
          "type": "uint8[]"
        }
      ],
      "name": "battleElo",
      "outputs": [
        {
          "internalType": "uint256",
          "name": "",
          "type": "uint256"
        }
      ],
      "stateMutability": "view",
      "type": "function"
    },
    {
      "inputs": [
        {
          "internalType": "address",
          "name": "initialOwner",
          "type": "address"
        }
      ],
      "name": "initialize",
      "outputs": [],
      "stateMutability": "nonpayable",
      "type": "function"
    },
    {
      "inputs": [],
      "name": "k",
      "outputs": [
        {
          "internalType": "uint256",
          "name": "",
          "type": "uint256"
        }
      ],
      "stateMutability": "view",
      "type": "function"
    },
    {
      "inputs": [],
      "name": "owner",
      "outputs": [
        {
          "internalType": "address",
          "name": "",
          "type": "address"
        }
      ],
      "stateMutability": "view",
      "type": "function"
    },
    {
      "inputs": [],
      "name": "renounceOwnership",
      "outputs": [],
      "stateMutability": "nonpayable",
      "type": "function"
    },
    {
      "inputs": [
        {
          "internalType": "uint256",
          "name": "k_",
          "type": "uint256"
        }
      ],
      "name": "setK",
      "outputs": [],
      "stateMutability": "nonpayable",
      "type": "function"
    },
    {
      "inputs": [
        {
          "internalType": "address",
          "name": "newOwner",
          "type": "address"
        }
      ],
      "name": "transferOwnership",
      "outputs": [],
      "stateMutability": "nonpayable",
      "type": "function"
    }
  ],
  "bytecode": "0x608080604052346100b8577ff0c57e16840df040f15088dc2f81fe391c3923bec73e23a9662efc9c229c6a009081549060ff8260401c166100a957506001600160401b036002600160401b031982821601610064575b60405161085590816100be8239f35b6001600160401b031990911681179091556040519081527fc7f505b2f371ae2175ee4913f4499e1f2633a7b5936321eed1cdaeb6115181d290602090a1388080610055565b63f92ee8a960e01b8152600490fd5b600080fdfe60406080815260048036101561001457600080fd5b600091823560e01c90816367de8be914610586578163715018a61461051c5781638da5cb5b146104e6578163b4f40c61146104c9578163c4d66de814610384578163e6023b80146100a9575063f2fde38b1461006f57600080fd5b346100a55760203660031901126100a557356001600160a01b03811681036100a5576100a29061009d61064b565b6105d7565b80f35b5080fd5b9050823461038157816003193601126103815760249283359067ffffffffffffffff9384831161037d573660238401121561037d57828201359185831161036b576005938360051b93835197601f19603f870116890190898210908211176103595784528752602093886020890191830101913683116103555793979496938901905b82821061032e575050506103e891829581948254966127108802955b82518810156102f55761016460ff858a851b8601015116610684565b60198b831080156102ec57838d03905b8061018261046684106106b4565b6102da575b156102d157610320035b046001600a818316156102ca5780925b821c90815b610279575050506101bf6101bf6101bf6101c493610741565b610741565b60649081018015610265578904918b0282811092831561025e57035b8181019081811161024a576063019081116102385760019392919004901561021f5761020f81610215936105ca565b9b6105a7565b975b019698610148565b61022c81610232936105a7565b9b6105ca565b97610217565b634e487b7160e01b8852601189528e88fd5b8f60118b634e487b7160e01b600052526000fd5b90036101e0565b8e60128a634e487b7160e01b600052526000fd5b8060801c6102c657800290896102c6578183821661029c575b50821c90816101a6565b8085029a509093818b04036102b7575b506000989238610292565b6102c157386102ac565b600080fd5b8980fd5b81926101a1565b61032001610191565b6102e761032083106106b4565b610187565b8c840390610174565b858b866103048f9484356105a7565b6103e71981019390841161031c576020848451908152f35b634e487b7160e01b8252601190528390fd5b8198949795983560ff81168103610351578152939794969390870190870161012c565b8880fd5b8780fd5b634e487b7160e01b8852604184528988fd5b634e487b7160e01b8552604190528584fd5b8380fd5b80fd5b919050346104c55760203660031901126104c5578035906001600160a01b038216820361037d577ff0c57e16840df040f15088dc2f81fe391c3923bec73e23a9662efc9c229c6a0091825460ff81861c16159267ffffffffffffffff8216801590816104bd575b60011490816104b3575b1590816104aa575b5061049c575067ffffffffffffffff198116600117845561043091908361047d575b50610428610700565b61009d610700565b601e845561043c578280f35b805468ff00000000000000001916905551600181527fc7f505b2f371ae2175ee4913f4499e1f2633a7b5936321eed1cdaeb6115181d290602090a138808280f35b68ffffffffffffffffff1916680100000000000000011784553861041f565b855163f92ee8a960e01b8152fd5b905015386103fd565b303b1591506103f5565b8591506103eb565b8280fd5b8390346100a557816003193601126100a557602091549051908152f35b8390346100a557816003193601126100a5576000805160206108008339815191525490516001600160a01b039091168152602090f35b833461038157806003193601126103815761053561064b565b60008051602061080083398151915280546001600160a01b0319811690915581906001600160a01b03167f8be0079c531659141344cd1fd0a4f28419497f9722a3daafe3b4186f6b6457e08280a380f35b5050346100a55760203660031901126100a5576105a161064b565b35815580f35b919082018092116105b457565b634e487b7160e01b600052601160045260246000fd5b919082039182116105b457565b6001600160a01b039081169081156106325760008051602061080083398151915280546001600160a01b031981168417909155167f8be0079c531659141344cd1fd0a4f28419497f9722a3daafe3b4186f6b6457e0600080a3565b604051631e4fbdf760e01b815260006004820152602490fd5b600080516020610800833981519152546001600160a01b0316330361066c57565b60405163118cdaa760e01b8152336004820152602490fd5b60ff16600181036106955750606490565b600281036106a35750603290565b6003146106af57600090565b603290565b156106bb57565b60405162461bcd60e51b815260206004820152601b60248201527f526174696e6720646966666572656e636520746f6f206c6172676500000000006044820152606490fd5b60ff7ff0c57e16840df040f15088dc2f81fe391c3923bec73e23a9662efc9c229c6a005460401c161561072f57565b604051631afcd79f60e31b8152600490fd5b60b581600160881b8110156107e8575b806901000000000000000000620100009210156107db575b650100000000008110156107ce575b63010000008110156107c1575b010260121c60019080830401811c80830401811c80830401811c80830401811c80830401811c80830401811c80830401901c8080920410900390565b60101c9160081b91610785565b60201c9160101b91610778565b60401c9160201b91610769565b5068b500000000000000009050608082901c61075156fe9016d09d72d40fdae2fd8ceac6b6234c7706214fd39c1cd1e609a0528c199300a2646970667358221220effca60cf1000f6387f5df97ec6a2d8ffc84acdfa60ddb3743ecd59f2f52dbb864736f6c63430008160033",
  "linkReferences": {},
  "deployedLinkReferences": {}
}