{
  "_format": "hh-sol-artifact-1",
  "contractName": "FRouter",
  "sourceName": "contracts/fun/FRouter.sol",
  "abi": [
    {
      "inputs": [],
      "stateMutability": "nonpayable",
      "type": "constructor"
    },
    {
      "inputs": [],
      "name": "AccessControlBadConfirmation",
      "type": "error"
    },
    {
      "inputs": [
        {
          "internalType": "address",
          "name": "account",
          "type": "address"
        },
        {
          "internalType": "bytes32",
          "name": "neededRole",
          "type": "bytes32"
        }
      ],
      "name": "AccessControlUnauthorizedAccount",
      "type": "error"
    },
    {
      "inputs": [],
      "name": "InvalidInitialization",
      "type": "error"
    },
    {
      "inputs": [],
      "name": "NotInitializing",
      "type": "error"
    },
    {
      "inputs": [],
      "name": "ReentrancyGuardReentrantCall",
      "type": "error"
    },
    {
      "inputs": [
        {
          "internalType": "address",
          "name": "token",
          "type": "address"
        }
      ],
      "name": "SafeERC20FailedOperation",
      "type": "error"
    },
    {
      "anonymous": false,
      "inputs": [
        {
          "indexed": false,
          "internalType": "uint64",
          "name": "version",
          "type": "uint64"
        }
      ],
      "name": "Initialized",
      "type": "event"
    },
    {
      "anonymous": false,
      "inputs": [
        {
          "indexed": true,
          "internalType": "bytes32",
          "name": "role",
          "type": "bytes32"
        },
        {
          "indexed": true,
          "internalType": "bytes32",
          "name": "previousAdminRole",
          "type": "bytes32"
        },
        {
          "indexed": true,
          "internalType": "bytes32",
          "name": "newAdminRole",
          "type": "bytes32"
        }
      ],
      "name": "RoleAdminChanged",
      "type": "event"
    },
    {
      "anonymous": false,
      "inputs": [
        {
          "indexed": true,
          "internalType": "bytes32",
          "name": "role",
          "type": "bytes32"
        },
        {
          "indexed": true,
          "internalType": "address",
          "name": "account",
          "type": "address"
        },
        {
          "indexed": true,
          "internalType": "address",
          "name": "sender",
          "type": "address"
        }
      ],
      "name": "RoleGranted",
      "type": "event"
    },
    {
      "anonymous": false,
      "inputs": [
        {
          "indexed": true,
          "internalType": "bytes32",
          "name": "role",
          "type": "bytes32"
        },
        {
          "indexed": true,
          "internalType": "address",
          "name": "account",
          "type": "address"
        },
        {
          "indexed": true,
          "internalType": "address",
          "name": "sender",
          "type": "address"
        }
      ],
      "name": "RoleRevoked",
      "type": "event"
    },
    {
      "inputs": [],
      "name": "ADMIN_ROLE",
      "outputs": [
        {
          "internalType": "bytes32",
          "name": "",
          "type": "bytes32"
        }
      ],
      "stateMutability": "view",
      "type": "function"
    },
    {
      "inputs": [],
      "name": "DEFAULT_ADMIN_ROLE",
      "outputs": [
        {
          "internalType": "bytes32",
          "name": "",
          "type": "bytes32"
        }
      ],
      "stateMutability": "view",
      "type": "function"
    },
    {
      "inputs": [],
      "name": "EXECUTOR_ROLE",
      "outputs": [
        {
          "internalType": "bytes32",
          "name": "",
          "type": "bytes32"
        }
      ],
      "stateMutability": "view",
      "type": "function"
    },
    {
      "inputs": [
        {
          "internalType": "address",
          "name": "token_",
          "type": "address"
        },
        {
          "internalType": "uint256",
          "name": "amountToken_",
          "type": "uint256"
        },
        {
          "internalType": "uint256",
          "name": "amountAsset_",
          "type": "uint256"
        }
      ],
      "name": "addInitialLiquidity",
      "outputs": [
        {
          "internalType": "uint256",
          "name": "",
          "type": "uint256"
        },
        {
          "internalType": "uint256",
          "name": "",
          "type": "uint256"
        }
      ],
      "stateMutability": "nonpayable",
      "type": "function"
    },
    {
      "inputs": [
        {
          "internalType": "address",
          "name": "pair",
          "type": "address"
        },
        {
          "internalType": "address",
          "name": "asset",
          "type": "address"
        },
        {
          "internalType": "address",
          "name": "spender",
          "type": "address"
        },
        {
          "internalType": "uint256",
          "name": "amount",
          "type": "uint256"
        }
      ],
      "name": "approval",
      "outputs": [],
      "stateMutability": "nonpayable",
      "type": "function"
    },
    {
      "inputs": [],
      "name": "assetToken",
      "outputs": [
        {
          "internalType": "address",
          "name": "",
          "type": "address"
        }
      ],
      "stateMutability": "view",
      "type": "function"
    },
    {
      "inputs": [
        {
          "internalType": "uint256",
          "name": "amountIn",
          "type": "uint256"
        },
        {
          "internalType": "address",
          "name": "tokenAddress",
          "type": "address"
        },
        {
          "internalType": "address",
          "name": "to",
          "type": "address"
        }
      ],
      "name": "buy",
      "outputs": [
        {
          "internalType": "uint256",
          "name": "",
          "type": "uint256"
        },
        {
          "internalType": "uint256",
          "name": "",
          "type": "uint256"
        }
      ],
      "stateMutability": "nonpayable",
      "type": "function"
    },
    {
      "inputs": [],
      "name": "factory",
      "outputs": [
        {
          "internalType": "contract FFactory",
          "name": "",
          "type": "address"
        }
      ],
      "stateMutability": "view",
      "type": "function"
    },
    {
      "inputs": [
        {
          "internalType": "address",
          "name": "token",
          "type": "address"
        },
        {
          "internalType": "address",
          "name": "assetToken_",
          "type": "address"
        },
        {
          "internalType": "uint256",
          "name": "amountIn",
          "type": "uint256"
        }
      ],
      "name": "getAmountsOut",
      "outputs": [
        {
          "internalType": "uint256",
          "name": "_amountOut",
          "type": "uint256"
        }
      ],
      "stateMutability": "view",
      "type": "function"
    },
    {
      "inputs": [
        {
          "internalType": "bytes32",
          "name": "role",
          "type": "bytes32"
        }
      ],
      "name": "getRoleAdmin",
      "outputs": [
        {
          "internalType": "bytes32",
          "name": "",
          "type": "bytes32"
        }
      ],
      "stateMutability": "view",
      "type": "function"
    },
    {
      "inputs": [
        {
          "internalType": "address",
          "name": "tokenAddress",
          "type": "address"
        }
      ],
      "name": "graduate",
      "outputs": [],
      "stateMutability": "nonpayable",
      "type": "function"
    },
    {
      "inputs": [
        {
          "internalType": "bytes32",
          "name": "role",
          "type": "bytes32"
        },
        {
          "internalType": "address",
          "name": "account",
          "type": "address"
        }
      ],
      "name": "grantRole",
      "outputs": [],
      "stateMutability": "nonpayable",
      "type": "function"
    },
    {
      "inputs": [
        {
          "internalType": "bytes32",
          "name": "role",
          "type": "bytes32"
        },
        {
          "internalType": "address",
          "name": "account",
          "type": "address"
        }
      ],
      "name": "hasRole",
      "outputs": [
        {
          "internalType": "bool",
          "name": "",
          "type": "bool"
        }
      ],
      "stateMutability": "view",
      "type": "function"
    },
    {
      "inputs": [
        {
          "internalType": "address",
          "name": "factory_",
          "type": "address"
        },
        {
          "internalType": "address",
          "name": "assetToken_",
          "type": "address"
        }
      ],
      "name": "initialize",
      "outputs": [],
      "stateMutability": "nonpayable",
      "type": "function"
    },
    {
      "inputs": [
        {
          "internalType": "bytes32",
          "name": "role",
          "type": "bytes32"
        },
        {
          "internalType": "address",
          "name": "callerConfirmation",
          "type": "address"
        }
      ],
      "name": "renounceRole",
      "outputs": [],
      "stateMutability": "nonpayable",
      "type": "function"
    },
    {
      "inputs": [
        {
          "internalType": "bytes32",
          "name": "role",
          "type": "bytes32"
        },
        {
          "internalType": "address",
          "name": "account",
          "type": "address"
        }
      ],
      "name": "revokeRole",
      "outputs": [],
      "stateMutability": "nonpayable",
      "type": "function"
    },
    {
      "inputs": [
        {
          "internalType": "uint256",
          "name": "amountIn",
          "type": "uint256"
        },
        {
          "internalType": "address",
          "name": "tokenAddress",
          "type": "address"
        },
        {
          "internalType": "address",
          "name": "to",
          "type": "address"
        }
      ],
      "name": "sell",
      "outputs": [
        {
          "internalType": "uint256",
          "name": "",
          "type": "uint256"
        },
        {
          "internalType": "uint256",
          "name": "",
          "type": "uint256"
        }
      ],
      "stateMutability": "nonpayable",
      "type": "function"
    },
    {
      "inputs": [
        {
          "internalType": "address",
          "name": "newManager",
          "type": "address"
        }
      ],
      "name": "setTaxManager",
      "outputs": [],
      "stateMutability": "nonpayable",
      "type": "function"
    },
    {
      "inputs": [
        {
          "internalType": "bytes4",
          "name": "interfaceId",
          "type": "bytes4"
        }
      ],
      "name": "supportsInterface",
      "outputs": [
        {
          "internalType": "bool",
          "name": "",
          "type": "bool"
        }
      ],
      "stateMutability": "view",
      "type": "function"
    },
    {
      "inputs": [],
      "name": "taxManager",
      "outputs": [
        {
          "internalType": "address",
          "name": "",
          "type": "address"
        }
      ],
      "stateMutability": "view",
      "type": "function"
    }
  ],
  "bytecode": "0x608080604052346100b8577ff0c57e16840df040f15088dc2f81fe391c3923bec73e23a9662efc9c229c6a009081549060ff8260401c166100a957506001600160401b036002600160401b031982821601610064575b60405161199090816100be8239f35b6001600160401b031990911681179091556040519081527fc7f505b2f371ae2175ee4913f4499e1f2633a7b5936321eed1cdaeb6115181d290602090a1388080610055565b63f92ee8a960e01b8152600490fd5b600080fdfe6080604081815260048036101561001557600080fd5b600092833560e01c90816301ffc9a7146112285750806307bd0265146111ed578063095e3913146111445780631083f7611461111b578063248a9ca3146110e45780632f2ff15d146110bb57806336568abe1461107457806345608d001461103b578063485cc95514610ea15780634d23773014610e785780636f08e177146109cc57806375b238fc1461099157806391d148541461093f578063a217fddf14610924578063ab3c475a1461082a578063ba37fd38146106cc578063c45a0155146106a0578063d547741f14610650578063e753858a146102b15763ff6d8d05146100ff57600080fd5b8291346102ad57602091826003193601126102a85761011c61127c565b6101246115a5565b61012c611802565b6001600160a01b039061018790859061014881851615156112dd565b8754600154875163e6a4390560e01b81526001600160a01b03938416888201908152918716909316602082015291938492918616918391829160400190565b03915afa90811561027157869161027b575b501692825163c66f245560e01b815281818481885afa91821561027157869261023b575b5050833b15610237578251635c921eb960e01b815233928101928352602083019190915292849184919082908490829060400103925af190811561022e5750610217575b50600160008051602061193b8339815191525580f35b61022090611329565b61022b578038610201565b80fd5b513d84823e3d90fd5b8480fd5b8196508092503d831161026a575b6102538183611353565b810103126102655784935138806101bd565b600080fd5b503d610249565b84513d88823e3d90fd5b61029b9150853d87116102a1575b6102938183611353565b810190611375565b38610199565b503d610289565b505050fd5b5050fd5b50913461022b576102c1366112a8565b919290946102cd6115a5565b6102d5611802565b6001600160a01b036102ea87821615156112dd565b6102f781851615156112dd565b841561060d578254600154875163e6a4390560e01b81526001600160a01b03808b16868301908152928516908116602084810191909152919891979385169290919088908a9081906040010381865afa9889156106035787996105e4575b508951634f7041a560e01b815288818881875afa9081156105a5578795949392918a918a916105af575b5061038c83606492611568565b04938c5196878092630e2ad37b60e41b82525afa9485156105a557918693918b9c9d938b8b98610576575b505082916103c7879485936113d7565b9d6103d3928f92611832565b858460015416926103e393611832565b8982600154166103f2926113e4565b971690813b156105725789516302ccb1b360e41b81526001600160a01b0390911685820190815260208101899052869082908190604001038183865af1801561056857918791879361054f575b5060848b5180948193635673b02d60e01b8352818a8401528c60248401528d60448401528160648401525af1801561054557908993929161050a575b506002548216911681146104aa575b50505050600160008051602061193b833981519152558351928352820152f35b839282518095819363951d833d60e01b83525af19081156104ff57506104d3575b80858161048a565b6104f290853d87116104f8575b6104ea8183611353565b810190611588565b506104cb565b503d6104e0565b8651903d90823e3d90fd5b909192508581813d831161053e575b6105238183611353565b81010312610237579061053789939261157b565b503861047b565b503d610519565b89513d87823e3d90fd5b61055b91939250611329565b610237578585913861043f565b8a513d88823e3d90fd5b8580fd5b879485939950610598819593836103c794903d106102a1576102938183611353565b999350505091928b6103b7565b8b513d8a823e3d90fd5b96505085813d83116105dd575b6105c68183611353565b81010312610265579351869490899061038c61037f565b503d6105bc565b6105fc919950883d8a116102a1576102938183611353565b9738610355565b8a513d89823e3d90fd5b855162461bcd60e51b8152602081840152601f60248201527f616d6f756e74496e206d7573742062652067726561746572207468616e2030006044820152606490fd5b50903461069c578060031936011261069c5761069891356106936001610674611292565b9383875260008051602061191b8339815191526020528620015461161f565b61177f565b5080f35b8280fd5b5050346106c857816003193601126106c857905490516001600160a01b039091168152602090f35b5080fd5b50823461022b57606036600319011261022b576106e761127c565b60243592604435926106f76115a5565b6001600160a01b03838116929061070f8415156112dd565b8254600154895163e6a4390560e01b81526001600160a01b03978816858201908152918416909716602080830191909152969591879187918516908290819060400103915afa9485156108205791869391899386976107f2575b506044929161077c858989943390611832565b8b519788958694630d9778e560e11b86528501528a6024850152165af180156107e6576107b0575b50508351928352820152f35b8282813d83116107df575b6107c58183611353565b8101031261022b57506107d79061157b565b5084806107a4565b503d6107bb565b508551903d90823e3d90fd5b869197509161077c8561081460449695893d8b116102a1576102938183611353565b99935050509192610769565b89513d86823e3d90fd5b50903461069c57608036600319011261069c5761084561127c565b61084d611292565b6001600160a01b0393604435929091858416808503610265576108c4966020956108898a9361087a6115a5565b610882611802565b15156112dd565b8751632e2952f960e11b81526001600160a01b0391821696810196875293166020860152606435604086015291968794859391849160600190565b0393165af190811561022e57506108eb5750600160008051602061193b8339815191525580f35b6020813d60201161091c575b8161090460209383611353565b810103126106c8576109159061157b565b5038610201565b3d91506108f7565b5050346106c857816003193601126106c85751908152602090f35b503461069c578160031936011261069c578160209361095c611292565b9235815260008051602061191b8339815191528552209060018060a01b0316600052825260ff81600020541690519015158152f35b5050346106c857816003193601126106c857602090517fa49807205ce4d355092ef5a8a18f56e8913cf4a201fbe287825b095693c217758152f35b50823461022b576109dc366112a8565b929091936109e8611802565b6109f06115a5565b6001600160a01b0383811694610a078615156112dd565b610a1482821615156112dd565b8354600154895163e6a4390560e01b8082526001600160a01b03808a1688840190815293871690811660208581019190915299909492939092871691908a90859081906040010381855afa938415610e2e579285949392898f938d948f9a99968e98610e55575b50610aba90610a8e8d8a169c15156112dd565b519182526001600160a01b03948516928201928352939095166020820152849283918291604090910190565b03915afa908115610d1c579086918991610e38575b508c51630240bc6b60e21b81529116928c828981875afa938415610e2e57908a89928f8c958d98610dea575b5051637464fc3d60e01b815293849182905afa918215610de057918d94939187938c92610d9e575b50610b52968691610d8d5791610b40610b4692610b4c9594611394565b906113b7565b906113d7565b9a611832565b8285541690895163cc1776d360e01b815287818781865afa908115610d835786949392918a918991610d49575b50606491610b8c91611568565b049188610b99848c6113d7565b918d5196878092630e2ad37b60e41b82525afa948515610d1c578895610d2a575b50833b15610d26578b51635c921eb960e01b8082526001600160a01b03909316888201908152602081019290925290889082908190604001038183885af18015610d1c57610d09575b50823b15610d05578a519081526001600160a01b038416868201908152602081019290925290869082908190604001038183865af18015610568579187918793610cec575b5060848b5180948193635673b02d60e01b83528d8a8401528160248401528160448401528c60648401525af18015610545579089939291610cb157506002548216911681146104aa5750505050600160008051602061193b833981519152558351928352820152f35b909192508581813d8311610ce5575b610cca8183611353565b810103126102375790610cde89939261157b565b508961047b565b503d610cc0565b610cf891939250611329565b610237578585918b610c48565b8680fd5b610d1590979197611329565b958b610c03565b8c513d8a823e3d90fd5b8780fd5b610d42919550893d8b116102a1576102938183611353565b938c610bba565b929394955050508781813d8311610d7c575b610d658183611353565b81010312610d055751859392919089906064610b7f565b503d610d5b565b8b513d89823e3d90fd5b91610b40610b4692610b4c95611394565b92955093959250508a81813d8311610dd9575b610dbb8183611353565b81010312610dd5575190938c939092869290610b52610b23565b8980fd5b503d610db1565b8e513d8c823e3d90fd5b96975092945092505083813d8311610e27575b610e078183611353565b81010312610e23578251928a015193929188918b908f38610afb565b8880fd5b503d610dfd565b8d513d8b823e3d90fd5b610e4f91508a3d8c116102a1576102938183611353565b8d610acf565b610aba919850610e7190873d89116102a1576102938183611353565b9790610a7b565b5050346106c857816003193601126106c85760025490516001600160a01b039091168152602090f35b503461069c578160031936011261069c57610eba61127c565b90610ec3611292565b917ff0c57e16840df040f15088dc2f81fe391c3923bec73e23a9662efc9c229c6a009283549160ff83871c16159267ffffffffffffffff811694851580611034575b6001809714908161102a575b159081611021575b50611013575067ffffffffffffffff1981168517865583610ff4575b50610f3e6118d9565b610f466118d9565b8360008051602061193b83398151915255610f5f6118d9565b610f6833611652565b506001600160a01b0390811691610f808315156112dd565b1690610f8d8215156112dd565b6bffffffffffffffffffffffff60a01b9081885416178755835416178255610fb3578380f35b7fc7f505b2f371ae2175ee4913f4499e1f2633a7b5936321eed1cdaeb6115181d29260209268ff000000000000000019815416905551908152a13880808380f35b68ffffffffffffffffff19166801000000000000000117855538610f35565b875163f92ee8a960e01b8152fd5b90501538610f19565b303b159150610f11565b5084610f05565b5050346106c85760603660031901126106c85760209061106d61105c61127c565b611064611292565b604435916113e4565b9051908152f35b509190346106c857806003193601126106c85761108f611292565b90336001600160a01b038316036110ac575061069891923561177f565b5163334bd91960e11b81528390fd5b50903461069c578060031936011261069c5761069891356110df6001610674611292565b6116f2565b503461069c57602036600319011261069c578160209360019235815260008051602061191b83398151915285522001549051908152f35b5050346106c857816003193601126106c85760015490516001600160a01b039091168152602090f35b503461069c57602036600319011261069c5761115e61127c565b917fa49807205ce4d355092ef5a8a18f56e8913cf4a201fbe287825b095693c217759081855260008051602061191b83398151915260205280852033865260205260ff8186205416156111d15750505060018060a01b03166bffffffffffffffffffffffff60a01b600254161760025580f35b60449350519163e2517d3f60e01b835233908301526024820152fd5b5050346106c857816003193601126106c857602090517fd8aa0f3194971a2a116679f7c2090f6939c8d4e01a2a8d7e41d55e5351469e638152f35b9250503461069c57602036600319011261069c573563ffffffff60e01b811680910361069c5760209250637965db0b60e01b811490811561126b575b5015158152f35b6301ffc9a760e01b14905038611264565b600435906001600160a01b038216820361026557565b602435906001600160a01b038216820361026557565b606090600319011261026557600435906001600160a01b03906024358281168103610265579160443590811681036102655790565b156112e457565b60405162461bcd60e51b815260206004820152601f60248201527f5a65726f2061646472657373657320617265206e6f7420616c6c6f7765642e006044820152606490fd5b67ffffffffffffffff811161133d57604052565b634e487b7160e01b600052604160045260246000fd5b90601f8019910116810190811067ffffffffffffffff82111761133d57604052565b9081602091031261026557516001600160a01b03811681036102655790565b919082018092116113a157565b634e487b7160e01b600052601160045260246000fd5b81156113c1570490565b634e487b7160e01b600052601260045260246000fd5b919082039182116113a157565b90916001600160a01b036113fb81841615156112dd565b600080546001546040805163e6a4390560e01b81526001600160a01b0397881660048201529185169687166024830152602097909693949290919088908290604490829087165afa90811561155e579083918691611541575b501693865197630240bc6b60e21b89528789600481895afa9586156115375782998397611502575b5090806004928a5193848092637464fc3d60e01b82525afa98891561022e575082986114d2575b50505016036114c15791610b40610b46926114be9594611394565b90565b91610b40610b46926114be95611394565b9080929850813d83116114fb575b6114ea8183611353565b81010312610d0557519538806114a3565b503d6114e0565b995095508789813d8111611530575b61151b8183611353565b810103126106c857885198810151958161147c565b503d611511565b88513d84823e3d90fd5b6115589150893d8b116102a1576102938183611353565b38611454565b87513d87823e3d90fd5b818102929181159184041417156113a157565b5190811515820361026557565b919082604091031261026557602061159f8361157b565b92015190565b3360009081527f52fce5e8a5d0d9e8d1ea29f4525e512e9c27bf92cae50374d497f918ab48f38260205260409020547fd8aa0f3194971a2a116679f7c2090f6939c8d4e01a2a8d7e41d55e5351469e639060ff16156116015750565b6044906040519063e2517d3f60e01b82523360048301526024820152fd5b8060005260008051602061191b83398151915260205260406000203360005260205260ff60406000205416156116015750565b6001600160a01b031660008181527fb7db2dd08fcb62d0c9e08c51941cae53c267786a0b75803fb7960902fc8ef97d602052604081205490919060008051602061191b8339815191529060ff166116ed578280526020526040822081835260205260408220600160ff1982541617905533917f2f8788117e7eff1d82e926ec794901d17c78024a50270940304540a733656f0d8180a4600190565b505090565b9060009180835260008051602061191b83398151915280602052604084209260018060a01b03169283855260205260ff60408520541615600014611779578184526020526040832082845260205260408320600160ff198254161790557f2f8788117e7eff1d82e926ec794901d17c78024a50270940304540a733656f0d339380a4600190565b50505090565b9060009180835260008051602061191b83398151915280602052604084209260018060a01b03169283855260205260ff60408520541660001461177957818452602052604083208284526020526040832060ff1981541690557ff6391f5c32d9c69d2a47ea670b442974b53935d1edc7fd64eb21e047a839171b339380a4600190565b60008051602061193b83398151915260028154146118205760029055565b604051633ee5aeb560e01b8152600490fd5b6040516323b872dd60e01b60208083019182526001600160a01b039485166024840152949093166044820152606480820195909552938452926000919061187a608482611353565b519082855af1156118cd576000513d6118c457506001600160a01b0381163b155b6118a25750565b604051635274afe760e01b81526001600160a01b039091166004820152602490fd5b6001141561189b565b6040513d6000823e3d90fd5b60ff7ff0c57e16840df040f15088dc2f81fe391c3923bec73e23a9662efc9c229c6a005460401c161561190857565b604051631afcd79f60e31b8152600490fdfe02dd7bc7dec4dceedda775e58dd541e08a116c6c53815c0bd028192f7b6268009b779b17422d0df92223018b32b4d1fa46e071723d6817e2486d003becc55f00a264697066735822122063a4f8c8a85c44a5a8b40f56a60d1ee096fa039fbc51e38a34c7b744a0893ca264736f6c63430008160033",
  "linkReferences": {},
  "deployedLinkReferences": {}
}