{
  "_format": "hh-sol-artifact-1",
  "contractName": "AgentFactoryV2",
  "sourceName": "contracts/virtualPersona/AgentFactory.sol",
  "abi": [
    {
      "inputs": [],
      "stateMutability": "nonpayable",
      "type": "constructor"
    },
    {
      "inputs": [],
      "name": "AccessControlBadConfirmation",
      "type": "error"
    },
    {
      "inputs": [
        {
          "internalType": "address",
          "name": "account",
          "type": "address"
        },
        {
          "internalType": "bytes32",
          "name": "neededRole",
          "type": "bytes32"
        }
      ],
      "name": "AccessControlUnauthorizedAccount",
      "type": "error"
    },
    {
      "inputs": [],
      "name": "EnforcedPause",
      "type": "error"
    },
    {
      "inputs": [],
      "name": "ExpectedPause",
      "type": "error"
    },
    {
      "inputs": [],
      "name": "FailedDeployment",
      "type": "error"
    },
    {
      "inputs": [
        {
          "internalType": "uint256",
          "name": "balance",
          "type": "uint256"
        },
        {
          "internalType": "uint256",
          "name": "needed",
          "type": "uint256"
        }
      ],
      "name": "InsufficientBalance",
      "type": "error"
    },
    {
      "inputs": [],
      "name": "InvalidInitialization",
      "type": "error"
    },
    {
      "inputs": [],
      "name": "NotInitializing",
      "type": "error"
    },
    {
      "inputs": [
        {
          "internalType": "address",
          "name": "token",
          "type": "address"
        }
      ],
      "name": "SafeERC20FailedOperation",
      "type": "error"
    },
    {
      "anonymous": false,
      "inputs": [
        {
          "indexed": false,
          "internalType": "uint256",
          "name": "newThreshold",
          "type": "uint256"
        }
      ],
      "name": "ApplicationThresholdUpdated",
      "type": "event"
    },
    {
      "anonymous": false,
      "inputs": [
        {
          "indexed": false,
          "internalType": "address",
          "name": "newGov",
          "type": "address"
        }
      ],
      "name": "GovUpdated",
      "type": "event"
    },
    {
      "anonymous": false,
      "inputs": [
        {
          "indexed": false,
          "internalType": "address",
          "name": "token",
          "type": "address"
        },
        {
          "indexed": false,
          "internalType": "address",
          "name": "dao",
          "type": "address"
        }
      ],
      "name": "ImplContractsUpdated",
      "type": "event"
    },
    {
      "anonymous": false,
      "inputs": [
        {
          "indexed": false,
          "internalType": "uint64",
          "name": "version",
          "type": "uint64"
        }
      ],
      "name": "Initialized",
      "type": "event"
    },
    {
      "anonymous": false,
      "inputs": [
        {
          "indexed": false,
          "internalType": "uint256",
          "name": "id",
          "type": "uint256"
        }
      ],
      "name": "NewApplication",
      "type": "event"
    },
    {
      "anonymous": false,
      "inputs": [
        {
          "indexed": false,
          "internalType": "uint256",
          "name": "virtualId",
          "type": "uint256"
        },
        {
          "indexed": false,
          "internalType": "address",
          "name": "token",
          "type": "address"
        },
        {
          "indexed": false,
          "internalType": "address",
          "name": "dao",
          "type": "address"
        },
        {
          "indexed": false,
          "internalType": "address",
          "name": "tba",
          "type": "address"
        },
        {
          "indexed": false,
          "internalType": "address",
          "name": "veToken",
          "type": "address"
        },
        {
          "indexed": false,
          "internalType": "address",
          "name": "lp",
          "type": "address"
        }
      ],
      "name": "NewPersona",
      "type": "event"
    },
    {
      "anonymous": false,
      "inputs": [
        {
          "indexed": false,
          "internalType": "address",
          "name": "account",
          "type": "address"
        }
      ],
      "name": "Paused",
      "type": "event"
    },
    {
      "anonymous": false,
      "inputs": [
        {
          "indexed": true,
          "internalType": "bytes32",
          "name": "role",
          "type": "bytes32"
        },
        {
          "indexed": true,
          "internalType": "bytes32",
          "name": "previousAdminRole",
          "type": "bytes32"
        },
        {
          "indexed": true,
          "internalType": "bytes32",
          "name": "newAdminRole",
          "type": "bytes32"
        }
      ],
      "name": "RoleAdminChanged",
      "type": "event"
    },
    {
      "anonymous": false,
      "inputs": [
        {
          "indexed": true,
          "internalType": "bytes32",
          "name": "role",
          "type": "bytes32"
        },
        {
          "indexed": true,
          "internalType": "address",
          "name": "account",
          "type": "address"
        },
        {
          "indexed": true,
          "internalType": "address",
          "name": "sender",
          "type": "address"
        }
      ],
      "name": "RoleGranted",
      "type": "event"
    },
    {
      "anonymous": false,
      "inputs": [
        {
          "indexed": true,
          "internalType": "bytes32",
          "name": "role",
          "type": "bytes32"
        },
        {
          "indexed": true,
          "internalType": "address",
          "name": "account",
          "type": "address"
        },
        {
          "indexed": true,
          "internalType": "address",
          "name": "sender",
          "type": "address"
        }
      ],
      "name": "RoleRevoked",
      "type": "event"
    },
    {
      "anonymous": false,
      "inputs": [
        {
          "indexed": false,
          "internalType": "address",
          "name": "account",
          "type": "address"
        }
      ],
      "name": "Unpaused",
      "type": "event"
    },
    {
      "inputs": [],
      "name": "DEFAULT_ADMIN_ROLE",
      "outputs": [
        {
          "internalType": "bytes32",
          "name": "",
          "type": "bytes32"
        }
      ],
      "stateMutability": "view",
      "type": "function"
    },
    {
      "inputs": [],
      "name": "WITHDRAW_ROLE",
      "outputs": [
        {
          "internalType": "bytes32",
          "name": "",
          "type": "bytes32"
        }
      ],
      "stateMutability": "view",
      "type": "function"
    },
    {
      "inputs": [
        {
          "internalType": "uint256",
          "name": "",
          "type": "uint256"
        }
      ],
      "name": "allDAOs",
      "outputs": [
        {
          "internalType": "address",
          "name": "",
          "type": "address"
        }
      ],
      "stateMutability": "view",
      "type": "function"
    },
    {
      "inputs": [
        {
          "internalType": "uint256",
          "name": "",
          "type": "uint256"
        }
      ],
      "name": "allTokens",
      "outputs": [
        {
          "internalType": "address",
          "name": "",
          "type": "address"
        }
      ],
      "stateMutability": "view",
      "type": "function"
    },
    {
      "inputs": [
        {
          "internalType": "uint256",
          "name": "",
          "type": "uint256"
        }
      ],
      "name": "allTradingTokens",
      "outputs": [
        {
          "internalType": "address",
          "name": "",
          "type": "address"
        }
      ],
      "stateMutability": "view",
      "type": "function"
    },
    {
      "inputs": [],
      "name": "applicationThreshold",
      "outputs": [
        {
          "internalType": "uint256",
          "name": "",
          "type": "uint256"
        }
      ],
      "stateMutability": "view",
      "type": "function"
    },
    {
      "inputs": [],
      "name": "assetToken",
      "outputs": [
        {
          "internalType": "address",
          "name": "",
          "type": "address"
        }
      ],
      "stateMutability": "view",
      "type": "function"
    },
    {
      "inputs": [],
      "name": "daoImplementation",
      "outputs": [
        {
          "internalType": "address",
          "name": "",
          "type": "address"
        }
      ],
      "stateMutability": "view",
      "type": "function"
    },
    {
      "inputs": [],
      "name": "defaultDelegatee",
      "outputs": [
        {
          "internalType": "address",
          "name": "",
          "type": "address"
        }
      ],
      "stateMutability": "view",
      "type": "function"
    },
    {
      "inputs": [
        {
          "internalType": "uint256",
          "name": "id",
          "type": "uint256"
        },
        {
          "internalType": "bool",
          "name": "canStake",
          "type": "bool"
        }
      ],
      "name": "executeApplication",
      "outputs": [],
      "stateMutability": "nonpayable",
      "type": "function"
    },
    {
      "inputs": [
        {
          "internalType": "uint256",
          "name": "proposalId",
          "type": "uint256"
        }
      ],
      "name": "getApplication",
      "outputs": [
        {
          "components": [
            {
              "internalType": "string",
              "name": "name",
              "type": "string"
            },
            {
              "internalType": "string",
              "name": "symbol",
              "type": "string"
            },
            {
              "internalType": "string",
              "name": "tokenURI",
              "type": "string"
            },
            {
              "internalType": "enum AgentFactoryV2.ApplicationStatus",
              "name": "status",
              "type": "uint8"
            },
            {
              "internalType": "uint256",
              "name": "withdrawableAmount",
              "type": "uint256"
            },
            {
              "internalType": "address",
              "name": "proposer",
              "type": "address"
            },
            {
              "internalType": "uint8[]",
              "name": "cores",
              "type": "uint8[]"
            },
            {
              "internalType": "uint256",
              "name": "proposalEndBlock",
              "type": "uint256"
            },
            {
              "internalType": "uint256",
              "name": "virtualId",
              "type": "uint256"
            },
            {
              "internalType": "bytes32",
              "name": "tbaSalt",
              "type": "bytes32"
            },
            {
              "internalType": "address",
              "name": "tbaImplementation",
              "type": "address"
            },
            {
              "internalType": "uint32",
              "name": "daoVotingPeriod",
              "type": "uint32"
            },
            {
              "internalType": "uint256",
              "name": "daoThreshold",
              "type": "uint256"
            }
          ],
          "internalType": "struct AgentFactoryV2.Application",
          "name": "",
          "type": "tuple"
        }
      ],
      "stateMutability": "view",
      "type": "function"
    },
    {
      "inputs": [
        {
          "internalType": "bytes32",
          "name": "role",
          "type": "bytes32"
        }
      ],
      "name": "getRoleAdmin",
      "outputs": [
        {
          "internalType": "bytes32",
          "name": "",
          "type": "bytes32"
        }
      ],
      "stateMutability": "view",
      "type": "function"
    },
    {
      "inputs": [],
      "name": "gov",
      "outputs": [
        {
          "internalType": "address",
          "name": "",
          "type": "address"
        }
      ],
      "stateMutability": "view",
      "type": "function"
    },
    {
      "inputs": [
        {
          "internalType": "bytes32",
          "name": "role",
          "type": "bytes32"
        },
        {
          "internalType": "address",
          "name": "account",
          "type": "address"
        }
      ],
      "name": "grantRole",
      "outputs": [],
      "stateMutability": "nonpayable",
      "type": "function"
    },
    {
      "inputs": [
        {
          "internalType": "bytes32",
          "name": "role",
          "type": "bytes32"
        },
        {
          "internalType": "address",
          "name": "account",
          "type": "address"
        }
      ],
      "name": "hasRole",
      "outputs": [
        {
          "internalType": "bool",
          "name": "",
          "type": "bool"
        }
      ],
      "stateMutability": "view",
      "type": "function"
    },
    {
      "inputs": [
        {
          "internalType": "address",
          "name": "tokenImplementation_",
          "type": "address"
        },
        {
          "internalType": "address",
          "name": "veTokenImplementation_",
          "type": "address"
        },
        {
          "internalType": "address",
          "name": "daoImplementation_",
          "type": "address"
        },
        {
          "internalType": "address",
          "name": "tbaRegistry_",
          "type": "address"
        },
        {
          "internalType": "address",
          "name": "assetToken_",
          "type": "address"
        },
        {
          "internalType": "address",
          "name": "nft_",
          "type": "address"
        },
        {
          "internalType": "uint256",
          "name": "applicationThreshold_",
          "type": "uint256"
        },
        {
          "internalType": "address",
          "name": "vault_",
          "type": "address"
        }
      ],
      "name": "initialize",
      "outputs": [],
      "stateMutability": "nonpayable",
      "type": "function"
    },
    {
      "inputs": [],
      "name": "maturityDuration",
      "outputs": [
        {
          "internalType": "uint256",
          "name": "",
          "type": "uint256"
        }
      ],
      "stateMutability": "view",
      "type": "function"
    },
    {
      "inputs": [],
      "name": "nft",
      "outputs": [
        {
          "internalType": "address",
          "name": "",
          "type": "address"
        }
      ],
      "stateMutability": "view",
      "type": "function"
    },
    {
      "inputs": [],
      "name": "pause",
      "outputs": [],
      "stateMutability": "nonpayable",
      "type": "function"
    },
    {
      "inputs": [],
      "name": "paused",
      "outputs": [
        {
          "internalType": "bool",
          "name": "",
          "type": "bool"
        }
      ],
      "stateMutability": "view",
      "type": "function"
    },
    {
      "inputs": [
        {
          "internalType": "string",
          "name": "name",
          "type": "string"
        },
        {
          "internalType": "string",
          "name": "symbol",
          "type": "string"
        },
        {
          "internalType": "string",
          "name": "tokenURI",
          "type": "string"
        },
        {
          "internalType": "uint8[]",
          "name": "cores",
          "type": "uint8[]"
        },
        {
          "internalType": "bytes32",
          "name": "tbaSalt",
          "type": "bytes32"
        },
        {
          "internalType": "address",
          "name": "tbaImplementation",
          "type": "address"
        },
        {
          "internalType": "uint32",
          "name": "daoVotingPeriod",
          "type": "uint32"
        },
        {
          "internalType": "uint256",
          "name": "daoThreshold",
          "type": "uint256"
        }
      ],
      "name": "proposeAgent",
      "outputs": [
        {
          "internalType": "uint256",
          "name": "",
          "type": "uint256"
        }
      ],
      "stateMutability": "nonpayable",
      "type": "function"
    },
    {
      "inputs": [
        {
          "internalType": "bytes32",
          "name": "role",
          "type": "bytes32"
        },
        {
          "internalType": "address",
          "name": "callerConfirmation",
          "type": "address"
        }
      ],
      "name": "renounceRole",
      "outputs": [],
      "stateMutability": "nonpayable",
      "type": "function"
    },
    {
      "inputs": [
        {
          "internalType": "bytes32",
          "name": "role",
          "type": "bytes32"
        },
        {
          "internalType": "address",
          "name": "account",
          "type": "address"
        }
      ],
      "name": "revokeRole",
      "outputs": [],
      "stateMutability": "nonpayable",
      "type": "function"
    },
    {
      "inputs": [
        {
          "internalType": "uint256",
          "name": "newThreshold",
          "type": "uint256"
        }
      ],
      "name": "setApplicationThreshold",
      "outputs": [],
      "stateMutability": "nonpayable",
      "type": "function"
    },
    {
      "inputs": [
        {
          "internalType": "address",
          "name": "newToken",
          "type": "address"
        }
      ],
      "name": "setAssetToken",
      "outputs": [],
      "stateMutability": "nonpayable",
      "type": "function"
    },
    {
      "inputs": [
        {
          "internalType": "address",
          "name": "token",
          "type": "address"
        },
        {
          "internalType": "address",
          "name": "veToken",
          "type": "address"
        },
        {
          "internalType": "address",
          "name": "dao",
          "type": "address"
        }
      ],
      "name": "setImplementations",
      "outputs": [],
      "stateMutability": "nonpayable",
      "type": "function"
    },
    {
      "inputs": [
        {
          "internalType": "uint256",
          "name": "newDuration",
          "type": "uint256"
        }
      ],
      "name": "setMaturityDuration",
      "outputs": [],
      "stateMutability": "nonpayable",
      "type": "function"
    },
    {
      "inputs": [
        {
          "internalType": "address",
          "name": "newTokenAdmin",
          "type": "address"
        }
      ],
      "name": "setTokenAdmin",
      "outputs": [],
      "stateMutability": "nonpayable",
      "type": "function"
    },
    {
      "inputs": [
        {
          "internalType": "uint256",
          "name": "maxSupply",
          "type": "uint256"
        },
        {
          "internalType": "uint256",
          "name": "lpSupply",
          "type": "uint256"
        },
        {
          "internalType": "uint256",
          "name": "vaultSupply",
          "type": "uint256"
        },
        {
          "internalType": "uint256",
          "name": "maxTokensPerWallet",
          "type": "uint256"
        },
        {
          "internalType": "uint256",
          "name": "maxTokensPerTxn",
          "type": "uint256"
        },
        {
          "internalType": "uint256",
          "name": "botProtectionDurationInSeconds",
          "type": "uint256"
        },
        {
          "internalType": "address",
          "name": "vault",
          "type": "address"
        }
      ],
      "name": "setTokenSupplyParams",
      "outputs": [],
      "stateMutability": "nonpayable",
      "type": "function"
    },
    {
      "inputs": [
        {
          "internalType": "uint256",
          "name": "projectBuyTaxBasisPoints",
          "type": "uint256"
        },
        {
          "internalType": "uint256",
          "name": "projectSellTaxBasisPoints",
          "type": "uint256"
        },
        {
          "internalType": "uint256",
          "name": "taxSwapThresholdBasisPoints",
          "type": "uint256"
        },
        {
          "internalType": "address",
          "name": "projectTaxRecipient",
          "type": "address"
        }
      ],
      "name": "setTokenTaxParams",
      "outputs": [],
      "stateMutability": "nonpayable",
      "type": "function"
    },
    {
      "inputs": [
        {
          "internalType": "address",
          "name": "router",
          "type": "address"
        }
      ],
      "name": "setUniswapRouter",
      "outputs": [],
      "stateMutability": "nonpayable",
      "type": "function"
    },
    {
      "inputs": [
        {
          "internalType": "address",
          "name": "newVault",
          "type": "address"
        }
      ],
      "name": "setVault",
      "outputs": [],
      "stateMutability": "nonpayable",
      "type": "function"
    },
    {
      "inputs": [
        {
          "internalType": "bytes4",
          "name": "interfaceId",
          "type": "bytes4"
        }
      ],
      "name": "supportsInterface",
      "outputs": [
        {
          "internalType": "bool",
          "name": "",
          "type": "bool"
        }
      ],
      "stateMutability": "view",
      "type": "function"
    },
    {
      "inputs": [],
      "name": "tbaRegistry",
      "outputs": [
        {
          "internalType": "address",
          "name": "",
          "type": "address"
        }
      ],
      "stateMutability": "view",
      "type": "function"
    },
    {
      "inputs": [],
      "name": "tokenImplementation",
      "outputs": [
        {
          "internalType": "address",
          "name": "",
          "type": "address"
        }
      ],
      "stateMutability": "view",
      "type": "function"
    },
    {
      "inputs": [],
      "name": "totalAgents",
      "outputs": [
        {
          "internalType": "uint256",
          "name": "",
          "type": "uint256"
        }
      ],
      "stateMutability": "view",
      "type": "function"
    },
    {
      "inputs": [],
      "name": "unpause",
      "outputs": [],
      "stateMutability": "nonpayable",
      "type": "function"
    },
    {
      "inputs": [],
      "name": "veTokenImplementation",
      "outputs": [
        {
          "internalType": "address",
          "name": "",
          "type": "address"
        }
      ],
      "stateMutability": "view",
      "type": "function"
    },
    {
      "inputs": [
        {
          "internalType": "uint256",
          "name": "id",
          "type": "uint256"
        }
      ],
      "name": "withdraw",
      "outputs": [],
      "stateMutability": "nonpayable",
      "type": "function"
    }
  ],
  "bytecode": "0x60808060405234620000bd577ff0c57e16840df040f15088dc2f81fe391c3923bec73e23a9662efc9c229c6a009081549060ff8260401c16620000ae57506001600160401b036002600160401b03198282160162000068575b604051613c289081620000c38239f35b6001600160401b031990911681179091556040519081527fc7f505b2f371ae2175ee4913f4499e1f2633a7b5936321eed1cdaeb6115181d290602090a138808062000058565b63f92ee8a960e01b8152600490fd5b600080fdfe608080604052600436101561001357600080fd5b600090813560e01c90816301ffc9a71461348b57508063063513b71461346d5780630c4cb55c146134445780631083f7611461341b57806312d43a51146133f25780631f2f4bfd14612ba6578063248a9ca314612b7a57806326bde5aa14612b3a5780632a7d4a1f146129755780632e1a7d4d146127e95780632f2ff15d146127ac5780632f3a3d5d1461278357806336568abe1461273b5780633f4ba83a146126c3578063468d198d1461269a57806347ccca02146126715780635c975abb146126415780635ca3cedf1461249a578063634282af1461243e5780636817031b146123fe5780638456cb59146123965780638e659c081461219d57806391d14854146121555780639300d238146120eb5780639cbe0bac146120c25780639d699326146120995780639e4ec30a14611811578063a217fddf146117f5578063aa3d000a14610435578063b4136bd8146103d9578063bd1cf2581461038b578063bea9849e1461034b578063c50537121461032d578063d547741f146102ec578063d739ac29146102c9578063ddf44275146102ab578063e02023a114610270578063e887b1cc146102105763f7457594146101ce57600080fd5b3461020d57602036600319011261020d576101e7613520565b6101ef6138fd565b60018060a01b03166001600160601b0360a01b601254161760125580f35b80fd5b503461020d57602036600319011261020d57600435600e5481101561026c57600e6000527fbb7b4a454dc3493923482f07822329ed19e8244eff582cc204f8554c3620c3fd01546040516001600160a01b039091168152602090f35b5080fd5b503461020d578060031936011261020d5760206040517f5d8e12c39142ff96d79d04d15d1ba1269e4fe57bb9d26f43523628b34ba108ec8152f35b503461020d578060031936011261020d576020600654604051908152f35b503461020d57602036600319011261020d576102e36138fd565b600435600a5580f35b503461020d57604036600319011261020d5761032960043561030c613536565b90808452836020526103246001604086200154613955565b613a89565b5080f35b503461020d578060031936011261020d576020600754604051908152f35b503461020d57602036600319011261020d57610365613520565b61036d6138fd565b60018060a01b03166001600160601b0360a01b600f541617600f5580f35b503461020d57602036600319011261020d577fcfa33021ab0175831433b2f3bd8eeb24a22f5ae53ca0e660a246811754f9e34a60206004356103cb6138fd565b80600655604051908152a180f35b503461020d57602036600319011261020d5760043560085481101561026c5760086000527ff3f7a9fe364faab93b216da50a3214154f22a0a2b415b23a84c8169e8b636ee301546040516001600160a01b039091168152602090f35b503461020d57604036600319011261020d576024356004358115158203610f0e57600d5461046960ff8260a01c1615613789565b60ff60a01b1916600160a01b17600d55808352600b6020526040832060039081015460ff16908110156117e1576104a09015613801565b6012546001600160a01b0316156117a6578252600b602052604082209060018060a01b0360058301541633148015611767575b6104dc906137c6565b6004820180549084905560038301805460ff191660011790556040519161050e8361050781876136a0565b03846135d8565b6040516105298161052281600189016136a0565b03826135d8565b600254608881901c62ffffff16763d602d80600a3d3981f3363d3d373d3d3d363d7300000017875260781b6001600160781b0319166e5af43d82803e903d91602b57fd5bf3176020526037600987f0936001600160a01b038516156114e757604051918260608101106001600160401b03606085011117611753576105fa9161060c61061a926060860160405260018060a01b0360125416865260018060a01b03600f5416602087015260018060a01b036009541660408701526040519485936040602086015260608501906134e0565b838103601f19016040850152906134e0565b03601f1981018352826135d8565b6001600160a01b0385163b15610eff57604051634258efa960e11b8152918791839183600484015b6003821061172e575050506106629060c0606484015260c48301906134e0565b818103600319016084830152601454839161067c82613666565b808252916001811690811561170f57506001146116b1575b50508181036003190160a483015260155483916106b082613666565b9182825284600182169182600014611693575050600114611635575b505081900381836001600160a01b0389165af1801561155457611622575b50600e54600160401b8110156114b5576001810180600e5581101561149f57600e6000527fbb7b4a454dc3493923482f07822329ed19e8244eff582cc204f8554c3620c3fd0180546001600160a01b0319166001600160a01b03851690811790915560405163d6efd7c360e01b8152908690829060049082905afa908115611554578691611573575b5080511561155f5760209081015160095460405163a9059cbb60e01b81526001600160a01b038781166004830152602482019690965291851694919291839160449183918b91165af1801561155457611535575b506001600160a01b0383163b156114e357604051631672aef960e21b815230600482015285908181602481836001600160a01b038a165af18015610f0357611521575b50506040519066029ba30b5b2b2160cd1b602083015261083f826108316027820188613879565b03601f1981018452836135d8565b60405190607360f81b6020830152610861826108316021820160018a01613879565b6005860154601054608881901c62ffffff16763d602d80600a3d3981f3363d3d373d3d3d363d7300000017895260781b6001600160781b0319166e5af43d82803e903d91602b57fd5bf3176020526001600160a01b0390811690603760098af0169384156114e757600a5442019182421161150d576004548a95946001600160a01b0390911693929190873b15610eff57869461091e94610930604051988997889763b2193b4d60e01b895260e060048a015260e48901906134e0565b878103600319016024890152906134e0565b9360448601528a6064860152608485015260a4840152151560c4830152038183875af18015610f03576114f9575b5050600754600160401b8110156114b557600181018060075581101561149f5760076000527fa66cc928b5edb82af9bd49922954155ab7b0942694bea4ce44661d9a8736c6880180546001600160a01b03191682179055604051936109e56004866109cc6020820185613879565b632044414f60e01b815203601b198101885201866135d8565b600a810154600b820154600354608881901c62ffffff16763d602d80600a3d3981f3363d3d373d3d3d363d7300000017895260781b6001600160781b0319166e5af43d82803e903d91602b57fd5bf31760205260a09190911c63ffffffff16906001600160a01b03603760098af0169687156114e75760045489936001600160a01b0390911691893b156114e3578492610a9c926040519586948594631c63df3560e21b865260a0600487015260a48601906134e0565b928a60248601526044850152606484015260848301520381838b5af18015610f03576114cb575b5050600854600160401b8110156114b557600181018060085581101561149f5760086000527ff3f7a9fe364faab93b216da50a3214154f22a0a2b415b23a84c8169e8b636ee30180546001600160a01b0319168617905560048054604051632fd77c0d60e11b815295916001600160a01b0390911690602090879081845afa95861561100357889661146b575b50600d546005840154604051631f889aa560e11b8152600481018990526001600160a01b0392831660248201526101006044820152929116908290610b9c6101048301600288016136a0565b928a606484015260848301526003198284030160a48301528a60206006880154948581520193600688018252602082209082915b81601f8401106112bf5795859392849260209854918181106112ad575b818110611297575b818110611281575b81811061126b575b818110611257575b818110611241575b81811061122b575b818110611215575b8181106111ff575b8181106111e9575b8181106111d3575b8181106111bd575b8181106111a7575b818110611191575b81811061117b575b818110611165575b81811061114f575b818110611139575b818110611123575b81811061110d575b8181106110f7575b8181106110e1575b8181106110cb575b8181106110b5575b81811061109f575b818110611089575b818110611073575b81811061105d575b818110611047575b818110611031575b81811061101b575b1061100e575b5060c482018c90526001600160a01b03891660e483015203925af1801561100357610fd8575b508460088301558660018060a01b036005541692602060018060a01b03600a8301541660a46009840154918560018060a01b036004541698604051998a958694638a54c52f60e01b86526004860152602485015246604485015260648401528c60848401525af1938415610f03578294610f9c575b506004546001600160a01b0316803b15610f0e5760405163190b373360e31b8152600481018990526001600160a01b03861660248201529083908290604490829084905af1908115610f4e578391610f88575b505060405163095ea7b360e01b8152600481018690526000196024820152602081604481868b5af18015610f4e57610f59575b506040516370a0823160e01b8152306004820152906020826024818a5afa918215610f4e578392610f12575b50600501546001600160a01b0316853b15610f0e576040519163a7d545db60e01b835260048301528060248301526044820152818160648183895af18015610f0357610ee1575b50937ff9d151d23a5253296eb20ab40959cf48828ea2732d337416716e302ed83ca6589360c09388889460405195865260018060a01b03166020860152604085015260018060a01b03166060840152608083015260a0820152a1600d805460ff60a01b1916905580f35b610ef0909695949392966135aa565b610eff57909192938638610e77565b8680fd5b6040513d84823e3d90fd5b8280fd5b925090506020823d602011610f46575b81610f2f602093836135d8565b81010312610f41578891519038610e30565b600080fd5b3d9150610f22565b6040513d85823e3d90fd5b610f7a9060203d602011610f81575b610f7281836135d8565b810190613861565b5038610e04565b503d610f68565b610f91906135aa565b61026c578138610dd1565b9093506020813d602011610fd0575b81610fb8602093836135d8565b8101031261026c57610fc99061384d565b9238610d7e565b3d9150610fab565b602090813d8311610ffc575b610fee81836135d8565b81010312610f415738610d09565b503d610fe4565b6040513d8a823e3d90fd5b60f81c8152860138610ce3565b928960019160ff8560f01c168152019301610cdd565b928960019160ff8560e81c168152019301610cd5565b928960019160ff8560e01c168152019301610ccd565b928960019160ff8560d81c168152019301610cc5565b928960019160ff8560d01c168152019301610cbd565b928960019160ff8560c81c168152019301610cb5565b928960019160ff8560c01c168152019301610cad565b928960019160ff8560b81c168152019301610ca5565b928960019160ff8560b01c168152019301610c9d565b928960019160ff8560a81c168152019301610c95565b928960019160ff8560a01c168152019301610c8d565b928960019160ff8560981c168152019301610c85565b928960019160ff8560901c168152019301610c7d565b928960019160ff8560881c168152019301610c75565b928960019160ff8560801c168152019301610c6d565b928960019160ff8560781c168152019301610c65565b928960019160ff8560701c168152019301610c5d565b928960019160ff8560681c168152019301610c55565b928960019160ff8560601c168152019301610c4d565b928960019160ff8560581c168152019301610c45565b928960019160ff8560501c168152019301610c3d565b928960019160ff8560481c168152019301610c35565b928960019160ff8560401c168152019301610c2d565b928960019160ff8560381c168152019301610c25565b928960019160ff8560301c168152019301610c1d565b928960019160ff8560281c168152019301610c15565b828a1c60ff16845292890192600101610c0d565b928960019160ff8560181c168152019301610c05565b928960019160ff8560101c168152019301610bfd565b928960019160ff8560081c168152019301610bf5565b60ff8316845292890192600101610bed565b9450915091936001610400602092865460ff8116825260ff8160081c168583015260ff8160101c16604083015260ff8160181c16606083015260ff81861c16608083015260ff8160281c1660a083015260ff8160301c1660c083015260ff8160381c1660e083015260ff8160401c1661010083015260ff8160481c1661012083015260ff8160501c1661014083015260ff8160581c1661016083015260ff8160601c1661018083015260ff8160681c166101a083015260ff8160701c166101c083015260ff8160781c166101e083015260ff8160801c1661020083015260ff8160881c1661022083015260ff8160901c1661024083015260ff8160981c1661026083015260ff8160a01c1661028083015260ff8160a81c166102a083015260ff8160b01c166102c083015260ff8160b81c166102e083015260ff8160c01c1661030083015260ff8160c81c1661032083015260ff8160d01c1661034083015260ff8160d81c1661036083015260ff8160e01c1661038083015260ff8160e81c166103a083015260ff8160f01c166103c083015260f81c6103e082015201940192018c9186949593610bd0565b9095506020813d602011611497575b81611487602093836135d8565b81010312610f4157519438610b50565b3d915061147a565b634e487b7160e01b600052603260045260246000fd5b634e487b7160e01b600052604160045260246000fd5b6114d4906135aa565b6114df578538610ac3565b8580fd5b8480fd5b60405163b06ebf3d60e01b8152600490fd5b611502906135aa565b6114e357843861095e565b634e487b7160e01b8a52601160045260248afd5b61152a906135aa565b6114e357843861080a565b61154d9060203d602011610f8157610f7281836135d8565b50386107c7565b6040513d88823e3d90fd5b634e487b7160e01b86526032600452602486fd5b90503d8087833e61158481836135d8565b810190602081830312610eff578051906001600160401b03821161161e57019080601f83011215610eff578151906115bb8261364f565b926115c960405194856135d8565b828452602084019160208460051b8301011161161a579060208201915b60208460051b82010183106115ff575050505038610773565b602080809361160d8661384d565b81520193019291506115e6565b8880fd5b8780fd5b61162e909591956135aa565b93386106ea565b60158552849250907f55f448fdea98c4d29eb340757ef0a66cd03dbb9538908a6a81d96026b71ec4755b8184106116735750500160200181386106cc565b60019195506020929450805483858701015201910190918993859361165f565b909450602093915060ff191683830152151560051b010190386106cc565b60148552849250907fce6d7b5282bd9a3661ae061feed1dbda4e52ab073b1f9285be6e155d9c38d4ec5b8184106116ef575050016020013880610694565b6001919550602092945080548385870101520191019091899385936116db565b90506020935060ff929192191683830152151560051b01013880610694565b82516001600160a01b031681528b955086945060209283019260019092019101610642565b634e487b7160e01b88526041600452602488fd5b507f5d8e12c39142ff96d79d04d15d1ba1269e4fe57bb9d26f43523628b34ba108ec83526020838152604080852033865290915283205460ff166104d3565b60405162461bcd60e51b8152602060048201526013602482015272151bdad95b8818591b5a5b881b9bdd081cd95d606a1b6044820152606490fd5b634e487b7160e01b84526021600452602484fd5b503461020d578060031936011261020d57602090604051908152f35b503461020d5761010036600319011261020d576004356001600160401b03811161026c576118439036906004016135f9565b906024356001600160401b03811161026c576118639036906004016135f9565b6044356001600160401b038111610f0e576118829036906004016135f9565b926064356001600160401b0381116120955736602382011215612095578060040135906118ae8261364f565b916118bc60405193846135d8565b80835260208301913660248360051b83010111610eff5760248101925b60248360051b830101841061207957505050506118f4613578565b60c4359163ffffffff831683036114df5761190d613afe565b6009546040516370a0823160e01b81523360048201526001600160a01b0390911690602081602481855afa908115611003578891612047575b5060065480911061200257604051636eb1769f60e11b8152336004820152306024820152602081604481865afa908115611ff7579082918a91611fc2575b5010611f7257825115611f34576119c991604051916323b872dd60e01b60208401523360248401523060448401526064830152606482526119c4826135bd565b613b29565b600154946000198614611f2057859697600163ffffffff96970160015560065491604051976119f78961358e565b88526020880152604087015287606087015260808601523360a086015260c08501524360e08501528561010085015260843561012085015260018060a01b03166101408401521661016082015260e435610180820152818352600b602052604083209080518051906001600160401b038211611da657611a8182611a7b8654613666565b8661374d565b602090601f8311600114611eb757611ab19291879183611dce575b50508160011b916000199060031b1c19161790565b82555b60208101518051906001600160401b038211611da657611ae482611adb6001870154613666565b6001870161374d565b602090601f8311600114611e4857611b139291879183611dce5750508160011b916000199060031b1c19161790565b60018301555b60408101518051906001600160401b038211611da657611b4982611b406002870154613666565b6002870161374d565b602090601f8311600114611dd957611b789291879183611dce5750508160011b916000199060031b1c19161790565b60028301555b60608101516003811015611dba5760ff80196003850154169116176003830155608081015160048301556005820160018060a01b0360a0830151166001600160601b0360a01b82541617905560c08101518051906001600160401b038211611da657600160401b8211611da6576020906006850154836006870155808410611d57575b5001906006840186526020862091865b8260051c8110611d185750601f19821690818303611cc2575b60208787600b6101808960e0810151600785015561010081015160088501556101208101516009850155600a840160018060a01b036101408301511681549063ffffffff60a01b61016085015160a01b16916001600160401b0360c01b161717905501519101557f0ff47c4a3dc48719ecfd1876116e80d7d76ec7cb67248ae49449f9104747af2982604051838152a1604051908152f35b90875b8184038110611ce85750505060051c0193909355602092610180600b3880611c2a565b9091976020611d0e6001928460ff8d5116919060ff809160031b9316831b921b19161790565b9901929101611cc5565b87885b60208110611d30575084820155600101611c11565b835190939160019160209160ff600388901b81811b199092169216901b1792019301611d1b565b611d8490600687018952838920601f80870160051c82019281881680611d8a575b500160051c0190613736565b38611c01565b600019850190815490600019908a0360031b1c16905538611d78565b634e487b7160e01b86526041600452602486fd5b634e487b7160e01b85526021600452602485fd5b015190503880611a9c565b9190600285018752602087209087935b601f1984168510611e2d576001945083601f19811610611e14575b505050811b016002830155611b7e565b015160001960f88460031b161c19169055388080611e04565b81810151835560209485019460019093019290910190611de9565b9190600185018752602087209087935b601f1984168510611e9c576001945083601f19811610611e83575b505050811b016001830155611b19565b015160001960f88460031b161c19169055388080611e73565b81810151835560209485019460019093019290910190611e58565b9190848752602087209087935b601f1984168510611f05576001945083601f19811610611eec575b505050811b018255611ab4565b015160001960f88460031b161c19169055388080611edf565b81810151835560209485019460019093019290910190611ec4565b634e487b7160e01b87526011600452602487fd5b60405162461bcd60e51b815260206004820152601660248201527510dbdc995cc81b5d5cdd081899481c1c9bdd9a59195960521b6044820152606490fd5b60405162461bcd60e51b815260206004820152602260248201527f496e73756666696369656e7420617373657420746f6b656e20616c6c6f77616e604482015261636560f01b6064820152608490fd5b9150506020813d602011611fef575b81611fde602093836135d8565b8101031261161a5781905138611984565b3d9150611fd1565b6040513d8b823e3d90fd5b60405162461bcd60e51b815260206004820152601860248201527f496e73756666696369656e7420617373657420746f6b656e00000000000000006044820152606490fd5b90506020813d602011612071575b81612062602093836135d8565b8101031261161e575138611946565b3d9150612055565b60ff84351684350361161e5783358152602093840193016118d9565b8380fd5b503461020d578060031936011261020d576003546040516001600160a01b039091168152602090f35b503461020d578060031936011261020d576010546040516001600160a01b039091168152602090f35b503461020d57606036600319011261020d57612105613520565b61210d613536565b612115613562565b9061211e6138fd565b60018060a01b038092816001600160601b0360a01b9516856002541617600255168360035416176003551690601054161760105580f35b503461020d57604036600319011261020d5760ff6040602092612176613536565b60043582528185528282206001600160a01b03909116825284522054604051911615158152f35b503461020d5761010036600319011261020d576121b8613520565b6121c0613536565b906121c9613562565b906121d261354c565b6001600160a01b036084358181169592939290869003610eff576121f4613578565b9060e4359483861680960361161a577ff0c57e16840df040f15088dc2f81fe391c3923bec73e23a9662efc9c229c6a009788549260ff8460401c1615986001600160401b0385168015908161238e575b6001149081612384575b15908161237b575b506123695767ffffffffffffffff1985166001178b558694859283918c61234a575b50612281613b91565b612289613b91565b600080516020613bd383398151915260ff198154169055816001600160601b0360a01b9a168a60025416176002551688601054161760105516866003541617600355856009541617600955168360055416176005551681600454161760045560c435600655600180556122fb3361397b565b50600d541617600d5561230c575080f35b68ff00000000000000001981541690557fc7f505b2f371ae2175ee4913f4499e1f2633a7b5936321eed1cdaeb6115181d2602060405160018152a180f35b68ffffffffffffffffff191668010000000000000001178d5538612278565b60405163f92ee8a960e01b8152600490fd5b90501538612256565b303b15915061224e565b8b9150612244565b503461020d578060031936011261020d576123af6138fd565b6123b7613afe565b600080516020613bd3833981519152600160ff198254161790557f62e78cea01bee320cd4e420270b5ea74000d11b0c9f74754ebdbfc544b05a2586020604051338152a180f35b503461020d57602036600319011261020d57612418613520565b6124206138fd565b60018060a01b03166001600160601b0360a01b600d541617600d5580f35b503461020d57602036600319011261020d5760043560075481101561026c5760079091527fa66cc928b5edb82af9bd49922954155ab7b0942694bea4ce44661d9a8736c68801546040516001600160a01b039091168152602090f35b503461020d57608036600319011261020d576124b461354c565b906124bd6138fd565b6040519160209060043560208501526024356040850152604435606085015260018060a01b03166080840152608083526124f6836135bd565b8251906001600160401b03821161262d57612512601554613666565b601f81116125d4575b50602090601f831160011461255357508190839461254d9492611dce5750508160011b916000199060031b1c19161790565b60155580f35b60158452601f198316947f55f448fdea98c4d29eb340757ef0a66cd03dbb9538908a6a81d96026b71ec475929185905b8782106125bc5750508360019596106125a3575b505050811b0160155580f35b015160001960f88460031b161c19169055388080612597565b80600185968294968601518155019501930190612583565b61261d90601585527f55f448fdea98c4d29eb340757ef0a66cd03dbb9538908a6a81d96026b71ec475601f850160051c81019160208610612623575b601f0160051c0190613736565b3861251b565b9091508190612610565b634e487b7160e01b83526041600452602483fd5b503461020d578060031936011261020d57602060ff600080516020613bd383398151915254166040519015158152f35b503461020d578060031936011261020d576004546040516001600160a01b039091168152602090f35b503461020d578060031936011261020d576005546040516001600160a01b039091168152602090f35b503461020d578060031936011261020d576126dc6138fd565b600080516020613bd3833981519152805460ff8116156127295760ff191690557f5db9ee0a495bf2e6ff9c91a7834c1ba4fdd244a5e8aa4e537bd38aeae4b073aa6020604051338152a180f35b604051638dfc202b60e01b8152600490fd5b503461020d57604036600319011261020d57612755613536565b336001600160a01b038216036127715761032990600435613a89565b60405163334bd91960e11b8152600490fd5b503461020d578060031936011261020d576002546040516001600160a01b039091168152602090f35b503461020d57604036600319011261020d576103296004356127cc613536565b90808452836020526127e46001604086200154613955565b613a0b565b503461020d576020908160031936011261020d57600d5461281060ff8260a01c1615613789565b60ff60a01b19908116600160a01b17600d556004358252600b83526040822060058101546001600160a01b0390811691903383148015612939575b612854906137c6565b6003820180549260ff84166003811015612925576128729015613801565b60078101544311156128e05760040180549087905560ff19909316600217905560095460405163a9059cbb60e01b978101979097526001600160a01b0390931660248701526044860191909152929391926128d69291166119c48260648101610831565b600d5416600d5580f35b60405162461bcd60e51b815260048101899052601e60248201527f4170706c69636174696f6e206973206e6f74206d6174757265642079657400006044820152606490fd5b634e487b7160e01b88526021600452602488fd5b507f5d8e12c39142ff96d79d04d15d1ba1269e4fe57bb9d26f43523628b34ba108ec85528486526040808620338752875285205460ff1661284b565b503461020d5760e036600319011261020d5760c4356001600160a01b038116919082900361020d576129a56138fd565b60405191602090600435602085015260243560408501526044356060850152606435608085015260843560a085015260a43560c085015260e084015260e083526101008301906001600160401b039184811083821117612b2657604052835191821161262d57612a16601454613666565b601f8111612ad8575b50602090601f8311600114612a57575081908394612a519492611dce5750508160011b916000199060031b1c19161790565b60145580f35b60148452601f198316947fce6d7b5282bd9a3661ae061feed1dbda4e52ab073b1f9285be6e155d9c38d4ec929185905b878210612ac0575050836001959610612aa7575b505050811b0160145580f35b015160001960f88460031b161c19169055388080612a9b565b80600185968294968601518155019501930190612a87565b612b2090601485527fce6d7b5282bd9a3661ae061feed1dbda4e52ab073b1f9285be6e155d9c38d4ec601f850160051c8101916020861061262357601f0160051c0190613736565b38612a1f565b634e487b7160e01b84526041600452602484fd5b503461020d57602036600319011261020d57612b54613520565b612b5c6138fd565b60018060a01b03166001600160601b0360a01b600954161760095580f35b503461020d57602036600319011261020d57600160406020926004358152808452200154604051908152f35b503461020d57602036600319011261020d5780610180604051612bc88161358e565b6060815260606020820152606060408201528260608201528260808201528260a0820152606060c08201528260e08201528261010082015282610120820152826101408201528261016082015201526004358152600b602052604081209060405190612c338261358e565b604051612c448161052281876136a0565b8252604051612c5a8161052281600188016136a0565b6020830152604051612c738161052281600288016136a0565b604083015260ff60038401541660038110156133de5760608301526004830154608083015260058301546001600160a01b031660a0830152604051600684018054808352908352602080842090830195929184915b81601f84011061323c5796612de6928492600b9798995491818110613228575b818110613211575b8181106131fa575b8181106131e3575b8181106131cd575b8181106131b6575b81811061319f575b818110613188575b818110613171575b81811061315a575b818110613143575b81811061312c575b818110613115575b8181106130fe575b8181106130e7575b8181106130d0575b8181106130b9575b8181106130a2575b81811061308b575b818110613074575b81811061305d575b818110613046575b81811061302f575b818110613018575b818110613001575b818110612fea575b818110612fd3575b818110612fbc575b818110612fa5575b818110612f8e575b818110612f77575b10612f69575b5003826135d8565b60c0850152600781015460e08501526008810154610100850152600981015461012085015263ffffffff600a82015460018060a01b03811661014087015260a01c1661016085015201546101808301526040519060208252612e88612e72612e5c85516101a060208701526101c08601906134e0565b6020860151858203601f190160408701526134e0565b6040850151848203601f190160608601526134e0565b60608401516003811015612f55576080849392930152608084015160a084015260018060a01b0360a08501511660c084015260c084015191601f198482030160e0850152602080845192838152019301915b818110612f3c575050506101808360e08495015161010085015261010081015161012085015261012081015161014085015260018060a01b036101408201511661016085015263ffffffff610160820151168285015201516101a08301520390f35b825160ff16845260209384019390920191600101612eda565b634e487b7160e01b83526021600452602483fd5b60f81c815260200138612dde565b92602060019160ff8560f01c168152019301612dd8565b92602060019160ff8560e81c168152019301612dd0565b92602060019160ff8560e01c168152019301612dc8565b92602060019160ff8560d81c168152019301612dc0565b92602060019160ff8560d01c168152019301612db8565b92602060019160ff8560c81c168152019301612db0565b92602060019160ff8560c01c168152019301612da8565b92602060019160ff8560b81c168152019301612da0565b92602060019160ff8560b01c168152019301612d98565b92602060019160ff8560a81c168152019301612d90565b92602060019160ff8560a01c168152019301612d88565b92602060019160ff8560981c168152019301612d80565b92602060019160ff8560901c168152019301612d78565b92602060019160ff8560881c168152019301612d70565b92602060019160ff8560801c168152019301612d68565b92602060019160ff8560781c168152019301612d60565b92602060019160ff8560701c168152019301612d58565b92602060019160ff8560681c168152019301612d50565b92602060019160ff8560601c168152019301612d48565b92602060019160ff8560581c168152019301612d40565b92602060019160ff8560501c168152019301612d38565b92602060019160ff8560481c168152019301612d30565b92602060019160ff8560401c168152019301612d28565b92602060019160ff8560381c168152019301612d20565b92602060019160ff8560301c168152019301612d18565b92602060019160ff8560281c168152019301612d10565b92602060019160ff85831c168152019301612d08565b92602060019160ff8560181c168152019301612d00565b92602060019160ff8560101c168152019301612cf8565b92602060019160ff8560081c168152019301612cf0565b92602060019160ff85168152019301612ce8565b9660016104006020928a5460ff8116825260ff8160081c168583015260ff8160101c16604083015260ff8160181c16606083015260ff81861c16608083015260ff8160281c1660a083015260ff8160301c1660c083015260ff8160381c1660e083015260ff8160401c1661010083015260ff8160481c1661012083015260ff8160501c1661014083015260ff8160581c1661016083015260ff8160601c1661018083015260ff8160681c166101a083015260ff8160701c166101c083015260ff8160781c166101e083015260ff8160801c1661020083015260ff8160881c1661022083015260ff8160901c1661024083015260ff8160981c1661026083015260ff8160a01c1661028083015260ff8160a81c166102a083015260ff8160b01c166102c083015260ff8160b81c166102e083015260ff8160c01c1661030083015260ff8160c81c1661032083015260ff8160d01c1661034083015260ff8160d81c1661036083015260ff8160e01c1661038083015260ff8160e81c166103a083015260ff8160f01c166103c083015260f81c6103e0820152019801920191612cc8565b634e487b7160e01b82526021600452602482fd5b503461020d578060031936011261020d57600c546040516001600160a01b039091168152602090f35b503461020d578060031936011261020d576009546040516001600160a01b039091168152602090f35b503461020d578060031936011261020d576013546040516001600160a01b039091168152602090f35b503461020d578060031936011261020d576020600a54604051908152f35b90503461026c57602036600319011261026c5760043563ffffffff60e01b8116809103610f0e5760209250637965db0b60e01b81149081156134cf575b5015158152f35b6301ffc9a760e01b149050386134c8565b919082519283825260005b84811061350c575050826000602080949584010152601f8019910116010190565b6020818301810151848301820152016134eb565b600435906001600160a01b0382168203610f4157565b602435906001600160a01b0382168203610f4157565b606435906001600160a01b0382168203610f4157565b604435906001600160a01b0382168203610f4157565b60a435906001600160a01b0382168203610f4157565b6101a081019081106001600160401b038211176114b557604052565b6001600160401b0381116114b557604052565b60a081019081106001600160401b038211176114b557604052565b90601f801991011681019081106001600160401b038211176114b557604052565b81601f82011215610f41578035906001600160401b0382116114b5576040519261362d601f8401601f1916602001856135d8565b82845260208383010111610f4157816000926020809301838601378301015290565b6001600160401b0381116114b55760051b60200190565b90600182811c92168015613696575b602083101461368057565b634e487b7160e01b600052602260045260246000fd5b91607f1691613675565b8054600093926136af82613666565b9182825260209360019160018116908160001461371757506001146136d6575b5050505050565b90939495506000929192528360002092846000945b838610613703575050505001019038808080806136cf565b8054858701830152940193859082016136eb565b60ff19168685015250505090151560051b0101915038808080806136cf565b818110613741575050565b60008155600101613736565b9190601f811161375c57505050565b613787926000526020600020906020601f840160051c8301931061262357601f0160051c0190613736565b565b1561379057565b60405162461bcd60e51b815260206004820152600e60248201526d31b0b73737ba103932b2b73a32b960911b6044820152606490fd5b156137cd57565b60405162461bcd60e51b815260206004820152600c60248201526b2737ba10383937b837b9b2b960a11b6044820152606490fd5b1561380857565b60405162461bcd60e51b815260206004820152601960248201527f4170706c69636174696f6e206973206e6f7420616374697665000000000000006044820152606490fd5b51906001600160a01b0382168203610f4157565b90816020910312610f4157518015158103610f415790565b60009291815461388881613666565b926001918083169081156138e257506001146138a5575b50505050565b9091929394506000526020906020600020906000915b8583106138d1575050505001903880808061389f565b8054858401529183019181016138bb565b60ff191684525050508115159091020191503880808061389f565b3360009081527fad3228b676f7d3cd4284a5443f17f1962b36e491b30a40b2405849e597ba5fb5602052604081205460ff16156139375750565b6044906040519063e2517d3f60e01b82523360048301526024820152fd5b80600052600060205260406000203360005260205260ff60406000205416156139375750565b6001600160a01b031660008181527fad3228b676f7d3cd4284a5443f17f1962b36e491b30a40b2405849e597ba5fb5602052604081205490919060ff16613a0757818052816020526040822081835260205260408220600160ff1982541617905533917f2f8788117e7eff1d82e926ec794901d17c78024a50270940304540a733656f0d8180a4600190565b5090565b9060009180835282602052604083209160018060a01b03169182845260205260ff60408420541615600014613a8457808352826020526040832082845260205260408320600160ff198254161790557f2f8788117e7eff1d82e926ec794901d17c78024a50270940304540a733656f0d339380a4600190565b505090565b9060009180835282602052604083209160018060a01b03169182845260205260ff604084205416600014613a845780835282602052604083208284526020526040832060ff1981541690557ff6391f5c32d9c69d2a47ea670b442974b53935d1edc7fd64eb21e047a839171b339380a4600190565b60ff600080516020613bd38339815191525416613b1757565b60405163d93c066560e01b8152600490fd5b906000602091828151910182855af115613b85576000513d613b7c57506001600160a01b0381163b155b613b5a5750565b604051635274afe760e01b81526001600160a01b039091166004820152602490fd5b60011415613b53565b6040513d6000823e3d90fd5b60ff7ff0c57e16840df040f15088dc2f81fe391c3923bec73e23a9662efc9c229c6a005460401c1615613bc057565b604051631afcd79f60e31b8152600490fdfecd5ed15c6e187e77e9aee88184c21f4f2182ab5827cb3b7e07fbedcd63f03300a26469706673582212208b8255244b3e109e52e07ece4f9ae26e22f688cce694773d2e28457995825c4964736f6c63430008160033",
  "linkReferences": {},
  "deployedLinkReferences": {}
}