{
  "_format": "hh-sol-artifact-1",
  "contractName": "AgentMigrator",
  "sourceName": "contracts/virtualPersona/AgentMigrator.sol",
  "abi": [
    {
      "inputs": [
        {
          "internalType": "address",
          "name": "agentNft_",
          "type": "address"
        }
      ],
      "stateMutability": "nonpayable",
      "type": "constructor"
    },
    {
      "inputs": [],
      "name": "EnforcedPause",
      "type": "error"
    },
    {
      "inputs": [],
      "name": "ExpectedPause",
      "type": "error"
    },
    {
      "inputs": [],
      "name": "FailedDeployment",
      "type": "error"
    },
    {
      "inputs": [
        {
          "internalType": "uint256",
          "name": "balance",
          "type": "uint256"
        },
        {
          "internalType": "uint256",
          "name": "needed",
          "type": "uint256"
        }
      ],
      "name": "InsufficientBalance",
      "type": "error"
    },
    {
      "inputs": [
        {
          "internalType": "address",
          "name": "owner",
          "type": "address"
        }
      ],
      "name": "OwnableInvalidOwner",
      "type": "error"
    },
    {
      "inputs": [
        {
          "internalType": "address",
          "name": "account",
          "type": "address"
        }
      ],
      "name": "OwnableUnauthorizedAccount",
      "type": "error"
    },
    {
      "anonymous": false,
      "inputs": [
        {
          "indexed": false,
          "internalType": "uint256",
          "name": "virtualId",
          "type": "uint256"
        },
        {
          "indexed": false,
          "internalType": "address",
          "name": "dao",
          "type": "address"
        },
        {
          "indexed": false,
          "internalType": "address",
          "name": "token",
          "type": "address"
        },
        {
          "indexed": false,
          "internalType": "address",
          "name": "lp",
          "type": "address"
        },
        {
          "indexed": false,
          "internalType": "address",
          "name": "veToken",
          "type": "address"
        }
      ],
      "name": "AgentMigrated",
      "type": "event"
    },
    {
      "anonymous": false,
      "inputs": [
        {
          "indexed": true,
          "internalType": "address",
          "name": "previousOwner",
          "type": "address"
        },
        {
          "indexed": true,
          "internalType": "address",
          "name": "newOwner",
          "type": "address"
        }
      ],
      "name": "OwnershipTransferred",
      "type": "event"
    },
    {
      "anonymous": false,
      "inputs": [
        {
          "indexed": false,
          "internalType": "address",
          "name": "account",
          "type": "address"
        }
      ],
      "name": "Paused",
      "type": "event"
    },
    {
      "anonymous": false,
      "inputs": [
        {
          "indexed": false,
          "internalType": "address",
          "name": "account",
          "type": "address"
        }
      ],
      "name": "Unpaused",
      "type": "event"
    },
    {
      "inputs": [],
      "name": "daoImplementation",
      "outputs": [
        {
          "internalType": "address",
          "name": "",
          "type": "address"
        }
      ],
      "stateMutability": "view",
      "type": "function"
    },
    {
      "inputs": [],
      "name": "initialAmount",
      "outputs": [
        {
          "internalType": "uint256",
          "name": "",
          "type": "uint256"
        }
      ],
      "stateMutability": "view",
      "type": "function"
    },
    {
      "inputs": [],
      "name": "maturityDuration",
      "outputs": [
        {
          "internalType": "uint256",
          "name": "",
          "type": "uint256"
        }
      ],
      "stateMutability": "view",
      "type": "function"
    },
    {
      "inputs": [
        {
          "internalType": "uint256",
          "name": "id",
          "type": "uint256"
        },
        {
          "internalType": "string",
          "name": "name",
          "type": "string"
        },
        {
          "internalType": "string",
          "name": "symbol",
          "type": "string"
        },
        {
          "internalType": "bool",
          "name": "canStake",
          "type": "bool"
        }
      ],
      "name": "migrateAgent",
      "outputs": [],
      "stateMutability": "nonpayable",
      "type": "function"
    },
    {
      "inputs": [
        {
          "internalType": "uint256",
          "name": "",
          "type": "uint256"
        }
      ],
      "name": "migratedAgents",
      "outputs": [
        {
          "internalType": "bool",
          "name": "",
          "type": "bool"
        }
      ],
      "stateMutability": "view",
      "type": "function"
    },
    {
      "inputs": [],
      "name": "owner",
      "outputs": [
        {
          "internalType": "address",
          "name": "",
          "type": "address"
        }
      ],
      "stateMutability": "view",
      "type": "function"
    },
    {
      "inputs": [],
      "name": "pause",
      "outputs": [],
      "stateMutability": "nonpayable",
      "type": "function"
    },
    {
      "inputs": [],
      "name": "paused",
      "outputs": [
        {
          "internalType": "bool",
          "name": "",
          "type": "bool"
        }
      ],
      "stateMutability": "view",
      "type": "function"
    },
    {
      "inputs": [],
      "name": "renounceOwnership",
      "outputs": [],
      "stateMutability": "nonpayable",
      "type": "function"
    },
    {
      "inputs": [
        {
          "internalType": "uint256",
          "name": "id",
          "type": "uint256"
        }
      ],
      "name": "reset",
      "outputs": [],
      "stateMutability": "nonpayable",
      "type": "function"
    },
    {
      "inputs": [
        {
          "internalType": "address",
          "name": "token",
          "type": "address"
        },
        {
          "internalType": "address",
          "name": "veToken",
          "type": "address"
        },
        {
          "internalType": "address",
          "name": "dao",
          "type": "address"
        }
      ],
      "name": "setImplementations",
      "outputs": [],
      "stateMutability": "nonpayable",
      "type": "function"
    },
    {
      "inputs": [
        {
          "internalType": "address",
          "name": "tokenAdmin_",
          "type": "address"
        },
        {
          "internalType": "address",
          "name": "assetToken_",
          "type": "address"
        },
        {
          "internalType": "address",
          "name": "uniswapRouter_",
          "type": "address"
        },
        {
          "internalType": "uint256",
          "name": "initialAmount_",
          "type": "uint256"
        },
        {
          "internalType": "uint256",
          "name": "maturityDuration_",
          "type": "uint256"
        }
      ],
      "name": "setInitParams",
      "outputs": [],
      "stateMutability": "nonpayable",
      "type": "function"
    },
    {
      "inputs": [
        {
          "internalType": "uint256",
          "name": "maxSupply",
          "type": "uint256"
        },
        {
          "internalType": "uint256",
          "name": "lpSupply",
          "type": "uint256"
        },
        {
          "internalType": "uint256",
          "name": "vaultSupply",
          "type": "uint256"
        },
        {
          "internalType": "uint256",
          "name": "maxTokensPerWallet",
          "type": "uint256"
        },
        {
          "internalType": "uint256",
          "name": "maxTokensPerTxn",
          "type": "uint256"
        },
        {
          "internalType": "uint256",
          "name": "botProtectionDurationInSeconds",
          "type": "uint256"
        },
        {
          "internalType": "address",
          "name": "vault",
          "type": "address"
        }
      ],
      "name": "setTokenSupplyParams",
      "outputs": [],
      "stateMutability": "nonpayable",
      "type": "function"
    },
    {
      "inputs": [
        {
          "internalType": "uint256",
          "name": "projectBuyTaxBasisPoints",
          "type": "uint256"
        },
        {
          "internalType": "uint256",
          "name": "projectSellTaxBasisPoints",
          "type": "uint256"
        },
        {
          "internalType": "uint256",
          "name": "taxSwapThresholdBasisPoints",
          "type": "uint256"
        },
        {
          "internalType": "address",
          "name": "projectTaxRecipient",
          "type": "address"
        }
      ],
      "name": "setTokenTaxParams",
      "outputs": [],
      "stateMutability": "nonpayable",
      "type": "function"
    },
    {
      "inputs": [],
      "name": "tokenImplementation",
      "outputs": [
        {
          "internalType": "address",
          "name": "",
          "type": "address"
        }
      ],
      "stateMutability": "view",
      "type": "function"
    },
    {
      "inputs": [
        {
          "internalType": "address",
          "name": "newOwner",
          "type": "address"
        }
      ],
      "name": "transferOwnership",
      "outputs": [],
      "stateMutability": "nonpayable",
      "type": "function"
    },
    {
      "inputs": [],
      "name": "unpause",
      "outputs": [],
      "stateMutability": "nonpayable",
      "type": "function"
    },
    {
      "inputs": [],
      "name": "veTokenImplementation",
      "outputs": [
        {
          "internalType": "address",
          "name": "",
          "type": "address"
        }
      ],
      "stateMutability": "view",
      "type": "function"
    }
  ],
  "bytecode": "0x6080346100d857601f6119b838819003918201601f19168301916001600160401b038311848410176100dd578084926020946040528339810103126100d857516001600160a01b0390818116908190036100d85733156100bf5760005460405192339082167f8be0079c531659141344cd1fd0a4f28419497f9722a3daafe3b4186f6b6457e0600080a36001600160a81b0319163360ff60a01b191617600055600180546001600160a01b0319169190911790556118c490816100f48239f35b604051631e4fbdf760e01b815260006004820152602490fd5b600080fd5b634e487b7160e01b600052604160045260246000fdfe608080604052600436101561001357600080fd5b600090813560e01c908163063513b714611693575080632a7d4a1f146114c85780632f3a3d5d1461149f578063310bd74b1461146c5780633f4ba83a146113fb5780635c975abb146113d65780635ca3cedf146111ff578063715018a6146111a55780638456cb591461112f5780638da5cb5b146111085780639300d2381461109e5780639cbe0bac146110755780639d6993261461104c578063b2c0212d14610236578063bd5f20db14610207578063f2fde38b1461017c578063f984cf12146101075763fc1ed437146100e757600080fd5b346101045780600319360112610104576020600754604051908152f35b80fd5b50346101045760a0366003190112610104576101216116af565b6101296116c5565b6101316116db565b61013961183d565b60018060a01b038092816001600160601b0360a01b95168560045416176004551683600554161760055516906006541617600655606435600755608435600b5580f35b5034610104576020366003190112610104576101966116af565b61019e61183d565b6001600160a01b039081169081156101ee57600054826001600160601b0360a01b821617600055167f8be0079c531659141344cd1fd0a4f28419497f9722a3daafe3b4186f6b6457e0600080a380f35b604051631e4fbdf760e01b815260048101849052602490fd5b50346101045760203660031901126101045760ff60406020926004358152600c84522054166040519015158152f35b5034610104576080366003190112610104576024356001600160401b038111610ac157610267903690600401611756565b6044356001600160401b038111610a3357610286903690600401611756565b606435801515810361104857600d5460ff81166110125760ff1916600117600d556004358452600c602052604084205460ff16610fd457600154604051635652386760e11b81526004803590820152908590829060249082906001600160a01b03165afa908115610fc9578591610eaa575b5060408101516001600160a01b031690338203610e7757600854608881901c62ffffff16763d602d80600a3d3981f3363d3d373d3d3d363d7300000017875260781b6001600160781b0319166e5af43d82803e903d91602b57fd5bf3176020526037600987f0936001600160a01b03851615610add576040518060608101106001600160401b03606083011117610e63576060810160405260018060a01b0360045416815260018060a01b0360065416602082015260018060a01b03600554166040820152604051604060208201526103fb6103d7606083018a611869565b826103ef601f19928383820301604084015287611869565b0390810183528261171a565b6001600160a01b0387163b15610bee57604051634258efa960e11b8152918991839183600484015b60038210610e3e575050506104439060c0606484015260c4830190611869565b818103600319016084830152600254839161045d8261179d565b8082529160018116908115610e1f5750600114610dc1575b50508181036003190160a483015260035483916104918261179d565b9182825284600182169182600014610da3575050600114610d45575b505081900381836001600160a01b038b165af18015610b2357610d32575b5060405163d6efd7c360e01b815287816004816001600160a01b038a165afa908115610b23578891610c7b575b50805115610c67576020908101516005546007546040516323b872dd60e01b8152600481018890526001600160a01b038a811660248301526044820192909252928116979391839160649183918e91165af18015610c5c57610c3d575b506001600160a01b0386163b15610bf257604051631672aef960e21b815230600482015288908181602481836001600160a01b038d165af18015610a2857610c29575b50506105d76027604051809966029ba30b5b2b2160cd1b60208301526105c7815180926020868601910161181a565b810103600781018a52018861171a565b61060e60216040518094607360f81b60208301526105fe815180926020868601910161181a565b810103600181018552018361171a565b600a54608881901c62ffffff16763d602d80600a3d3981f3363d3d373d3d3d363d7300000017895260781b6001600160781b0319166e5af43d82803e903d91602b57fd5bf3176020526037600989f0966001600160a01b03881615610add57600b54420190814211610c15576001548a9493926001600160a01b0391821692918b163b15610ad95785936106c2936106d4604051978896879663b2193b4d60e01b885260e0600489015260e4880190611869565b86810360031901602488015290611869565b928a60448601528b6064860152608485015260a4840152151560c483015203818360018060a01b038c165af18015610a2857610c01575b5050516040516306fdde0360e01b81526001600160a01b039091169290918683600481875afa928315610bf6578793610b65575b506040516302a251a360e01b815292602084600481885afa938415610b23578894610b2e575b506020600493949560405194858092630b58131b60e41b82525afa928315610b23578893610aef575b5060098054608881901c62ffffff16763d602d80600a3d3981f3363d3d373d3d3d363d73000000178a5260781b6001600160781b0319166e5af43d82803e903d91602b57fd5bf3176020526001600160a01b03906037908af016948515610add5760015489946001600160a01b0390911692873b15610ad9578963ffffffff8794610836946040519788968796631c63df3560e21b885260a0600489015260a4880190611869565b6001600160a01b03909516602487015260448601526064850152166084830152038183895af1908115610a73578391610ac5575b50506001546001600160a01b0316803b15610a33576040516374aa04c560e01b815260048035908201526001600160a01b0386811660248301528781166044830152858116606483015288166084820152908390829060a490829084905af1908115610a73578391610aad575b505060405163095ea7b360e01b81526001600160a01b0387166004820152600019602482015260208160448186885af18015610a7357610a7e575b506040516370a0823160e01b815230600482015290602082602481875afa918215610a73578392610a37575b506001600160a01b0387163b15610a335760405163a7d545db60e01b815260048101929092526024820181905260448201528181606481836001600160a01b038b165af18015610a2857610a10575b5050600435808652600c60209081526040808820805460ff1916600117905580519283526001600160a01b039485169183019190915293831693810193909352811660608301529190911660808201527fe67c497f66d4b22604304fed8e8782e0ebe7e5b42e35e6eff9d8d3a54732afaf9060a090a160ff19600d5416600d5580f35b610a19906116f1565b610a2457843861098d565b8480fd5b6040513d84823e3d90fd5b8280fd5b925090506020823d602011610a6b575b81610a546020938361171a565b81010312610a6657869151903861093e565b600080fd5b3d9150610a47565b6040513d85823e3d90fd5b610a9f9060203d602011610aa6575b610a97818361171a565b810190611802565b5038610912565b503d610a8d565b610ab6906116f1565b610ac15781386108d7565b5080fd5b610ace906116f1565b610ac157813861086a565b8580fd5b60405163b06ebf3d60e01b8152600490fd5b9092506020813d602011610b1b575b81610b0b6020938361171a565b81010312610a665751913861078e565b3d9150610afe565b6040513d8a823e3d90fd5b9293506020833d602011610b5d575b81610b4a6020938361171a565b81010312610a6657915192916020610765565b3d9150610b3d565b9092503d908188823e610b78828261171a565b6020818381010312610bf2578051906001600160401b038211610bee57828101601f838301011215610bee578181015190610bb28261173b565b93610bc0604051958661171a565b8285528101602083858401010111610bea576020610be39381860192010161181a565b913861073f565b8980fd5b8880fd5b8780fd5b6040513d89823e3d90fd5b610c0a906116f1565b610ad957853861070b565b634e487b7160e01b8a52601160045260248afd5b610c32906116f1565b610bf2578738610598565b610c559060203d602011610aa657610a97818361171a565b5038610555565b6040513d8b823e3d90fd5b634e487b7160e01b88526032600452602488fd5b90503d8089833e610c8c818361171a565b6020828281010312610bee578151906001600160401b038211610bea57808301601f838501011215610bea578183015191610cc6836117eb565b93610cd4604051958661171a565b8385526020850192810160208560051b848401010111610d2e5780820160200192915b60208560051b82840101018410610d13575050505050386104f8565b6020808094610d21876117d7565b8152019401939250610cf7565b8b80fd5b610d3e909791976116f1565b95386104cb565b60038552849250907fc2575a0e9e593c00f959f8c92f12db2869c3395a3b0502d05e2516446f71f85b5b818410610d835750500160200181386104ad565b60019195506020929450805483858701015201910190918b938593610d6f565b909450602093915060ff191683830152151560051b010190386104ad565b60028552849250907f405787fa12a823e0f2b7631cc41b3ba8828b3321ca811111fa75cd3aa3bb5ace5b818410610dff575050016020013880610475565b60019195506020929450805483858701015201910190918b938593610deb565b90506020935060ff929192191683830152151560051b01013880610475565b82516001600160a01b031681528d955086945060209283019260019092019101610423565b634e487b7160e01b88526041600452602488fd5b60405162461bcd60e51b815260206004820152600b60248201526a2737ba103337bab73232b960a91b6044820152606490fd5b90503d8086833e610ebb818361171a565b810190602081830312610ad9578051906001600160401b038211610fc557019060a082820312610ad9576040519160a083018381106001600160401b03821117610e6357604052610f0b816117d7565b8352610f19602082016117d7565b6020840152610f2a604082016117d7565b6040840152610f3b606082016117d7565b60608401526080810151906001600160401b038211610bf257019080601f83011215610fc557815190610f6d826117eb565b92610f7b604051948561171a565b82845260208085019360051b820101918211610bee57602001915b818310610fab575050506080820152386102f8565b825160ff81168103610bea57815260209283019201610f96565b8680fd5b6040513d87823e3d90fd5b60405162461bcd60e51b81526020600482015260166024820152751059d95b9d08185b1c9958591e481b5a59dc985d195960521b6044820152606490fd5b60405162461bcd60e51b815260206004820152600e60248201526d31b0b73737ba103932b2b73a32b960911b6044820152606490fd5b8380fd5b50346101045780600319360112610104576009546040516001600160a01b039091168152602090f35b5034610104578060031936011261010457600a546040516001600160a01b039091168152602090f35b5034610104576060366003190112610104576110b86116af565b6110c06116c5565b6110c86116db565b906110d161183d565b60018060a01b038092816001600160601b0360a01b9516856008541617600855168360095416176009551690600a541617600a5580f35b5034610104578060031936011261010457546040516001600160a01b039091168152602090f35b503461010457806003193601126101045761114861183d565b805460ff8160a01c166111935760ff60a01b1916600160a01b1781556040513381527f62e78cea01bee320cd4e420270b5ea74000d11b0c9f74754ebdbfc544b05a25890602090a180f35b60405163d93c066560e01b8152600490fd5b50346101045780600319360112610104576111be61183d565b80546001600160a01b03198116825581906001600160a01b03167f8be0079c531659141344cd1fd0a4f28419497f9722a3daafe3b4186f6b6457e08280a380f35b5034610104576080366003190112610104576064356001600160a01b03811691908290036101045761122f61183d565b6040519160209060043560208501526024356040850152604435606085015260808401526080835260a083016001600160401b0390848110828211176113c25760405283519081116113ae57600391611288835461179d565b601f811161134c575b50602090601f83116001146112cd57508394829394926112c2575b50508160011b9160001990841b1c191617905580f35b0151905038806112ac565b838552601f198316957fc2575a0e9e593c00f959f8c92f12db2869c3395a3b0502d05e2516446f71f85b929186905b8882106113345750508360019596971061131c575b505050811b01905580f35b015160001983861b60f8161c19169055388080611311565b806001859682949686015181550195019301906112fc565b8385527fc2575a0e9e593c00f959f8c92f12db2869c3395a3b0502d05e2516446f71f85b601f840160051c810191602085106113a4575b601f0160051c01905b8181106113995750611291565b85815560010161138c565b9091508190611383565b634e487b7160e01b83526041600452602483fd5b634e487b7160e01b84526041600452602484fd5b503461010457806003193601126101045760ff6020915460a01c166040519015158152f35b503461010457806003193601126101045761141461183d565b805460ff8160a01c161561145a5760ff60a01b191681556040513381527f5db9ee0a495bf2e6ff9c91a7834c1ba4fdd244a5e8aa4e537bd38aeae4b073aa90602090a180f35b604051638dfc202b60e01b8152600490fd5b50346101045760203660031901126101045761148661183d565b6004358152600c60205260408120805460ff1916905580f35b50346101045780600319360112610104576008546040516001600160a01b039091168152602090f35b50346101045760e03660031901126101045760c4356001600160a01b0381169190829003610104576114f861183d565b60405191602090600435602085015260243560408501526044356060850152606435608085015260843560a085015260a43560c085015260e084015260e083526101008301906001600160401b0391848110838211176113c25760405283519182116113ae5761156960025461179d565b601f8111611630575b50602090601f83116001146115af575082938293926115a4575b50508160011b916000199060031b1c19161760025580f35b01519050388061158c565b60028452601f198316947f405787fa12a823e0f2b7631cc41b3ba8828b3321ca811111fa75cd3aa3bb5ace929185905b8782106116185750508360019596106115ff575b505050811b0160025580f35b015160001960f88460031b161c191690553880806115f3565b806001859682949686015181550195019301906115df565b600284527f405787fa12a823e0f2b7631cc41b3ba8828b3321ca811111fa75cd3aa3bb5ace601f840160051c81019160208510611689575b601f0160051c01905b81811061167e5750611572565b848155600101611671565b9091508190611668565b905034610ac15781600319360112610ac157602090600b548152f35b600435906001600160a01b0382168203610a6657565b602435906001600160a01b0382168203610a6657565b604435906001600160a01b0382168203610a6657565b6001600160401b03811161170457604052565b634e487b7160e01b600052604160045260246000fd5b90601f801991011681019081106001600160401b0382111761170457604052565b6001600160401b03811161170457601f01601f191660200190565b81601f82011215610a665780359061176d8261173b565b9261177b604051948561171a565b82845260208383010111610a6657816000926020809301838601378301015290565b90600182811c921680156117cd575b60208310146117b757565b634e487b7160e01b600052602260045260246000fd5b91607f16916117ac565b51906001600160a01b0382168203610a6657565b6001600160401b0381116117045760051b60200190565b90816020910312610a6657518015158103610a665790565b60005b83811061182d5750506000910152565b818101518382015260200161181d565b6000546001600160a01b0316330361185157565b60405163118cdaa760e01b8152336004820152602490fd5b906020916118828151809281855285808601910161181a565b601f01601f191601019056fea2646970667358221220c81812dfe24b2d2015db4944a7604e37dcfd75c4500cff79d08bcb7e2918298664736f6c63430008160033",
  "linkReferences": {},
  "deployedLinkReferences": {}
}