{
  "_format": "hh-sol-artifact-1",
  "contractName": "AgentToken",
  "sourceName": "contracts/virtualPersona/AgentToken.sol",
  "abi": [
    {
      "inputs": [],
      "stateMutability": "nonpayable",
      "type": "constructor"
    },
    {
      "inputs": [],
      "name": "AdapterParamsMustBeEmpty",
      "type": "error"
    },
    {
      "inputs": [],
      "name": "AdditionToPoolIsBelowPerTransactionMinimum",
      "type": "error"
    },
    {
      "inputs": [],
      "name": "AdditionToPoolWouldExceedPerAddressCap",
      "type": "error"
    },
    {
      "inputs": [],
      "name": "AdditionToPoolWouldExceedPoolCap",
      "type": "error"
    },
    {
      "inputs": [],
      "name": "AddressAlreadySet",
      "type": "error"
    },
    {
      "inputs": [],
      "name": "AllowanceDecreasedBelowZero",
      "type": "error"
    },
    {
      "inputs": [],
      "name": "AlreadyInitialised",
      "type": "error"
    },
    {
      "inputs": [],
      "name": "ApprovalCallerNotOwnerNorApproved",
      "type": "error"
    },
    {
      "inputs": [],
      "name": "ApprovalQueryForNonexistentToken",
      "type": "error"
    },
    {
      "inputs": [],
      "name": "ApproveFromTheZeroAddress",
      "type": "error"
    },
    {
      "inputs": [],
      "name": "ApproveToTheZeroAddress",
      "type": "error"
    },
    {
      "inputs": [],
      "name": "AuctionStatusIsNotEnded",
      "type": "error"
    },
    {
      "inputs": [],
      "name": "AuctionStatusIsNotOpen",
      "type": "error"
    },
    {
      "inputs": [
        {
          "internalType": "address[]",
          "name": "modules",
          "type": "address[]"
        },
        {
          "internalType": "uint256",
          "name": "value",
          "type": "uint256"
        },
        {
          "internalType": "bytes",
          "name": "data",
          "type": "bytes"
        },
        {
          "internalType": "uint256",
          "name": "txGas",
          "type": "uint256"
        }
      ],
      "name": "AuxCallFailed",
      "type": "error"
    },
    {
      "inputs": [],
      "name": "BalanceMismatch",
      "type": "error"
    },
    {
      "inputs": [],
      "name": "BalanceQueryForZeroAddress",
      "type": "error"
    },
    {
      "inputs": [],
      "name": "BidMustBeBelowTheFloorForRefundDuringAuction",
      "type": "error"
    },
    {
      "inputs": [],
      "name": "BidMustBeBelowTheFloorWhenReducingQuantity",
      "type": "error"
    },
    {
      "inputs": [
        {
          "internalType": "enum IErrors.BondingCurveErrorType",
          "name": "error",
          "type": "uint8"
        }
      ],
      "name": "BondingCurveError",
      "type": "error"
    },
    {
      "inputs": [],
      "name": "BurnExceedsBalance",
      "type": "error"
    },
    {
      "inputs": [],
      "name": "BurnFromTheZeroAddress",
      "type": "error"
    },
    {
      "inputs": [],
      "name": "CallerIsNotAdminNorFactory",
      "type": "error"
    },
    {
      "inputs": [],
      "name": "CallerIsNotDepositBoxOwner",
      "type": "error"
    },
    {
      "inputs": [],
      "name": "CallerIsNotFactory",
      "type": "error"
    },
    {
      "inputs": [],
      "name": "CallerIsNotFactoryOrProjectOwner",
      "type": "error"
    },
    {
      "inputs": [],
      "name": "CallerIsNotFactoryProjectOwnerOrPool",
      "type": "error"
    },
    {
      "inputs": [
        {
          "internalType": "address",
          "name": "caller",
          "type": "address"
        }
      ],
      "name": "CallerIsNotPlatformAdmin",
      "type": "error"
    },
    {
      "inputs": [
        {
          "internalType": "address",
          "name": "caller",
          "type": "address"
        }
      ],
      "name": "CallerIsNotSuperAdmin",
      "type": "error"
    },
    {
      "inputs": [],
      "name": "CallerIsNotTheManager",
      "type": "error"
    },
    {
      "inputs": [],
      "name": "CallerIsNotTheOwner",
      "type": "error"
    },
    {
      "inputs": [],
      "name": "CallerMustBeLzApp",
      "type": "error"
    },
    {
      "inputs": [],
      "name": "CanOnlyReduce",
      "type": "error"
    },
    {
      "inputs": [],
      "name": "CannotAddLiquidityOnCreateAndUseDRIPool",
      "type": "error"
    },
    {
      "inputs": [],
      "name": "CannotSetNewManagerToTheZeroAddress",
      "type": "error"
    },
    {
      "inputs": [],
      "name": "CannotSetNewOwnerToTheZeroAddress",
      "type": "error"
    },
    {
      "inputs": [],
      "name": "CannotSetToZeroAddress",
      "type": "error"
    },
    {
      "inputs": [],
      "name": "CannotWithdrawThisToken",
      "type": "error"
    },
    {
      "inputs": [],
      "name": "CollectionAlreadyRevealed",
      "type": "error"
    },
    {
      "inputs": [],
      "name": "ContractIsDecommissioned",
      "type": "error"
    },
    {
      "inputs": [],
      "name": "ContractIsNotPaused",
      "type": "error"
    },
    {
      "inputs": [],
      "name": "ContractIsPaused",
      "type": "error"
    },
    {
      "inputs": [],
      "name": "DecreasedAllowanceBelowZero",
      "type": "error"
    },
    {
      "inputs": [],
      "name": "DeployerOnly",
      "type": "error"
    },
    {
      "inputs": [],
      "name": "DeploymentError",
      "type": "error"
    },
    {
      "inputs": [],
      "name": "DepositBoxIsNotOpen",
      "type": "error"
    },
    {
      "inputs": [],
      "name": "DestinationIsNotTrustedSource",
      "type": "error"
    },
    {
      "inputs": [],
      "name": "DriPoolAddressCannotBeAddressZero",
      "type": "error"
    },
    {
      "inputs": [],
      "name": "GasLimitIsTooLow",
      "type": "error"
    },
    {
      "inputs": [],
      "name": "IncorrectConfirmationValue",
      "type": "error"
    },
    {
      "inputs": [],
      "name": "IncorrectPayment",
      "type": "error"
    },
    {
      "inputs": [],
      "name": "InitialLiquidityAlreadyAdded",
      "type": "error"
    },
    {
      "inputs": [],
      "name": "InitialLiquidityNotYetAdded",
      "type": "error"
    },
    {
      "inputs": [],
      "name": "InsufficientAllowance",
      "type": "error"
    },
    {
      "inputs": [],
      "name": "InvalidAdapterParams",
      "type": "error"
    },
    {
      "inputs": [],
      "name": "InvalidAddress",
      "type": "error"
    },
    {
      "inputs": [],
      "name": "InvalidEndpointCaller",
      "type": "error"
    },
    {
      "inputs": [],
      "name": "InvalidInitialization",
      "type": "error"
    },
    {
      "inputs": [],
      "name": "InvalidMinGas",
      "type": "error"
    },
    {
      "inputs": [],
      "name": "InvalidOracleSignature",
      "type": "error"
    },
    {
      "inputs": [],
      "name": "InvalidPayload",
      "type": "error"
    },
    {
      "inputs": [],
      "name": "InvalidReceiver",
      "type": "error"
    },
    {
      "inputs": [],
      "name": "InvalidSourceSendingContract",
      "type": "error"
    },
    {
      "inputs": [],
      "name": "InvalidTotalShares",
      "type": "error"
    },
    {
      "inputs": [],
      "name": "LPLockUpMustFitUint88",
      "type": "error"
    },
    {
      "inputs": [],
      "name": "LimitsCanOnlyBeRaised",
      "type": "error"
    },
    {
      "inputs": [],
      "name": "LiquidityPoolCannotBeAddressZero",
      "type": "error"
    },
    {
      "inputs": [],
      "name": "LiquidityPoolMustBeAContractAddress",
      "type": "error"
    },
    {
      "inputs": [],
      "name": "ListLengthMismatch",
      "type": "error"
    },
    {
      "inputs": [],
      "name": "MachineAddressCannotBeAddressZero",
      "type": "error"
    },
    {
      "inputs": [],
      "name": "ManagerUnauthorizedAccount",
      "type": "error"
    },
    {
      "inputs": [],
      "name": "MaxBidQuantityIs255",
      "type": "error"
    },
    {
      "inputs": [
        {
          "internalType": "uint256",
          "name": "requested",
          "type": "uint256"
        },
        {
          "internalType": "uint256",
          "name": "alreadyMinted",
          "type": "uint256"
        },
        {
          "internalType": "uint256",
          "name": "maxAllowance",
          "type": "uint256"
        }
      ],
      "name": "MaxPublicMintAllowanceExceeded",
      "type": "error"
    },
    {
      "inputs": [],
      "name": "MaxSupplyTooHigh",
      "type": "error"
    },
    {
      "inputs": [],
      "name": "MaxTokensPerTxnExceeded",
      "type": "error"
    },
    {
      "inputs": [],
      "name": "MaxTokensPerWalletExceeded",
      "type": "error"
    },
    {
      "inputs": [],
      "name": "MetadataIsLocked",
      "type": "error"
    },
    {
      "inputs": [],
      "name": "MinGasLimitNotSet",
      "type": "error"
    },
    {
      "inputs": [],
      "name": "MintERC2309QuantityExceedsLimit",
      "type": "error"
    },
    {
      "inputs": [],
      "name": "MintToZeroAddress",
      "type": "error"
    },
    {
      "inputs": [],
      "name": "MintZeroQuantity",
      "type": "error"
    },
    {
      "inputs": [],
      "name": "MintingIsClosedForever",
      "type": "error"
    },
    {
      "inputs": [],
      "name": "NewBuyTaxBasisPointsExceedsMaximum",
      "type": "error"
    },
    {
      "inputs": [],
      "name": "NewSellTaxBasisPointsExceedsMaximum",
      "type": "error"
    },
    {
      "inputs": [],
      "name": "NoETHForLiquidityPair",
      "type": "error"
    },
    {
      "inputs": [],
      "name": "NoPaymentDue",
      "type": "error"
    },
    {
      "inputs": [],
      "name": "NoRefundForCaller",
      "type": "error"
    },
    {
      "inputs": [],
      "name": "NoStoredMessage",
      "type": "error"
    },
    {
      "inputs": [],
      "name": "NoTokenForLiquidityPair",
      "type": "error"
    },
    {
      "inputs": [],
      "name": "NoTrustedPathRecord",
      "type": "error"
    },
    {
      "inputs": [],
      "name": "NotInitializing",
      "type": "error"
    },
    {
      "inputs": [],
      "name": "NothingToClaim",
      "type": "error"
    },
    {
      "inputs": [],
      "name": "OperationDidNotSucceed",
      "type": "error"
    },
    {
      "inputs": [],
      "name": "OracleSignatureHasExpired",
      "type": "error"
    },
    {
      "inputs": [
        {
          "internalType": "address",
          "name": "owner",
          "type": "address"
        }
      ],
      "name": "OwnableInvalidOwner",
      "type": "error"
    },
    {
      "inputs": [
        {
          "internalType": "address",
          "name": "account",
          "type": "address"
        }
      ],
      "name": "OwnableUnauthorizedAccount",
      "type": "error"
    },
    {
      "inputs": [],
      "name": "OwnerQueryForNonexistentToken",
      "type": "error"
    },
    {
      "inputs": [],
      "name": "OwnershipNotInitializedForExtraData",
      "type": "error"
    },
    {
      "inputs": [],
      "name": "ParamTooLargeEndDate",
      "type": "error"
    },
    {
      "inputs": [],
      "name": "ParamTooLargeMinETH",
      "type": "error"
    },
    {
      "inputs": [],
      "name": "ParamTooLargePerAddressMax",
      "type": "error"
    },
    {
      "inputs": [],
      "name": "ParamTooLargePoolPerTxnMinETH",
      "type": "error"
    },
    {
      "inputs": [],
      "name": "ParamTooLargePoolSupply",
      "type": "error"
    },
    {
      "inputs": [],
      "name": "ParamTooLargeStartDate",
      "type": "error"
    },
    {
      "inputs": [],
      "name": "ParamTooLargeVestingDays",
      "type": "error"
    },
    {
      "inputs": [],
      "name": "ParametersDoNotMatchSignedMessage",
      "type": "error"
    },
    {
      "inputs": [],
      "name": "PassedConfigDoesNotMatchApproved",
      "type": "error"
    },
    {
      "inputs": [],
      "name": "PauseCutOffHasPassed",
      "type": "error"
    },
    {
      "inputs": [],
      "name": "PaymentMustCoverPerMintFee",
      "type": "error"
    },
    {
      "inputs": [],
      "name": "PermitDidNotSucceed",
      "type": "error"
    },
    {
      "inputs": [],
      "name": "PlatformAdminCannotBeAddressZero",
      "type": "error"
    },
    {
      "inputs": [],
      "name": "PlatformTreasuryCannotBeAddressZero",
      "type": "error"
    },
    {
      "inputs": [],
      "name": "PoolIsAboveMinimum",
      "type": "error"
    },
    {
      "inputs": [],
      "name": "PoolIsBelowMinimum",
      "type": "error"
    },
    {
      "inputs": [],
      "name": "PoolPhaseIsClosed",
      "type": "error"
    },
    {
      "inputs": [],
      "name": "PoolPhaseIsNotAfter",
      "type": "error"
    },
    {
      "inputs": [],
      "name": "PoolVestingNotYetComplete",
      "type": "error"
    },
    {
      "inputs": [],
      "name": "ProjectOwnerCannotBeAddressZero",
      "type": "error"
    },
    {
      "inputs": [],
      "name": "ProofInvalid",
      "type": "error"
    },
    {
      "inputs": [],
      "name": "QuantityExceedsMaxPossibleCollectionSupply",
      "type": "error"
    },
    {
      "inputs": [],
      "name": "QuantityExceedsRemainingCollectionSupply",
      "type": "error"
    },
    {
      "inputs": [],
      "name": "QuantityExceedsRemainingPhaseSupply",
      "type": "error"
    },
    {
      "inputs": [],
      "name": "ReferralIdAlreadyUsed",
      "type": "error"
    },
    {
      "inputs": [],
      "name": "RequestingMoreThanAvailableBalance",
      "type": "error"
    },
    {
      "inputs": [
        {
          "internalType": "uint256",
          "name": "previouslyMinted",
          "type": "uint256"
        },
        {
          "internalType": "uint256",
          "name": "requested",
          "type": "uint256"
        },
        {
          "internalType": "uint256",
          "name": "remainingAllocation",
          "type": "uint256"
        }
      ],
      "name": "RequestingMoreThanRemainingAllocation",
      "type": "error"
    },
    {
      "inputs": [],
      "name": "RoyaltyFeeWillExceedSalePrice",
      "type": "error"
    },
    {
      "inputs": [
        {
          "internalType": "address",
          "name": "token",
          "type": "address"
        }
      ],
      "name": "SafeERC20FailedOperation",
      "type": "error"
    },
    {
      "inputs": [],
      "name": "ShareTotalCannotBeZero",
      "type": "error"
    },
    {
      "inputs": [],
      "name": "SliceOutOfBounds",
      "type": "error"
    },
    {
      "inputs": [],
      "name": "SliceOverflow",
      "type": "error"
    },
    {
      "inputs": [],
      "name": "SuperAdminCannotBeAddressZero",
      "type": "error"
    },
    {
      "inputs": [],
      "name": "SupplyTotalMismatch",
      "type": "error"
    },
    {
      "inputs": [],
      "name": "SupportWindowIsNotOpen",
      "type": "error"
    },
    {
      "inputs": [],
      "name": "TaxFreeAddressCannotBeAddressZero",
      "type": "error"
    },
    {
      "inputs": [],
      "name": "TaxPeriodStillInForce",
      "type": "error"
    },
    {
      "inputs": [],
      "name": "TemplateCannotBeAddressZero",
      "type": "error"
    },
    {
      "inputs": [],
      "name": "TemplateNotFound",
      "type": "error"
    },
    {
      "inputs": [],
      "name": "ThisMintIsClosed",
      "type": "error"
    },
    {
      "inputs": [],
      "name": "TotalSharesMustMatchDenominator",
      "type": "error"
    },
    {
      "inputs": [],
      "name": "TransferAmountExceedsBalance",
      "type": "error"
    },
    {
      "inputs": [],
      "name": "TransferCallerNotOwnerNorApproved",
      "type": "error"
    },
    {
      "inputs": [],
      "name": "TransferFailed",
      "type": "error"
    },
    {
      "inputs": [],
      "name": "TransferFromIncorrectOwner",
      "type": "error"
    },
    {
      "inputs": [],
      "name": "TransferFromZeroAddress",
      "type": "error"
    },
    {
      "inputs": [],
      "name": "TransferToNonERC721ReceiverImplementer",
      "type": "error"
    },
    {
      "inputs": [],
      "name": "TransferToZeroAddress",
      "type": "error"
    },
    {
      "inputs": [],
      "name": "URIQueryForNonexistentToken",
      "type": "error"
    },
    {
      "inputs": [],
      "name": "UnrecognisedVRFMode",
      "type": "error"
    },
    {
      "inputs": [],
      "name": "VRFCoordinatorCannotBeAddressZero",
      "type": "error"
    },
    {
      "inputs": [],
      "name": "ValueExceedsMaximum",
      "type": "error"
    },
    {
      "anonymous": false,
      "inputs": [
        {
          "indexed": true,
          "internalType": "address",
          "name": "owner",
          "type": "address"
        },
        {
          "indexed": true,
          "internalType": "address",
          "name": "spender",
          "type": "address"
        },
        {
          "indexed": false,
          "internalType": "uint256",
          "name": "value",
          "type": "uint256"
        }
      ],
      "name": "Approval",
      "type": "event"
    },
    {
      "anonymous": false,
      "inputs": [
        {
          "indexed": false,
          "internalType": "uint256",
          "name": "oldThreshold",
          "type": "uint256"
        },
        {
          "indexed": false,
          "internalType": "uint256",
          "name": "newThreshold",
          "type": "uint256"
        }
      ],
      "name": "AutoSwapThresholdUpdated",
      "type": "event"
    },
    {
      "anonymous": false,
      "inputs": [
        {
          "indexed": false,
          "internalType": "uint256",
          "name": "identifier",
          "type": "uint256"
        }
      ],
      "name": "ExternalCallError",
      "type": "event"
    },
    {
      "anonymous": false,
      "inputs": [
        {
          "indexed": false,
          "internalType": "uint256",
          "name": "tokenA",
          "type": "uint256"
        },
        {
          "indexed": false,
          "internalType": "uint256",
          "name": "tokenB",
          "type": "uint256"
        },
        {
          "indexed": false,
          "internalType": "uint256",
          "name": "lpToken",
          "type": "uint256"
        }
      ],
      "name": "InitialLiquidityAdded",
      "type": "event"
    },
    {
      "anonymous": false,
      "inputs": [
        {
          "indexed": false,
          "internalType": "uint64",
          "name": "version",
          "type": "uint64"
        }
      ],
      "name": "Initialized",
      "type": "event"
    },
    {
      "anonymous": false,
      "inputs": [
        {
          "indexed": false,
          "internalType": "uint256",
          "name": "oldMaxTokensPerTransaction",
          "type": "uint256"
        },
        {
          "indexed": false,
          "internalType": "uint256",
          "name": "newMaxTokensPerTransaction",
          "type": "uint256"
        },
        {
          "indexed": false,
          "internalType": "uint256",
          "name": "oldMaxTokensPerWallet",
          "type": "uint256"
        },
        {
          "indexed": false,
          "internalType": "uint256",
          "name": "newMaxTokensPerWallet",
          "type": "uint256"
        }
      ],
      "name": "LimitsUpdated",
      "type": "event"
    },
    {
      "anonymous": false,
      "inputs": [
        {
          "indexed": false,
          "internalType": "address",
          "name": "addedPool",
          "type": "address"
        }
      ],
      "name": "LiquidityPoolAdded",
      "type": "event"
    },
    {
      "anonymous": false,
      "inputs": [
        {
          "indexed": false,
          "internalType": "address",
          "name": "addedPool",
          "type": "address"
        }
      ],
      "name": "LiquidityPoolCreated",
      "type": "event"
    },
    {
      "anonymous": false,
      "inputs": [
        {
          "indexed": false,
          "internalType": "address",
          "name": "removedPool",
          "type": "address"
        }
      ],
      "name": "LiquidityPoolRemoved",
      "type": "event"
    },
    {
      "anonymous": false,
      "inputs": [
        {
          "indexed": true,
          "internalType": "address",
          "name": "previousOwner",
          "type": "address"
        },
        {
          "indexed": true,
          "internalType": "address",
          "name": "newOwner",
          "type": "address"
        }
      ],
      "name": "OwnershipTransferStarted",
      "type": "event"
    },
    {
      "anonymous": false,
      "inputs": [
        {
          "indexed": true,
          "internalType": "address",
          "name": "previousOwner",
          "type": "address"
        },
        {
          "indexed": true,
          "internalType": "address",
          "name": "newOwner",
          "type": "address"
        }
      ],
      "name": "OwnershipTransferred",
      "type": "event"
    },
    {
      "anonymous": false,
      "inputs": [
        {
          "indexed": false,
          "internalType": "uint256",
          "name": "oldBuyBasisPoints",
          "type": "uint256"
        },
        {
          "indexed": false,
          "internalType": "uint256",
          "name": "newBuyBasisPoints",
          "type": "uint256"
        },
        {
          "indexed": false,
          "internalType": "uint256",
          "name": "oldSellBasisPoints",
          "type": "uint256"
        },
        {
          "indexed": false,
          "internalType": "uint256",
          "name": "newSellBasisPoints",
          "type": "uint256"
        }
      ],
      "name": "ProjectTaxBasisPointsChanged",
      "type": "event"
    },
    {
      "anonymous": false,
      "inputs": [
        {
          "indexed": false,
          "internalType": "address",
          "name": "treasury",
          "type": "address"
        }
      ],
      "name": "ProjectTaxRecipientUpdated",
      "type": "event"
    },
    {
      "anonymous": false,
      "inputs": [],
      "name": "RevenueAutoSwap",
      "type": "event"
    },
    {
      "anonymous": false,
      "inputs": [
        {
          "indexed": true,
          "internalType": "address",
          "name": "from",
          "type": "address"
        },
        {
          "indexed": true,
          "internalType": "address",
          "name": "to",
          "type": "address"
        },
        {
          "indexed": false,
          "internalType": "uint256",
          "name": "value",
          "type": "uint256"
        }
      ],
      "name": "Transfer",
      "type": "event"
    },
    {
      "anonymous": false,
      "inputs": [
        {
          "indexed": false,
          "internalType": "bytes32",
          "name": "addedValidCaller",
          "type": "bytes32"
        }
      ],
      "name": "ValidCallerAdded",
      "type": "event"
    },
    {
      "anonymous": false,
      "inputs": [
        {
          "indexed": false,
          "internalType": "bytes32",
          "name": "removedValidCaller",
          "type": "bytes32"
        }
      ],
      "name": "ValidCallerRemoved",
      "type": "event"
    },
    {
      "inputs": [],
      "name": "acceptOwnership",
      "outputs": [],
      "stateMutability": "nonpayable",
      "type": "function"
    },
    {
      "inputs": [
        {
          "internalType": "address",
          "name": "lpOwner",
          "type": "address"
        }
      ],
      "name": "addInitialLiquidity",
      "outputs": [],
      "stateMutability": "nonpayable",
      "type": "function"
    },
    {
      "inputs": [
        {
          "internalType": "address",
          "name": "newLiquidityPool_",
          "type": "address"
        }
      ],
      "name": "addLiquidityPool",
      "outputs": [],
      "stateMutability": "nonpayable",
      "type": "function"
    },
    {
      "inputs": [
        {
          "internalType": "bytes32",
          "name": "newValidCallerHash_",
          "type": "bytes32"
        }
      ],
      "name": "addValidCaller",
      "outputs": [],
      "stateMutability": "nonpayable",
      "type": "function"
    },
    {
      "inputs": [
        {
          "internalType": "address",
          "name": "owner",
          "type": "address"
        },
        {
          "internalType": "address",
          "name": "spender",
          "type": "address"
        }
      ],
      "name": "allowance",
      "outputs": [
        {
          "internalType": "uint256",
          "name": "",
          "type": "uint256"
        }
      ],
      "stateMutability": "view",
      "type": "function"
    },
    {
      "inputs": [
        {
          "internalType": "address",
          "name": "spender",
          "type": "address"
        },
        {
          "internalType": "uint256",
          "name": "amount",
          "type": "uint256"
        }
      ],
      "name": "approve",
      "outputs": [
        {
          "internalType": "bool",
          "name": "",
          "type": "bool"
        }
      ],
      "stateMutability": "nonpayable",
      "type": "function"
    },
    {
      "inputs": [
        {
          "internalType": "address",
          "name": "account",
          "type": "address"
        }
      ],
      "name": "balanceOf",
      "outputs": [
        {
          "internalType": "uint256",
          "name": "",
          "type": "uint256"
        }
      ],
      "stateMutability": "view",
      "type": "function"
    },
    {
      "inputs": [],
      "name": "botProtectionDurationInSeconds",
      "outputs": [
        {
          "internalType": "uint256",
          "name": "",
          "type": "uint256"
        }
      ],
      "stateMutability": "view",
      "type": "function"
    },
    {
      "inputs": [
        {
          "internalType": "uint256",
          "name": "value",
          "type": "uint256"
        }
      ],
      "name": "burn",
      "outputs": [],
      "stateMutability": "nonpayable",
      "type": "function"
    },
    {
      "inputs": [
        {
          "internalType": "address",
          "name": "account",
          "type": "address"
        },
        {
          "internalType": "uint256",
          "name": "value",
          "type": "uint256"
        }
      ],
      "name": "burnFrom",
      "outputs": [],
      "stateMutability": "nonpayable",
      "type": "function"
    },
    {
      "inputs": [],
      "name": "decimals",
      "outputs": [
        {
          "internalType": "uint8",
          "name": "",
          "type": "uint8"
        }
      ],
      "stateMutability": "view",
      "type": "function"
    },
    {
      "inputs": [
        {
          "internalType": "address",
          "name": "spender",
          "type": "address"
        },
        {
          "internalType": "uint256",
          "name": "subtractedValue",
          "type": "uint256"
        }
      ],
      "name": "decreaseAllowance",
      "outputs": [
        {
          "internalType": "bool",
          "name": "",
          "type": "bool"
        }
      ],
      "stateMutability": "nonpayable",
      "type": "function"
    },
    {
      "inputs": [],
      "name": "distributeTaxTokens",
      "outputs": [],
      "stateMutability": "nonpayable",
      "type": "function"
    },
    {
      "inputs": [],
      "name": "fundedDate",
      "outputs": [
        {
          "internalType": "uint32",
          "name": "",
          "type": "uint32"
        }
      ],
      "stateMutability": "view",
      "type": "function"
    },
    {
      "inputs": [
        {
          "internalType": "address",
          "name": "spender",
          "type": "address"
        },
        {
          "internalType": "uint256",
          "name": "addedValue",
          "type": "uint256"
        }
      ],
      "name": "increaseAllowance",
      "outputs": [
        {
          "internalType": "bool",
          "name": "",
          "type": "bool"
        }
      ],
      "stateMutability": "nonpayable",
      "type": "function"
    },
    {
      "inputs": [
        {
          "internalType": "address[3]",
          "name": "integrationAddresses_",
          "type": "address[3]"
        },
        {
          "internalType": "bytes",
          "name": "baseParams_",
          "type": "bytes"
        },
        {
          "internalType": "bytes",
          "name": "supplyParams_",
          "type": "bytes"
        },
        {
          "internalType": "bytes",
          "name": "taxParams_",
          "type": "bytes"
        }
      ],
      "name": "initialize",
      "outputs": [],
      "stateMutability": "nonpayable",
      "type": "function"
    },
    {
      "inputs": [
        {
          "internalType": "address",
          "name": "queryAddress_",
          "type": "address"
        }
      ],
      "name": "isLiquidityPool",
      "outputs": [
        {
          "internalType": "bool",
          "name": "",
          "type": "bool"
        }
      ],
      "stateMutability": "view",
      "type": "function"
    },
    {
      "inputs": [
        {
          "internalType": "bytes32",
          "name": "queryHash_",
          "type": "bytes32"
        }
      ],
      "name": "isValidCaller",
      "outputs": [
        {
          "internalType": "bool",
          "name": "",
          "type": "bool"
        }
      ],
      "stateMutability": "view",
      "type": "function"
    },
    {
      "inputs": [],
      "name": "liquidityPools",
      "outputs": [
        {
          "internalType": "address[]",
          "name": "liquidityPools_",
          "type": "address[]"
        }
      ],
      "stateMutability": "view",
      "type": "function"
    },
    {
      "inputs": [],
      "name": "name",
      "outputs": [
        {
          "internalType": "string",
          "name": "",
          "type": "string"
        }
      ],
      "stateMutability": "view",
      "type": "function"
    },
    {
      "inputs": [],
      "name": "owner",
      "outputs": [
        {
          "internalType": "address",
          "name": "",
          "type": "address"
        }
      ],
      "stateMutability": "view",
      "type": "function"
    },
    {
      "inputs": [],
      "name": "pairToken",
      "outputs": [
        {
          "internalType": "address",
          "name": "",
          "type": "address"
        }
      ],
      "stateMutability": "view",
      "type": "function"
    },
    {
      "inputs": [],
      "name": "pendingOwner",
      "outputs": [
        {
          "internalType": "address",
          "name": "",
          "type": "address"
        }
      ],
      "stateMutability": "view",
      "type": "function"
    },
    {
      "inputs": [],
      "name": "projectBuyTaxBasisPoints",
      "outputs": [
        {
          "internalType": "uint16",
          "name": "",
          "type": "uint16"
        }
      ],
      "stateMutability": "view",
      "type": "function"
    },
    {
      "inputs": [],
      "name": "projectSellTaxBasisPoints",
      "outputs": [
        {
          "internalType": "uint16",
          "name": "",
          "type": "uint16"
        }
      ],
      "stateMutability": "view",
      "type": "function"
    },
    {
      "inputs": [],
      "name": "projectTaxPendingSwap",
      "outputs": [
        {
          "internalType": "uint128",
          "name": "",
          "type": "uint128"
        }
      ],
      "stateMutability": "view",
      "type": "function"
    },
    {
      "inputs": [],
      "name": "projectTaxRecipient",
      "outputs": [
        {
          "internalType": "address",
          "name": "",
          "type": "address"
        }
      ],
      "stateMutability": "view",
      "type": "function"
    },
    {
      "inputs": [
        {
          "internalType": "address",
          "name": "removedLiquidityPool_",
          "type": "address"
        }
      ],
      "name": "removeLiquidityPool",
      "outputs": [],
      "stateMutability": "nonpayable",
      "type": "function"
    },
    {
      "inputs": [
        {
          "internalType": "bytes32",
          "name": "removedValidCallerHash_",
          "type": "bytes32"
        }
      ],
      "name": "removeValidCaller",
      "outputs": [],
      "stateMutability": "nonpayable",
      "type": "function"
    },
    {
      "inputs": [],
      "name": "renounceOwnership",
      "outputs": [],
      "stateMutability": "nonpayable",
      "type": "function"
    },
    {
      "inputs": [
        {
          "internalType": "uint16",
          "name": "newProjectBuyTaxBasisPoints_",
          "type": "uint16"
        },
        {
          "internalType": "uint16",
          "name": "newProjectSellTaxBasisPoints_",
          "type": "uint16"
        }
      ],
      "name": "setProjectTaxRates",
      "outputs": [],
      "stateMutability": "nonpayable",
      "type": "function"
    },
    {
      "inputs": [
        {
          "internalType": "address",
          "name": "projectTaxRecipient_",
          "type": "address"
        }
      ],
      "name": "setProjectTaxRecipient",
      "outputs": [],
      "stateMutability": "nonpayable",
      "type": "function"
    },
    {
      "inputs": [
        {
          "internalType": "uint16",
          "name": "swapThresholdBasisPoints_",
          "type": "uint16"
        }
      ],
      "name": "setSwapThresholdBasisPoints",
      "outputs": [],
      "stateMutability": "nonpayable",
      "type": "function"
    },
    {
      "inputs": [],
      "name": "swapThresholdBasisPoints",
      "outputs": [
        {
          "internalType": "uint16",
          "name": "",
          "type": "uint16"
        }
      ],
      "stateMutability": "view",
      "type": "function"
    },
    {
      "inputs": [],
      "name": "symbol",
      "outputs": [
        {
          "internalType": "string",
          "name": "",
          "type": "string"
        }
      ],
      "stateMutability": "view",
      "type": "function"
    },
    {
      "inputs": [],
      "name": "totalBuyTaxBasisPoints",
      "outputs": [
        {
          "internalType": "uint256",
          "name": "",
          "type": "uint256"
        }
      ],
      "stateMutability": "view",
      "type": "function"
    },
    {
      "inputs": [],
      "name": "totalSellTaxBasisPoints",
      "outputs": [
        {
          "internalType": "uint256",
          "name": "",
          "type": "uint256"
        }
      ],
      "stateMutability": "view",
      "type": "function"
    },
    {
      "inputs": [],
      "name": "totalSupply",
      "outputs": [
        {
          "internalType": "uint256",
          "name": "",
          "type": "uint256"
        }
      ],
      "stateMutability": "view",
      "type": "function"
    },
    {
      "inputs": [
        {
          "internalType": "address",
          "name": "to",
          "type": "address"
        },
        {
          "internalType": "uint256",
          "name": "amount",
          "type": "uint256"
        }
      ],
      "name": "transfer",
      "outputs": [
        {
          "internalType": "bool",
          "name": "",
          "type": "bool"
        }
      ],
      "stateMutability": "nonpayable",
      "type": "function"
    },
    {
      "inputs": [
        {
          "internalType": "address",
          "name": "from",
          "type": "address"
        },
        {
          "internalType": "address",
          "name": "to",
          "type": "address"
        },
        {
          "internalType": "uint256",
          "name": "amount",
          "type": "uint256"
        }
      ],
      "name": "transferFrom",
      "outputs": [
        {
          "internalType": "bool",
          "name": "",
          "type": "bool"
        }
      ],
      "stateMutability": "nonpayable",
      "type": "function"
    },
    {
      "inputs": [
        {
          "internalType": "address",
          "name": "newOwner",
          "type": "address"
        }
      ],
      "name": "transferOwnership",
      "outputs": [],
      "stateMutability": "nonpayable",
      "type": "function"
    },
    {
      "inputs": [],
      "name": "uniswapV2Pair",
      "outputs": [
        {
          "internalType": "address",
          "name": "",
          "type": "address"
        }
      ],
      "stateMutability": "view",
      "type": "function"
    },
    {
      "inputs": [],
      "name": "validCallers",
      "outputs": [
        {
          "internalType": "bytes32[]",
          "name": "validCallerHashes_",
          "type": "bytes32[]"
        }
      ],
      "stateMutability": "view",
      "type": "function"
    },
    {
      "inputs": [],
      "name": "vault",
      "outputs": [
        {
          "internalType": "address",
          "name": "",
          "type": "address"
        }
      ],
      "stateMutability": "view",
      "type": "function"
    },
    {
      "inputs": [
        {
          "internalType": "address",
          "name": "token_",
          "type": "address"
        },
        {
          "internalType": "uint256",
          "name": "amount_",
          "type": "uint256"
        }
      ],
      "name": "withdrawERC20",
      "outputs": [],
      "stateMutability": "nonpayable",
      "type": "function"
    },
    {
      "inputs": [
        {
          "internalType": "uint256",
          "name": "amount_",
          "type": "uint256"
        }
      ],
      "name": "withdrawETH",
      "outputs": [],
      "stateMutability": "nonpayable",
      "type": "function"
    },
    {
      "stateMutability": "payable",
      "type": "receive"
    }
  ],
  "bytecode": "0x608080604052346100b9577ff0c57e16840df040f15088dc2f81fe391c3923bec73e23a9662efc9c229c6a009081549060ff8260401c166100aa57506001600160401b036002600160401b031982821601610065575b6040516131669081620000bf8239f35b6001600160401b031990911681179091556040519081527fc7f505b2f371ae2175ee4913f4499e1f2633a7b5936321eed1cdaeb6115181d290602090a1388080610055565b63f92ee8a960e01b8152600490fd5b600080fdfe608080604052600436101561001d575b50361561001b57600080fd5b005b60003560e01c908163038272b6146123425750806306fdde03146122ac578063095ea7b31461228657806310b828c91461225f57806318160ddd1461224157806323b872dd146121ee5780632ead095514611ce2578063313ce56714611cc6578063326b3b8b14611c1d5780633950935114611bcc5780633de35b7914611ba357806342966c6814611b8657806349bd5a5e14611b5d5780634bed5ad214611b3857806359cabbe4146117c457806363a9c1f2146117a657806370a082311461176c578063715018a6146116eb57806379ba50971461169857806379cc67901461166857806384b1df5214610c925780638589287a14610c175780638da5cb5b14610be1578063936b293414610b0b57806395d89b4114610a3e5780639808751d146109a6578063a1db9782146108b8578063a457c2d714610852578063a45cae0214610387578063a9059cbb146107ff578063ae22107f14610780578063b0d7509714610759578063b2c5c9eb14610734578063b498d39f1461067e578063bfe3098f14610650578063d6efd7c3146105bd578063dd62ed3e1461056c578063e30c397814610536578063e37d9e95146104bb578063e85455d71461048e578063ea8b242414610465578063ee6a934c146103ac578063eeae0f9714610387578063f14210a6146102d9578063f2fde38b146102525763fbfa77cf14610224573861000f565b3461024d57600036600319011261024d576006546040516001600160a01b039091168152602090f35b600080fd5b3461024d57602036600319011261024d5761026b6123b3565b610273612bd4565b60008051602061311183398151915280546001600160a01b0319166001600160a01b03928316908117909155600080516020613071833981519152549091167f38d16b8cac22d99fc7c124b9cd0de2d3fa1faef420bfe791d8c362d765e22700600080a3005b3461024d57602036600319011261024d5760008051602061307183398151915254336001600160a01b0391821614159081610378575b50610366576000808080600435335af13d15610361573d61032f8161243f565b9061033d604051928361241e565b8152600060203d92013e5b1561034f57005b6040516312171d8360e31b8152600490fd5b610348565b60405163faa39fbf60e01b8152600490fd5b6010541633141590508161030f565b3461024d57600036600319011261024d57602061ffff60025460c81c16604051908152f35b3461024d57602036600319011261024d576103c56123b3565b600080516020613071833981519152546001600160a01b0390811633141580610457575b610366578116908115610445573b15610433576020816104297fb893f883ef734b712208a877459424ee509832c57e0461fb1ac99ed4d42f2d8993612fa0565b50604051908152a1005b604051630f9da0c760e41b8152600490fd5b60405163b47cdee560e01b8152600490fd5b5033816010541614156103e9565b3461024d57600036600319011261024d576004546040516001600160a01b039091168152602090f35b3461024d57602036600319011261024d5760206104b16104ac6123b3565b61254c565b6040519015158152f35b3461024d57602036600319011261024d576000805160206130718339815191525460043590336001600160a01b0391821614159081610527575b50610366576020816104297ff7d7abaf8b0e82705f2ef671054dd11a306d870da0bbb8be1ff24bd0096de7ba93613006565b601054163314159050826104f5565b3461024d57600036600319011261024d57600080516020613111833981519152546040516001600160a01b039091168152602090f35b3461024d57604036600319011261024d576105856123b3565b61058d6123c9565b9060018060a01b03809116600052600b602052604060002091166000526020526020604060002054604051908152f35b3461024d57600036600319011261024d5760405180600e5491828152602080910192600e6000527fbb7b4a454dc3493923482f07822329ed19e8244eff582cc204f8554c3620c3fd916000905b82821061063957610635856106218189038261241e565b6040519182916020835260208301906124a1565b0390f35b83548652948501946001938401939091019061060a565b3461024d57602036600319011261024d57600435600052600d60205260206040600020541515604051908152f35b3461024d57600036600319011261024d5760405180600c5480835260208093018091600c6000527fdf6966c971051c3d54ec59162606531493a51404a002842f56009d7e5cf4a8c79060005b868282106107205786866106e08288038361241e565b604051928392818401908285525180915260408401929160005b82811061070957505050500390f35b8351855286955093810193928101926001016106fa565b8354855290930192600192830192016106ca565b3461024d57600036600319011261024d57602061ffff60025460d81c16604051908152f35b3461024d57600036600319011261024d5760206001600160801b0360055416604051908152f35b3461024d57602036600319011261024d576107996123b3565b600080516020613071833981519152546001600160a01b0391908216331415806107f1575b610366577f59c3fbcae88f30e9b0e35c132a7f68c53231dffa4722f197c7ecb0ee013eee60916020911661042981612ef7565b5033826010541614156107be565b3461024d57604036600319011261024d5761083661081b6123b3565b6108243361254c565b908115610841575b6024359033612651565b602060405160018152f35b905061084c8161254c565b9061082c565b3461024d57604036600319011261024d5761086b6123b3565b6024359033600052600b602052604060002060018060a01b038216600052602052604060002054918083106108a6576108369203903361257e565b604051637b5591b560e11b8152600490fd5b3461024d57604036600319011261024d576108d16123b3565b600080516020613071833981519152546001600160a01b039190821633141580610998575b61036657163081146109865760405163a9059cbb60e01b602080830191825233602480850191909152356044808501919091528352916000919061093b60648261241e565b519082855af11561097a576000513d6109715750803b155b61095957005b60249060405190635274afe760e01b82526004820152fd5b60011415610953565b6040513d6000823e3d90fd5b60405163992501b360e01b8152600490fd5b5033826010541614156108f6565b3461024d57602036600319011261024d576109bf6123b3565b600080516020613071833981519152546001600160a01b039190821633141580610a30575b610366577fa4eea51cd2f21eac6612ba054a363ae2fd59698fc258ab414313cd73f69f2b859160209116806bffffffffffffffffffffffff60a01b6004541617600455604051908152a1005b5033826010541614156109e4565b3461024d57600036600319011261024d576040516000600854610a60816124de565b80845290602090600190818116908115610ae15750600114610a99575b61063585610a8d8187038261241e565b60405191829182612387565b6008600090815293506000805160206130b18339815191525b838510610ace57505050508101602001610a8d82610635610a7d565b8054868601840152938201938101610ab2565b86955061063596935060209250610a8d94915060ff191682840152151560051b8201019293610a7d565b3461024d57604036600319011261024d57610b246123df565b60243561ffff9182821680830361024d5760008051602061307183398151915254336001600160a01b0391821614159081610bd2575b50610366577f8da1f77a22734510b762a9625e69e737d7c0cc48984e810e5802fb341eb80a3e936080936002549061ffff60d81b9060d81b1661ffff60c81b8560c81b1663ffffffff60c81b19831617176002558160405194818360c81c16865216602085015260d81c1660408301526060820152a1005b60105416331415905085610b5a565b3461024d57600036600319011261024d57600080516020613071833981519152546040516001600160a01b039091168152602090f35b3461024d57602036600319011261024d576000805160206130718339815191525460043590336001600160a01b0391821614159081610c83575b50610366576020816104297fdd5aeaec2032ed464aed048b9014721d48de827cef3d77f78f0a76f1f0136dd493612e0a565b60105416331415905082610c51565b3461024d5760c036600319011261024d57366023121561024d57604051606081018181106001600160401b038211176113e2576040528060643660641161024d576004915b81831061164857836064356001600160401b03811161024d57610cfe90369060040161245a565b6084356001600160401b03811161024d57610d1d90369060040161245a565b60a4356001600160401b03811161024d57610d3c90369060040161245a565b926000805160206130f183398151915254926001600160401b03841680159081611638575b600114908161162e575b159081611625575b506116135760016001600160401b03198516176000805160206130f18339815191525560ff8460401c16156115e6575b8151610db7906001600160a01b0316612bf5565b80518101906040816020840193031261024d5760208101516001600160401b03811161024d57826020610dec92840101612c63565b916040820151916001600160401b03831161024d57610e0e9201602001612c63565b8051906001600160401b0382116113e2578190610e2c6008546124de565b601f8111611572575b50602090601f83116001146114fa576000926114ef575b50508160011b916000199060031b1c1916176008555b8051906001600160401b0382116113e2578190610e806007546124de565b601f811161147b575b50602090601f8311600114611403576000926113f8575b50508160011b916000199060031b1c1916176007555b602081015160028054610100600160a81b03191660089290921b610100600160a81b031691909117905560400151600380546001600160a01b03199081166001600160a01b0393909316929092179055815190939060e09083018390031261024d5760405160e081018181106001600160401b038211176113e2576040526020830151815260408301519160208201928352606084015193604083019485526080810151606084015260a08101516080840152610f8160e060c08301519260a0860193845201612525565b9360c0840194855260808380518101031261024d5760405194608086018681106001600160401b038211176113e2576040526020840151865260408401516020870152610fdc60806060860151956040890196875201612525565b94606087019586528051610ff38951855190612518565b036113d0576001600160801b039051116113be5760018060a01b039051168860065416176006555193670de0b6b3a764000095868602958087048814901517156113a857518681029681880414901517156113a8576110559151600155612ca8565b15159060ff6002549161ffff60e81b905160e81b1692169061010062ff000160e81b0316171760025560018060a01b0390511684600454161760045580611398575b508061137c575b5060025460405163c45a015560e01b80825260089290921c6001600160a01b03169391602082600481885afa91821561097a57600092611340575b5060035460405163e6a4390560e01b81523060048201526001600160a01b0391821660248201819052909390929160209185916044918391165afa92831561097a57600093611304575b506001600160a01b038316156111d6575b5060ff9450506001600160a01b031661114c81612fa0565b5081600054161760005533906010541617601055600160a01b8260a01b19600354161760035560401c161561117d57005b68ff0000000000000000196000805160206130f183398151915254166000805160206130f1833981519152557fc7f505b2f371ae2175ee4913f4499e1f2633a7b5936321eed1cdaeb6115181d2602060405160018152a1005b602091925060046040518097819382525afa93841561097a576000946112bf575b506040516364e329cb60e11b81523060048201526001600160a01b03909116602482015292602090849081600081604481015b03926001600160a01b03165af1801561097a57600090611285575b6040516001600160a01b038216815260ff94507f969ffc8569f9af3993220e04ac05164e5db4e3d9f8b1a47f64e7de9a04b8ea2f90602090a18480611134565b506020833d6020116112b7575b8161129f6020938361241e565b8101031261024d576112b260ff93612525565b611245565b3d9150611292565b93506020843d6020116112fc575b816112da6020938361241e565b8101031261024d5761122a6020916112f3600096612525565b955091506111f7565b3d91506112cd565b9092506020813d602011611338575b816113206020938361241e565b8101031261024d5761133190612525565b9186611123565b3d9150611313565b9091506020813d602011611374575b8161135c6020938361241e565b8101031261024d5761136d90612525565b90856110d9565b3d915061134f565b60065461139291906001600160a01b0316612d1f565b8261109e565b6113a29030612d1f565b83611097565b634e487b7160e01b600052601160045260246000fd5b604051637f47720f60e11b8152600490fd5b6040516361cf53d560e01b8152600490fd5b634e487b7160e01b600052604160045260246000fd5b015190508680610ea0565b92506007600052600080516020613091833981519152906000935b601f1984168510611460576001945083601f19811610611447575b505050811b01600755610eb6565b015160001960f88460031b161c19169055868080611439565b8181015183556020948501946001909301929091019061141e565b9091506007600052601f830160051c60008051602061309183398151915201602084106114da575b908392915b601f820160051c6000805160206130918339815191520181106114cb5750610e89565b600081558493506001016114a8565b506000805160206130918339815191526114a3565b015190508780610e4c565b925060086000526000805160206130b1833981519152906000935b601f1984168510611557576001945083601f1981161061153e575b505050811b01600855610e62565b015160001960f88460031b161c19169055878080611530565b81810151835560209485019460019093019290910190611515565b9091506008600052601f830160051c6000805160206130b183398151915201602084106115d1575b908392915b601f820160051c6000805160206130b18339815191520181106115c25750610e35565b6000815584935060010161159f565b506000805160206130b183398151915261159a565b68ffffffffffffffffff19841668010000000000000001176000805160206130f183398151915255610da3565b60405163f92ee8a960e01b8152600490fd5b90501586610d73565b303b159150610d6b565b604086901c60ff16159150610d61565b82356001600160a01b038116810361024d57815260209283019201610cd7565b3461024d57604036600319011261024d5761001b6116846123b3565b602435906116938233836125df565b612b35565b3461024d57600036600319011261024d5760008051602061311183398151915254336001600160a01b03909116036116d35761001b33612bf5565b60405163118cdaa760e01b8152336004820152602490fd5b3461024d57600036600319011261024d57611704612bd4565b60008051602061311183398151915280546001600160a01b0319908116909155600080516020613071833981519152805491821690556000906001600160a01b03167f8be0079c531659141344cd1fd0a4f28419497f9722a3daafe3b4186f6b6457e08280a3005b3461024d57602036600319011261024d576001600160a01b0361178d6123b3565b16600052600a6020526020604060002054604051908152f35b3461024d57600036600319011261024d576020600154604051908152f35b3461024d5760208060031936011261024d576117de6123b3565b600080516020613071833981519152546001600160a01b0390811633141580611b2a575b6103665760025463ffffffff8160a81c16611b185763ffffffff60a81b19164260a81b63ffffffff60a81b16176002819055306000908152600a8552604090205415611b065760081c81163015611af4578015611ae25730600052600b8452604060002081600052845260001990816040600020556040518281527f8c5be1e5ebec7d5bd14f71427d1e84f3dd0314c0f7b2291e5b200ac8c7c3b925863092a38382600354169160448460025460081c166000604051958694859363095ea7b360e01b8552600485015260248401525af1801561097a57611ac5575b508060025460081c1691816003541630600052600a855260406000205490604051946370a0823160e01b86523060048701528686602481855afa95861561097a57600096611a8f575b5060609291600061010492604051988995869462e8e33760e81b86523060048701526024860152604485015260648401528160848401528160a48401523060c48401524260e48401525af190811561097a578492600094600090600094611a43575b506060611a0d967fbf59dda00152e02f20e18cab7307c8afe0714e7f69cf24a1377cbbddcb40f9bb9260405191825287820152856040820152a16003805460ff60a01b191690556000805460405163a9059cbb60e01b81526001600160a01b0390941660048501526024840194909452919485939190911691839182906044820190565b03925af1801561097a57611a1d57005b8161001b92903d10611a3c575b611a34818361241e565b810190612bbc565b503d611a2a565b935050925092506060813d606011611a87575b81611a636060938361241e565b8101031261024d578051818501516040909201519093859391929091906060611989565b3d9150611a56565b9095508681819493943d8311611abe575b611aaa818361241e565b8101031261024d5751949091906060611927565b503d611aa0565b611adb90843d8611611a3c57611a34818361241e565b50836118de565b60405163b2fa1ef360e01b8152600490fd5b6040516356fdae6560e11b8152600490fd5b6040516330d86fb160e11b8152600490fd5b60405163b1f3376760e01b8152600490fd5b503381601054161415611802565b3461024d57600036600319011261024d57602061ffff60025460e81c16604051908152f35b3461024d57600036600319011261024d576000546040516001600160a01b039091168152602090f35b3461024d57602036600319011261024d5761001b60043533612b35565b3461024d57600036600319011261024d576003546040516001600160a01b039091168152602090f35b3461024d57604036600319011261024d57610836611be86123b3565b33600052600b602052604060002060018060a01b038216600052602052611c16602435604060002054612518565b903361257e565b3461024d57602036600319011261024d57611c366123df565b60008051602061307183398151915254336001600160a01b0391821614159081611cb7575b506103665760407fe4351c45b53ffb7ebad0b66cc0f1a3dfe2963c099421eeaded141104df39206a916002549061ffff9061ffff60e81b8160e81b1661ffff60e81b198416176002558184519360e81c168352166020820152a1005b60105416331415905082611c5b565b3461024d57600036600319011261024d57602060405160128152f35b3461024d57600036600319011261024d576005546001600160801b038116611d0657005b6fffffffffffffffffffffffffffffffff198116600555600454600080546001600160a01b039283169392919082168414806121e6575b806121d3575b6121c15730156121af57831561219d5730600052600a602052604060002054916001600160801b038416831061218b5760025460ff8116611f3e575b50506001600160801b0383169160025460ff811680611f37575b80611f27575b611df5575b50611dbc906001600160801b03604094951690612644565b308252600a6020528282205583815220611dd7828254612518565b90556040519081526000805160206130d183398151915260203092a3005b8290611e008761254c565b80611f17575b15611ea7575061ffff60025460d81c1680611e6d575b505b8015611da45760409350906001600160801b03611dbc92308552600a602052858520818154019055855181815230906000805160206130d183398151915260203092a390861603935090611da4565b612710906001600160801b0387160204906005546001600160801b038084168183160116906001600160801b031916176005550186611e1c565b611eb03061254c565b80611f07575b611ec1575b50611e1e565b60c81c61ffff168015611ebb5761271091506001600160801b03861602046005546001600160801b038083168183160116906001600160801b0319161760055586611ebb565b5061ffff8160c81c161515611eb6565b5061ffff8160d81c161515611e06565b5060ff60035460a01c1615611d9f565b5082611d99565b30600052600a602052604060002054908192612710611f6760095461ffff8560e81c1690612539565b0490818410158061217b575b8061216b575b8061215c575b8061214d575b611f92575b505050611d7f565b6003805460ff60a01b198116600160a01b1790915591601480820291801590830490911417156113a857808511612145575b508060405192611fd384612403565b60028452604036602086013730611fe985613053565b5216611ff483613060565b52610258420142116113a857808360081c163b1561024d5788926000928361204693604051809781968295635c11d79560e01b84528b600485015285602485015260a0604485015260a48401906124a1565b90606483015261025842016084830152039360081c165af19081612131575b506120af5750507f60dc41faad9fe4f70f304dcef26d96d71e98ec8e21e4a340921d94dfe46307dc602060405160058152a15b6003805460ff60a01b191690558480808080611f8a565b8181101561211a576001600160801b036120d8600554936120d38386169485612539565b612cff565b1690036001600160801b038111612106576001600160801b0316906001600160801b03191617600555612098565b634e487b7160e01b83526011600452602483fd5b50506001600160801b031960055416600555612098565b61213c9194506123f0565b60009287612065565b935089611fc4565b50808360081c16891415611f85565b50808360081c16301415611f7f565b506121753061254c565b15611f79565b5060ff60035460a01c1615611f73565b604051635dd58b8b60e01b8152600490fd5b604051633a954ecd60e21b8152600490fd5b604051630b07e54560e11b8152600490fd5b604051630d970b4560e21b8152600490fd5b5063ffffffff60025460a81c1615611d43565b506000611d3d565b3461024d57606036600319011261024d5761083661220a6123b3565b6122126123c9565b604435906122218233856125df565b61222a8361254c565b928361265157925061223b8161254c565b92612651565b3461024d57600036600319011261024d576020600954604051908152f35b3461024d57600036600319011261024d57602063ffffffff60025460a81c16604051908152f35b3461024d57604036600319011261024d576108366122a26123b3565b602435903361257e565b3461024d57600036600319011261024d5760405160006007546122ce816124de565b80845290602090600190818116908115610ae157506001146122fa5761063585610a8d8187038261241e565b6007600090815293506000805160206130918339815191525b83851061232f57505050508101602001610a8d82610635610a7d565b8054868601840152938201938101612313565b3461024d57600036600319011261024d5760209061ffff60025460d81c168152f35b60005b8381106123775750506000910152565b8181015183820152602001612367565b604091602082526123a78151809281602086015260208686019101612364565b601f01601f1916010190565b600435906001600160a01b038216820361024d57565b602435906001600160a01b038216820361024d57565b6004359061ffff8216820361024d57565b6001600160401b0381116113e257604052565b606081019081106001600160401b038211176113e257604052565b90601f801991011681019081106001600160401b038211176113e257604052565b6001600160401b0381116113e257601f01601f191660200190565b81601f8201121561024d578035906124718261243f565b9261247f604051948561241e565b8284526020838301011161024d57816000926020809301838601378301015290565b90815180825260208080930193019160005b8281106124c1575050505090565b83516001600160a01b0316855293810193928101926001016124b3565b90600182811c9216801561250e575b60208310146124f857565b634e487b7160e01b600052602260045260246000fd5b91607f16916124ed565b919082018092116113a857565b51906001600160a01b038216820361024d57565b818102929181159184041417156113a857565b6000546001600160a01b0391821691168114908115612569575090565b9050600052600f602052604060002054151590565b6001600160a01b03908116918215611af45716918215611ae25760207f8c5be1e5ebec7d5bd14f71427d1e84f3dd0314c0f7b2291e5b200ac8c7c3b9259183600052600b8252604060002085600052825280604060002055604051908152a3565b9060018060a01b03808316600052600b6020526040600020908216600052602052604060002054926000198403612617575b50505050565b8084106126325761262993039161257e565b38808080612611565b6040516313be252b60e01b8152600490fd5b919082039182116113a857565b6000805491949390916001600160a01b0384811691161480612b22575b80612b0f575b6121c1576001600160a01b038516156121af576001600160a01b0383161561219d576001600160a01b0385168252600a602052604082205481811061218b5760025460ff8116612881575b5081946002549060ff82169081612879575b5080612869575b612740575b506020926126fd6000805160206130d18339815191529593604093612644565b6001600160a01b038881168352600a86528383209190915583168152208054612727908690612518565b90556040519384526001600160a01b03908116941692a3565b839061274b8661254c565b80612859575b156127f1575061ffff60025460d81c16806127bf575b505b80156126dd576040919550926126fd6000805160206130d18339815191529593602095308452600a87528484208181540190558451818152309089898d60018060a01b031692a3810397935093955050926126dd565b61271090840204906001600160801b03600554908084168183160116906001600160801b031916176005550138612767565b6127fa8861254c565b80612849575b61280b575b50612769565b60c81c61ffff1680156128055761271091508302046001600160801b03600554908083168183160116906001600160801b0319161760055538612805565b5061ffff8160c81c161515612800565b5061ffff8160d81c161515612751565b5060ff60035460a01c16156126d8565b9050386126d1565b308452600a602052604084205480916127106128a760095461ffff8460e81c1690612539565b04908183101580612aff575b80612aef575b80612ad4575b80612ab9575b6128d2575b5050506126bf565b6003805460ff60a01b198116600160a01b179091559180156014808302839004141715612a9a57601481028411612aae575b506040519161291283612403565b6002835260403660208501373061292884613053565b526001600160a01b031661293b83613060565b526004546001600160a01b03169142610258810110612a9a57600882901c6001600160a01b03163b15612a9657879161299f9183604051809681958294635c11d79560e01b84528a600485015284602485015260a0604485015260a48401906124a1565b606483019190915242610258016084830152039260081c6001600160a01b03165af19081612a83575b50612a115750507f60dc41faad9fe4f70f304dcef26d96d71e98ec8e21e4a340921d94dfe46307dc602060405160058152a15b6003805460ff60a01b19169055388080806128ca565b81811015612a6c57612a3990600554926001600160801b039283916120d38387169485612539565b169003818111612a585716906001600160801b031916176005556129fb565b634e487b7160e01b86526011600452602486fd5b50506001600160801b0319600554166005556129fb565b612a8f909691966123f0565b94386129c8565b8780fd5b634e487b7160e01b88526011600452602488fd5b601402925038612904565b506001600160a01b03888116600883901c90911614156128c5565b506001600160a01b038a8116600883901c90911614156128bf565b50612af98a61254c565b156128b9565b5060ff60035460a01c16156128b3565b5063ffffffff60025460a81c1615612674565b506001600160a01b03851630141561266e565b6001600160a01b03168015612baa5780600052600a60205260406000205491808310612b98576020816000805160206130d183398151915292600095858752600a84520360408620556001600160801b03811660095403600955604051908152a3565b60405163588569f760e01b8152600490fd5b6040516304fca6bd60e41b8152600490fd5b9081602091031261024d5751801515810361024d5790565b600080516020613071833981519152546001600160a01b031633036116d357565b60008051602061311183398151915280546001600160a01b031990811690915560008051602061307183398151915280549182166001600160a01b0393841690811790915591167f8be0079c531659141344cd1fd0a4f28419497f9722a3daafe3b4186f6b6457e0600080a3565b81601f8201121561024d578051612c798161243f565b92612c87604051948561241e565b8184526020828401011161024d57612ca59160208085019101612364565b90565b805190811580612cf3575b15612cbf575050600090565b60025490602061ffff60d81b91015160d81b169161ffff60c81b9060c81b169063ffffffff60c81b19161717600255600190565b50602081015115612cb3565b8115612d09570490565b634e487b7160e01b600052601260045260246000fd5b6001600160a01b0316908115612d75576000805160206130d1833981519152602082612d586001600160801b0360009516600954612518565b600955848452600a825260408420818154019055604051908152a3565b604051622e076360e81b8152600490fd5b600c54811015612dbd57600c6000527fdf6966c971051c3d54ec59162606531493a51404a002842f56009d7e5cf4a8c70190600090565b634e487b7160e01b600052603260045260246000fd5b600e54811015612dbd57600e6000527fbb7b4a454dc3493923482f07822329ed19e8244eff582cc204f8554c3620c3fd0190600090565b6000818152600d60205260408120549091908015612ef25760001990808201818111612ede57600c5490838201918211612a5857818103612e93575b505050600c548015612e7f57810190612e5e82612d86565b909182549160031b1b19169055600c558152600d6020526040812055600190565b634e487b7160e01b84526031600452602484fd5b612ec8612ea2612eb193612d86565b90549060031b1c928392612d86565b819391549060031b91821b91600019901b19161790565b90558452600d6020526040842055388080612e46565b634e487b7160e01b85526011600452602485fd5b505090565b6000818152600f60205260408120549091908015612ef25760001990808201818111612ede57600e5490838201918211612a5857818103612f6c575b505050600e548015612e7f57810190612f4b82612dd3565b909182549160031b1b19169055600e558152600f6020526040812055600190565b612f8a612f7b612eb193612dd3565b90549060031b1c928392612dd3565b90558452600f6020526040842055388080612f33565b6000818152600f602052604081205461300157600e54600160401b811015612fed579082612fd9612eb184600160409601600e55612dd3565b9055600e54928152600f6020522055600190565b634e487b7160e01b82526041600452602482fd5b905090565b6000818152600d602052604081205461300157600c54600160401b811015612fed57908261303f612eb184600160409601600c55612d86565b9055600c54928152600d6020522055600190565b805115612dbd5760200190565b805160011015612dbd576040019056fe9016d09d72d40fdae2fd8ceac6b6234c7706214fd39c1cd1e609a0528c199300a66cc928b5edb82af9bd49922954155ab7b0942694bea4ce44661d9a8736c688f3f7a9fe364faab93b216da50a3214154f22a0a2b415b23a84c8169e8b636ee3ddf252ad1be2c89b69c2b068fc378daa952ba7f163c4a11628f55a4df523b3eff0c57e16840df040f15088dc2f81fe391c3923bec73e23a9662efc9c229c6a00237e158222e3e6968b72b9db0d8043aacf074ad9f650f0d1606b4d82ee432c00a2646970667358221220504bb933a654d6928a38e92bbe6c0c0d34b172eb85b6ca7598b2f9d758f9369764736f6c63430008160033",
  "linkReferences": {},
  "deployedLinkReferences": {}
}