{
  "_format": "hh-sol-artifact-1",
  "contractName": "Bonding",
  "sourceName": "contracts/fun/Bonding.sol",
  "abi": [
    {
      "inputs": [],
      "stateMutability": "nonpayable",
      "type": "constructor"
    },
    {
      "inputs": [],
      "name": "InvalidInitialization",
      "type": "error"
    },
    {
      "inputs": [],
      "name": "NotInitializing",
      "type": "error"
    },
    {
      "inputs": [
        {
          "internalType": "address",
          "name": "owner",
          "type": "address"
        }
      ],
      "name": "OwnableInvalidOwner",
      "type": "error"
    },
    {
      "inputs": [
        {
          "internalType": "address",
          "name": "account",
          "type": "address"
        }
      ],
      "name": "OwnableUnauthorizedAccount",
      "type": "error"
    },
    {
      "inputs": [],
      "name": "ReentrancyGuardReentrantCall",
      "type": "error"
    },
    {
      "inputs": [
        {
          "internalType": "address",
          "name": "token",
          "type": "address"
        }
      ],
      "name": "SafeERC20FailedOperation",
      "type": "error"
    },
    {
      "anonymous": false,
      "inputs": [
        {
          "indexed": true,
          "internalType": "address",
          "name": "token",
          "type": "address"
        },
        {
          "indexed": false,
          "internalType": "uint256",
          "name": "amount0",
          "type": "uint256"
        },
        {
          "indexed": false,
          "internalType": "uint256",
          "name": "amount1",
          "type": "uint256"
        }
      ],
      "name": "Deployed",
      "type": "event"
    },
    {
      "anonymous": false,
      "inputs": [
        {
          "indexed": true,
          "internalType": "address",
          "name": "token",
          "type": "address"
        },
        {
          "indexed": false,
          "internalType": "address",
          "name": "agentToken",
          "type": "address"
        }
      ],
      "name": "Graduated",
      "type": "event"
    },
    {
      "anonymous": false,
      "inputs": [
        {
          "indexed": false,
          "internalType": "uint64",
          "name": "version",
          "type": "uint64"
        }
      ],
      "name": "Initialized",
      "type": "event"
    },
    {
      "anonymous": false,
      "inputs": [
        {
          "indexed": true,
          "internalType": "address",
          "name": "token",
          "type": "address"
        },
        {
          "indexed": true,
          "internalType": "address",
          "name": "pair",
          "type": "address"
        },
        {
          "indexed": false,
          "internalType": "uint256",
          "name": "",
          "type": "uint256"
        }
      ],
      "name": "Launched",
      "type": "event"
    },
    {
      "anonymous": false,
      "inputs": [
        {
          "indexed": true,
          "internalType": "address",
          "name": "previousOwner",
          "type": "address"
        },
        {
          "indexed": true,
          "internalType": "address",
          "name": "newOwner",
          "type": "address"
        }
      ],
      "name": "OwnershipTransferred",
      "type": "event"
    },
    {
      "inputs": [],
      "name": "K",
      "outputs": [
        {
          "internalType": "uint256",
          "name": "",
          "type": "uint256"
        }
      ],
      "stateMutability": "view",
      "type": "function"
    },
    {
      "inputs": [],
      "name": "agentFactory",
      "outputs": [
        {
          "internalType": "address",
          "name": "",
          "type": "address"
        }
      ],
      "stateMutability": "view",
      "type": "function"
    },
    {
      "inputs": [],
      "name": "assetRate",
      "outputs": [
        {
          "internalType": "uint256",
          "name": "",
          "type": "uint256"
        }
      ],
      "stateMutability": "view",
      "type": "function"
    },
    {
      "inputs": [
        {
          "internalType": "uint256",
          "name": "amountIn",
          "type": "uint256"
        },
        {
          "internalType": "address",
          "name": "tokenAddress",
          "type": "address"
        }
      ],
      "name": "buy",
      "outputs": [
        {
          "internalType": "bool",
          "name": "",
          "type": "bool"
        }
      ],
      "stateMutability": "payable",
      "type": "function"
    },
    {
      "inputs": [],
      "name": "factory",
      "outputs": [
        {
          "internalType": "contract FFactory",
          "name": "",
          "type": "address"
        }
      ],
      "stateMutability": "view",
      "type": "function"
    },
    {
      "inputs": [],
      "name": "fee",
      "outputs": [
        {
          "internalType": "uint256",
          "name": "",
          "type": "uint256"
        }
      ],
      "stateMutability": "view",
      "type": "function"
    },
    {
      "inputs": [
        {
          "internalType": "address",
          "name": "account",
          "type": "address"
        }
      ],
      "name": "getUserTokens",
      "outputs": [
        {
          "internalType": "address[]",
          "name": "",
          "type": "address[]"
        }
      ],
      "stateMutability": "view",
      "type": "function"
    },
    {
      "inputs": [],
      "name": "gradThreshold",
      "outputs": [
        {
          "internalType": "uint256",
          "name": "",
          "type": "uint256"
        }
      ],
      "stateMutability": "view",
      "type": "function"
    },
    {
      "inputs": [],
      "name": "initialSupply",
      "outputs": [
        {
          "internalType": "uint256",
          "name": "",
          "type": "uint256"
        }
      ],
      "stateMutability": "view",
      "type": "function"
    },
    {
      "inputs": [
        {
          "internalType": "address",
          "name": "factory_",
          "type": "address"
        },
        {
          "internalType": "address",
          "name": "router_",
          "type": "address"
        },
        {
          "internalType": "address",
          "name": "feeTo_",
          "type": "address"
        },
        {
          "internalType": "uint256",
          "name": "fee_",
          "type": "uint256"
        },
        {
          "internalType": "uint256",
          "name": "initialSupply_",
          "type": "uint256"
        },
        {
          "internalType": "uint256",
          "name": "assetRate_",
          "type": "uint256"
        },
        {
          "internalType": "uint256",
          "name": "maxTx_",
          "type": "uint256"
        },
        {
          "internalType": "address",
          "name": "agentFactory_",
          "type": "address"
        },
        {
          "internalType": "uint256",
          "name": "gradThreshold_",
          "type": "uint256"
        }
      ],
      "name": "initialize",
      "outputs": [],
      "stateMutability": "nonpayable",
      "type": "function"
    },
    {
      "inputs": [
        {
          "internalType": "string",
          "name": "_name",
          "type": "string"
        },
        {
          "internalType": "string",
          "name": "_ticker",
          "type": "string"
        },
        {
          "internalType": "uint8[]",
          "name": "cores",
          "type": "uint8[]"
        },
        {
          "internalType": "string",
          "name": "desc",
          "type": "string"
        },
        {
          "internalType": "string",
          "name": "img",
          "type": "string"
        },
        {
          "internalType": "string[4]",
          "name": "urls",
          "type": "string[4]"
        },
        {
          "internalType": "uint256",
          "name": "purchaseAmount",
          "type": "uint256"
        }
      ],
      "name": "launch",
      "outputs": [
        {
          "internalType": "address",
          "name": "",
          "type": "address"
        },
        {
          "internalType": "address",
          "name": "",
          "type": "address"
        },
        {
          "internalType": "uint256",
          "name": "",
          "type": "uint256"
        }
      ],
      "stateMutability": "nonpayable",
      "type": "function"
    },
    {
      "inputs": [],
      "name": "maxTx",
      "outputs": [
        {
          "internalType": "uint256",
          "name": "",
          "type": "uint256"
        }
      ],
      "stateMutability": "view",
      "type": "function"
    },
    {
      "inputs": [],
      "name": "owner",
      "outputs": [
        {
          "internalType": "address",
          "name": "",
          "type": "address"
        }
      ],
      "stateMutability": "view",
      "type": "function"
    },
    {
      "inputs": [
        {
          "internalType": "address",
          "name": "",
          "type": "address"
        }
      ],
      "name": "profile",
      "outputs": [
        {
          "internalType": "address",
          "name": "user",
          "type": "address"
        }
      ],
      "stateMutability": "view",
      "type": "function"
    },
    {
      "inputs": [
        {
          "internalType": "uint256",
          "name": "",
          "type": "uint256"
        }
      ],
      "name": "profiles",
      "outputs": [
        {
          "internalType": "address",
          "name": "",
          "type": "address"
        }
      ],
      "stateMutability": "view",
      "type": "function"
    },
    {
      "inputs": [],
      "name": "renounceOwnership",
      "outputs": [],
      "stateMutability": "nonpayable",
      "type": "function"
    },
    {
      "inputs": [],
      "name": "router",
      "outputs": [
        {
          "internalType": "contract FRouter",
          "name": "",
          "type": "address"
        }
      ],
      "stateMutability": "view",
      "type": "function"
    },
    {
      "inputs": [
        {
          "internalType": "uint256",
          "name": "amountIn",
          "type": "uint256"
        },
        {
          "internalType": "address",
          "name": "tokenAddress",
          "type": "address"
        }
      ],
      "name": "sell",
      "outputs": [
        {
          "internalType": "bool",
          "name": "",
          "type": "bool"
        }
      ],
      "stateMutability": "nonpayable",
      "type": "function"
    },
    {
      "inputs": [
        {
          "internalType": "uint256",
          "name": "newRate",
          "type": "uint256"
        }
      ],
      "name": "setAssetRate",
      "outputs": [],
      "stateMutability": "nonpayable",
      "type": "function"
    },
    {
      "inputs": [
        {
          "components": [
            {
              "internalType": "bytes32",
              "name": "tbaSalt",
              "type": "bytes32"
            },
            {
              "internalType": "address",
              "name": "tbaImplementation",
              "type": "address"
            },
            {
              "internalType": "uint32",
              "name": "daoVotingPeriod",
              "type": "uint32"
            },
            {
              "internalType": "uint256",
              "name": "daoThreshold",
              "type": "uint256"
            }
          ],
          "internalType": "struct Bonding.DeployParams",
          "name": "params",
          "type": "tuple"
        }
      ],
      "name": "setDeployParams",
      "outputs": [],
      "stateMutability": "nonpayable",
      "type": "function"
    },
    {
      "inputs": [
        {
          "internalType": "uint256",
          "name": "newFee",
          "type": "uint256"
        },
        {
          "internalType": "address",
          "name": "newFeeTo",
          "type": "address"
        }
      ],
      "name": "setFee",
      "outputs": [],
      "stateMutability": "nonpayable",
      "type": "function"
    },
    {
      "inputs": [
        {
          "internalType": "uint256",
          "name": "newThreshold",
          "type": "uint256"
        }
      ],
      "name": "setGradThreshold",
      "outputs": [],
      "stateMutability": "nonpayable",
      "type": "function"
    },
    {
      "inputs": [
        {
          "internalType": "uint256",
          "name": "newSupply",
          "type": "uint256"
        }
      ],
      "name": "setInitialSupply",
      "outputs": [],
      "stateMutability": "nonpayable",
      "type": "function"
    },
    {
      "inputs": [
        {
          "internalType": "uint256",
          "name": "maxTx_",
          "type": "uint256"
        }
      ],
      "name": "setMaxTx",
      "outputs": [],
      "stateMutability": "nonpayable",
      "type": "function"
    },
    {
      "inputs": [
        {
          "internalType": "address",
          "name": "",
          "type": "address"
        }
      ],
      "name": "tokenInfo",
      "outputs": [
        {
          "internalType": "address",
          "name": "creator",
          "type": "address"
        },
        {
          "internalType": "address",
          "name": "token",
          "type": "address"
        },
        {
          "internalType": "address",
          "name": "pair",
          "type": "address"
        },
        {
          "internalType": "address",
          "name": "agentToken",
          "type": "address"
        },
        {
          "components": [
            {
              "internalType": "address",
              "name": "token",
              "type": "address"
            },
            {
              "internalType": "string",
              "name": "name",
              "type": "string"
            },
            {
              "internalType": "string",
              "name": "_name",
              "type": "string"
            },
            {
              "internalType": "string",
              "name": "ticker",
              "type": "string"
            },
            {
              "internalType": "uint256",
              "name": "supply",
              "type": "uint256"
            },
            {
              "internalType": "uint256",
              "name": "price",
              "type": "uint256"
            },
            {
              "internalType": "uint256",
              "name": "marketCap",
              "type": "uint256"
            },
            {
              "internalType": "uint256",
              "name": "liquidity",
              "type": "uint256"
            },
            {
              "internalType": "uint256",
              "name": "volume",
              "type": "uint256"
            },
            {
              "internalType": "uint256",
              "name": "volume24H",
              "type": "uint256"
            },
            {
              "internalType": "uint256",
              "name": "prevPrice",
              "type": "uint256"
            },
            {
              "internalType": "uint256",
              "name": "lastUpdated",
              "type": "uint256"
            }
          ],
          "internalType": "struct Bonding.Data",
          "name": "data",
          "type": "tuple"
        },
        {
          "internalType": "string",
          "name": "description",
          "type": "string"
        },
        {
          "internalType": "string",
          "name": "image",
          "type": "string"
        },
        {
          "internalType": "string",
          "name": "twitter",
          "type": "string"
        },
        {
          "internalType": "string",
          "name": "telegram",
          "type": "string"
        },
        {
          "internalType": "string",
          "name": "youtube",
          "type": "string"
        },
        {
          "internalType": "string",
          "name": "website",
          "type": "string"
        },
        {
          "internalType": "bool",
          "name": "trading",
          "type": "bool"
        },
        {
          "internalType": "bool",
          "name": "tradingOnUniswap",
          "type": "bool"
        }
      ],
      "stateMutability": "view",
      "type": "function"
    },
    {
      "inputs": [
        {
          "internalType": "uint256",
          "name": "",
          "type": "uint256"
        }
      ],
      "name": "tokenInfos",
      "outputs": [
        {
          "internalType": "address",
          "name": "",
          "type": "address"
        }
      ],
      "stateMutability": "view",
      "type": "function"
    },
    {
      "inputs": [
        {
          "internalType": "address",
          "name": "newOwner",
          "type": "address"
        }
      ],
      "name": "transferOwnership",
      "outputs": [],
      "stateMutability": "nonpayable",
      "type": "function"
    },
    {
      "inputs": [
        {
          "internalType": "address",
          "name": "srcTokenAddress",
          "type": "address"
        },
        {
          "internalType": "address[]",
          "name": "accounts",
          "type": "address[]"
        }
      ],
      "name": "unwrapToken",
      "outputs": [],
      "stateMutability": "nonpayable",
      "type": "function"
    }
  ],
  "bytecode": "0x60808060405234620000bd577ff0c57e16840df040f15088dc2f81fe391c3923bec73e23a9662efc9c229c6a009081549060ff8260401c16620000ae57506001600160401b036002600160401b03198282160162000068575b604051615ce99081620000c38239f35b6001600160401b031990911681179091556040519081527fc7f505b2f371ae2175ee4913f4499e1f2633a7b5936321eed1cdaeb6115181d290602090a138808062000058565b63f92ee8a960e01b8152600490fd5b600080fdfe608060405260043610156200001357600080fd5b6000803560e01c806309c8962c1462004455578063378dc3dc14620044355780633c0b93aa1462002b825780634189a68e146200284757806343fb4d2414620027a9578063519dc8d2146200266357806361402596146200263c5780636edd12e0146200261c578063715018a614620025ad5780637437681e146200258d5780637c13774b146200252e5780637deb602514620013d75780637df107ea14620013ac5780637f13a90b14620008ef5780638da5cb5b14620008b65780639dd9d0fd1462000876578063a932492f1462000853578063b4f2e8b81462000807578063bc33718214620007e0578063c36fe3d6146200077d578063c45a01551462000752578063cc48968814620006f4578063ddca3f4314620006d4578063e8e6ed6914620006b4578063ea6eef491462000486578063f2fde38b1462000451578063f5dab711146200019b5763f887ea40146200016e57600080fd5b3462000198578060031936011262000198576002546040516001600160a01b039091168152602090f35b80fd5b50346200019857602036600319011262000198576001600160a01b03620001c1620045c4565b168152600e6020526040902080546001820154600283015460038401546001600160a01b039182169492821693821691166200020060048401620046b6565b92836040519384806010850190620002189162004618565b0362000225908662004518565b6040518062000238816012870162004618565b0362000245908262004518565b604051958662000259816013880162004618565b0362000266908862004518565b60405190816200027a816014890162004618565b0362000287908362004518565b60405193846200029b8160158a0162004618565b03620002a8908662004518565b6040519687620002bc816016840162004618565b03620002c9908962004518565b60170154976040519c8d9c8d6101a09481526020015260408d015260608c01528060808c0152600160a01b60019003865116908b015260208501519761018098896101c08d01526103208c016200032091620047a1565b604087015161019f198d830381016101e08f0152916200034091620047a1565b8c606089015192818303019061020001526200035c91620047a1565b9360808701516102208d015260a08701516102408d015260c08701516102608d015260e08701516102808d0152610100928c84890151906102a00152610120958d878a0151906102c001528d610140809a0151906102e001528d610160809e01519061030001528d8082039060a00152620003d791620047a1565b8c810360c08e0152620003ea91620047a1565b8b810360e08d0152620003fd91620047a1565b908a8203908b01526200041091620047a1565b90888203908901526200042391620047a1565b90868203908701526200043691620047a1565b9260ff821615159085015260081c60ff161515908301520390f35b50346200019857602036600319011262000198576200048362000473620045c4565b6200047d620049ec565b62004976565b80f35b503462000198576101203660031901126200019857620004a5620045c4565b620004af620045ad565b6001600160a01b0391604435838116929190839003620006af576064359060e43591858316809303620006af577ff0c57e16840df040f15088dc2f81fe391c3923bec73e23a9662efc9c229c6a009485549660ff8860401c1615956001600160401b03891698891580620006a7575b6001809b1490816200069c575b15908162000692575b50620006805767ffffffffffffffff1981168a1789558762000660575b506200055c62004be0565b6200056662004be0565b620005713362004976565b6200057b62004be0565b6200058562004be0565b8860008051602062005c9483398151915255816001600160601b0360a01b9516858a54161789551683600254161760025582885416178755670de0b6b3a7640000908181029181830414901517156200064c576103e8900460045560843560035560a43560055560c4356007556008541617600855610104356006556200060a578280f35b805468ff0000000000000000191690556040519081527fc7f505b2f371ae2175ee4913f4499e1f2633a7b5936321eed1cdaeb6115181d290602090a138808280f35b634e487b7160e01b87526011600452602487fd5b68ffffffffffffffffff1916680100000000000000011788553862000551565b60405163f92ee8a960e01b8152600490fd5b9050153862000534565b303b1591506200052b565b50876200051e565b600080fd5b503462000198578060031936011262000198576020600554604051908152f35b503462000198578060031936011262000198576020600454604051908152f35b503462000198576020366003190112620001985760043562000715620049ec565b8015620007225760055580f35b60405162461bcd60e51b81526020600482015260086024820152672930ba329032b93960c11b6044820152606490fd5b503462000198578060031936011262000198576001546040516001600160a01b039091168152602090f35b5034620001985760203660031901126200019857600435600d54811015620007dc57600d6000527fd7b6990105719101dabeb77144f2a3385c8033acd3af97e9423a695e81ad1eb501546040516001600160a01b039091168152602090f35b5080fd5b5034620001985760203660031901126200019857620007fe620049ec565b60043560075580f35b503462000198576040366003190112620001985762000825620045ad565b6200082f620049ec565b60048035905581546001600160a01b0319166001600160a01b039190911617815580f35b5034620001985780600319360112620001985760206040516502ba7def30008152f35b50346200019857602036600319011262000198576020906001600160a01b039060409082620008a4620045c4565b168152600c8452205416604051908152f35b5034620001985780600319360112620001985760008051602062005c74833981519152546040516001600160a01b039091168152602090f35b50346200019857604036600319011262000198576200090d620045c4565b602435906001600160401b038211620013a85736602383011215620013a85781600401356200093c8162004595565b926200094c604051948562004518565b8184526024602085019260051b82010190368211620013a457602401915b81831062001382575050506001600160a01b0381168352600e60205260408084209051906200099982620044cb565b80546001600160a01b0390811683526001820154811660208401526002820154811660408401526003820154166060830152620009d960048201620046b6565b6080830152604051620009fd81620009f5816010860162004618565b038262004518565b60a083015260405160118201805480835290875260208088209083019188915b81601f840110620011f2579360ff9593819362000b60936017975491818110620011de575b818110620011c7575b818110620011b0575b81811062001199575b81811062001183575b8181106200116c575b81811062001155575b8181106200113e575b81811062001127575b81811062001110575b818110620010f9575b818110620010e2575b818110620010cb575b818110620010b4575b8181106200109d575b81811062001086575b8181106200106f575b81811062001058575b81811062001041575b8181106200102a575b81811062001013575b81811062000ffc575b81811062000fe5575b81811062000fce575b81811062000fb7575b81811062000fa0575b81811062000f89575b81811062000f72575b81811062000f5b575b81811062000f44575b81811062000f2d575b1062000f1e575b50038262004518565b60c085015260405162000b7c81620009f5816012860162004618565b60e085015260405162000b9881620009f5816013860162004618565b61010085015260405162000bb581620009f5816014860162004618565b61012085015260405162000bd281620009f5816015860162004618565b61014085015260405162000bef81620009f5816016860162004618565b6101608501520154818116151561018084015260081c161580156101a083015262000ed95760600151600154600254604051631083f76160e01b81526001600160a01b039384169392831692909160209183916004918391165afa801562000ece5762000c9792602092889262000eaa575b5060405163e6a4390560e01b81526001600160a01b03808816600483015290921660248301529092839190829081906044820190565b03915afa90811562000e9f57859162000e69575b50845b845181101562000e655760018060a01b0360208260051b870101511690604051916370a0823160e01b835280600484015260208360248160018060a01b038a165afa92831562000e5a57889362000e20575b508262000d14575b50600191500162000cae565b6001600160a01b0386163b1562000e115760405163079cc67960e41b81526001600160a01b0382166004820152602481018490528890818180604481010381836001600160a01b038d165af1801562000e155762000df9575b50506040516323b872dd60e01b81526001600160a01b03858116600483015291909116602482015260448101929092526020826064818a885af191821562000dee576001921562000d085762000dde9060203d60201162000de6575b62000dd5818362004518565b8101906200490d565b503862000d08565b503d62000dc9565b6040513d89823e3d90fd5b62000e049062004504565b62000e1157873862000d6d565b8780fd5b6040513d84823e3d90fd5b9092506020813d60201162000e51575b8162000e3f6020938362004518565b81010312620006af5751913862000d00565b3d915062000e30565b6040513d8a823e3d90fd5b8580f35b62000e90915060203d60201162000e97575b62000e87818362004518565b810190620047c8565b3862000cab565b503d62000e7b565b6040513d87823e3d90fd5b62000ec6919250833d851162000e975762000e87818362004518565b903862000c61565b6040513d88823e3d90fd5b60405162461bcd60e51b815260206004820152601a60248201527f546f6b656e206973206e6f7420677261647561746564207965740000000000006044820152606490fd5b60f81c81526020013862000b57565b9260206001918b8560f01c16815201930162000b50565b9260206001918b8560e81c16815201930162000b47565b9260206001918b8560e01c16815201930162000b3e565b9260206001918b8560d81c16815201930162000b35565b9260206001918b8560d01c16815201930162000b2c565b9260206001918b8560c81c16815201930162000b23565b9260206001918b8560c01c16815201930162000b1a565b9260206001918b8560b81c16815201930162000b11565b9260206001918b8560b01c16815201930162000b08565b9260206001918b8560a81c16815201930162000aff565b9260206001918b8560a01c16815201930162000af6565b9260206001918b8560981c16815201930162000aed565b9260206001918b8560901c16815201930162000ae4565b9260206001918b8560881c16815201930162000adb565b9260206001918b8560801c16815201930162000ad2565b9260206001918b8560781c16815201930162000ac9565b9260206001918b8560701c16815201930162000ac0565b9260206001918b8560681c16815201930162000ab7565b9260206001918b8560601c16815201930162000aae565b9260206001918b8560581c16815201930162000aa5565b9260206001918b8560501c16815201930162000a9c565b9260206001918b8560481c16815201930162000a93565b9260206001918b8560401c16815201930162000a8a565b9260206001918b8560381c16815201930162000a81565b9260206001918b8560301c16815201930162000a78565b9260206001918b8560281c16815201930162000a6f565b9260206001918b85831c16815201930162000a66565b9260206001918b8560181c16815201930162000a5d565b9260206001918b8560101c16815201930162000a54565b9260206001918b8560081c16815201930162000a4b565b9260206001918b8516815201930162000a42565b926001610400602092865460ff8116825260ff8160081c168583015260ff8160101c16604083015260ff8160181c16606083015260ff81861c16608083015260ff8160281c1660a083015260ff8160c0828260301c1681860152828260381c1660e0860152828260401c16610100860152828260481c16610120860152828260501c16610140860152828260581c16610160860152828260601c16610180860152828260681c166101a0860152828260701c166101c0860152828260781c166101e0860152828260801c16610200860152828260881c16610220860152828260901c16610240860152828260981c16610260860152828260a01c16610280860152828260a81c166102a0860152828260b01c166102c0860152828260b81c166102e08601521c1661030083015260ff8160c81c1661032083015260ff8160d01c1661034083015260ff8160d81c1661036083015260ff8160e01c1661038083015260ff8160e81c166103a083015260ff8160f01c166103c083015260f81c6103e082015201940192019162000a1d565b82356001600160a01b0381168103620006af578152602092830192016200096a565b8580fd5b8280fd5b503462000198578060031936011262000198576008546040516001600160a01b039091168152602090f35b5060403660031901126200019857620013ef620045ad565b6001600160a01b0381168252600e6020526040822060170154620014169060ff1662004927565b600154600254604051631083f76160e01b81526001600160a01b039182169492909116602082600481885afa9182156200239d57916020916200149093859262000eaa575060405163e6a4390560e01b81526001600160a01b03808816600483015290921660248301529092839190829081906044820190565b03915afa90811562000e155760049160409184916200250a575b508151630240bc6b60e21b815292839182906001600160a01b03165afa90811562000e155782908392620024e3575b50604080516373a9c2c560e11b815260048035908201526001600160a01b0386166024820152336044820152958690606490829087905af19081156200239d57839584926200249c575b50620015356200153c928792620047e9565b9262004968565b6001600160a01b0384168352600e60205260408320600f0154909490620015649042620047e9565b90858060011b0460021486151715620024885790620151809160018060a01b0386168552600e60205262001620620015af85620015a98a600860408b2001546200484e565b62004862565b91600c620015be8a8862004862565b868611156200245b57829a5b878711156200243b576001600160a01b038b168a52600e60205260408a2060090154955b6001600160a01b038c168b52600e60205260408b206009810193909355600a83015560011b600b820155015462004968565b9660018060a01b0387168652600e6020526040862097600c890155600d880155600e870155116200242f575b60065410158062002420575b62001669575b602060405160018152f35b60178301805460ff81168062002411575b15620023cc5761ffff1916610100179055600154600254604051631083f76160e01b81526001600160a01b0391821692909116602082600481865afa91821562001cd9579160209162001705938692620023a8575b5060405163e6a4390560e01b81526001600160a01b03808916600483015290921660248301529092839190829081906044820190565b03915afa9081156200239d57839162002379575b5060405163c66f245560e01b8152946020866004816001600160a01b0386165afa95861562001cd95784966200233b575b506040516316d3df1560e31b8152926020846004816001600160a01b0387165afa93841562000e9f57859462002301575b50803b1562001ce4576040516001629272fb60e01b031981526001600160a01b03871660048201529085908290602490829084905af1801562000e9f57620022eb575b50600254604051631083f76160e01b815290602090829060049082906001600160a01b03165afa90811562000e9f57620018139188918791620022c7575b506008546001600160a01b03908116911662004a74565b60018060a01b0360085416604051968560068401546200183381620045db565b9060018116908115620022a1575060011462002261575b5088916200187c600c620018ba9b846b206279205669727475616c7360a01b8c96520360131981018652018462004518565b60095490600a5490600b5460018060a01b0388541692620018d06040519e8f98631fd16d3f60e11b8a5261012060048b01526101248a0190620047a1565b8881036003190160248a015260078b0162004618565b87810360031901604489015260118a0180548083529088526020808920920196918891905b81601f840110620020ab57928a98959260209c9a9895928a9895549181811062002098575b81811062002081575b8181106200206a575b81811062002053575b8181106200203e575b81811062002027575b81811062002010575b81811062001ff9575b81811062001fe2575b81811062001fcb575b81811062001fb4575b81811062001f9d575b81811062001f86575b81811062001f6f575b81811062001f58575b81811062001f41575b81811062001f2a575b81811062001f13575b81811062001efc575b81811062001ee5575b81811062001ece575b81811062001eb7575b81811062001ea0575b81811062001e89575b81811062001e72575b81811062001e5b575b81811062001e44575b81811062001e2d575b81811062001e16575b81811062001dff575b81811062001de8575b1062001dd4575b5060648701526001600160a01b038116608487015260a01c63ffffffff1660a486015260c485015260e484015261010483015203925af195861562001cd957849662001d9a575b50600880549082015460405163313ce56760e01b8082526001600160a01b0393841699909390929190602090829060049082908d165afa90811562000e5a5762001ad6929162001acf918a9162001d7d575b5062004b62565b9062004862565b604051928352916020816004816001600160a01b038c165afa90811562000dee57918762001b1d62001b1660849460209796849162001d49575062004b62565b8962004862565b9a6040519b8c9586946311e18acb60e11b865260048601526024850152604484015260018060a01b03881660648401525af195861562001cd957849662001d20575b5060030180546001600160a01b0319166001600160a01b039687169081179091556002546040516370a0823160e01b81528388166004820152919616906020816024818a5afa90811562000e9f57859162001ce8575b50813b1562001ce45760405163559e23ad60e11b81526001600160a01b03841660048201526024810188905230604482015260648101919091529084908290608490829084905af1801562001cd95790849162001cc1575b50506001600160a01b0384163b15620013a85760405163079cc67960e41b81526001600160a01b0390911660048201526024810191909152818180604481010381836001600160a01b0388165af1801562000e155762001ca9575b50506040519182526001600160a01b0316907f381d54fa425631e6266af114239150fae1d5db67bb65b4fa9ecc65013107e07e90602090a23880806200165e565b62001cb5829162004504565b62000198578062001c68565b62001ccc9062004504565b620013a857823862001c0d565b6040513d86823e3d90fd5b8480fd5b90506020813d60201162001d17575b8162001d066020938362004518565b81010312620006af57513862001bb5565b3d915062001cf7565b600391965062001d419060203d60201162000e975762000e87818362004518565b959062001b5f565b62001d6e9150883d8a1162001d75575b62001d65818362004518565b81019062004b47565b3862001ac8565b503d62001d59565b62001d6e915060203d60201162001d755762001d65818362004518565b9095506020813d60201162001dcb575b8162001db96020938362004518565b81010312620006af5751943862001a76565b3d915062001daa565b60f81c8652948b019463ffffffff62001a2f565b978e60019160ff8560f01c16815201980162001a28565b978e60019160ff8560e81c16815201980162001a1f565b978e60019160ff8560e01c16815201980162001a16565b978e60019160ff8560d81c16815201980162001a0d565b978e60019160ff8560d01c16815201980162001a04565b978e60019160ff8560c81c168152019801620019fb565b978e60019160ff8560c01c168152019801620019f2565b978e60019160ff8560b81c168152019801620019e9565b978e60019160ff8560b01c168152019801620019e0565b978e60019160ff8560a81c168152019801620019d7565b978e60019160ff8560a01c168152019801620019ce565b978e60019160ff8560981c168152019801620019c5565b978e60019160ff8560901c168152019801620019bc565b978e60019160ff8560881c168152019801620019b3565b978e60019160ff8560801c168152019801620019aa565b978e60019160ff8560781c168152019801620019a1565b978e60019160ff8560701c16815201980162001998565b978e60019160ff8560681c1681520198016200198f565b978e60019160ff8560601c16815201980162001986565b978e60019160ff8560581c1681520198016200197d565b978e60019160ff8560501c16815201980162001974565b978e60019160ff8560481c1681520198016200196b565b978e60019160ff8560401c16815201980162001962565b978e60019160ff8560381c16815201980162001959565b978e60019160ff8560301c16815201980162001950565b978e60019160ff8560281c16815201980162001947565b828f1c60ff168952978e01976001016200193e565b978e60019160ff8560181c16815201980162001935565b978e60019160ff8560101c1681520198016200192c565b978e60019160ff8560081c16815201980162001923565b60ff83168952978e01976001016200191a565b9950919395975091939560016104006020928b5460ff8116825260ff8160081c168583015260ff8160101c16604083015260ff8160181c16606083015260ff81861c16608083015260ff8160281c1660a083015260ff8160301c1660c083015260ff8160381c1660e083015260ff8160401c1661010083015260ff8160481c1661012083015260ff8160501c1661014083015260ff8160581c1661016083015260ff8160601c1661018083015260ff8160681c166101a083015260ff8160701c166101c083015260ff8160781c166101e083015260ff8160801c1661020083015260ff8160881c1661022083015260ff8160901c1661024083015260ff8160981c1661026083015260ff8160a01c1661028083015260ff8160a81c166102a083015260ff8160b01c166102c083015260ff8160b81c166102e083015260ff8160c01c1661030083015260ff8160c81c1661032083015260ff8160d01c1661034083015260ff8160d81c1661036083015260ff8160e01c1661038083015260ff8160e81c166103a083015260ff8160f01c166103c083015260f81c6103e082015201990192018f98969492918e98969492620018f5565b90506006840187526020872087905b8282106200228957505088016020016200187c6200184a565b6001818c602085819554920101520191019062002270565b60ff19166020808d01919091528215159092028b0190910191506200187c90506200184a565b620022e4915060203d60201162000e975762000e87818362004518565b38620017fc565b620022f99094919462004504565b9238620017be565b9093506020813d60201162002332575b81620023206020938362004518565b8101031262001ce4575192386200177b565b3d915062002311565b9095506020813d60201162002370575b816200235a6020938362004518565b810103126200236c575194386200174a565b8380fd5b3d91506200234b565b62002396915060203d60201162000e975762000e87818362004518565b3862001719565b6040513d85823e3d90fd5b620023c4919250833d851162000e975762000e87818362004518565b9038620016cf565b60405162461bcd60e51b815260206004820152601760248201527f74726164696e6720697320616c7265616479206f70656e0000000000000000006044820152606490fd5b5060ff8160081c16156200167a565b5060ff60178401541662001658565b42600f8501556200164c565b6001600160a01b038b168a52600e602081905260408b20015495620015ee565b6001600160a01b038a168952600e60205260408920600d01546200248190849062004968565b9a620015ca565b634e487b7160e01b84526011600452602484fd5b620015359196506200153c9250620024cf9060403d604011620024db575b620024c6818362004518565b81019062004883565b90969092509062001523565b503d620024ba565b905062002502915060403d604011620024db57620024c6818362004518565b9038620014d9565b62002527915060203d60201162000e975762000e87818362004518565b38620014aa565b5034620001985760203660031901126200019857600435600f54811015620007dc57600f9091527f8d1108e10bcb7c27dddfc02ed9d693a074039d026cf4ea4240b40f7d581ac80201546040516001600160a01b039091168152602090f35b503462000198578060031936011262000198576020600754604051908152f35b50346200019857806003193601126200019857620025ca620049ec565b60008051602062005c7483398151915280546001600160a01b0319811690915581906001600160a01b03167f8be0079c531659141344cd1fd0a4f28419497f9722a3daafe3b4186f6b6457e08280a380f35b503462000198578060031936011262000198576020600654604051908152f35b50346200019857602036600319011262000198576200265a620049ec565b60043560035580f35b5034620001985760209081600319360112620001985762002683620045c4565b6001600160a01b038082166000818152600c60205260409020549293929091160362002764576001600160a01b039182168152600c835260408082209051909190620026cf81620044e8565b83835416815260018093019460405191828288549182815201908198865283862090865b8181106200274e5750505083916200270f838593038462004518565b0152604051948186019282875251809352604086019693905b838210620027365786880387f35b84518116885296820196938201939085019062002728565b82548a16845292850192918801918801620026f3565b60405162461bcd60e51b815260048101849052601c60248201527f557365722050726f66696c6520646f7365206e6f742065786973742e000000006044820152606490fd5b5034620001985760803660031901126200019857604051620027cb816200447c565b6004358152620027da620045ad565b602082019081526044359063ffffffff821682036200236c5760408301918252606083019260643584526200280e620049ec565b5160095560018060a01b03905116600a549163ffffffff60a01b905160a01b16916001600160401b0360c01b161717600a5551600b5580f35b503462000198576040366003190112620001985762002865620045ad565b9060018060a01b039182811691828152600e906020948286526200289360ff60176040852001541662004927565b600154600254604051631083f76160e01b81529083169183168882600481865afa91821562000e9f579189916200290293879262002b5e575b5060405163e6a4390560e01b81526001600160a01b03808b16600483015290921660248301529092839190829081906044820190565b03915afa90811562001cd95790604091859162002b3c575b506004825180958193630240bc6b60e21b8352165afa9485156200239d578392849662002b08575b5060408051636f08e17760e01b815260048035908201526001600160a01b03909216602483015233604483015290918290818681606481015b03925af19182156200239d578391849362002ad6575b50620029a3620029aa92849262004968565b95620047e9565b858352838752620029c3600f60408520015442620047e9565b908060011b908082046002148115171562002ac2578893600c60409487946201518062002a1b8662002a148f9d9c8f908f9a8f8f8f909360089262002a5d9f95620015a9968352522001546200484e565b9d62004862565b92119a8b1562002aa2578985995b8d1562002a8f578c895281815260098a8a2001549c5b895252878720926009840155600a830155600b820155015462004968565b9681528388522094600c860155600d85015583015562002a82575b5060405160018152f35b600f429101553862002a78565b8c8952818152818a8a2001549c62002a3f565b8a87528989528962002abb86600d8b8b20015462004968565b9962002a29565b634e487b7160e01b85526011600452602485fd5b620029a39350620029aa925062002afe9060403d604011620024db57620024c6818362004518565b9390925062002991565b60409196508492935062002b2f6200297b91833d8511620024db57620024c6818362004518565b9790949350915062002942565b62002b579150893d8b1162000e975762000e87818362004518565b386200291a565b62002b7a919250833d851162000e975762000e87818362004518565b9038620028cc565b5034620001985760e036600319011262000198576004356001600160401b038111620007dc5762002bb89036906004016200453a565b6024356001600160401b038111620013a85762002bda9036906004016200453a565b906044356001600160401b0381116200236c57366023820112156200236c57806004013562002c098162004595565b9162002c19604051938462004518565b8183526024602084019260051b820101903682116200443157602401915b81831062004415575050506064356001600160401b03811162001ce45762002c649036906004016200453a565b906084356001600160401b038111620013a45762002c879036906004016200453a565b916001600160401b0360a43511620013a45736602360a435011215620013a45760405162002cb5816200447c565b8036608460a435011162000e115760a435600401905b608460a435018210620043dd575050600260008051602062005c948339815191525414620043cb57600260008051602062005c9483398151915255600454928360c43511156200437557600254604051631083f76160e01b81529590602090879060049082906001600160a01b03165afa958615620042ae5789966200434f575b506040516370a0823160e01b81523360048201526020816024816001600160a01b038b165afa90811562004344578a9162004308575b5060c43511620042cd5762002db962002d9e8660c435620047e9565b8a549096906001600160a01b039081169033908a1662004a27565b62002dd08530336001600160a01b038a1662004a27565b62002ddb876200480d565b60035460075460405192836110518101106001600160401b0361105186011117620042b9579062002e3e62002e2785949361105162004c238739608061105187018181520190620047a1565b611051850181036020611051870101528d620047a1565b9160406110518501015260606110518401015203908af0978815620042ae576040516318160ddd60e01b8152976020896004816001600160a01b038e165afa908115620042a3578a998c9262004262575b506001546040516364e329cb60e11b81526001600160a01b039c8d1660048201528a8d1660248201529b168b6044818f5a94602095f19a8b1562004257578c9b62004231575b5060025462002ef49083906001600160a01b03908116908d1662004a74565b60055480156200421d57666a94d74f4300000469021e19e0c9bab24000009081810291818304149015171562004209578262002f309162004862565b90670de0b6b3a7640000928284810204841483151715620041f5578d60408d606460018060a01b03600254169183519485938492631746ffa760e31b845260018060a01b031660048401528760248401526127108b8b020460448401525af18015620041e857620041c5575b5062002fa8826200480d565b9462002fbb612710868602048362004862565b9261271086860204600181901b81900460021490151715620041b0579185939185938f9c9b9a99989761271062002ff791819902048462004862565b9760206040519e8f906200300b82620044ae565b60018060a01b03168152015260408d015260608c015260808b015260a08a0152828282020460c08a0152020460011b60e08701528a6101008701528a610120870152610140860152426101608601528251906020840151926060604086015195015195604051976200307d89620044cb565b33895260018060a01b038c1660208a015260018060a01b038d1660408a01528d60608a0152608089015260a088015260c087015260e08601526101008501526101208401526101408301526101608201526001610180820152856101a082015260018060a01b0384168652600e6020526040862060018060a01b038251166001600160601b0360a01b8254161781556001810160018060a01b036020840151166001600160601b0360a01b8254161790556002810160018060a01b036040840151166001600160601b0360a01b8254161790556003810160018060a01b036060840151166001600160601b0360a01b8254161790556004810160808301519060018060a01b038251166001600160601b0360a01b82541617905560208101518051906001600160401b0382116200402e578190620031bf6005860154620045db565b601f811162004179575b50602090601f831160011462004105578b92620040f9575b50508160011b916000199060031b1c19161760058301555b60408101518051906001600160401b0382116200402e578190620032216006860154620045db565b601f8111620040c2575b50602090601f83116001146200404e578b9262004042575b50508160011b916000199060031b1c19161760068301555b60608101518051906001600160401b0382116200402e57620032816007850154620045db565b601f811162003ff7575b50602090601f831160011462003f81576101609392918b918362003f75575b50508160011b916000199060031b1c19161760078401555b6080810151600884015560a0810151600984015560c0810151600a84015560e0810151600b840155610100810151600c840155610120810151600d840155610140810151600e8401550151600f82015560a08201518051906001600160401b03821162003adf5781906200333a6010850154620045db565b601f811162003f3e575b50602090601f831160011462003eca578a9262003ebe575b50508160011b916000199060031b1c19161760108201555b60c08201518051906001600160401b03821162003adf57600160401b821162003adf57602090601184015483601186015580841062003e64575b5001906011830189526020892090895b8160051c811062003e225750601f19811680820362003dcf575b5050505060e08201518051906001600160401b03821162003adf578190620034046012850154620045db565b601f811162003d98575b50602090601f831160011462003d24578a9262003d18575b50508160011b916000199060031b1c19161760128201555b6101008201518051906001600160401b03821162003adf578190620034676013850154620045db565b601f811162003ce1575b50602090601f831160011462003c6d578a9262003c61575b50508160011b916000199060031b1c19161760138201555b6101208201518051906001600160401b03821162003adf578190620034ca6014850154620045db565b601f811162003c2a575b50602090601f831160011462003bb6578a9262003baa575b50508160011b916000199060031b1c19161760148201555b6101408201518051906001600160401b03821162003adf5781906200352d6015850154620045db565b601f811162003b73575b50602090601f831160011462003aff578a9262003af3575b50508160011b916000199060031b1c19161760158201555b6101608201518051906001600160401b03821162003adf576200358e6016840154620045db565b601f811162003a9c575b50602090601f831160011462003a275760179392918a918362003a1b575b50508160011b916000199060031b1c19161760168201555b019061018081015115159060ff61ff006101a08554930151151560081b1692169061ffff191617179055600f54600160401b811015620039b6576001810180600f55811015620039a257600f86527f8d1108e10bcb7c27dddfc02ed9d693a074039d026cf4ea4240b40f7d581ac8020180546001600160a01b0319166001600160a01b0385811691909117909155336000818152600c6020526040902054879392160362003889576200373d604091338452600c6020526200369e60018060a01b038716600185872001620048b3565b600f5483518181529095620036fc918391906001600160a01b038b811691908b16907f714aa39317ad9a7a7a99db52b44490da5d068a0b2710fffb1a1282ad3cadae1f90602090a36002546001600160a01b03908116911662004a74565b60025483516373a9c2c560e11b815260048101929092526001600160a01b038781166024840152306044840152919485939190921691839182906064820190565b03925af1801562000e9f5762003866575b506040516370a0823160e01b81523060048201526020816024816001600160a01b0387165afa90811562000e9f5785916200382d575b5060405163a9059cbb60e01b81523360048201526024810191909152602081604481886001600160a01b0388165af1801562000e9f579062003805929162003809575b50600160008051602062005c9483398151915255604080516001600160a01b0394851681529490931660208501529183019190915281906060820190565b0390f35b620038259060203d60201162000de65762000dd5818362004518565b5084620037c7565b90506020813d6020116200385d575b816200384b6020938362004518565b8101031262001ce45751602062003784565b3d91506200383c565b620038829060403d604011620024db57620024c6818362004518565b506200374e565b90506040516200389981620044e8565b3381526020810160608152338752600c602052604087209160018060a01b039051166001600160601b0360a01b83541617825551908151916001600160401b03831162003a0757600160401b831162003a07576020600191828401548584860155808610620039e8575b50019101875260208720875b838110620039ca5750505050600d54600160401b811015620039b6576001810180600d55811015620039a2577fd7b6990105719101dabeb77144f2a3385c8033acd3af97e9423a695e81ad1eb50180546001600160a01b031916339081179091558552600c602052604080862086926200373d916200399c906001600160a01b03881690600101620048b3565b6200369e565b634e487b7160e01b86526032600452602486fd5b634e487b7160e01b86526041600452602486fd5b82516001600160a01b0316818301556020909201916001016200390f565b8484018b52828b2062003a009181019087016200489a565b3862003903565b634e487b7160e01b88526041600452602488fd5b015190503880620035b6565b90601684018a5260208a20918a5b601f198516811062003a83575091839160019360179695601f1981161062003a69575b505050811b016016820155620035ce565b015160001960f88460031b161c1916905538808062003a58565b9192602060018192868501518155019401920162003a35565b62003acd90601685018b5260208b20601f850160051c8101916020861062003ad4575b601f0160051c01906200489a565b3862003598565b909150819062003abf565b634e487b7160e01b89526041600452602489fd5b0151905038806200354f565b9250601584018a5260208a20908a935b601f198416851062003b57576001945083601f1981161062003b3d575b505050811b01601582015562003567565b015160001960f88460031b161c1916905538808062003b2c565b8181015183556020948501946001909301929091019062003b0f565b62003ba390601586018c5260208c20601f850160051c8101916020861062003ad457601f0160051c01906200489a565b3862003537565b015190503880620034ec565b9250601484018a5260208a20908a935b601f198416851062003c0e576001945083601f1981161062003bf4575b505050811b01601482015562003504565b015160001960f88460031b161c1916905538808062003be3565b8181015183556020948501946001909301929091019062003bc6565b62003c5a90601486018c5260208c20601f850160051c8101916020861062003ad457601f0160051c01906200489a565b38620034d4565b01519050388062003489565b9250601384018a5260208a20908a935b601f198416851062003cc5576001945083601f1981161062003cab575b505050811b016013820155620034a1565b015160001960f88460031b161c1916905538808062003c9a565b8181015183556020948501946001909301929091019062003c7d565b62003d1190601386018c5260208c20601f850160051c8101916020861062003ad457601f0160051c01906200489a565b3862003471565b01519050388062003426565b9250601284018a5260208a20908a935b601f198416851062003d7c576001945083601f1981161062003d62575b505050811b0160128201556200343e565b015160001960f88460031b161c1916905538808062003d51565b8181015183556020948501946001909301929091019062003d34565b62003dc890601286018c5260208c20601f850160051c8101916020861062003ad457601f0160051c01906200489a565b386200340e565b928a938b5b818403811062003df05750505060051c015538808080620033d8565b909194602062003e176001928460ff8a5116919060ff809160031b9316831b921b19161790565b960192910162003dd4565b8a8b5b6020811062003e3c575083820155600101620033be565b855190959160019160209160ff60038a901b81811b199092169216901b179201950162003e25565b62003e9590601186018c52601f848d20918187168062003e9c575b500160051c810190601f860160051c016200489a565b38620033ae565b6000199081848a0160051c86010191825491890360031b1c1690553862003e7f565b0151905038806200335c565b9250601084018a5260208a20908a935b601f198416851062003f22576001945083601f1981161062003f08575b505050811b01601082015562003374565b015160001960f88460031b161c1916905538808062003ef7565b8181015183556020948501946001909301929091019062003eda565b62003f6e90601086018c5260208c20601f850160051c8101916020861062003ad457601f0160051c01906200489a565b3862003344565b015190503880620032aa565b90600785018b5260208b20918b5b601f198516811062003fde57509183916001936101609695601f1981161062003fc4575b505050811b016007840155620032c2565b015160001960f88460031b161c1916905538808062003fb3565b9192602060018192868501518155019401920162003f8f565b6200402790600786018c5260208c20601f850160051c8101916020861062003ad457601f0160051c01906200489a565b386200328b565b634e487b7160e01b8a52604160045260248afd5b01519050388062003243565b9250600685018b5260208b20908b935b601f1984168510620040a6576001945083601f198116106200408c575b505050811b0160068301556200325b565b015160001960f88460031b161c191690553880806200407b565b818101518355602094850194600190930192909101906200405e565b620040f290600687018d5260208d20601f850160051c8101916020861062003ad457601f0160051c01906200489a565b386200322b565b015190503880620031e1565b9250600585018b5260208b20908b935b601f19841685106200415d576001945083601f1981161062004143575b505050811b016005830155620031f9565b015160001960f88460031b161c1916905538808062004132565b8181015183556020948501946001909301929091019062004115565b620041a990600587018d5260208d20601f850160051c8101916020861062003ad457601f0160051c01906200489a565b38620031c9565b50634e487b7160e01b8f52601160045260248ffd5b620041e19060403d604011620024db57620024c6818362004518565b5062002f9c565b8f604051903d90823e3d90fd5b634e487b7160e01b8e52601160045260248efd5b634e487b7160e01b8d52601160045260248dfd5b634e487b7160e01b8d52601260045260248dfd5b6200424f919b5060203d60201162000e975762000e87818362004518565b993862002ed5565b6040513d8e823e3d90fd5b995090506020893d6020116200429a575b81620042826020938362004518565b810103126200429657899851903862002e8f565b8a80fd5b3d915062004273565b6040513d8d823e3d90fd5b6040513d8b823e3d90fd5b634e487b7160e01b8d52604160045260248dfd5b60405162461bcd60e51b8152602060048201526013602482015272125b9cdd59999a58da595b9d08185b5bdd5b9d606a1b6044820152606490fd5b90506020813d6020116200433b575b81620043266020938362004518565b810103126200433757513862002d82565b8980fd5b3d915062004317565b6040513d8c823e3d90fd5b6200436d91965060203d60201162000e975762000e87818362004518565b943862002d4c565b60405162461bcd60e51b815260206004820152602860248201527f507572636861736520616d6f756e74206d7573742062652067726561746572206044820152677468616e2066656560c01b6064820152608490fd5b604051633ee5aeb560e01b8152600490fd5b6001600160401b0382351162004411576020809162004405366004863560a43501016200453a565b81520191019062002ccb565b8880fd5b823560ff8116810362000e115781526020928301920162002c37565b8680fd5b503462000198578060031936011262000198576020600354604051908152f35b503462000198576020366003190112620001985762004473620049ec565b60043560065580f35b608081019081106001600160401b038211176200449857604052565b634e487b7160e01b600052604160045260246000fd5b61018081019081106001600160401b038211176200449857604052565b6101c081019081106001600160401b038211176200449857604052565b604081019081106001600160401b038211176200449857604052565b6001600160401b0381116200449857604052565b90601f801991011681019081106001600160401b038211176200449857604052565b81601f82011215620006af578035906001600160401b03821162004498576040519262004572601f8401601f19166020018562004518565b82845260208383010111620006af57816000926020809301838601378301015290565b6001600160401b038111620044985760051b60200190565b602435906001600160a01b0382168203620006af57565b600435906001600160a01b0382168203620006af57565b90600182811c921680156200460d575b6020831014620045f757565b634e487b7160e01b600052602260045260246000fd5b91607f1691620045eb565b8054600093926200462982620045db565b9182825260209360019160018116908160001462004696575060011462004652575b5050505050565b90939495506000929192528360002092846000945b83861062004681575050505001019038808080806200464b565b80548587018301529401938590820162004667565b60ff19168685015250505090151560051b0101915038808080806200464b565b90604051620046c581620044ae565b610160600b829460018060a01b038154168452604051620046ef81620009f5816001860162004618565b60208501526040516200470b81620009f5816002860162004618565b60408501526040516200472781620009f5816003860162004618565b606085015260048101546080850152600581015460a0850152600681015460c0850152600781015460e085015260088101546101008501526009810154610120850152600a8101546101408501520154910152565b60005b838110620047905750506000910152565b81810151838201526020016200477f565b90602091620047bc815180928185528580860191016200477c565b601f01601f1916010190565b90816020910312620006af57516001600160a01b0381168103620006af5790565b91908203918211620047f757565b634e487b7160e01b600052601160045260246000fd5b906200484c60246040518094630333ab7160e51b60208301526200483b81518092602086860191016200477c565b810103600481018552018362004518565b565b81810292918115918404141715620047f757565b81156200486d570490565b634e487b7160e01b600052601260045260246000fd5b9190826040910312620006af576020825192015190565b818110620048a6575050565b600081556001016200489a565b805490600160401b821015620044985760018201808255821015620048f7576000526020600020019060018060a01b03166001600160601b0360a01b825416179055565b634e487b7160e01b600052603260045260246000fd5b90816020910312620006af57518015158103620006af5790565b156200492f57565b60405162461bcd60e51b8152602060048201526011602482015270546f6b656e206e6f742074726164696e6760781b6044820152606490fd5b91908201809211620047f757565b6001600160a01b03908116908115620049d35760008051602062005c7483398151915280546001600160a01b031981168417909155167f8be0079c531659141344cd1fd0a4f28419497f9722a3daafe3b4186f6b6457e0600080a3565b604051631e4fbdf760e01b815260006004820152602490fd5b60008051602062005c74833981519152546001600160a01b0316330362004a0f57565b60405163118cdaa760e01b8152336004820152602490fd5b6040516323b872dd60e01b60208201526001600160a01b0392831660248201529290911660448301526064808301939093529181526200484c9162004a6e60848362004518565b62004b74565b60405163095ea7b360e01b60208083018281526001600160a01b0386166024850152604480850197909752958352909491939160009062004ab760648762004518565b85519082865af16000513d8262004b1f575b50501562004ad8575b50505050565b62004b159362004a6e9160405191602083015260018060a01b03166024820152600060448201526044815262004b0e816200447c565b8262004b74565b3880808062004ad2565b90915062004b3e57506001600160a01b0382163b15155b388062004ac9565b60011462004b36565b90816020910312620006af575160ff81168103620006af5790565b60ff16604d8111620047f757600a0a90565b906000602091828151910182855af11562004bd4576000513d62004bca57506001600160a01b0381163b155b62004ba85750565b604051635274afe760e01b81526001600160a01b039091166004820152602490fd5b6001141562004ba0565b6040513d6000823e3d90fd5b60ff7ff0c57e16840df040f15088dc2f81fe391c3923bec73e23a9662efc9c229c6a005460401c161562004c1057565b604051631afcd79f60e31b8152600490fdfe604060808152346200043c5762001051803803806200001e8162000441565b92833981016080828203126200043c5781516001600160401b0391908281116200043c5781620000509185016200047d565b60209182850151908482116200043c576200006d9186016200047d565b93606086820151910151943315620004245760008054336001600160a01b0319821681178355919691906001600160a01b03167f8be0079c531659141344cd1fd0a4f28419497f9722a3daafe3b4186f6b6457e08880a383518181116200033f57600254906001958683811c9316801562000419575b8884101462000320578190601f93848111620003c5575b5088908483116001146200035f578a9262000353575b5050600019600383901b1c191690861b176002555b82519182116200033f5760039283548681811c9116801562000334575b88821014620003205790818385949311620002cb575b5087918311600114620002685788926200025c575b505060001982841b1c191690841b1790555b670de0b6b3a764000090818102918183041490151715620002485780825533845260068352858420556008825284832060ff1990828282541617905530845281868520918254161790558360045554928381028181048514821517156200024857827fddf252ad1be2c89b69c2b068fc378daa952ba7f163c4a11628f55a4df523b3ef939260647fff3dd5e80294197918c284bbfc3dadd97d0b40ce92106110946329088f80068a93046005558751908152a184519384523393a351610b619081620004f08239f35b634e487b7160e01b84526011600452602484fd5b0151905038806200016d565b8489528789208794509190601f1984168a5b8a828210620002b457505084116200029b575b505050811b0190556200017f565b015160001983861b60f8161c191690553880806200028d565b8385015186558a979095019493840193016200027a565b909192508489528789208380860160051c8201928a871062000316575b9186958a929594930160051c01915b8281106200030757505062000158565b8b8155869550899101620002f7565b92508192620002e8565b634e487b7160e01b89526022600452602489fd5b90607f169062000142565b634e487b7160e01b87526041600452602487fd5b01519050388062000110565b60028b52898b208994509190601f1984168c5b8c828210620003ae575050841162000394575b505050811b0160025562000125565b015160001960f88460031b161c1916905538808062000385565b8385015186558c9790950194938401930162000372565b90915060028a52888a208480850160051c8201928b86106200040f575b918a91869594930160051c01915b82811062000400575050620000fa565b8c81558594508a9101620003f0565b92508192620003e2565b92607f1692620000e3565b8651631e4fbdf760e01b815260006004820152602490fd5b600080fd5b6040519190601f01601f191682016001600160401b038111838210176200046757604052565b634e487b7160e01b600052604160045260246000fd5b919080601f840112156200043c5782516001600160401b0381116200046757602090620004b3601f8201601f1916830162000441565b928184528282870101116200043c5760005b818110620004db57508260009394955001015290565b8581018301518482018401528201620004c556fe6080604081815260048036101561001557600080fd5b600092833560e01c90816306fdde031461067857508063095ea7b31461064e57806318160ddd1461062f57806323b872dd146105cb578063313ce567146105af57806370a0823114610577578063715018a61461051a5780637437681e146104fd57806379cc6790146104435780638da5cb5b1461041b57806395d89b41146102f7578063a9059cbb146102c6578063c2d0ffca1461024a578063db4cf1e0146101a9578063dd62ed3e1461015c5763f2fde38b146100d357600080fd5b34610158576020366003190112610158576100ec6107b8565b906100f5610aff565b6001600160a01b0391821692831561014257505082546001600160a01b0319811683178455167f8be0079c531659141344cd1fd0a4f28419497f9722a3daafe3b4186f6b6457e08380a380f35b51631e4fbdf760e01b8152908101849052602490fd5b8280fd5b5050346101a557806003193601126101a5578060209261017a6107b8565b6101826107d3565b6001600160a01b0391821683526007865283832091168252845220549051908152f35b5080fd5b5034610158576020366003190112610158576101c36107b8565b6101cb610aff565b6001600160a01b03169081156101f35750825260086020528120805460ff1916600117905580f35b608490602084519162461bcd60e51b8352820152602b60248201527f45524332303a204578636c756465204d61782054782066726f6d20746865207a60448201526a65726f206164647265737360a81b6064820152fd5b509190346101a55760203660031901126101a557823590610269610aff565b8184556001548083029083820414831517156102b3579160209160647fff3dd5e80294197918c284bbfc3dadd97d0b40ce92106110946329088f80068a940460055551908152a180f35b634e487b7160e01b845260118552602484fd5b5050346101a557806003193601126101a5576020906102f06102e66107b8565b602435903361090e565b5160018152f35b509190346101a557816003193601126101a5578051908260035460018160011c9060018316928315610411575b60209384841081146103fe578388529081156103e2575060011461038c575b505050829003601f01601f191682019267ffffffffffffffff841183851017610379575082918261037592528261076f565b0390f35b634e487b7160e01b815260418552602490fd5b600387529192508591837fc2575a0e9e593c00f959f8c92f12db2869c3395a3b0502d05e2516446f71f85b5b8385106103ce5750505050830101388080610343565b8054888601830152930192849082016103b8565b60ff1916878501525050151560051b8401019050388080610343565b634e487b7160e01b895260228a52602489fd5b91607f1691610324565b5050346101a557816003193601126101a557905490516001600160a01b039091168152602090f35b508290346101a557826003193601126101a55761045e6107b8565b6024359061046a610aff565b6001600160a01b03169182156104c8575060207fddf252ad1be2c89b69c2b068fc378daa952ba7f163c4a11628f55a4df523b3ef918495848652600683526104b582828820546107e9565b858752600684528187205551908152a380f35b606490602086519162461bcd60e51b8352820152600f60248201526e496e76616c6964206164647265737360881b6044820152fd5b503461015857826003193601126101585760209250549051908152f35b8334610574578060031936011261057457610533610aff565b80546001600160a01b03198116825581906001600160a01b03167f8be0079c531659141344cd1fd0a4f28419497f9722a3daafe3b4186f6b6457e08280a380f35b80fd5b5050346101a55760203660031901126101a55760209181906001600160a01b0361059f6107b8565b1681526006845220549051908152f35b5050346101a557816003193601126101a5576020905160128152f35b5050346101a55760603660031901126101a5576102f06020926106276105ef6107b8565b91846105f96107d3565b9161060860443580948761090e565b6001600160a01b038516815260078852818120338252885220546107e9565b90339061080c565b5050346101a557816003193601126101a5576020906001549051908152f35b5050346101a557806003193601126101a5576020906102f061066e6107b8565b602435903361080c565b84915083346101585782600319360112610158578260025460018160011c9060018316928315610765575b60209384841081146103fe5783885290811561074957506001146106f357505050829003601f01601f191682019267ffffffffffffffff841183851017610379575082918261037592528261076f565b600287529192508591837f405787fa12a823e0f2b7631cc41b3ba8828b3321ca811111fa75cd3aa3bb5ace5b8385106107355750505050830101858080610343565b80548886018301529301928490820161071f565b60ff1916878501525050151560051b8401019050858080610343565b91607f16916106a3565b6020808252825181830181905290939260005b8281106107a457505060409293506000838284010152601f8019910116010190565b818101860151848201604001528501610782565b600435906001600160a01b03821682036107ce57565b600080fd5b602435906001600160a01b03821682036107ce57565b919082039182116107f657565b634e487b7160e01b600052601160045260246000fd5b6001600160a01b039081169182156108bd571691821561086d5760207f8c5be1e5ebec7d5bd14f71427d1e84f3dd0314c0f7b2291e5b200ac8c7c3b925918360005260078252604060002085600052825280604060002055604051908152a3565b60405162461bcd60e51b815260206004820152602260248201527f45524332303a20617070726f766520746f20746865207a65726f206164647265604482015261737360f01b6064820152608490fd5b60405162461bcd60e51b8152602060048201526024808201527f45524332303a20617070726f76652066726f6d20746865207a65726f206164646044820152637265737360e01b6064820152608490fd5b9192916001600160a01b03908116918215610aac5716908115610a5b578315610a045760009381855260209060088252604060ff8188205416156109c7575b8387526006835261096182828920546107e9565b8488526006845281882055848752808720548281018091116109b3578188877fddf252ad1be2c89b69c2b068fc378daa952ba7f163c4a11628f55a4df523b3ef9798999a5260068652205551908152a3565b634e487b7160e01b88526011600452602488fd5b60055482111561094d575162461bcd60e51b815260048101839052600d60248201526c08af0c6cacac8e6409ac2f0a8f609b1b6044820152606490fd5b60405162461bcd60e51b815260206004820152602960248201527f5472616e7366657220616d6f756e74206d7573742062652067726561746572206044820152687468616e207a65726f60b81b6064820152608490fd5b60405162461bcd60e51b815260206004820152602360248201527f45524332303a207472616e7366657220746f20746865207a65726f206164647260448201526265737360e81b6064820152608490fd5b60405162461bcd60e51b815260206004820152602560248201527f45524332303a207472616e736665722066726f6d20746865207a65726f206164604482015264647265737360d81b6064820152608490fd5b6000546001600160a01b03163303610b1357565b60405163118cdaa760e01b8152336004820152602490fdfea2646970667358221220316e638fd9e67ebfef6fcd1d5c6f111252bc76d636a56cf831dfe894478e035864736f6c634300081600339016d09d72d40fdae2fd8ceac6b6234c7706214fd39c1cd1e609a0528c1993009b779b17422d0df92223018b32b4d1fa46e071723d6817e2486d003becc55f00a26469706673582212203644c7af8af0fa95f5f497553fd15e830d034fedde0317b1aa5fb97e1a68c15464736f6c63430008160033",
  "linkReferences": {},
  "deployedLinkReferences": {}
}