{
  "_format": "hh-sol-artifact-1",
  "contractName": "FERC20",
  "sourceName": "contracts/fun/FERC20.sol",
  "abi": [
    {
      "inputs": [
        {
          "internalType": "string",
          "name": "name_",
          "type": "string"
        },
        {
          "internalType": "string",
          "name": "symbol_",
          "type": "string"
        },
        {
          "internalType": "uint256",
          "name": "supply",
          "type": "uint256"
        },
        {
          "internalType": "uint256",
          "name": "_maxTx",
          "type": "uint256"
        }
      ],
      "stateMutability": "nonpayable",
      "type": "constructor"
    },
    {
      "inputs": [
        {
          "internalType": "address",
          "name": "owner",
          "type": "address"
        }
      ],
      "name": "OwnableInvalidOwner",
      "type": "error"
    },
    {
      "inputs": [
        {
          "internalType": "address",
          "name": "account",
          "type": "address"
        }
      ],
      "name": "OwnableUnauthorizedAccount",
      "type": "error"
    },
    {
      "anonymous": false,
      "inputs": [
        {
          "indexed": true,
          "internalType": "address",
          "name": "owner",
          "type": "address"
        },
        {
          "indexed": true,
          "internalType": "address",
          "name": "spender",
          "type": "address"
        },
        {
          "indexed": false,
          "internalType": "uint256",
          "name": "value",
          "type": "uint256"
        }
      ],
      "name": "Approval",
      "type": "event"
    },
    {
      "anonymous": false,
      "inputs": [
        {
          "indexed": false,
          "internalType": "uint256",
          "name": "_maxTx",
          "type": "uint256"
        }
      ],
      "name": "MaxTxUpdated",
      "type": "event"
    },
    {
      "anonymous": false,
      "inputs": [
        {
          "indexed": true,
          "internalType": "address",
          "name": "previousOwner",
          "type": "address"
        },
        {
          "indexed": true,
          "internalType": "address",
          "name": "newOwner",
          "type": "address"
        }
      ],
      "name": "OwnershipTransferred",
      "type": "event"
    },
    {
      "anonymous": false,
      "inputs": [
        {
          "indexed": true,
          "internalType": "address",
          "name": "from",
          "type": "address"
        },
        {
          "indexed": true,
          "internalType": "address",
          "name": "to",
          "type": "address"
        },
        {
          "indexed": false,
          "internalType": "uint256",
          "name": "value",
          "type": "uint256"
        }
      ],
      "name": "Transfer",
      "type": "event"
    },
    {
      "inputs": [
        {
          "internalType": "address",
          "name": "owner",
          "type": "address"
        },
        {
          "internalType": "address",
          "name": "spender",
          "type": "address"
        }
      ],
      "name": "allowance",
      "outputs": [
        {
          "internalType": "uint256",
          "name": "",
          "type": "uint256"
        }
      ],
      "stateMutability": "view",
      "type": "function"
    },
    {
      "inputs": [
        {
          "internalType": "address",
          "name": "spender",
          "type": "address"
        },
        {
          "internalType": "uint256",
          "name": "amount",
          "type": "uint256"
        }
      ],
      "name": "approve",
      "outputs": [
        {
          "internalType": "bool",
          "name": "",
          "type": "bool"
        }
      ],
      "stateMutability": "nonpayable",
      "type": "function"
    },
    {
      "inputs": [
        {
          "internalType": "address",
          "name": "account",
          "type": "address"
        }
      ],
      "name": "balanceOf",
      "outputs": [
        {
          "internalType": "uint256",
          "name": "",
          "type": "uint256"
        }
      ],
      "stateMutability": "view",
      "type": "function"
    },
    {
      "inputs": [
        {
          "internalType": "address",
          "name": "user",
          "type": "address"
        },
        {
          "internalType": "uint256",
          "name": "amount",
          "type": "uint256"
        }
      ],
      "name": "burnFrom",
      "outputs": [],
      "stateMutability": "nonpayable",
      "type": "function"
    },
    {
      "inputs": [],
      "name": "decimals",
      "outputs": [
        {
          "internalType": "uint8",
          "name": "",
          "type": "uint8"
        }
      ],
      "stateMutability": "pure",
      "type": "function"
    },
    {
      "inputs": [
        {
          "internalType": "address",
          "name": "user",
          "type": "address"
        }
      ],
      "name": "excludeFromMaxTx",
      "outputs": [],
      "stateMutability": "nonpayable",
      "type": "function"
    },
    {
      "inputs": [],
      "name": "maxTx",
      "outputs": [
        {
          "internalType": "uint256",
          "name": "",
          "type": "uint256"
        }
      ],
      "stateMutability": "view",
      "type": "function"
    },
    {
      "inputs": [],
      "name": "name",
      "outputs": [
        {
          "internalType": "string",
          "name": "",
          "type": "string"
        }
      ],
      "stateMutability": "view",
      "type": "function"
    },
    {
      "inputs": [],
      "name": "owner",
      "outputs": [
        {
          "internalType": "address",
          "name": "",
          "type": "address"
        }
      ],
      "stateMutability": "view",
      "type": "function"
    },
    {
      "inputs": [],
      "name": "renounceOwnership",
      "outputs": [],
      "stateMutability": "nonpayable",
      "type": "function"
    },
    {
      "inputs": [],
      "name": "symbol",
      "outputs": [
        {
          "internalType": "string",
          "name": "",
          "type": "string"
        }
      ],
      "stateMutability": "view",
      "type": "function"
    },
    {
      "inputs": [],
      "name": "totalSupply",
      "outputs": [
        {
          "internalType": "uint256",
          "name": "",
          "type": "uint256"
        }
      ],
      "stateMutability": "view",
      "type": "function"
    },
    {
      "inputs": [
        {
          "internalType": "address",
          "name": "recipient",
          "type": "address"
        },
        {
          "internalType": "uint256",
          "name": "amount",
          "type": "uint256"
        }
      ],
      "name": "transfer",
      "outputs": [
        {
          "internalType": "bool",
          "name": "",
          "type": "bool"
        }
      ],
      "stateMutability": "nonpayable",
      "type": "function"
    },
    {
      "inputs": [
        {
          "internalType": "address",
          "name": "sender",
          "type": "address"
        },
        {
          "internalType": "address",
          "name": "recipient",
          "type": "address"
        },
        {
          "internalType": "uint256",
          "name": "amount",
          "type": "uint256"
        }
      ],
      "name": "transferFrom",
      "outputs": [
        {
          "internalType": "bool",
          "name": "",
          "type": "bool"
        }
      ],
      "stateMutability": "nonpayable",
      "type": "function"
    },
    {
      "inputs": [
        {
          "internalType": "address",
          "name": "newOwner",
          "type": "address"
        }
      ],
      "name": "transferOwnership",
      "outputs": [],
      "stateMutability": "nonpayable",
      "type": "function"
    },
    {
      "inputs": [
        {
          "internalType": "uint256",
          "name": "_maxTx",
          "type": "uint256"
        }
      ],
      "name": "updateMaxTx",
      "outputs": [],
      "stateMutability": "nonpayable",
      "type": "function"
    }
  ],
  "bytecode": "0x604060808152346200043c5762001051803803806200001e8162000441565b92833981016080828203126200043c5781516001600160401b0391908281116200043c5781620000509185016200047d565b60209182850151908482116200043c576200006d9186016200047d565b93606086820151910151943315620004245760008054336001600160a01b0319821681178355919691906001600160a01b03167f8be0079c531659141344cd1fd0a4f28419497f9722a3daafe3b4186f6b6457e08880a383518181116200033f57600254906001958683811c9316801562000419575b8884101462000320578190601f93848111620003c5575b5088908483116001146200035f578a9262000353575b5050600019600383901b1c191690861b176002555b82519182116200033f5760039283548681811c9116801562000334575b88821014620003205790818385949311620002cb575b5087918311600114620002685788926200025c575b505060001982841b1c191690841b1790555b670de0b6b3a764000090818102918183041490151715620002485780825533845260068352858420556008825284832060ff1990828282541617905530845281868520918254161790558360045554928381028181048514821517156200024857827fddf252ad1be2c89b69c2b068fc378daa952ba7f163c4a11628f55a4df523b3ef939260647fff3dd5e80294197918c284bbfc3dadd97d0b40ce92106110946329088f80068a93046005558751908152a184519384523393a351610b619081620004f08239f35b634e487b7160e01b84526011600452602484fd5b0151905038806200016d565b8489528789208794509190601f1984168a5b8a828210620002b457505084116200029b575b505050811b0190556200017f565b015160001983861b60f8161c191690553880806200028d565b8385015186558a979095019493840193016200027a565b909192508489528789208380860160051c8201928a871062000316575b9186958a929594930160051c01915b8281106200030757505062000158565b8b8155869550899101620002f7565b92508192620002e8565b634e487b7160e01b89526022600452602489fd5b90607f169062000142565b634e487b7160e01b87526041600452602487fd5b01519050388062000110565b60028b52898b208994509190601f1984168c5b8c828210620003ae575050841162000394575b505050811b0160025562000125565b015160001960f88460031b161c1916905538808062000385565b8385015186558c9790950194938401930162000372565b90915060028a52888a208480850160051c8201928b86106200040f575b918a91869594930160051c01915b82811062000400575050620000fa565b8c81558594508a9101620003f0565b92508192620003e2565b92607f1692620000e3565b8651631e4fbdf760e01b815260006004820152602490fd5b600080fd5b6040519190601f01601f191682016001600160401b038111838210176200046757604052565b634e487b7160e01b600052604160045260246000fd5b919080601f840112156200043c5782516001600160401b0381116200046757602090620004b3601f8201601f1916830162000441565b928184528282870101116200043c5760005b818110620004db57508260009394955001015290565b8581018301518482018401528201620004c556fe6080604081815260048036101561001557600080fd5b600092833560e01c90816306fdde031461067857508063095ea7b31461064e57806318160ddd1461062f57806323b872dd146105cb578063313ce567146105af57806370a0823114610577578063715018a61461051a5780637437681e146104fd57806379cc6790146104435780638da5cb5b1461041b57806395d89b41146102f7578063a9059cbb146102c6578063c2d0ffca1461024a578063db4cf1e0146101a9578063dd62ed3e1461015c5763f2fde38b146100d357600080fd5b34610158576020366003190112610158576100ec6107b8565b906100f5610aff565b6001600160a01b0391821692831561014257505082546001600160a01b0319811683178455167f8be0079c531659141344cd1fd0a4f28419497f9722a3daafe3b4186f6b6457e08380a380f35b51631e4fbdf760e01b8152908101849052602490fd5b8280fd5b5050346101a557806003193601126101a5578060209261017a6107b8565b6101826107d3565b6001600160a01b0391821683526007865283832091168252845220549051908152f35b5080fd5b5034610158576020366003190112610158576101c36107b8565b6101cb610aff565b6001600160a01b03169081156101f35750825260086020528120805460ff1916600117905580f35b608490602084519162461bcd60e51b8352820152602b60248201527f45524332303a204578636c756465204d61782054782066726f6d20746865207a60448201526a65726f206164647265737360a81b6064820152fd5b509190346101a55760203660031901126101a557823590610269610aff565b8184556001548083029083820414831517156102b3579160209160647fff3dd5e80294197918c284bbfc3dadd97d0b40ce92106110946329088f80068a940460055551908152a180f35b634e487b7160e01b845260118552602484fd5b5050346101a557806003193601126101a5576020906102f06102e66107b8565b602435903361090e565b5160018152f35b509190346101a557816003193601126101a5578051908260035460018160011c9060018316928315610411575b60209384841081146103fe578388529081156103e2575060011461038c575b505050829003601f01601f191682019267ffffffffffffffff841183851017610379575082918261037592528261076f565b0390f35b634e487b7160e01b815260418552602490fd5b600387529192508591837fc2575a0e9e593c00f959f8c92f12db2869c3395a3b0502d05e2516446f71f85b5b8385106103ce5750505050830101388080610343565b8054888601830152930192849082016103b8565b60ff1916878501525050151560051b8401019050388080610343565b634e487b7160e01b895260228a52602489fd5b91607f1691610324565b5050346101a557816003193601126101a557905490516001600160a01b039091168152602090f35b508290346101a557826003193601126101a55761045e6107b8565b6024359061046a610aff565b6001600160a01b03169182156104c8575060207fddf252ad1be2c89b69c2b068fc378daa952ba7f163c4a11628f55a4df523b3ef918495848652600683526104b582828820546107e9565b858752600684528187205551908152a380f35b606490602086519162461bcd60e51b8352820152600f60248201526e496e76616c6964206164647265737360881b6044820152fd5b503461015857826003193601126101585760209250549051908152f35b8334610574578060031936011261057457610533610aff565b80546001600160a01b03198116825581906001600160a01b03167f8be0079c531659141344cd1fd0a4f28419497f9722a3daafe3b4186f6b6457e08280a380f35b80fd5b5050346101a55760203660031901126101a55760209181906001600160a01b0361059f6107b8565b1681526006845220549051908152f35b5050346101a557816003193601126101a5576020905160128152f35b5050346101a55760603660031901126101a5576102f06020926106276105ef6107b8565b91846105f96107d3565b9161060860443580948761090e565b6001600160a01b038516815260078852818120338252885220546107e9565b90339061080c565b5050346101a557816003193601126101a5576020906001549051908152f35b5050346101a557806003193601126101a5576020906102f061066e6107b8565b602435903361080c565b84915083346101585782600319360112610158578260025460018160011c9060018316928315610765575b60209384841081146103fe5783885290811561074957506001146106f357505050829003601f01601f191682019267ffffffffffffffff841183851017610379575082918261037592528261076f565b600287529192508591837f405787fa12a823e0f2b7631cc41b3ba8828b3321ca811111fa75cd3aa3bb5ace5b8385106107355750505050830101858080610343565b80548886018301529301928490820161071f565b60ff1916878501525050151560051b8401019050858080610343565b91607f16916106a3565b6020808252825181830181905290939260005b8281106107a457505060409293506000838284010152601f8019910116010190565b818101860151848201604001528501610782565b600435906001600160a01b03821682036107ce57565b600080fd5b602435906001600160a01b03821682036107ce57565b919082039182116107f657565b634e487b7160e01b600052601160045260246000fd5b6001600160a01b039081169182156108bd571691821561086d5760207f8c5be1e5ebec7d5bd14f71427d1e84f3dd0314c0f7b2291e5b200ac8c7c3b925918360005260078252604060002085600052825280604060002055604051908152a3565b60405162461bcd60e51b815260206004820152602260248201527f45524332303a20617070726f766520746f20746865207a65726f206164647265604482015261737360f01b6064820152608490fd5b60405162461bcd60e51b8152602060048201526024808201527f45524332303a20617070726f76652066726f6d20746865207a65726f206164646044820152637265737360e01b6064820152608490fd5b9192916001600160a01b03908116918215610aac5716908115610a5b578315610a045760009381855260209060088252604060ff8188205416156109c7575b8387526006835261096182828920546107e9565b8488526006845281882055848752808720548281018091116109b3578188877fddf252ad1be2c89b69c2b068fc378daa952ba7f163c4a11628f55a4df523b3ef9798999a5260068652205551908152a3565b634e487b7160e01b88526011600452602488fd5b60055482111561094d575162461bcd60e51b815260048101839052600d60248201526c08af0c6cacac8e6409ac2f0a8f609b1b6044820152606490fd5b60405162461bcd60e51b815260206004820152602960248201527f5472616e7366657220616d6f756e74206d7573742062652067726561746572206044820152687468616e207a65726f60b81b6064820152608490fd5b60405162461bcd60e51b815260206004820152602360248201527f45524332303a207472616e7366657220746f20746865207a65726f206164647260448201526265737360e81b6064820152608490fd5b60405162461bcd60e51b815260206004820152602560248201527f45524332303a207472616e736665722066726f6d20746865207a65726f206164604482015264647265737360d81b6064820152608490fd5b6000546001600160a01b03163303610b1357565b60405163118cdaa760e01b8152336004820152602490fdfea2646970667358221220316e638fd9e67ebfef6fcd1d5c6f111252bc76d636a56cf831dfe894478e035864736f6c63430008160033",
  "linkReferences": {},
  "deployedLinkReferences": {}
}