{
  "_format": "hh-sol-artifact-1",
  "contractName": "Airdrop",
  "sourceName": "contracts/token/Airdrop.sol",
  "abi": [
    {
      "inputs": [
        {
          "internalType": "contract IERC20",
          "name": "_token",
          "type": "address"
        },
        {
          "internalType": "address[]",
          "name": "_recipients",
          "type": "address[]"
        },
        {
          "internalType": "uint256[]",
          "name": "_amounts",
          "type": "uint256[]"
        },
        {
          "internalType": "uint256",
          "name": "_total",
          "type": "uint256"
        }
      ],
      "name": "airdrop",
      "outputs": [],
      "stateMutability": "nonpayable",
      "type": "function"
    }
  ],
  "bytecode": "0x60808060405234610016576101c5908161001c8239f35b600080fdfe6080604052600436101561001257600080fd5b6000803560e01c63ac3e20891461002857600080fd5b3461009f57608036600319011261009f576004356001600160a01b038116810361009b5767ffffffffffffffff906024358281116100975761006e9036906004016100a2565b506044359283116100975761008a6100949336906004016100a2565b91606435936100d8565b80f35b8380fd5b5080fd5b80fd5b9181601f840112156100d35782359167ffffffffffffffff83116100d3576020808501948460051b0101116100d357565b600080fd5b9294936064916040519060208093838201906323b872dd60e01b82523360248601528660449530604482015201526000958691828a5af1953d1596600197600187511417161561018b5760405163a9059cbb60e01b60208201908152602482019a97909360449092019190875b89811061015b5750505050505050505050509050565b8060051b8d81850135905282013584528789888882895af13d158c8b5114171615610187578a01610145565b8880fd5b8480fdfea26469706673582212204d50076fba3ecad4d48d5b8b50a145bacdc51a36b7f3462c2e4eab42d621d0b464736f6c63430008160033",
  "linkReferences": {},
  "deployedLinkReferences": {}
}